{
	"LouNFT.sol": {
		"LouNFT": {
			"abi": [
				{
					"inputs": [
						{
							"internalType": "string",
							"name": "baseURI",
							"type": "string"
						}
					],
					"stateMutability": "nonpayable",
					"type": "constructor"
				},
				{
					"inputs": [
						{
							"internalType": "address",
							"name": "sender",
							"type": "address"
						},
						{
							"internalType": "uint256",
							"name": "tokenId",
							"type": "uint256"
						},
						{
							"internalType": "address",
							"name": "owner",
							"type": "address"
						}
					],
					"name": "ERC721IncorrectOwner",
					"type": "error"
				},
				{
					"inputs": [
						{
							"internalType": "address",
							"name": "operator",
							"type": "address"
						},
						{
							"internalType": "uint256",
							"name": "tokenId",
							"type": "uint256"
						}
					],
					"name": "ERC721InsufficientApproval",
					"type": "error"
				},
				{
					"inputs": [
						{
							"internalType": "address",
							"name": "approver",
							"type": "address"
						}
					],
					"name": "ERC721InvalidApprover",
					"type": "error"
				},
				{
					"inputs": [
						{
							"internalType": "address",
							"name": "operator",
							"type": "address"
						}
					],
					"name": "ERC721InvalidOperator",
					"type": "error"
				},
				{
					"inputs": [
						{
							"internalType": "address",
							"name": "owner",
							"type": "address"
						}
					],
					"name": "ERC721InvalidOwner",
					"type": "error"
				},
				{
					"inputs": [
						{
							"internalType": "address",
							"name": "receiver",
							"type": "address"
						}
					],
					"name": "ERC721InvalidReceiver",
					"type": "error"
				},
				{
					"inputs": [
						{
							"internalType": "address",
							"name": "sender",
							"type": "address"
						}
					],
					"name": "ERC721InvalidSender",
					"type": "error"
				},
				{
					"inputs": [
						{
							"internalType": "uint256",
							"name": "tokenId",
							"type": "uint256"
						}
					],
					"name": "ERC721NonexistentToken",
					"type": "error"
				},
				{
					"inputs": [
						{
							"internalType": "address",
							"name": "owner",
							"type": "address"
						}
					],
					"name": "OwnableInvalidOwner",
					"type": "error"
				},
				{
					"inputs": [
						{
							"internalType": "address",
							"name": "account",
							"type": "address"
						}
					],
					"name": "OwnableUnauthorizedAccount",
					"type": "error"
				},
				{
					"anonymous": false,
					"inputs": [
						{
							"indexed": true,
							"internalType": "address",
							"name": "owner",
							"type": "address"
						},
						{
							"indexed": true,
							"internalType": "address",
							"name": "approved",
							"type": "address"
						},
						{
							"indexed": true,
							"internalType": "uint256",
							"name": "tokenId",
							"type": "uint256"
						}
					],
					"name": "Approval",
					"type": "event"
				},
				{
					"anonymous": false,
					"inputs": [
						{
							"indexed": true,
							"internalType": "address",
							"name": "owner",
							"type": "address"
						},
						{
							"indexed": true,
							"internalType": "address",
							"name": "operator",
							"type": "address"
						},
						{
							"indexed": false,
							"internalType": "bool",
							"name": "approved",
							"type": "bool"
						}
					],
					"name": "ApprovalForAll",
					"type": "event"
				},
				{
					"anonymous": false,
					"inputs": [
						{
							"indexed": false,
							"internalType": "uint256",
							"name": "_fromTokenId",
							"type": "uint256"
						},
						{
							"indexed": false,
							"internalType": "uint256",
							"name": "_toTokenId",
							"type": "uint256"
						}
					],
					"name": "BatchMetadataUpdate",
					"type": "event"
				},
				{
					"anonymous": false,
					"inputs": [
						{
							"indexed": false,
							"internalType": "uint256",
							"name": "_tokenId",
							"type": "uint256"
						}
					],
					"name": "MetadataUpdate",
					"type": "event"
				},
				{
					"anonymous": false,
					"inputs": [
						{
							"indexed": true,
							"internalType": "address",
							"name": "previousOwner",
							"type": "address"
						},
						{
							"indexed": true,
							"internalType": "address",
							"name": "newOwner",
							"type": "address"
						}
					],
					"name": "OwnershipTransferred",
					"type": "event"
				},
				{
					"anonymous": false,
					"inputs": [
						{
							"indexed": true,
							"internalType": "address",
							"name": "from",
							"type": "address"
						},
						{
							"indexed": true,
							"internalType": "address",
							"name": "to",
							"type": "address"
						},
						{
							"indexed": true,
							"internalType": "uint256",
							"name": "tokenId",
							"type": "uint256"
						}
					],
					"name": "Transfer",
					"type": "event"
				},
				{
					"inputs": [],
					"name": "MAX_APES",
					"outputs": [
						{
							"internalType": "uint256",
							"name": "",
							"type": "uint256"
						}
					],
					"stateMutability": "view",
					"type": "function"
				},
				{
					"inputs": [
						{
							"internalType": "address",
							"name": "to",
							"type": "address"
						},
						{
							"internalType": "uint256",
							"name": "tokenId",
							"type": "uint256"
						}
					],
					"name": "approve",
					"outputs": [],
					"stateMutability": "nonpayable",
					"type": "function"
				},
				{
					"inputs": [
						{
							"internalType": "address",
							"name": "owner",
							"type": "address"
						}
					],
					"name": "balanceOf",
					"outputs": [
						{
							"internalType": "uint256",
							"name": "",
							"type": "uint256"
						}
					],
					"stateMutability": "view",
					"type": "function"
				},
				{
					"inputs": [
						{
							"internalType": "uint256",
							"name": "tokenId",
							"type": "uint256"
						}
					],
					"name": "getApproved",
					"outputs": [
						{
							"internalType": "address",
							"name": "",
							"type": "address"
						}
					],
					"stateMutability": "view",
					"type": "function"
				},
				{
					"inputs": [
						{
							"internalType": "address",
							"name": "owner",
							"type": "address"
						},
						{
							"internalType": "address",
							"name": "operator",
							"type": "address"
						}
					],
					"name": "isApprovedForAll",
					"outputs": [
						{
							"internalType": "bool",
							"name": "",
							"type": "bool"
						}
					],
					"stateMutability": "view",
					"type": "function"
				},
				{
					"inputs": [
						{
							"internalType": "address",
							"name": "to",
							"type": "address"
						},
						{
							"internalType": "string",
							"name": "tokenURI",
							"type": "string"
						}
					],
					"name": "mint",
					"outputs": [],
					"stateMutability": "nonpayable",
					"type": "function"
				},
				{
					"inputs": [],
					"name": "name",
					"outputs": [
						{
							"internalType": "string",
							"name": "",
							"type": "string"
						}
					],
					"stateMutability": "view",
					"type": "function"
				},
				{
					"inputs": [],
					"name": "owner",
					"outputs": [
						{
							"internalType": "address",
							"name": "",
							"type": "address"
						}
					],
					"stateMutability": "view",
					"type": "function"
				},
				{
					"inputs": [
						{
							"internalType": "uint256",
							"name": "tokenId",
							"type": "uint256"
						}
					],
					"name": "ownerOf",
					"outputs": [
						{
							"internalType": "address",
							"name": "",
							"type": "address"
						}
					],
					"stateMutability": "view",
					"type": "function"
				},
				{
					"inputs": [],
					"name": "renounceOwnership",
					"outputs": [],
					"stateMutability": "nonpayable",
					"type": "function"
				},
				{
					"inputs": [
						{
							"internalType": "address",
							"name": "from",
							"type": "address"
						},
						{
							"internalType": "address",
							"name": "to",
							"type": "address"
						},
						{
							"internalType": "uint256",
							"name": "tokenId",
							"type": "uint256"
						}
					],
					"name": "safeTransferFrom",
					"outputs": [],
					"stateMutability": "nonpayable",
					"type": "function"
				},
				{
					"inputs": [
						{
							"internalType": "address",
							"name": "from",
							"type": "address"
						},
						{
							"internalType": "address",
							"name": "to",
							"type": "address"
						},
						{
							"internalType": "uint256",
							"name": "tokenId",
							"type": "uint256"
						},
						{
							"internalType": "bytes",
							"name": "data",
							"type": "bytes"
						}
					],
					"name": "safeTransferFrom",
					"outputs": [],
					"stateMutability": "nonpayable",
					"type": "function"
				},
				{
					"inputs": [
						{
							"internalType": "address",
							"name": "operator",
							"type": "address"
						},
						{
							"internalType": "bool",
							"name": "approved",
							"type": "bool"
						}
					],
					"name": "setApprovalForAll",
					"outputs": [],
					"stateMutability": "nonpayable",
					"type": "function"
				},
				{
					"inputs": [
						{
							"internalType": "string",
							"name": "baseURI",
							"type": "string"
						}
					],
					"name": "setBaseURI",
					"outputs": [],
					"stateMutability": "nonpayable",
					"type": "function"
				},
				{
					"inputs": [
						{
							"internalType": "bytes4",
							"name": "interfaceId",
							"type": "bytes4"
						}
					],
					"name": "supportsInterface",
					"outputs": [
						{
							"internalType": "bool",
							"name": "",
							"type": "bool"
						}
					],
					"stateMutability": "view",
					"type": "function"
				},
				{
					"inputs": [],
					"name": "symbol",
					"outputs": [
						{
							"internalType": "string",
							"name": "",
							"type": "string"
						}
					],
					"stateMutability": "view",
					"type": "function"
				},
				{
					"inputs": [
						{
							"internalType": "uint256",
							"name": "tokenId",
							"type": "uint256"
						}
					],
					"name": "tokenURI",
					"outputs": [
						{
							"internalType": "string",
							"name": "",
							"type": "string"
						}
					],
					"stateMutability": "view",
					"type": "function"
				},
				{
					"inputs": [
						{
							"internalType": "address",
							"name": "from",
							"type": "address"
						},
						{
							"internalType": "address",
							"name": "to",
							"type": "address"
						},
						{
							"internalType": "uint256",
							"name": "tokenId",
							"type": "uint256"
						}
					],
					"name": "transferFrom",
					"outputs": [],
					"stateMutability": "nonpayable",
					"type": "function"
				},
				{
					"inputs": [
						{
							"internalType": "address",
							"name": "newOwner",
							"type": "address"
						}
					],
					"name": "transferOwnership",
					"outputs": [],
					"stateMutability": "nonpayable",
					"type": "function"
				}
			],
			"devdoc": {
				"errors": {
					"ERC721IncorrectOwner(address,uint256,address)": [
						{
							"details": "Indicates an error related to the ownership over a particular token. Used in transfers.",
							"params": {
								"owner": "Address of the current owner of a token.",
								"sender": "Address whose tokens are being transferred.",
								"tokenId": "Identifier number of a token."
							}
						}
					],
					"ERC721InsufficientApproval(address,uint256)": [
						{
							"details": "Indicates a failure with the `operator`’s approval. Used in transfers.",
							"params": {
								"operator": "Address that may be allowed to operate on tokens without being their owner.",
								"tokenId": "Identifier number of a token."
							}
						}
					],
					"ERC721InvalidApprover(address)": [
						{
							"details": "Indicates a failure with the `approver` of a token to be approved. Used in approvals.",
							"params": {
								"approver": "Address initiating an approval operation."
							}
						}
					],
					"ERC721InvalidOperator(address)": [
						{
							"details": "Indicates a failure with the `operator` to be approved. Used in approvals.",
							"params": {
								"operator": "Address that may be allowed to operate on tokens without being their owner."
							}
						}
					],
					"ERC721InvalidOwner(address)": [
						{
							"details": "Indicates that an address can't be an owner. For example, `address(0)` is a forbidden owner in EIP-20. Used in balance queries.",
							"params": {
								"owner": "Address of the current owner of a token."
							}
						}
					],
					"ERC721InvalidReceiver(address)": [
						{
							"details": "Indicates a failure with the token `receiver`. Used in transfers.",
							"params": {
								"receiver": "Address to which tokens are being transferred."
							}
						}
					],
					"ERC721InvalidSender(address)": [
						{
							"details": "Indicates a failure with the token `sender`. Used in transfers.",
							"params": {
								"sender": "Address whose tokens are being transferred."
							}
						}
					],
					"ERC721NonexistentToken(uint256)": [
						{
							"details": "Indicates a `tokenId` whose `owner` is the zero address.",
							"params": {
								"tokenId": "Identifier number of a token."
							}
						}
					],
					"OwnableInvalidOwner(address)": [
						{
							"details": "The owner is not a valid owner account. (eg. `address(0)`)"
						}
					],
					"OwnableUnauthorizedAccount(address)": [
						{
							"details": "The caller account is not authorized to perform an operation."
						}
					]
				},
				"events": {
					"Approval(address,address,uint256)": {
						"details": "Emitted when `owner` enables `approved` to manage the `tokenId` token."
					},
					"ApprovalForAll(address,address,bool)": {
						"details": "Emitted when `owner` enables or disables (`approved`) `operator` to manage all of its assets."
					},
					"BatchMetadataUpdate(uint256,uint256)": {
						"details": "This event emits when the metadata of a range of tokens is changed. So that the third-party platforms such as NFT market could timely update the images and related attributes of the NFTs."
					},
					"MetadataUpdate(uint256)": {
						"details": "This event emits when the metadata of a token is changed. So that the third-party platforms such as NFT market could timely update the images and related attributes of the NFT."
					},
					"Transfer(address,address,uint256)": {
						"details": "Emitted when `tokenId` token is transferred from `from` to `to`."
					}
				},
				"kind": "dev",
				"methods": {
					"approve(address,uint256)": {
						"details": "See {IERC721-approve}."
					},
					"balanceOf(address)": {
						"details": "See {IERC721-balanceOf}."
					},
					"getApproved(uint256)": {
						"details": "See {IERC721-getApproved}."
					},
					"isApprovedForAll(address,address)": {
						"details": "See {IERC721-isApprovedForAll}."
					},
					"name()": {
						"details": "See {IERC721Metadata-name}."
					},
					"owner()": {
						"details": "Returns the address of the current owner."
					},
					"ownerOf(uint256)": {
						"details": "See {IERC721-ownerOf}."
					},
					"renounceOwnership()": {
						"details": "Leaves the contract without owner. It will not be possible to call `onlyOwner` functions. Can only be called by the current owner. NOTE: Renouncing ownership will leave the contract without an owner, thereby disabling any functionality that is only available to the owner."
					},
					"safeTransferFrom(address,address,uint256)": {
						"details": "See {IERC721-safeTransferFrom}."
					},
					"safeTransferFrom(address,address,uint256,bytes)": {
						"details": "See {IERC721-safeTransferFrom}."
					},
					"setApprovalForAll(address,bool)": {
						"details": "See {IERC721-setApprovalForAll}."
					},
					"supportsInterface(bytes4)": {
						"details": "See {IERC165-supportsInterface}"
					},
					"symbol()": {
						"details": "See {IERC721Metadata-symbol}."
					},
					"tokenURI(uint256)": {
						"details": "See {IERC721Metadata-tokenURI}."
					},
					"transferFrom(address,address,uint256)": {
						"details": "See {IERC721-transferFrom}."
					},
					"transferOwnership(address)": {
						"details": "Transfers ownership of the contract to a new account (`newOwner`). Can only be called by the current owner."
					}
				},
				"version": 1
			},
			"evm": {
				"assembly": "    /* \"LouNFT.sol\":371:1247  contract LouNFT is ERC721URIStorage, Ownable {... */\n  mstore(0x40, 0x80)\n    /* \"LouNFT.sol\":563:564  5 */\n  0x05\n    /* \"LouNFT.sol\":540:564  uint public MAX_APES = 5 */\n  0x0a\n  sstore\n    /* \"LouNFT.sol\":581:714  constructor(... */\n  callvalue\n  dup1\n  iszero\n  tag_1\n  jumpi\n  0x00\n  dup1\n  revert\ntag_1:\n  pop\n  mload(0x40)\n  sub(codesize, bytecodeSize)\n  dup1\n  bytecodeSize\n  dup4\n  codecopy\n  dup2\n  dup2\n  add\n  0x40\n  mstore\n  dup2\n  add\n  swap1\n  tag_2\n  swap2\n  swap1\n  tag_3\n  jump\t// in\ntag_2:\n    /* \"LouNFT.sol\":662:672  msg.sender */\n  caller\n    /* \"@openzeppelin/contracts/token/ERC721/ERC721.sol\":1381:1494  constructor(string memory name_, string memory symbol_) {... */\n  mload(0x40)\n  dup1\n  0x40\n  add\n  0x40\n  mstore\n  dup1\n  0x06\n  dup2\n  mstore\n  0x20\n  add\n  0x4c6f754e46540000000000000000000000000000000000000000000000000000\n  dup2\n  mstore\n  pop\n  mload(0x40)\n  dup1\n  0x40\n  add\n  0x40\n  mstore\n  dup1\n  0x03\n  dup2\n  mstore\n  0x20\n  add\n  0x4c4f550000000000000000000000000000000000000000000000000000000000\n  dup2\n  mstore\n  pop\n    /* \"@openzeppelin/contracts/token/ERC721/ERC721.sol\":1455:1460  name_ */\n  dup2\n    /* \"@openzeppelin/contracts/token/ERC721/ERC721.sol\":1447:1452  _name */\n  0x00\n    /* \"@openzeppelin/contracts/token/ERC721/ERC721.sol\":1447:1460  _name = name_ */\n  swap1\n  dup2\n  tag_8\n  swap2\n  swap1\n  tag_9\n  jump\t// in\ntag_8:\n  pop\n    /* \"@openzeppelin/contracts/token/ERC721/ERC721.sol\":1480:1487  symbol_ */\n  dup1\n    /* \"@openzeppelin/contracts/token/ERC721/ERC721.sol\":1470:1477  _symbol */\n  0x01\n    /* \"@openzeppelin/contracts/token/ERC721/ERC721.sol\":1470:1487  _symbol = symbol_ */\n  swap1\n  dup2\n  tag_10\n  swap2\n  swap1\n  tag_9\n  jump\t// in\ntag_10:\n  pop\n    /* \"@openzeppelin/contracts/token/ERC721/ERC721.sol\":1381:1494  constructor(string memory name_, string memory symbol_) {... */\n  pop\n  pop\n    /* \"@openzeppelin/contracts/access/Ownable.sol\":1297:1298  0 */\n  0x00\n    /* \"@openzeppelin/contracts/access/Ownable.sol\":1273:1299  initialOwner == address(0) */\n  0xffffffffffffffffffffffffffffffffffffffff\n  and\n    /* \"@openzeppelin/contracts/access/Ownable.sol\":1273:1285  initialOwner */\n  dup2\n    /* \"@openzeppelin/contracts/access/Ownable.sol\":1273:1299  initialOwner == address(0) */\n  0xffffffffffffffffffffffffffffffffffffffff\n  and\n  sub\n    /* \"@openzeppelin/contracts/access/Ownable.sol\":1269:1364  if (initialOwner == address(0)) {... */\n  tag_12\n  jumpi\n    /* \"@openzeppelin/contracts/access/Ownable.sol\":1350:1351  0 */\n  0x00\n    /* \"@openzeppelin/contracts/access/Ownable.sol\":1322:1353  OwnableInvalidOwner(address(0)) */\n  mload(0x40)\n  0x1e4fbdf700000000000000000000000000000000000000000000000000000000\n  dup2\n  mstore\n  0x04\n  add\n  tag_13\n  swap2\n  swap1\n  tag_14\n  jump\t// in\ntag_13:\n  mload(0x40)\n  dup1\n  swap2\n  sub\n  swap1\n  revert\n    /* \"@openzeppelin/contracts/access/Ownable.sol\":1269:1364  if (initialOwner == address(0)) {... */\ntag_12:\n    /* \"@openzeppelin/contracts/access/Ownable.sol\":1373:1405  _transferOwnership(initialOwner) */\n  tag_15\n    /* \"@openzeppelin/contracts/access/Ownable.sol\":1392:1404  initialOwner */\n  dup2\n    /* \"@openzeppelin/contracts/access/Ownable.sol\":1373:1391  _transferOwnership */\n  shl(0x20, tag_16)\n    /* \"@openzeppelin/contracts/access/Ownable.sol\":1373:1405  _transferOwnership(initialOwner) */\n  0x20\n  shr\n  jump\t// in\ntag_15:\n    /* \"@openzeppelin/contracts/access/Ownable.sol\":1225:1412  constructor(address initialOwner) {... */\n  pop\n    /* \"LouNFT.sol\":700:707  baseURI */\n  dup1\n    /* \"LouNFT.sol\":684:697  _baseTokenURI */\n  0x09\n    /* \"LouNFT.sol\":684:707  _baseTokenURI = baseURI */\n  swap1\n  dup2\n  tag_18\n  swap2\n  swap1\n  tag_9\n  jump\t// in\ntag_18:\n  pop\n    /* \"LouNFT.sol\":581:714  constructor(... */\n  pop\n    /* \"LouNFT.sol\":371:1247  contract LouNFT is ERC721URIStorage, Ownable {... */\n  jump(tag_19)\n    /* \"@openzeppelin/contracts/access/Ownable.sol\":2912:3099  function _transferOwnership(address newOwner) internal virtual {... */\ntag_16:\n    /* \"@openzeppelin/contracts/access/Ownable.sol\":2985:3001  address oldOwner */\n  0x00\n    /* \"@openzeppelin/contracts/access/Ownable.sol\":3004:3010  _owner */\n  0x07\n  0x00\n  swap1\n  sload\n  swap1\n  0x0100\n  exp\n  swap1\n  div\n  0xffffffffffffffffffffffffffffffffffffffff\n  and\n    /* \"@openzeppelin/contracts/access/Ownable.sol\":2985:3010  address oldOwner = _owner */\n  swap1\n  pop\n    /* \"@openzeppelin/contracts/access/Ownable.sol\":3029:3037  newOwner */\n  dup2\n    /* \"@openzeppelin/contracts/access/Ownable.sol\":3020:3026  _owner */\n  0x07\n  0x00\n    /* \"@openzeppelin/contracts/access/Ownable.sol\":3020:3037  _owner = newOwner */\n  0x0100\n  exp\n  dup2\n  sload\n  dup2\n  0xffffffffffffffffffffffffffffffffffffffff\n  mul\n  not\n  and\n  swap1\n  dup4\n  0xffffffffffffffffffffffffffffffffffffffff\n  and\n  mul\n  or\n  swap1\n  sstore\n  pop\n    /* \"@openzeppelin/contracts/access/Ownable.sol\":3083:3091  newOwner */\n  dup2\n    /* \"@openzeppelin/contracts/access/Ownable.sol\":3052:3092  OwnershipTransferred(oldOwner, newOwner) */\n  0xffffffffffffffffffffffffffffffffffffffff\n  and\n    /* \"@openzeppelin/contracts/access/Ownable.sol\":3073:3081  oldOwner */\n  dup2\n    /* \"@openzeppelin/contracts/access/Ownable.sol\":3052:3092  OwnershipTransferred(oldOwner, newOwner) */\n  0xffffffffffffffffffffffffffffffffffffffff\n  and\n  0x8be0079c531659141344cd1fd0a4f28419497f9722a3daafe3b4186f6b6457e0\n  mload(0x40)\n  mload(0x40)\n  dup1\n  swap2\n  sub\n  swap1\n  log3\n    /* \"@openzeppelin/contracts/access/Ownable.sol\":2975:3099  {... */\n  pop\n    /* \"@openzeppelin/contracts/access/Ownable.sol\":2912:3099  function _transferOwnership(address newOwner) internal virtual {... */\n  pop\n  jump\t// out\n    /* \"#utility.yul\":7:82   */\ntag_21:\n    /* \"#utility.yul\":40:46   */\n  0x00\n    /* \"#utility.yul\":73:75   */\n  0x40\n    /* \"#utility.yul\":67:76   */\n  mload\n    /* \"#utility.yul\":57:76   */\n  swap1\n  pop\n    /* \"#utility.yul\":7:82   */\n  swap1\n  jump\t// out\n    /* \"#utility.yul\":88:205   */\ntag_22:\n    /* \"#utility.yul\":197:198   */\n  0x00\n    /* \"#utility.yul\":194:195   */\n  dup1\n    /* \"#utility.yul\":187:199   */\n  revert\n    /* \"#utility.yul\":211:328   */\ntag_23:\n    /* \"#utility.yul\":320:321   */\n  0x00\n    /* \"#utility.yul\":317:318   */\n  dup1\n    /* \"#utility.yul\":310:322   */\n  revert\n    /* \"#utility.yul\":334:451   */\ntag_24:\n    /* \"#utility.yul\":443:444   */\n  0x00\n    /* \"#utility.yul\":440:441   */\n  dup1\n    /* \"#utility.yul\":433:445   */\n  revert\n    /* \"#utility.yul\":457:574   */\ntag_25:\n    /* \"#utility.yul\":566:567   */\n  0x00\n    /* \"#utility.yul\":563:564   */\n  dup1\n    /* \"#utility.yul\":556:568   */\n  revert\n    /* \"#utility.yul\":580:682   */\ntag_26:\n    /* \"#utility.yul\":621:627   */\n  0x00\n    /* \"#utility.yul\":672:674   */\n  0x1f\n    /* \"#utility.yul\":668:675   */\n  not\n    /* \"#utility.yul\":663:665   */\n  0x1f\n    /* \"#utility.yul\":656:661   */\n  dup4\n    /* \"#utility.yul\":652:666   */\n  add\n    /* \"#utility.yul\":648:676   */\n  and\n    /* \"#utility.yul\":638:676   */\n  swap1\n  pop\n    /* \"#utility.yul\":580:682   */\n  swap2\n  swap1\n  pop\n  jump\t// out\n    /* \"#utility.yul\":688:868   */\ntag_27:\n    /* \"#utility.yul\":736:813   */\n  0x4e487b7100000000000000000000000000000000000000000000000000000000\n    /* \"#utility.yul\":733:734   */\n  0x00\n    /* \"#utility.yul\":726:814   */\n  mstore\n    /* \"#utility.yul\":833:837   */\n  0x41\n    /* \"#utility.yul\":830:831   */\n  0x04\n    /* \"#utility.yul\":823:838   */\n  mstore\n    /* \"#utility.yul\":857:861   */\n  0x24\n    /* \"#utility.yul\":854:855   */\n  0x00\n    /* \"#utility.yul\":847:862   */\n  revert\n    /* \"#utility.yul\":874:1155   */\ntag_28:\n    /* \"#utility.yul\":957:984   */\n  tag_65\n    /* \"#utility.yul\":979:983   */\n  dup3\n    /* \"#utility.yul\":957:984   */\n  tag_26\n  jump\t// in\ntag_65:\n    /* \"#utility.yul\":949:955   */\n  dup2\n    /* \"#utility.yul\":945:985   */\n  add\n    /* \"#utility.yul\":1087:1093   */\n  dup2\n    /* \"#utility.yul\":1075:1085   */\n  dup2\n    /* \"#utility.yul\":1072:1094   */\n  lt\n    /* \"#utility.yul\":1051:1069   */\n  0xffffffffffffffff\n    /* \"#utility.yul\":1039:1049   */\n  dup3\n    /* \"#utility.yul\":1036:1070   */\n  gt\n    /* \"#utility.yul\":1033:1095   */\n  or\n    /* \"#utility.yul\":1030:1118   */\n  iszero\n  tag_66\n  jumpi\n    /* \"#utility.yul\":1098:1116   */\n  tag_67\n  tag_27\n  jump\t// in\ntag_67:\n    /* \"#utility.yul\":1030:1118   */\ntag_66:\n    /* \"#utility.yul\":1138:1148   */\n  dup1\n    /* \"#utility.yul\":1134:1136   */\n  0x40\n    /* \"#utility.yul\":1127:1149   */\n  mstore\n    /* \"#utility.yul\":917:1155   */\n  pop\n    /* \"#utility.yul\":874:1155   */\n  pop\n  pop\n  jump\t// out\n    /* \"#utility.yul\":1161:1290   */\ntag_29:\n    /* \"#utility.yul\":1195:1201   */\n  0x00\n    /* \"#utility.yul\":1222:1242   */\n  tag_69\n  tag_21\n  jump\t// in\ntag_69:\n    /* \"#utility.yul\":1212:1242   */\n  swap1\n  pop\n    /* \"#utility.yul\":1251:1284   */\n  tag_70\n    /* \"#utility.yul\":1279:1283   */\n  dup3\n    /* \"#utility.yul\":1271:1277   */\n  dup3\n    /* \"#utility.yul\":1251:1284   */\n  tag_28\n  jump\t// in\ntag_70:\n    /* \"#utility.yul\":1161:1290   */\n  swap2\n  swap1\n  pop\n  jump\t// out\n    /* \"#utility.yul\":1296:1604   */\ntag_30:\n    /* \"#utility.yul\":1358:1362   */\n  0x00\n    /* \"#utility.yul\":1448:1466   */\n  0xffffffffffffffff\n    /* \"#utility.yul\":1440:1446   */\n  dup3\n    /* \"#utility.yul\":1437:1467   */\n  gt\n    /* \"#utility.yul\":1434:1490   */\n  iszero\n  tag_72\n  jumpi\n    /* \"#utility.yul\":1470:1488   */\n  tag_73\n  tag_27\n  jump\t// in\ntag_73:\n    /* \"#utility.yul\":1434:1490   */\ntag_72:\n    /* \"#utility.yul\":1508:1537   */\n  tag_74\n    /* \"#utility.yul\":1530:1536   */\n  dup3\n    /* \"#utility.yul\":1508:1537   */\n  tag_26\n  jump\t// in\ntag_74:\n    /* \"#utility.yul\":1500:1537   */\n  swap1\n  pop\n    /* \"#utility.yul\":1592:1596   */\n  0x20\n    /* \"#utility.yul\":1586:1590   */\n  dup2\n    /* \"#utility.yul\":1582:1597   */\n  add\n    /* \"#utility.yul\":1574:1597   */\n  swap1\n  pop\n    /* \"#utility.yul\":1296:1604   */\n  swap2\n  swap1\n  pop\n  jump\t// out\n    /* \"#utility.yul\":1610:1749   */\ntag_31:\n    /* \"#utility.yul\":1699:1705   */\n  dup3\n    /* \"#utility.yul\":1694:1697   */\n  dup2\n    /* \"#utility.yul\":1689:1692   */\n  dup4\n    /* \"#utility.yul\":1683:1706   */\n  mcopy\n    /* \"#utility.yul\":1740:1741   */\n  0x00\n    /* \"#utility.yul\":1731:1737   */\n  dup4\n    /* \"#utility.yul\":1726:1729   */\n  dup4\n    /* \"#utility.yul\":1722:1738   */\n  add\n    /* \"#utility.yul\":1715:1742   */\n  mstore\n    /* \"#utility.yul\":1610:1749   */\n  pop\n  pop\n  pop\n  jump\t// out\n    /* \"#utility.yul\":1755:2189   */\ntag_32:\n    /* \"#utility.yul\":1844:1849   */\n  0x00\n    /* \"#utility.yul\":1869:1935   */\n  tag_77\n    /* \"#utility.yul\":1885:1934   */\n  tag_78\n    /* \"#utility.yul\":1927:1933   */\n  dup5\n    /* \"#utility.yul\":1885:1934   */\n  tag_30\n  jump\t// in\ntag_78:\n    /* \"#utility.yul\":1869:1935   */\n  tag_29\n  jump\t// in\ntag_77:\n    /* \"#utility.yul\":1860:1935   */\n  swap1\n  pop\n    /* \"#utility.yul\":1958:1964   */\n  dup3\n    /* \"#utility.yul\":1951:1956   */\n  dup2\n    /* \"#utility.yul\":1944:1965   */\n  mstore\n    /* \"#utility.yul\":1996:2000   */\n  0x20\n    /* \"#utility.yul\":1989:1994   */\n  dup2\n    /* \"#utility.yul\":1985:2001   */\n  add\n    /* \"#utility.yul\":2034:2037   */\n  dup5\n    /* \"#utility.yul\":2025:2031   */\n  dup5\n    /* \"#utility.yul\":2020:2023   */\n  dup5\n    /* \"#utility.yul\":2016:2032   */\n  add\n    /* \"#utility.yul\":2013:2038   */\n  gt\n    /* \"#utility.yul\":2010:2122   */\n  iszero\n  tag_79\n  jumpi\n    /* \"#utility.yul\":2041:2120   */\n  tag_80\n  tag_25\n  jump\t// in\ntag_80:\n    /* \"#utility.yul\":2010:2122   */\ntag_79:\n    /* \"#utility.yul\":2131:2183   */\n  tag_81\n    /* \"#utility.yul\":2176:2182   */\n  dup5\n    /* \"#utility.yul\":2171:2174   */\n  dup3\n    /* \"#utility.yul\":2166:2169   */\n  dup6\n    /* \"#utility.yul\":2131:2183   */\n  tag_31\n  jump\t// in\ntag_81:\n    /* \"#utility.yul\":1850:2189   */\n  pop\n    /* \"#utility.yul\":1755:2189   */\n  swap4\n  swap3\n  pop\n  pop\n  pop\n  jump\t// out\n    /* \"#utility.yul\":2209:2564   */\ntag_33:\n    /* \"#utility.yul\":2276:2281   */\n  0x00\n    /* \"#utility.yul\":2325:2328   */\n  dup3\n    /* \"#utility.yul\":2318:2322   */\n  0x1f\n    /* \"#utility.yul\":2310:2316   */\n  dup4\n    /* \"#utility.yul\":2306:2323   */\n  add\n    /* \"#utility.yul\":2302:2329   */\n  slt\n    /* \"#utility.yul\":2292:2414   */\n  tag_83\n  jumpi\n    /* \"#utility.yul\":2333:2412   */\n  tag_84\n  tag_24\n  jump\t// in\ntag_84:\n    /* \"#utility.yul\":2292:2414   */\ntag_83:\n    /* \"#utility.yul\":2443:2449   */\n  dup2\n    /* \"#utility.yul\":2437:2450   */\n  mload\n    /* \"#utility.yul\":2468:2558   */\n  tag_85\n    /* \"#utility.yul\":2554:2557   */\n  dup5\n    /* \"#utility.yul\":2546:2552   */\n  dup3\n    /* \"#utility.yul\":2539:2543   */\n  0x20\n    /* \"#utility.yul\":2531:2537   */\n  dup7\n    /* \"#utility.yul\":2527:2544   */\n  add\n    /* \"#utility.yul\":2468:2558   */\n  tag_32\n  jump\t// in\ntag_85:\n    /* \"#utility.yul\":2459:2558   */\n  swap2\n  pop\n    /* \"#utility.yul\":2282:2564   */\n  pop\n    /* \"#utility.yul\":2209:2564   */\n  swap3\n  swap2\n  pop\n  pop\n  jump\t// out\n    /* \"#utility.yul\":2570:3094   */\ntag_3:\n    /* \"#utility.yul\":2650:2656   */\n  0x00\n    /* \"#utility.yul\":2699:2701   */\n  0x20\n    /* \"#utility.yul\":2687:2696   */\n  dup3\n    /* \"#utility.yul\":2678:2685   */\n  dup5\n    /* \"#utility.yul\":2674:2697   */\n  sub\n    /* \"#utility.yul\":2670:2702   */\n  slt\n    /* \"#utility.yul\":2667:2786   */\n  iszero\n  tag_87\n  jumpi\n    /* \"#utility.yul\":2705:2784   */\n  tag_88\n  tag_22\n  jump\t// in\ntag_88:\n    /* \"#utility.yul\":2667:2786   */\ntag_87:\n    /* \"#utility.yul\":2846:2847   */\n  0x00\n    /* \"#utility.yul\":2835:2844   */\n  dup3\n    /* \"#utility.yul\":2831:2848   */\n  add\n    /* \"#utility.yul\":2825:2849   */\n  mload\n    /* \"#utility.yul\":2876:2894   */\n  0xffffffffffffffff\n    /* \"#utility.yul\":2868:2874   */\n  dup2\n    /* \"#utility.yul\":2865:2895   */\n  gt\n    /* \"#utility.yul\":2862:2979   */\n  iszero\n  tag_89\n  jumpi\n    /* \"#utility.yul\":2898:2977   */\n  tag_90\n  tag_23\n  jump\t// in\ntag_90:\n    /* \"#utility.yul\":2862:2979   */\ntag_89:\n    /* \"#utility.yul\":3003:3077   */\n  tag_91\n    /* \"#utility.yul\":3069:3076   */\n  dup5\n    /* \"#utility.yul\":3060:3066   */\n  dup3\n    /* \"#utility.yul\":3049:3058   */\n  dup6\n    /* \"#utility.yul\":3045:3067   */\n  add\n    /* \"#utility.yul\":3003:3077   */\n  tag_33\n  jump\t// in\ntag_91:\n    /* \"#utility.yul\":2993:3077   */\n  swap2\n  pop\n    /* \"#utility.yul\":2796:3087   */\n  pop\n    /* \"#utility.yul\":2570:3094   */\n  swap3\n  swap2\n  pop\n  pop\n  jump\t// out\n    /* \"#utility.yul\":3100:3199   */\ntag_34:\n    /* \"#utility.yul\":3152:3158   */\n  0x00\n    /* \"#utility.yul\":3186:3191   */\n  dup2\n    /* \"#utility.yul\":3180:3192   */\n  mload\n    /* \"#utility.yul\":3170:3192   */\n  swap1\n  pop\n    /* \"#utility.yul\":3100:3199   */\n  swap2\n  swap1\n  pop\n  jump\t// out\n    /* \"#utility.yul\":3205:3385   */\ntag_35:\n    /* \"#utility.yul\":3253:3330   */\n  0x4e487b7100000000000000000000000000000000000000000000000000000000\n    /* \"#utility.yul\":3250:3251   */\n  0x00\n    /* \"#utility.yul\":3243:3331   */\n  mstore\n    /* \"#utility.yul\":3350:3354   */\n  0x22\n    /* \"#utility.yul\":3347:3348   */\n  0x04\n    /* \"#utility.yul\":3340:3355   */\n  mstore\n    /* \"#utility.yul\":3374:3378   */\n  0x24\n    /* \"#utility.yul\":3371:3372   */\n  0x00\n    /* \"#utility.yul\":3364:3379   */\n  revert\n    /* \"#utility.yul\":3391:3711   */\ntag_36:\n    /* \"#utility.yul\":3435:3441   */\n  0x00\n    /* \"#utility.yul\":3472:3473   */\n  0x02\n    /* \"#utility.yul\":3466:3470   */\n  dup3\n    /* \"#utility.yul\":3462:3474   */\n  div\n    /* \"#utility.yul\":3452:3474   */\n  swap1\n  pop\n    /* \"#utility.yul\":3519:3520   */\n  0x01\n    /* \"#utility.yul\":3513:3517   */\n  dup3\n    /* \"#utility.yul\":3509:3521   */\n  and\n    /* \"#utility.yul\":3540:3558   */\n  dup1\n    /* \"#utility.yul\":3530:3611   */\n  tag_95\n  jumpi\n    /* \"#utility.yul\":3596:3600   */\n  0x7f\n    /* \"#utility.yul\":3588:3594   */\n  dup3\n    /* \"#utility.yul\":3584:3601   */\n  and\n    /* \"#utility.yul\":3574:3601   */\n  swap2\n  pop\n    /* \"#utility.yul\":3530:3611   */\ntag_95:\n    /* \"#utility.yul\":3658:3660   */\n  0x20\n    /* \"#utility.yul\":3650:3656   */\n  dup3\n    /* \"#utility.yul\":3647:3661   */\n  lt\n    /* \"#utility.yul\":3627:3645   */\n  dup2\n    /* \"#utility.yul\":3624:3662   */\n  sub\n    /* \"#utility.yul\":3621:3705   */\n  tag_96\n  jumpi\n    /* \"#utility.yul\":3677:3695   */\n  tag_97\n  tag_35\n  jump\t// in\ntag_97:\n    /* \"#utility.yul\":3621:3705   */\ntag_96:\n    /* \"#utility.yul\":3442:3711   */\n  pop\n    /* \"#utility.yul\":3391:3711   */\n  swap2\n  swap1\n  pop\n  jump\t// out\n    /* \"#utility.yul\":3717:3858   */\ntag_37:\n    /* \"#utility.yul\":3766:3770   */\n  0x00\n    /* \"#utility.yul\":3789:3792   */\n  dup2\n    /* \"#utility.yul\":3781:3792   */\n  swap1\n  pop\n    /* \"#utility.yul\":3812:3815   */\n  dup2\n    /* \"#utility.yul\":3809:3810   */\n  0x00\n    /* \"#utility.yul\":3802:3816   */\n  mstore\n    /* \"#utility.yul\":3846:3850   */\n  0x20\n    /* \"#utility.yul\":3843:3844   */\n  0x00\n    /* \"#utility.yul\":3833:3851   */\n  keccak256\n    /* \"#utility.yul\":3825:3851   */\n  swap1\n  pop\n    /* \"#utility.yul\":3717:3858   */\n  swap2\n  swap1\n  pop\n  jump\t// out\n    /* \"#utility.yul\":3864:3957   */\ntag_38:\n    /* \"#utility.yul\":3901:3907   */\n  0x00\n    /* \"#utility.yul\":3948:3950   */\n  0x20\n    /* \"#utility.yul\":3943:3945   */\n  0x1f\n    /* \"#utility.yul\":3936:3941   */\n  dup4\n    /* \"#utility.yul\":3932:3946   */\n  add\n    /* \"#utility.yul\":3928:3951   */\n  div\n    /* \"#utility.yul\":3918:3951   */\n  swap1\n  pop\n    /* \"#utility.yul\":3864:3957   */\n  swap2\n  swap1\n  pop\n  jump\t// out\n    /* \"#utility.yul\":3963:4070   */\ntag_39:\n    /* \"#utility.yul\":4007:4015   */\n  0x00\n    /* \"#utility.yul\":4057:4062   */\n  dup3\n    /* \"#utility.yul\":4051:4055   */\n  dup3\n    /* \"#utility.yul\":4047:4063   */\n  shl\n    /* \"#utility.yul\":4026:4063   */\n  swap1\n  pop\n    /* \"#utility.yul\":3963:4070   */\n  swap3\n  swap2\n  pop\n  pop\n  jump\t// out\n    /* \"#utility.yul\":4076:4469   */\ntag_40:\n    /* \"#utility.yul\":4145:4151   */\n  0x00\n    /* \"#utility.yul\":4195:4196   */\n  0x08\n    /* \"#utility.yul\":4183:4193   */\n  dup4\n    /* \"#utility.yul\":4179:4197   */\n  mul\n    /* \"#utility.yul\":4218:4315   */\n  tag_102\n    /* \"#utility.yul\":4248:4314   */\n  0xffffffffffffffffffffffffffffffffffffffffffffffffffffffffffffffff\n    /* \"#utility.yul\":4237:4246   */\n  dup3\n    /* \"#utility.yul\":4218:4315   */\n  tag_39\n  jump\t// in\ntag_102:\n    /* \"#utility.yul\":4336:4375   */\n  tag_103\n    /* \"#utility.yul\":4366:4374   */\n  dup7\n    /* \"#utility.yul\":4355:4364   */\n  dup4\n    /* \"#utility.yul\":4336:4375   */\n  tag_39\n  jump\t// in\ntag_103:\n    /* \"#utility.yul\":4324:4375   */\n  swap6\n  pop\n    /* \"#utility.yul\":4408:4412   */\n  dup1\n    /* \"#utility.yul\":4404:4413   */\n  not\n    /* \"#utility.yul\":4397:4402   */\n  dup5\n    /* \"#utility.yul\":4393:4414   */\n  and\n    /* \"#utility.yul\":4384:4414   */\n  swap4\n  pop\n    /* \"#utility.yul\":4457:4461   */\n  dup1\n    /* \"#utility.yul\":4447:4455   */\n  dup7\n    /* \"#utility.yul\":4443:4462   */\n  and\n    /* \"#utility.yul\":4436:4441   */\n  dup5\n    /* \"#utility.yul\":4433:4463   */\n  or\n    /* \"#utility.yul\":4423:4463   */\n  swap3\n  pop\n    /* \"#utility.yul\":4152:4469   */\n  pop\n  pop\n    /* \"#utility.yul\":4076:4469   */\n  swap4\n  swap3\n  pop\n  pop\n  pop\n  jump\t// out\n    /* \"#utility.yul\":4475:4552   */\ntag_41:\n    /* \"#utility.yul\":4512:4519   */\n  0x00\n    /* \"#utility.yul\":4541:4546   */\n  dup2\n    /* \"#utility.yul\":4530:4546   */\n  swap1\n  pop\n    /* \"#utility.yul\":4475:4552   */\n  swap2\n  swap1\n  pop\n  jump\t// out\n    /* \"#utility.yul\":4558:4618   */\ntag_42:\n    /* \"#utility.yul\":4586:4589   */\n  0x00\n    /* \"#utility.yul\":4607:4612   */\n  dup2\n    /* \"#utility.yul\":4600:4612   */\n  swap1\n  pop\n    /* \"#utility.yul\":4558:4618   */\n  swap2\n  swap1\n  pop\n  jump\t// out\n    /* \"#utility.yul\":4624:4766   */\ntag_43:\n    /* \"#utility.yul\":4674:4683   */\n  0x00\n    /* \"#utility.yul\":4707:4760   */\n  tag_107\n    /* \"#utility.yul\":4725:4759   */\n  tag_108\n    /* \"#utility.yul\":4734:4758   */\n  tag_109\n    /* \"#utility.yul\":4752:4757   */\n  dup5\n    /* \"#utility.yul\":4734:4758   */\n  tag_41\n  jump\t// in\ntag_109:\n    /* \"#utility.yul\":4725:4759   */\n  tag_42\n  jump\t// in\ntag_108:\n    /* \"#utility.yul\":4707:4760   */\n  tag_41\n  jump\t// in\ntag_107:\n    /* \"#utility.yul\":4694:4760   */\n  swap1\n  pop\n    /* \"#utility.yul\":4624:4766   */\n  swap2\n  swap1\n  pop\n  jump\t// out\n    /* \"#utility.yul\":4772:4847   */\ntag_44:\n    /* \"#utility.yul\":4815:4818   */\n  0x00\n    /* \"#utility.yul\":4836:4841   */\n  dup2\n    /* \"#utility.yul\":4829:4841   */\n  swap1\n  pop\n    /* \"#utility.yul\":4772:4847   */\n  swap2\n  swap1\n  pop\n  jump\t// out\n    /* \"#utility.yul\":4853:5122   */\ntag_45:\n    /* \"#utility.yul\":4963:5002   */\n  tag_112\n    /* \"#utility.yul\":4994:5001   */\n  dup4\n    /* \"#utility.yul\":4963:5002   */\n  tag_43\n  jump\t// in\ntag_112:\n    /* \"#utility.yul\":5024:5115   */\n  tag_113\n    /* \"#utility.yul\":5073:5114   */\n  tag_114\n    /* \"#utility.yul\":5097:5113   */\n  dup3\n    /* \"#utility.yul\":5073:5114   */\n  tag_44\n  jump\t// in\ntag_114:\n    /* \"#utility.yul\":5065:5071   */\n  dup5\n    /* \"#utility.yul\":5058:5062   */\n  dup5\n    /* \"#utility.yul\":5052:5063   */\n  sload\n    /* \"#utility.yul\":5024:5115   */\n  tag_40\n  jump\t// in\ntag_113:\n    /* \"#utility.yul\":5018:5022   */\n  dup3\n    /* \"#utility.yul\":5011:5116   */\n  sstore\n    /* \"#utility.yul\":4929:5122   */\n  pop\n    /* \"#utility.yul\":4853:5122   */\n  pop\n  pop\n  pop\n  jump\t// out\n    /* \"#utility.yul\":5128:5201   */\ntag_46:\n    /* \"#utility.yul\":5173:5176   */\n  0x00\n    /* \"#utility.yul\":5128:5201   */\n  swap1\n  jump\t// out\n    /* \"#utility.yul\":5207:5396   */\ntag_47:\n    /* \"#utility.yul\":5284:5316   */\n  tag_117\n  tag_46\n  jump\t// in\ntag_117:\n    /* \"#utility.yul\":5325:5390   */\n  tag_118\n    /* \"#utility.yul\":5383:5389   */\n  dup2\n    /* \"#utility.yul\":5375:5381   */\n  dup5\n    /* \"#utility.yul\":5369:5373   */\n  dup5\n    /* \"#utility.yul\":5325:5390   */\n  tag_45\n  jump\t// in\ntag_118:\n    /* \"#utility.yul\":5260:5396   */\n  pop\n    /* \"#utility.yul\":5207:5396   */\n  pop\n  pop\n  jump\t// out\n    /* \"#utility.yul\":5402:5588   */\ntag_48:\n    /* \"#utility.yul\":5462:5582   */\ntag_120:\n    /* \"#utility.yul\":5479:5482   */\n  dup2\n    /* \"#utility.yul\":5472:5477   */\n  dup2\n    /* \"#utility.yul\":5469:5483   */\n  lt\n    /* \"#utility.yul\":5462:5582   */\n  iszero\n  tag_122\n  jumpi\n    /* \"#utility.yul\":5533:5572   */\n  tag_123\n    /* \"#utility.yul\":5570:5571   */\n  0x00\n    /* \"#utility.yul\":5563:5568   */\n  dup3\n    /* \"#utility.yul\":5533:5572   */\n  tag_47\n  jump\t// in\ntag_123:\n    /* \"#utility.yul\":5506:5507   */\n  0x01\n    /* \"#utility.yul\":5499:5504   */\n  dup2\n    /* \"#utility.yul\":5495:5508   */\n  add\n    /* \"#utility.yul\":5486:5508   */\n  swap1\n  pop\n    /* \"#utility.yul\":5462:5582   */\n  jump(tag_120)\ntag_122:\n    /* \"#utility.yul\":5402:5588   */\n  pop\n  pop\n  jump\t// out\n    /* \"#utility.yul\":5594:6137   */\ntag_49:\n    /* \"#utility.yul\":5695:5697   */\n  0x1f\n    /* \"#utility.yul\":5690:5693   */\n  dup3\n    /* \"#utility.yul\":5687:5698   */\n  gt\n    /* \"#utility.yul\":5684:6130   */\n  iszero\n  tag_125\n  jumpi\n    /* \"#utility.yul\":5729:5767   */\n  tag_126\n    /* \"#utility.yul\":5761:5766   */\n  dup2\n    /* \"#utility.yul\":5729:5767   */\n  tag_37\n  jump\t// in\ntag_126:\n    /* \"#utility.yul\":5813:5842   */\n  tag_127\n    /* \"#utility.yul\":5831:5841   */\n  dup5\n    /* \"#utility.yul\":5813:5842   */\n  tag_38\n  jump\t// in\ntag_127:\n    /* \"#utility.yul\":5803:5811   */\n  dup2\n    /* \"#utility.yul\":5799:5843   */\n  add\n    /* \"#utility.yul\":5996:5998   */\n  0x20\n    /* \"#utility.yul\":5984:5994   */\n  dup6\n    /* \"#utility.yul\":5981:5999   */\n  lt\n    /* \"#utility.yul\":5978:6027   */\n  iszero\n  tag_128\n  jumpi\n    /* \"#utility.yul\":6017:6025   */\n  dup2\n    /* \"#utility.yul\":6002:6025   */\n  swap1\n  pop\n    /* \"#utility.yul\":5978:6027   */\ntag_128:\n    /* \"#utility.yul\":6040:6120   */\n  tag_129\n    /* \"#utility.yul\":6096:6118   */\n  tag_130\n    /* \"#utility.yul\":6114:6117   */\n  dup6\n    /* \"#utility.yul\":6096:6118   */\n  tag_38\n  jump\t// in\ntag_130:\n    /* \"#utility.yul\":6086:6094   */\n  dup4\n    /* \"#utility.yul\":6082:6119   */\n  add\n    /* \"#utility.yul\":6069:6080   */\n  dup3\n    /* \"#utility.yul\":6040:6120   */\n  tag_48\n  jump\t// in\ntag_129:\n    /* \"#utility.yul\":5699:6130   */\n  pop\n  pop\n    /* \"#utility.yul\":5684:6130   */\ntag_125:\n    /* \"#utility.yul\":5594:6137   */\n  pop\n  pop\n  pop\n  jump\t// out\n    /* \"#utility.yul\":6143:6260   */\ntag_50:\n    /* \"#utility.yul\":6197:6205   */\n  0x00\n    /* \"#utility.yul\":6247:6252   */\n  dup3\n    /* \"#utility.yul\":6241:6245   */\n  dup3\n    /* \"#utility.yul\":6237:6253   */\n  shr\n    /* \"#utility.yul\":6216:6253   */\n  swap1\n  pop\n    /* \"#utility.yul\":6143:6260   */\n  swap3\n  swap2\n  pop\n  pop\n  jump\t// out\n    /* \"#utility.yul\":6266:6435   */\ntag_51:\n    /* \"#utility.yul\":6310:6316   */\n  0x00\n    /* \"#utility.yul\":6343:6394   */\n  tag_133\n    /* \"#utility.yul\":6391:6392   */\n  0x00\n    /* \"#utility.yul\":6387:6393   */\n  not\n    /* \"#utility.yul\":6379:6384   */\n  dup5\n    /* \"#utility.yul\":6376:6377   */\n  0x08\n    /* \"#utility.yul\":6372:6385   */\n  mul\n    /* \"#utility.yul\":6343:6394   */\n  tag_50\n  jump\t// in\ntag_133:\n    /* \"#utility.yul\":6339:6395   */\n  not\n    /* \"#utility.yul\":6424:6428   */\n  dup1\n    /* \"#utility.yul\":6418:6422   */\n  dup4\n    /* \"#utility.yul\":6414:6429   */\n  and\n    /* \"#utility.yul\":6404:6429   */\n  swap2\n  pop\n    /* \"#utility.yul\":6317:6435   */\n  pop\n    /* \"#utility.yul\":6266:6435   */\n  swap3\n  swap2\n  pop\n  pop\n  jump\t// out\n    /* \"#utility.yul\":6440:6735   */\ntag_52:\n    /* \"#utility.yul\":6516:6520   */\n  0x00\n    /* \"#utility.yul\":6662:6691   */\n  tag_135\n    /* \"#utility.yul\":6687:6690   */\n  dup4\n    /* \"#utility.yul\":6681:6685   */\n  dup4\n    /* \"#utility.yul\":6662:6691   */\n  tag_51\n  jump\t// in\ntag_135:\n    /* \"#utility.yul\":6654:6691   */\n  swap2\n  pop\n    /* \"#utility.yul\":6724:6727   */\n  dup3\n    /* \"#utility.yul\":6721:6722   */\n  0x02\n    /* \"#utility.yul\":6717:6728   */\n  mul\n    /* \"#utility.yul\":6711:6715   */\n  dup3\n    /* \"#utility.yul\":6708:6729   */\n  or\n    /* \"#utility.yul\":6700:6729   */\n  swap1\n  pop\n    /* \"#utility.yul\":6440:6735   */\n  swap3\n  swap2\n  pop\n  pop\n  jump\t// out\n    /* \"#utility.yul\":6740:8135   */\ntag_9:\n    /* \"#utility.yul\":6857:6894   */\n  tag_137\n    /* \"#utility.yul\":6890:6893   */\n  dup3\n    /* \"#utility.yul\":6857:6894   */\n  tag_34\n  jump\t// in\ntag_137:\n    /* \"#utility.yul\":6959:6977   */\n  0xffffffffffffffff\n    /* \"#utility.yul\":6951:6957   */\n  dup2\n    /* \"#utility.yul\":6948:6978   */\n  gt\n    /* \"#utility.yul\":6945:7001   */\n  iszero\n  tag_138\n  jumpi\n    /* \"#utility.yul\":6981:6999   */\n  tag_139\n  tag_27\n  jump\t// in\ntag_139:\n    /* \"#utility.yul\":6945:7001   */\ntag_138:\n    /* \"#utility.yul\":7025:7063   */\n  tag_140\n    /* \"#utility.yul\":7057:7061   */\n  dup3\n    /* \"#utility.yul\":7051:7062   */\n  sload\n    /* \"#utility.yul\":7025:7063   */\n  tag_36\n  jump\t// in\ntag_140:\n    /* \"#utility.yul\":7110:7177   */\n  tag_141\n    /* \"#utility.yul\":7170:7176   */\n  dup3\n    /* \"#utility.yul\":7162:7168   */\n  dup3\n    /* \"#utility.yul\":7156:7160   */\n  dup6\n    /* \"#utility.yul\":7110:7177   */\n  tag_49\n  jump\t// in\ntag_141:\n    /* \"#utility.yul\":7204:7205   */\n  0x00\n    /* \"#utility.yul\":7228:7232   */\n  0x20\n    /* \"#utility.yul\":7215:7232   */\n  swap1\n  pop\n    /* \"#utility.yul\":7260:7262   */\n  0x1f\n    /* \"#utility.yul\":7252:7258   */\n  dup4\n    /* \"#utility.yul\":7249:7263   */\n  gt\n    /* \"#utility.yul\":7277:7278   */\n  0x01\n    /* \"#utility.yul\":7272:7890   */\n  dup2\n  eq\n  tag_143\n  jumpi\n    /* \"#utility.yul\":7934:7935   */\n  0x00\n    /* \"#utility.yul\":7951:7957   */\n  dup5\n    /* \"#utility.yul\":7948:8025   */\n  iszero\n  tag_144\n  jumpi\n    /* \"#utility.yul\":8000:8009   */\n  dup3\n    /* \"#utility.yul\":7995:7998   */\n  dup8\n    /* \"#utility.yul\":7991:8010   */\n  add\n    /* \"#utility.yul\":7985:8011   */\n  mload\n    /* \"#utility.yul\":7976:8011   */\n  swap1\n  pop\n    /* \"#utility.yul\":7948:8025   */\ntag_144:\n    /* \"#utility.yul\":8051:8118   */\n  tag_145\n    /* \"#utility.yul\":8111:8117   */\n  dup6\n    /* \"#utility.yul\":8104:8109   */\n  dup3\n    /* \"#utility.yul\":8051:8118   */\n  tag_52\n  jump\t// in\ntag_145:\n    /* \"#utility.yul\":8045:8049   */\n  dup7\n    /* \"#utility.yul\":8038:8119   */\n  sstore\n    /* \"#utility.yul\":7907:8129   */\n  pop\n    /* \"#utility.yul\":7242:8129   */\n  jump(tag_142)\n    /* \"#utility.yul\":7272:7890   */\ntag_143:\n    /* \"#utility.yul\":7324:7328   */\n  0x1f\n    /* \"#utility.yul\":7320:7329   */\n  not\n    /* \"#utility.yul\":7312:7318   */\n  dup5\n    /* \"#utility.yul\":7308:7330   */\n  and\n    /* \"#utility.yul\":7358:7395   */\n  tag_146\n    /* \"#utility.yul\":7390:7394   */\n  dup7\n    /* \"#utility.yul\":7358:7395   */\n  tag_37\n  jump\t// in\ntag_146:\n    /* \"#utility.yul\":7417:7418   */\n  0x00\n    /* \"#utility.yul\":7431:7639   */\ntag_147:\n    /* \"#utility.yul\":7445:7452   */\n  dup3\n    /* \"#utility.yul\":7442:7443   */\n  dup2\n    /* \"#utility.yul\":7439:7453   */\n  lt\n    /* \"#utility.yul\":7431:7639   */\n  iszero\n  tag_149\n  jumpi\n    /* \"#utility.yul\":7524:7533   */\n  dup5\n    /* \"#utility.yul\":7519:7522   */\n  dup10\n    /* \"#utility.yul\":7515:7534   */\n  add\n    /* \"#utility.yul\":7509:7535   */\n  mload\n    /* \"#utility.yul\":7501:7507   */\n  dup3\n    /* \"#utility.yul\":7494:7536   */\n  sstore\n    /* \"#utility.yul\":7575:7576   */\n  0x01\n    /* \"#utility.yul\":7567:7573   */\n  dup3\n    /* \"#utility.yul\":7563:7577   */\n  add\n    /* \"#utility.yul\":7553:7577   */\n  swap2\n  pop\n    /* \"#utility.yul\":7622:7624   */\n  0x20\n    /* \"#utility.yul\":7611:7620   */\n  dup6\n    /* \"#utility.yul\":7607:7625   */\n  add\n    /* \"#utility.yul\":7594:7625   */\n  swap5\n  pop\n    /* \"#utility.yul\":7468:7472   */\n  0x20\n    /* \"#utility.yul\":7465:7466   */\n  dup2\n    /* \"#utility.yul\":7461:7473   */\n  add\n    /* \"#utility.yul\":7456:7473   */\n  swap1\n  pop\n    /* \"#utility.yul\":7431:7639   */\n  jump(tag_147)\ntag_149:\n    /* \"#utility.yul\":7667:7673   */\n  dup7\n    /* \"#utility.yul\":7658:7665   */\n  dup4\n    /* \"#utility.yul\":7655:7674   */\n  lt\n    /* \"#utility.yul\":7652:7831   */\n  iszero\n  tag_150\n  jumpi\n    /* \"#utility.yul\":7725:7734   */\n  dup5\n    /* \"#utility.yul\":7720:7723   */\n  dup10\n    /* \"#utility.yul\":7716:7735   */\n  add\n    /* \"#utility.yul\":7710:7736   */\n  mload\n    /* \"#utility.yul\":7768:7816   */\n  tag_151\n    /* \"#utility.yul\":7810:7814   */\n  0x1f\n    /* \"#utility.yul\":7802:7808   */\n  dup10\n    /* \"#utility.yul\":7798:7815   */\n  and\n    /* \"#utility.yul\":7787:7796   */\n  dup3\n    /* \"#utility.yul\":7768:7816   */\n  tag_51\n  jump\t// in\ntag_151:\n    /* \"#utility.yul\":7760:7766   */\n  dup4\n    /* \"#utility.yul\":7753:7817   */\n  sstore\n    /* \"#utility.yul\":7675:7831   */\n  pop\n    /* \"#utility.yul\":7652:7831   */\ntag_150:\n    /* \"#utility.yul\":7877:7878   */\n  0x01\n    /* \"#utility.yul\":7873:7874   */\n  0x02\n    /* \"#utility.yul\":7865:7871   */\n  dup9\n    /* \"#utility.yul\":7861:7875   */\n  mul\n    /* \"#utility.yul\":7857:7879   */\n  add\n    /* \"#utility.yul\":7851:7855   */\n  dup9\n    /* \"#utility.yul\":7844:7880   */\n  sstore\n    /* \"#utility.yul\":7279:7890   */\n  pop\n  pop\n  pop\n    /* \"#utility.yul\":7242:8129   */\ntag_142:\n  pop\n    /* \"#utility.yul\":6832:8135   */\n  pop\n  pop\n  pop\n    /* \"#utility.yul\":6740:8135   */\n  pop\n  pop\n  jump\t// out\n    /* \"#utility.yul\":8141:8267   */\ntag_53:\n    /* \"#utility.yul\":8178:8185   */\n  0x00\n    /* \"#utility.yul\":8218:8260   */\n  0xffffffffffffffffffffffffffffffffffffffff\n    /* \"#utility.yul\":8211:8216   */\n  dup3\n    /* \"#utility.yul\":8207:8261   */\n  and\n    /* \"#utility.yul\":8196:8261   */\n  swap1\n  pop\n    /* \"#utility.yul\":8141:8267   */\n  swap2\n  swap1\n  pop\n  jump\t// out\n    /* \"#utility.yul\":8273:8369   */\ntag_54:\n    /* \"#utility.yul\":8310:8317   */\n  0x00\n    /* \"#utility.yul\":8339:8363   */\n  tag_154\n    /* \"#utility.yul\":8357:8362   */\n  dup3\n    /* \"#utility.yul\":8339:8363   */\n  tag_53\n  jump\t// in\ntag_154:\n    /* \"#utility.yul\":8328:8363   */\n  swap1\n  pop\n    /* \"#utility.yul\":8273:8369   */\n  swap2\n  swap1\n  pop\n  jump\t// out\n    /* \"#utility.yul\":8375:8493   */\ntag_55:\n    /* \"#utility.yul\":8462:8486   */\n  tag_156\n    /* \"#utility.yul\":8480:8485   */\n  dup2\n    /* \"#utility.yul\":8462:8486   */\n  tag_54\n  jump\t// in\ntag_156:\n    /* \"#utility.yul\":8457:8460   */\n  dup3\n    /* \"#utility.yul\":8450:8487   */\n  mstore\n    /* \"#utility.yul\":8375:8493   */\n  pop\n  pop\n  jump\t// out\n    /* \"#utility.yul\":8499:8721   */\ntag_14:\n    /* \"#utility.yul\":8592:8596   */\n  0x00\n    /* \"#utility.yul\":8630:8632   */\n  0x20\n    /* \"#utility.yul\":8619:8628   */\n  dup3\n    /* \"#utility.yul\":8615:8633   */\n  add\n    /* \"#utility.yul\":8607:8633   */\n  swap1\n  pop\n    /* \"#utility.yul\":8643:8714   */\n  tag_158\n    /* \"#utility.yul\":8711:8712   */\n  0x00\n    /* \"#utility.yul\":8700:8709   */\n  dup4\n    /* \"#utility.yul\":8696:8713   */\n  add\n    /* \"#utility.yul\":8687:8693   */\n  dup5\n    /* \"#utility.yul\":8643:8714   */\n  tag_55\n  jump\t// in\ntag_158:\n    /* \"#utility.yul\":8499:8721   */\n  swap3\n  swap2\n  pop\n  pop\n  jump\t// out\n    /* \"LouNFT.sol\":371:1247  contract LouNFT is ERC721URIStorage, Ownable {... */\ntag_19:\n  dataSize(sub_0)\n  dup1\n  dataOffset(sub_0)\n  0x00\n  codecopy\n  0x00\n  return\nstop\n\nsub_0: assembly {\n        /* \"LouNFT.sol\":371:1247  contract LouNFT is ERC721URIStorage, Ownable {... */\n      mstore(0x40, 0x80)\n      callvalue\n      dup1\n      iszero\n      tag_1\n      jumpi\n      0x00\n      dup1\n      revert\n    tag_1:\n      pop\n      jumpi(tag_2, lt(calldatasize, 0x04))\n      shr(0xe0, calldataload(0x00))\n      dup1\n      0x715018a6\n      gt\n      tag_22\n      jumpi\n      dup1\n      0xbb8a16bd\n      gt\n      tag_23\n      jumpi\n      dup1\n      0xbb8a16bd\n      eq\n      tag_17\n      jumpi\n      dup1\n      0xc87b56dd\n      eq\n      tag_18\n      jumpi\n      dup1\n      0xd0def521\n      eq\n      tag_19\n      jumpi\n      dup1\n      0xe985e9c5\n      eq\n      tag_20\n      jumpi\n      dup1\n      0xf2fde38b\n      eq\n      tag_21\n      jumpi\n      jump(tag_2)\n    tag_23:\n      dup1\n      0x715018a6\n      eq\n      tag_12\n      jumpi\n      dup1\n      0x8da5cb5b\n      eq\n      tag_13\n      jumpi\n      dup1\n      0x95d89b41\n      eq\n      tag_14\n      jumpi\n      dup1\n      0xa22cb465\n      eq\n      tag_15\n      jumpi\n      dup1\n      0xb88d4fde\n      eq\n      tag_16\n      jumpi\n      jump(tag_2)\n    tag_22:\n      dup1\n      0x23b872dd\n      gt\n      tag_24\n      jumpi\n      dup1\n      0x23b872dd\n      eq\n      tag_7\n      jumpi\n      dup1\n      0x42842e0e\n      eq\n      tag_8\n      jumpi\n      dup1\n      0x55f804b3\n      eq\n      tag_9\n      jumpi\n      dup1\n      0x6352211e\n      eq\n      tag_10\n      jumpi\n      dup1\n      0x70a08231\n      eq\n      tag_11\n      jumpi\n      jump(tag_2)\n    tag_24:\n      dup1\n      0x01ffc9a7\n      eq\n      tag_3\n      jumpi\n      dup1\n      0x06fdde03\n      eq\n      tag_4\n      jumpi\n      dup1\n      0x081812fc\n      eq\n      tag_5\n      jumpi\n      dup1\n      0x095ea7b3\n      eq\n      tag_6\n      jumpi\n    tag_2:\n      0x00\n      dup1\n      revert\n        /* \"@openzeppelin/contracts/token/ERC721/extensions/ERC721URIStorage.sol\":937:1144  function supportsInterface(bytes4 interfaceId) public view virtual override(ERC721, IERC165) returns (bool) {... */\n    tag_3:\n      tag_25\n      0x04\n      dup1\n      calldatasize\n      sub\n      dup2\n      add\n      swap1\n      tag_26\n      swap2\n      swap1\n      tag_27\n      jump\t// in\n    tag_26:\n      tag_28\n      jump\t// in\n    tag_25:\n      mload(0x40)\n      tag_29\n      swap2\n      swap1\n      tag_30\n      jump\t// in\n    tag_29:\n      mload(0x40)\n      dup1\n      swap2\n      sub\n      swap1\n      return\n        /* \"@openzeppelin/contracts/token/ERC721/ERC721.sol\":2365:2454  function name() public view virtual returns (string memory) {... */\n    tag_4:\n      tag_31\n      tag_32\n      jump\t// in\n    tag_31:\n      mload(0x40)\n      tag_33\n      swap2\n      swap1\n      tag_34\n      jump\t// in\n    tag_33:\n      mload(0x40)\n      dup1\n      swap2\n      sub\n      swap1\n      return\n        /* \"@openzeppelin/contracts/token/ERC721/ERC721.sol\":3497:3651  function getApproved(uint256 tokenId) public view virtual returns (address) {... */\n    tag_5:\n      tag_35\n      0x04\n      dup1\n      calldatasize\n      sub\n      dup2\n      add\n      swap1\n      tag_36\n      swap2\n      swap1\n      tag_37\n      jump\t// in\n    tag_36:\n      tag_38\n      jump\t// in\n    tag_35:\n      mload(0x40)\n      tag_39\n      swap2\n      swap1\n      tag_40\n      jump\t// in\n    tag_39:\n      mload(0x40)\n      dup1\n      swap2\n      sub\n      swap1\n      return\n        /* \"@openzeppelin/contracts/token/ERC721/ERC721.sol\":3323:3436  function approve(address to, uint256 tokenId) public virtual {... */\n    tag_6:\n      tag_41\n      0x04\n      dup1\n      calldatasize\n      sub\n      dup2\n      add\n      swap1\n      tag_42\n      swap2\n      swap1\n      tag_43\n      jump\t// in\n    tag_42:\n      tag_44\n      jump\t// in\n    tag_41:\n      stop\n        /* \"@openzeppelin/contracts/token/ERC721/ERC721.sol\":4143:4721  function transferFrom(address from, address to, uint256 tokenId) public virtual {... */\n    tag_7:\n      tag_45\n      0x04\n      dup1\n      calldatasize\n      sub\n      dup2\n      add\n      swap1\n      tag_46\n      swap2\n      swap1\n      tag_47\n      jump\t// in\n    tag_46:\n      tag_48\n      jump\t// in\n    tag_45:\n      stop\n        /* \"@openzeppelin/contracts/token/ERC721/ERC721.sol\":4787:4919  function safeTransferFrom(address from, address to, uint256 tokenId) public {... */\n    tag_8:\n      tag_49\n      0x04\n      dup1\n      calldatasize\n      sub\n      dup2\n      add\n      swap1\n      tag_50\n      swap2\n      swap1\n      tag_47\n      jump\t// in\n    tag_50:\n      tag_51\n      jump\t// in\n    tag_49:\n      stop\n        /* \"LouNFT.sol\":1145:1245  function setBaseURI(string memory baseURI) public onlyOwner {... */\n    tag_9:\n      tag_52\n      0x04\n      dup1\n      calldatasize\n      sub\n      dup2\n      add\n      swap1\n      tag_53\n      swap2\n      swap1\n      tag_54\n      jump\t// in\n    tag_53:\n      tag_55\n      jump\t// in\n    tag_52:\n      stop\n        /* \"@openzeppelin/contracts/token/ERC721/ERC721.sol\":2185:2303  function ownerOf(uint256 tokenId) public view virtual returns (address) {... */\n    tag_10:\n      tag_56\n      0x04\n      dup1\n      calldatasize\n      sub\n      dup2\n      add\n      swap1\n      tag_57\n      swap2\n      swap1\n      tag_37\n      jump\t// in\n    tag_57:\n      tag_58\n      jump\t// in\n    tag_56:\n      mload(0x40)\n      tag_59\n      swap2\n      swap1\n      tag_40\n      jump\t// in\n    tag_59:\n      mload(0x40)\n      dup1\n      swap2\n      sub\n      swap1\n      return\n        /* \"@openzeppelin/contracts/token/ERC721/ERC721.sol\":1920:2128  function balanceOf(address owner) public view virtual returns (uint256) {... */\n    tag_11:\n      tag_60\n      0x04\n      dup1\n      calldatasize\n      sub\n      dup2\n      add\n      swap1\n      tag_61\n      swap2\n      swap1\n      tag_62\n      jump\t// in\n    tag_61:\n      tag_63\n      jump\t// in\n    tag_60:\n      mload(0x40)\n      tag_64\n      swap2\n      swap1\n      tag_65\n      jump\t// in\n    tag_64:\n      mload(0x40)\n      dup1\n      swap2\n      sub\n      swap1\n      return\n        /* \"@openzeppelin/contracts/access/Ownable.sol\":2293:2394  function renounceOwnership() public virtual onlyOwner {... */\n    tag_12:\n      tag_66\n      tag_67\n      jump\t// in\n    tag_66:\n      stop\n        /* \"@openzeppelin/contracts/access/Ownable.sol\":1638:1723  function owner() public view virtual returns (address) {... */\n    tag_13:\n      tag_68\n      tag_69\n      jump\t// in\n    tag_68:\n      mload(0x40)\n      tag_70\n      swap2\n      swap1\n      tag_40\n      jump\t// in\n    tag_70:\n      mload(0x40)\n      dup1\n      swap2\n      sub\n      swap1\n      return\n        /* \"@openzeppelin/contracts/token/ERC721/ERC721.sol\":2518:2611  function symbol() public view virtual returns (string memory) {... */\n    tag_14:\n      tag_71\n      tag_72\n      jump\t// in\n    tag_71:\n      mload(0x40)\n      tag_73\n      swap2\n      swap1\n      tag_34\n      jump\t// in\n    tag_73:\n      mload(0x40)\n      dup1\n      swap2\n      sub\n      swap1\n      return\n        /* \"@openzeppelin/contracts/token/ERC721/ERC721.sol\":3718:3862  function setApprovalForAll(address operator, bool approved) public virtual {... */\n    tag_15:\n      tag_74\n      0x04\n      dup1\n      calldatasize\n      sub\n      dup2\n      add\n      swap1\n      tag_75\n      swap2\n      swap1\n      tag_76\n      jump\t// in\n    tag_75:\n      tag_77\n      jump\t// in\n    tag_74:\n      stop\n        /* \"@openzeppelin/contracts/token/ERC721/ERC721.sol\":4985:5193  function safeTransferFrom(address from, address to, uint256 tokenId, bytes memory data) public virtual {... */\n    tag_16:\n      tag_78\n      0x04\n      dup1\n      calldatasize\n      sub\n      dup2\n      add\n      swap1\n      tag_79\n      swap2\n      swap1\n      tag_80\n      jump\t// in\n    tag_79:\n      tag_81\n      jump\t// in\n    tag_78:\n      stop\n        /* \"LouNFT.sol\":540:564  uint public MAX_APES = 5 */\n    tag_17:\n      tag_82\n      tag_83\n      jump\t// in\n    tag_82:\n      mload(0x40)\n      tag_84\n      swap2\n      swap1\n      tag_65\n      jump\t// in\n    tag_84:\n      mload(0x40)\n      dup1\n      swap2\n      sub\n      swap1\n      return\n        /* \"@openzeppelin/contracts/token/ERC721/extensions/ERC721URIStorage.sol\":1210:1803  function tokenURI(uint256 tokenId) public view virtual override returns (string memory) {... */\n    tag_18:\n      tag_85\n      0x04\n      dup1\n      calldatasize\n      sub\n      dup2\n      add\n      swap1\n      tag_86\n      swap2\n      swap1\n      tag_37\n      jump\t// in\n    tag_86:\n      tag_87\n      jump\t// in\n    tag_85:\n      mload(0x40)\n      tag_88\n      swap2\n      swap1\n      tag_34\n      jump\t// in\n    tag_88:\n      mload(0x40)\n      dup1\n      swap2\n      sub\n      swap1\n      return\n        /* \"LouNFT.sol\":720:1029  function mint(address to, string memory tokenURI) public onlyOwner {... */\n    tag_19:\n      tag_89\n      0x04\n      dup1\n      calldatasize\n      sub\n      dup2\n      add\n      swap1\n      tag_90\n      swap2\n      swap1\n      tag_91\n      jump\t// in\n    tag_90:\n      tag_92\n      jump\t// in\n    tag_89:\n      stop\n        /* \"@openzeppelin/contracts/token/ERC721/ERC721.sol\":3928:4081  function isApprovedForAll(address owner, address operator) public view virtual returns (bool) {... */\n    tag_20:\n      tag_93\n      0x04\n      dup1\n      calldatasize\n      sub\n      dup2\n      add\n      swap1\n      tag_94\n      swap2\n      swap1\n      tag_95\n      jump\t// in\n    tag_94:\n      tag_96\n      jump\t// in\n    tag_93:\n      mload(0x40)\n      tag_97\n      swap2\n      swap1\n      tag_30\n      jump\t// in\n    tag_97:\n      mload(0x40)\n      dup1\n      swap2\n      sub\n      swap1\n      return\n        /* \"@openzeppelin/contracts/access/Ownable.sol\":2543:2758  function transferOwnership(address newOwner) public virtual onlyOwner {... */\n    tag_21:\n      tag_98\n      0x04\n      dup1\n      calldatasize\n      sub\n      dup2\n      add\n      swap1\n      tag_99\n      swap2\n      swap1\n      tag_62\n      jump\t// in\n    tag_99:\n      tag_100\n      jump\t// in\n    tag_98:\n      stop\n        /* \"@openzeppelin/contracts/token/ERC721/extensions/ERC721URIStorage.sol\":937:1144  function supportsInterface(bytes4 interfaceId) public view virtual override(ERC721, IERC165) returns (bool) {... */\n    tag_28:\n        /* \"@openzeppelin/contracts/token/ERC721/extensions/ERC721URIStorage.sol\":1039:1043  bool */\n      0x00\n        /* \"@openzeppelin/contracts/token/ERC721/extensions/ERC721URIStorage.sol\":760:770  0x49064906 */\n      0x49064906\n        /* \"@openzeppelin/contracts/token/ERC721/extensions/ERC721URIStorage.sol\":753:771  bytes4(0x49064906) */\n      0xe0\n      shl\n        /* \"@openzeppelin/contracts/token/ERC721/extensions/ERC721URIStorage.sol\":1062:1097  interfaceId == ERC4906_INTERFACE_ID */\n      not(0xffffffffffffffffffffffffffffffffffffffffffffffffffffffff)\n      and\n        /* \"@openzeppelin/contracts/token/ERC721/extensions/ERC721URIStorage.sol\":1062:1073  interfaceId */\n      dup3\n        /* \"@openzeppelin/contracts/token/ERC721/extensions/ERC721URIStorage.sol\":1062:1097  interfaceId == ERC4906_INTERFACE_ID */\n      not(0xffffffffffffffffffffffffffffffffffffffffffffffffffffffff)\n      and\n      eq\n        /* \"@openzeppelin/contracts/token/ERC721/extensions/ERC721URIStorage.sol\":1062:1137  interfaceId == ERC4906_INTERFACE_ID || super.supportsInterface(interfaceId) */\n      dup1\n      tag_102\n      jumpi\n      pop\n        /* \"@openzeppelin/contracts/token/ERC721/extensions/ERC721URIStorage.sol\":1101:1137  super.supportsInterface(interfaceId) */\n      tag_103\n        /* \"@openzeppelin/contracts/token/ERC721/extensions/ERC721URIStorage.sol\":1125:1136  interfaceId */\n      dup3\n        /* \"@openzeppelin/contracts/token/ERC721/extensions/ERC721URIStorage.sol\":1101:1124  super.supportsInterface */\n      tag_104\n        /* \"@openzeppelin/contracts/token/ERC721/extensions/ERC721URIStorage.sol\":1101:1137  super.supportsInterface(interfaceId) */\n      jump\t// in\n    tag_103:\n        /* \"@openzeppelin/contracts/token/ERC721/extensions/ERC721URIStorage.sol\":1062:1137  interfaceId == ERC4906_INTERFACE_ID || super.supportsInterface(interfaceId) */\n    tag_102:\n        /* \"@openzeppelin/contracts/token/ERC721/extensions/ERC721URIStorage.sol\":1055:1137  return interfaceId == ERC4906_INTERFACE_ID || super.supportsInterface(interfaceId) */\n      swap1\n      pop\n        /* \"@openzeppelin/contracts/token/ERC721/extensions/ERC721URIStorage.sol\":937:1144  function supportsInterface(bytes4 interfaceId) public view virtual override(ERC721, IERC165) returns (bool) {... */\n      swap2\n      swap1\n      pop\n      jump\t// out\n        /* \"@openzeppelin/contracts/token/ERC721/ERC721.sol\":2365:2454  function name() public view virtual returns (string memory) {... */\n    tag_32:\n        /* \"@openzeppelin/contracts/token/ERC721/ERC721.sol\":2410:2423  string memory */\n      0x60\n        /* \"@openzeppelin/contracts/token/ERC721/ERC721.sol\":2442:2447  _name */\n      0x00\n        /* \"@openzeppelin/contracts/token/ERC721/ERC721.sol\":2435:2447  return _name */\n      dup1\n      sload\n      tag_106\n      swap1\n      tag_107\n      jump\t// in\n    tag_106:\n      dup1\n      0x1f\n      add\n      0x20\n      dup1\n      swap2\n      div\n      mul\n      0x20\n      add\n      mload(0x40)\n      swap1\n      dup2\n      add\n      0x40\n      mstore\n      dup1\n      swap3\n      swap2\n      swap1\n      dup2\n      dup2\n      mstore\n      0x20\n      add\n      dup3\n      dup1\n      sload\n      tag_108\n      swap1\n      tag_107\n      jump\t// in\n    tag_108:\n      dup1\n      iszero\n      tag_109\n      jumpi\n      dup1\n      0x1f\n      lt\n      tag_110\n      jumpi\n      0x0100\n      dup1\n      dup4\n      sload\n      div\n      mul\n      dup4\n      mstore\n      swap2\n      0x20\n      add\n      swap2\n      jump(tag_109)\n    tag_110:\n      dup3\n      add\n      swap2\n      swap1\n      0x00\n      mstore\n      keccak256(0x00, 0x20)\n      swap1\n    tag_111:\n      dup2\n      sload\n      dup2\n      mstore\n      swap1\n      0x01\n      add\n      swap1\n      0x20\n      add\n      dup1\n      dup4\n      gt\n      tag_111\n      jumpi\n      dup3\n      swap1\n      sub\n      0x1f\n      and\n      dup3\n      add\n      swap2\n    tag_109:\n      pop\n      pop\n      pop\n      pop\n      pop\n      swap1\n      pop\n        /* \"@openzeppelin/contracts/token/ERC721/ERC721.sol\":2365:2454  function name() public view virtual returns (string memory) {... */\n      swap1\n      jump\t// out\n        /* \"@openzeppelin/contracts/token/ERC721/ERC721.sol\":3497:3651  function getApproved(uint256 tokenId) public view virtual returns (address) {... */\n    tag_38:\n        /* \"@openzeppelin/contracts/token/ERC721/ERC721.sol\":3564:3571  address */\n      0x00\n        /* \"@openzeppelin/contracts/token/ERC721/ERC721.sol\":3583:3605  _requireOwned(tokenId) */\n      tag_113\n        /* \"@openzeppelin/contracts/token/ERC721/ERC721.sol\":3597:3604  tokenId */\n      dup3\n        /* \"@openzeppelin/contracts/token/ERC721/ERC721.sol\":3583:3596  _requireOwned */\n      tag_114\n        /* \"@openzeppelin/contracts/token/ERC721/ERC721.sol\":3583:3605  _requireOwned(tokenId) */\n      jump\t// in\n    tag_113:\n      pop\n        /* \"@openzeppelin/contracts/token/ERC721/ERC721.sol\":3623:3644  _getApproved(tokenId) */\n      tag_115\n        /* \"@openzeppelin/contracts/token/ERC721/ERC721.sol\":3636:3643  tokenId */\n      dup3\n        /* \"@openzeppelin/contracts/token/ERC721/ERC721.sol\":3623:3635  _getApproved */\n      tag_116\n        /* \"@openzeppelin/contracts/token/ERC721/ERC721.sol\":3623:3644  _getApproved(tokenId) */\n      jump\t// in\n    tag_115:\n        /* \"@openzeppelin/contracts/token/ERC721/ERC721.sol\":3616:3644  return _getApproved(tokenId) */\n      swap1\n      pop\n        /* \"@openzeppelin/contracts/token/ERC721/ERC721.sol\":3497:3651  function getApproved(uint256 tokenId) public view virtual returns (address) {... */\n      swap2\n      swap1\n      pop\n      jump\t// out\n        /* \"@openzeppelin/contracts/token/ERC721/ERC721.sol\":3323:3436  function approve(address to, uint256 tokenId) public virtual {... */\n    tag_44:\n        /* \"@openzeppelin/contracts/token/ERC721/ERC721.sol\":3394:3429  _approve(to, tokenId, _msgSender()) */\n      tag_118\n        /* \"@openzeppelin/contracts/token/ERC721/ERC721.sol\":3403:3405  to */\n      dup3\n        /* \"@openzeppelin/contracts/token/ERC721/ERC721.sol\":3407:3414  tokenId */\n      dup3\n        /* \"@openzeppelin/contracts/token/ERC721/ERC721.sol\":3416:3428  _msgSender() */\n      tag_119\n        /* \"@openzeppelin/contracts/token/ERC721/ERC721.sol\":3416:3426  _msgSender */\n      tag_120\n        /* \"@openzeppelin/contracts/token/ERC721/ERC721.sol\":3416:3428  _msgSender() */\n      jump\t// in\n    tag_119:\n        /* \"@openzeppelin/contracts/token/ERC721/ERC721.sol\":3394:3402  _approve */\n      tag_121\n        /* \"@openzeppelin/contracts/token/ERC721/ERC721.sol\":3394:3429  _approve(to, tokenId, _msgSender()) */\n      jump\t// in\n    tag_118:\n        /* \"@openzeppelin/contracts/token/ERC721/ERC721.sol\":3323:3436  function approve(address to, uint256 tokenId) public virtual {... */\n      pop\n      pop\n      jump\t// out\n        /* \"@openzeppelin/contracts/token/ERC721/ERC721.sol\":4143:4721  function transferFrom(address from, address to, uint256 tokenId) public virtual {... */\n    tag_48:\n        /* \"@openzeppelin/contracts/token/ERC721/ERC721.sol\":4251:4252  0 */\n      0x00\n        /* \"@openzeppelin/contracts/token/ERC721/ERC721.sol\":4237:4253  to == address(0) */\n      0xffffffffffffffffffffffffffffffffffffffff\n      and\n        /* \"@openzeppelin/contracts/token/ERC721/ERC721.sol\":4237:4239  to */\n      dup3\n        /* \"@openzeppelin/contracts/token/ERC721/ERC721.sol\":4237:4253  to == address(0) */\n      0xffffffffffffffffffffffffffffffffffffffff\n      and\n      sub\n        /* \"@openzeppelin/contracts/token/ERC721/ERC721.sol\":4233:4320  if (to == address(0)) {... */\n      tag_123\n      jumpi\n        /* \"@openzeppelin/contracts/token/ERC721/ERC721.sol\":4306:4307  0 */\n      0x00\n        /* \"@openzeppelin/contracts/token/ERC721/ERC721.sol\":4276:4309  ERC721InvalidReceiver(address(0)) */\n      mload(0x40)\n      0x64a0ae9200000000000000000000000000000000000000000000000000000000\n      dup2\n      mstore\n      0x04\n      add\n      tag_124\n      swap2\n      swap1\n      tag_40\n      jump\t// in\n    tag_124:\n      mload(0x40)\n      dup1\n      swap2\n      sub\n      swap1\n      revert\n        /* \"@openzeppelin/contracts/token/ERC721/ERC721.sol\":4233:4320  if (to == address(0)) {... */\n    tag_123:\n        /* \"@openzeppelin/contracts/token/ERC721/ERC721.sol\":4538:4559  address previousOwner */\n      0x00\n        /* \"@openzeppelin/contracts/token/ERC721/ERC721.sol\":4562:4596  _update(to, tokenId, _msgSender()) */\n      tag_125\n        /* \"@openzeppelin/contracts/token/ERC721/ERC721.sol\":4570:4572  to */\n      dup4\n        /* \"@openzeppelin/contracts/token/ERC721/ERC721.sol\":4574:4581  tokenId */\n      dup4\n        /* \"@openzeppelin/contracts/token/ERC721/ERC721.sol\":4583:4595  _msgSender() */\n      tag_126\n        /* \"@openzeppelin/contracts/token/ERC721/ERC721.sol\":4583:4593  _msgSender */\n      tag_120\n        /* \"@openzeppelin/contracts/token/ERC721/ERC721.sol\":4583:4595  _msgSender() */\n      jump\t// in\n    tag_126:\n        /* \"@openzeppelin/contracts/token/ERC721/ERC721.sol\":4562:4569  _update */\n      tag_127\n        /* \"@openzeppelin/contracts/token/ERC721/ERC721.sol\":4562:4596  _update(to, tokenId, _msgSender()) */\n      jump\t// in\n    tag_125:\n        /* \"@openzeppelin/contracts/token/ERC721/ERC721.sol\":4538:4596  address previousOwner = _update(to, tokenId, _msgSender()) */\n      swap1\n      pop\n        /* \"@openzeppelin/contracts/token/ERC721/ERC721.sol\":4627:4631  from */\n      dup4\n        /* \"@openzeppelin/contracts/token/ERC721/ERC721.sol\":4610:4631  previousOwner != from */\n      0xffffffffffffffffffffffffffffffffffffffff\n      and\n        /* \"@openzeppelin/contracts/token/ERC721/ERC721.sol\":4610:4623  previousOwner */\n      dup2\n        /* \"@openzeppelin/contracts/token/ERC721/ERC721.sol\":4610:4631  previousOwner != from */\n      0xffffffffffffffffffffffffffffffffffffffff\n      and\n      eq\n        /* \"@openzeppelin/contracts/token/ERC721/ERC721.sol\":4606:4715  if (previousOwner != from) {... */\n      tag_128\n      jumpi\n        /* \"@openzeppelin/contracts/token/ERC721/ERC721.sol\":4675:4679  from */\n      dup4\n        /* \"@openzeppelin/contracts/token/ERC721/ERC721.sol\":4681:4688  tokenId */\n      dup3\n        /* \"@openzeppelin/contracts/token/ERC721/ERC721.sol\":4690:4703  previousOwner */\n      dup3\n        /* \"@openzeppelin/contracts/token/ERC721/ERC721.sol\":4654:4704  ERC721IncorrectOwner(from, tokenId, previousOwner) */\n      mload(0x40)\n      0x64283d7b00000000000000000000000000000000000000000000000000000000\n      dup2\n      mstore\n      0x04\n      add\n      tag_129\n      swap4\n      swap3\n      swap2\n      swap1\n      tag_130\n      jump\t// in\n    tag_129:\n      mload(0x40)\n      dup1\n      swap2\n      sub\n      swap1\n      revert\n        /* \"@openzeppelin/contracts/token/ERC721/ERC721.sol\":4606:4715  if (previousOwner != from) {... */\n    tag_128:\n        /* \"@openzeppelin/contracts/token/ERC721/ERC721.sol\":4223:4721  {... */\n      pop\n        /* \"@openzeppelin/contracts/token/ERC721/ERC721.sol\":4143:4721  function transferFrom(address from, address to, uint256 tokenId) public virtual {... */\n      pop\n      pop\n      pop\n      jump\t// out\n        /* \"@openzeppelin/contracts/token/ERC721/ERC721.sol\":4787:4919  function safeTransferFrom(address from, address to, uint256 tokenId) public {... */\n    tag_51:\n        /* \"@openzeppelin/contracts/token/ERC721/ERC721.sol\":4873:4912  safeTransferFrom(from, to, tokenId, \"\") */\n      tag_132\n        /* \"@openzeppelin/contracts/token/ERC721/ERC721.sol\":4890:4894  from */\n      dup4\n        /* \"@openzeppelin/contracts/token/ERC721/ERC721.sol\":4896:4898  to */\n      dup4\n        /* \"@openzeppelin/contracts/token/ERC721/ERC721.sol\":4900:4907  tokenId */\n      dup4\n        /* \"@openzeppelin/contracts/token/ERC721/ERC721.sol\":4873:4912  safeTransferFrom(from, to, tokenId, \"\") */\n      mload(0x40)\n      dup1\n      0x20\n      add\n      0x40\n      mstore\n      dup1\n      0x00\n      dup2\n      mstore\n      pop\n        /* \"@openzeppelin/contracts/token/ERC721/ERC721.sol\":4873:4889  safeTransferFrom */\n      tag_81\n        /* \"@openzeppelin/contracts/token/ERC721/ERC721.sol\":4873:4912  safeTransferFrom(from, to, tokenId, \"\") */\n      jump\t// in\n    tag_132:\n        /* \"@openzeppelin/contracts/token/ERC721/ERC721.sol\":4787:4919  function safeTransferFrom(address from, address to, uint256 tokenId) public {... */\n      pop\n      pop\n      pop\n      jump\t// out\n        /* \"LouNFT.sol\":1145:1245  function setBaseURI(string memory baseURI) public onlyOwner {... */\n    tag_55:\n        /* \"@openzeppelin/contracts/access/Ownable.sol\":1531:1544  _checkOwner() */\n      tag_134\n        /* \"@openzeppelin/contracts/access/Ownable.sol\":1531:1542  _checkOwner */\n      tag_135\n        /* \"@openzeppelin/contracts/access/Ownable.sol\":1531:1544  _checkOwner() */\n      jump\t// in\n    tag_134:\n        /* \"LouNFT.sol\":1231:1238  baseURI */\n      dup1\n        /* \"LouNFT.sol\":1215:1228  _baseTokenURI */\n      0x09\n        /* \"LouNFT.sol\":1215:1238  _baseTokenURI = baseURI */\n      swap1\n      dup2\n      tag_137\n      swap2\n      swap1\n      tag_138\n      jump\t// in\n    tag_137:\n      pop\n        /* \"LouNFT.sol\":1145:1245  function setBaseURI(string memory baseURI) public onlyOwner {... */\n      pop\n      jump\t// out\n        /* \"@openzeppelin/contracts/token/ERC721/ERC721.sol\":2185:2303  function ownerOf(uint256 tokenId) public view virtual returns (address) {... */\n    tag_58:\n        /* \"@openzeppelin/contracts/token/ERC721/ERC721.sol\":2248:2255  address */\n      0x00\n        /* \"@openzeppelin/contracts/token/ERC721/ERC721.sol\":2274:2296  _requireOwned(tokenId) */\n      tag_140\n        /* \"@openzeppelin/contracts/token/ERC721/ERC721.sol\":2288:2295  tokenId */\n      dup3\n        /* \"@openzeppelin/contracts/token/ERC721/ERC721.sol\":2274:2287  _requireOwned */\n      tag_114\n        /* \"@openzeppelin/contracts/token/ERC721/ERC721.sol\":2274:2296  _requireOwned(tokenId) */\n      jump\t// in\n    tag_140:\n        /* \"@openzeppelin/contracts/token/ERC721/ERC721.sol\":2267:2296  return _requireOwned(tokenId) */\n      swap1\n      pop\n        /* \"@openzeppelin/contracts/token/ERC721/ERC721.sol\":2185:2303  function ownerOf(uint256 tokenId) public view virtual returns (address) {... */\n      swap2\n      swap1\n      pop\n      jump\t// out\n        /* \"@openzeppelin/contracts/token/ERC721/ERC721.sol\":1920:2128  function balanceOf(address owner) public view virtual returns (uint256) {... */\n    tag_63:\n        /* \"@openzeppelin/contracts/token/ERC721/ERC721.sol\":1983:1990  uint256 */\n      0x00\n        /* \"@openzeppelin/contracts/token/ERC721/ERC721.sol\":2023:2024  0 */\n      dup1\n        /* \"@openzeppelin/contracts/token/ERC721/ERC721.sol\":2006:2025  owner == address(0) */\n      0xffffffffffffffffffffffffffffffffffffffff\n      and\n        /* \"@openzeppelin/contracts/token/ERC721/ERC721.sol\":2006:2011  owner */\n      dup3\n        /* \"@openzeppelin/contracts/token/ERC721/ERC721.sol\":2006:2025  owner == address(0) */\n      0xffffffffffffffffffffffffffffffffffffffff\n      and\n      sub\n        /* \"@openzeppelin/contracts/token/ERC721/ERC721.sol\":2002:2089  if (owner == address(0)) {... */\n      tag_142\n      jumpi\n        /* \"@openzeppelin/contracts/token/ERC721/ERC721.sol\":2075:2076  0 */\n      0x00\n        /* \"@openzeppelin/contracts/token/ERC721/ERC721.sol\":2048:2078  ERC721InvalidOwner(address(0)) */\n      mload(0x40)\n      0x89c62b6400000000000000000000000000000000000000000000000000000000\n      dup2\n      mstore\n      0x04\n      add\n      tag_143\n      swap2\n      swap1\n      tag_40\n      jump\t// in\n    tag_143:\n      mload(0x40)\n      dup1\n      swap2\n      sub\n      swap1\n      revert\n        /* \"@openzeppelin/contracts/token/ERC721/ERC721.sol\":2002:2089  if (owner == address(0)) {... */\n    tag_142:\n        /* \"@openzeppelin/contracts/token/ERC721/ERC721.sol\":2105:2114  _balances */\n      0x03\n        /* \"@openzeppelin/contracts/token/ERC721/ERC721.sol\":2105:2121  _balances[owner] */\n      0x00\n        /* \"@openzeppelin/contracts/token/ERC721/ERC721.sol\":2115:2120  owner */\n      dup4\n        /* \"@openzeppelin/contracts/token/ERC721/ERC721.sol\":2105:2121  _balances[owner] */\n      0xffffffffffffffffffffffffffffffffffffffff\n      and\n      0xffffffffffffffffffffffffffffffffffffffff\n      and\n      dup2\n      mstore\n      0x20\n      add\n      swap1\n      dup2\n      mstore\n      0x20\n      add\n      0x00\n      keccak256\n      sload\n        /* \"@openzeppelin/contracts/token/ERC721/ERC721.sol\":2098:2121  return _balances[owner] */\n      swap1\n      pop\n        /* \"@openzeppelin/contracts/token/ERC721/ERC721.sol\":1920:2128  function balanceOf(address owner) public view virtual returns (uint256) {... */\n      swap2\n      swap1\n      pop\n      jump\t// out\n        /* \"@openzeppelin/contracts/access/Ownable.sol\":2293:2394  function renounceOwnership() public virtual onlyOwner {... */\n    tag_67:\n        /* \"@openzeppelin/contracts/access/Ownable.sol\":1531:1544  _checkOwner() */\n      tag_145\n        /* \"@openzeppelin/contracts/access/Ownable.sol\":1531:1542  _checkOwner */\n      tag_135\n        /* \"@openzeppelin/contracts/access/Ownable.sol\":1531:1544  _checkOwner() */\n      jump\t// in\n    tag_145:\n        /* \"@openzeppelin/contracts/access/Ownable.sol\":2357:2387  _transferOwnership(address(0)) */\n      tag_147\n        /* \"@openzeppelin/contracts/access/Ownable.sol\":2384:2385  0 */\n      0x00\n        /* \"@openzeppelin/contracts/access/Ownable.sol\":2357:2375  _transferOwnership */\n      tag_148\n        /* \"@openzeppelin/contracts/access/Ownable.sol\":2357:2387  _transferOwnership(address(0)) */\n      jump\t// in\n    tag_147:\n        /* \"@openzeppelin/contracts/access/Ownable.sol\":2293:2394  function renounceOwnership() public virtual onlyOwner {... */\n      jump\t// out\n        /* \"@openzeppelin/contracts/access/Ownable.sol\":1638:1723  function owner() public view virtual returns (address) {... */\n    tag_69:\n        /* \"@openzeppelin/contracts/access/Ownable.sol\":1684:1691  address */\n      0x00\n        /* \"@openzeppelin/contracts/access/Ownable.sol\":1710:1716  _owner */\n      0x07\n      0x00\n      swap1\n      sload\n      swap1\n      0x0100\n      exp\n      swap1\n      div\n      0xffffffffffffffffffffffffffffffffffffffff\n      and\n        /* \"@openzeppelin/contracts/access/Ownable.sol\":1703:1716  return _owner */\n      swap1\n      pop\n        /* \"@openzeppelin/contracts/access/Ownable.sol\":1638:1723  function owner() public view virtual returns (address) {... */\n      swap1\n      jump\t// out\n        /* \"@openzeppelin/contracts/token/ERC721/ERC721.sol\":2518:2611  function symbol() public view virtual returns (string memory) {... */\n    tag_72:\n        /* \"@openzeppelin/contracts/token/ERC721/ERC721.sol\":2565:2578  string memory */\n      0x60\n        /* \"@openzeppelin/contracts/token/ERC721/ERC721.sol\":2597:2604  _symbol */\n      0x01\n        /* \"@openzeppelin/contracts/token/ERC721/ERC721.sol\":2590:2604  return _symbol */\n      dup1\n      sload\n      tag_151\n      swap1\n      tag_107\n      jump\t// in\n    tag_151:\n      dup1\n      0x1f\n      add\n      0x20\n      dup1\n      swap2\n      div\n      mul\n      0x20\n      add\n      mload(0x40)\n      swap1\n      dup2\n      add\n      0x40\n      mstore\n      dup1\n      swap3\n      swap2\n      swap1\n      dup2\n      dup2\n      mstore\n      0x20\n      add\n      dup3\n      dup1\n      sload\n      tag_152\n      swap1\n      tag_107\n      jump\t// in\n    tag_152:\n      dup1\n      iszero\n      tag_153\n      jumpi\n      dup1\n      0x1f\n      lt\n      tag_154\n      jumpi\n      0x0100\n      dup1\n      dup4\n      sload\n      div\n      mul\n      dup4\n      mstore\n      swap2\n      0x20\n      add\n      swap2\n      jump(tag_153)\n    tag_154:\n      dup3\n      add\n      swap2\n      swap1\n      0x00\n      mstore\n      keccak256(0x00, 0x20)\n      swap1\n    tag_155:\n      dup2\n      sload\n      dup2\n      mstore\n      swap1\n      0x01\n      add\n      swap1\n      0x20\n      add\n      dup1\n      dup4\n      gt\n      tag_155\n      jumpi\n      dup3\n      swap1\n      sub\n      0x1f\n      and\n      dup3\n      add\n      swap2\n    tag_153:\n      pop\n      pop\n      pop\n      pop\n      pop\n      swap1\n      pop\n        /* \"@openzeppelin/contracts/token/ERC721/ERC721.sol\":2518:2611  function symbol() public view virtual returns (string memory) {... */\n      swap1\n      jump\t// out\n        /* \"@openzeppelin/contracts/token/ERC721/ERC721.sol\":3718:3862  function setApprovalForAll(address operator, bool approved) public virtual {... */\n    tag_77:\n        /* \"@openzeppelin/contracts/token/ERC721/ERC721.sol\":3803:3855  _setApprovalForAll(_msgSender(), operator, approved) */\n      tag_157\n        /* \"@openzeppelin/contracts/token/ERC721/ERC721.sol\":3822:3834  _msgSender() */\n      tag_158\n        /* \"@openzeppelin/contracts/token/ERC721/ERC721.sol\":3822:3832  _msgSender */\n      tag_120\n        /* \"@openzeppelin/contracts/token/ERC721/ERC721.sol\":3822:3834  _msgSender() */\n      jump\t// in\n    tag_158:\n        /* \"@openzeppelin/contracts/token/ERC721/ERC721.sol\":3836:3844  operator */\n      dup4\n        /* \"@openzeppelin/contracts/token/ERC721/ERC721.sol\":3846:3854  approved */\n      dup4\n        /* \"@openzeppelin/contracts/token/ERC721/ERC721.sol\":3803:3821  _setApprovalForAll */\n      tag_159\n        /* \"@openzeppelin/contracts/token/ERC721/ERC721.sol\":3803:3855  _setApprovalForAll(_msgSender(), operator, approved) */\n      jump\t// in\n    tag_157:\n        /* \"@openzeppelin/contracts/token/ERC721/ERC721.sol\":3718:3862  function setApprovalForAll(address operator, bool approved) public virtual {... */\n      pop\n      pop\n      jump\t// out\n        /* \"@openzeppelin/contracts/token/ERC721/ERC721.sol\":4985:5193  function safeTransferFrom(address from, address to, uint256 tokenId, bytes memory data) public virtual {... */\n    tag_81:\n        /* \"@openzeppelin/contracts/token/ERC721/ERC721.sol\":5098:5129  transferFrom(from, to, tokenId) */\n      tag_161\n        /* \"@openzeppelin/contracts/token/ERC721/ERC721.sol\":5111:5115  from */\n      dup5\n        /* \"@openzeppelin/contracts/token/ERC721/ERC721.sol\":5117:5119  to */\n      dup5\n        /* \"@openzeppelin/contracts/token/ERC721/ERC721.sol\":5121:5128  tokenId */\n      dup5\n        /* \"@openzeppelin/contracts/token/ERC721/ERC721.sol\":5098:5110  transferFrom */\n      tag_48\n        /* \"@openzeppelin/contracts/token/ERC721/ERC721.sol\":5098:5129  transferFrom(from, to, tokenId) */\n      jump\t// in\n    tag_161:\n        /* \"@openzeppelin/contracts/token/ERC721/ERC721.sol\":5139:5186  _checkOnERC721Received(from, to, tokenId, data) */\n      tag_162\n        /* \"@openzeppelin/contracts/token/ERC721/ERC721.sol\":5162:5166  from */\n      dup5\n        /* \"@openzeppelin/contracts/token/ERC721/ERC721.sol\":5168:5170  to */\n      dup5\n        /* \"@openzeppelin/contracts/token/ERC721/ERC721.sol\":5172:5179  tokenId */\n      dup5\n        /* \"@openzeppelin/contracts/token/ERC721/ERC721.sol\":5181:5185  data */\n      dup5\n        /* \"@openzeppelin/contracts/token/ERC721/ERC721.sol\":5139:5161  _checkOnERC721Received */\n      tag_163\n        /* \"@openzeppelin/contracts/token/ERC721/ERC721.sol\":5139:5186  _checkOnERC721Received(from, to, tokenId, data) */\n      jump\t// in\n    tag_162:\n        /* \"@openzeppelin/contracts/token/ERC721/ERC721.sol\":4985:5193  function safeTransferFrom(address from, address to, uint256 tokenId, bytes memory data) public virtual {... */\n      pop\n      pop\n      pop\n      pop\n      jump\t// out\n        /* \"LouNFT.sol\":540:564  uint public MAX_APES = 5 */\n    tag_83:\n      sload(0x0a)\n      dup2\n      jump\t// out\n        /* \"@openzeppelin/contracts/token/ERC721/extensions/ERC721URIStorage.sol\":1210:1803  function tokenURI(uint256 tokenId) public view virtual override returns (string memory) {... */\n    tag_87:\n        /* \"@openzeppelin/contracts/token/ERC721/extensions/ERC721URIStorage.sol\":1283:1296  string memory */\n      0x60\n        /* \"@openzeppelin/contracts/token/ERC721/extensions/ERC721URIStorage.sol\":1308:1330  _requireOwned(tokenId) */\n      tag_165\n        /* \"@openzeppelin/contracts/token/ERC721/extensions/ERC721URIStorage.sol\":1322:1329  tokenId */\n      dup3\n        /* \"@openzeppelin/contracts/token/ERC721/extensions/ERC721URIStorage.sol\":1308:1321  _requireOwned */\n      tag_114\n        /* \"@openzeppelin/contracts/token/ERC721/extensions/ERC721URIStorage.sol\":1308:1330  _requireOwned(tokenId) */\n      jump\t// in\n    tag_165:\n      pop\n        /* \"@openzeppelin/contracts/token/ERC721/extensions/ERC721URIStorage.sol\":1341:1364  string memory _tokenURI */\n      0x00\n        /* \"@openzeppelin/contracts/token/ERC721/extensions/ERC721URIStorage.sol\":1367:1377  _tokenURIs */\n      0x06\n        /* \"@openzeppelin/contracts/token/ERC721/extensions/ERC721URIStorage.sol\":1367:1386  _tokenURIs[tokenId] */\n      0x00\n        /* \"@openzeppelin/contracts/token/ERC721/extensions/ERC721URIStorage.sol\":1378:1385  tokenId */\n      dup5\n        /* \"@openzeppelin/contracts/token/ERC721/extensions/ERC721URIStorage.sol\":1367:1386  _tokenURIs[tokenId] */\n      dup2\n      mstore\n      0x20\n      add\n      swap1\n      dup2\n      mstore\n      0x20\n      add\n      0x00\n      keccak256\n        /* \"@openzeppelin/contracts/token/ERC721/extensions/ERC721URIStorage.sol\":1341:1386  string memory _tokenURI = _tokenURIs[tokenId] */\n      dup1\n      sload\n      tag_166\n      swap1\n      tag_107\n      jump\t// in\n    tag_166:\n      dup1\n      0x1f\n      add\n      0x20\n      dup1\n      swap2\n      div\n      mul\n      0x20\n      add\n      mload(0x40)\n      swap1\n      dup2\n      add\n      0x40\n      mstore\n      dup1\n      swap3\n      swap2\n      swap1\n      dup2\n      dup2\n      mstore\n      0x20\n      add\n      dup3\n      dup1\n      sload\n      tag_167\n      swap1\n      tag_107\n      jump\t// in\n    tag_167:\n      dup1\n      iszero\n      tag_168\n      jumpi\n      dup1\n      0x1f\n      lt\n      tag_169\n      jumpi\n      0x0100\n      dup1\n      dup4\n      sload\n      div\n      mul\n      dup4\n      mstore\n      swap2\n      0x20\n      add\n      swap2\n      jump(tag_168)\n    tag_169:\n      dup3\n      add\n      swap2\n      swap1\n      0x00\n      mstore\n      keccak256(0x00, 0x20)\n      swap1\n    tag_170:\n      dup2\n      sload\n      dup2\n      mstore\n      swap1\n      0x01\n      add\n      swap1\n      0x20\n      add\n      dup1\n      dup4\n      gt\n      tag_170\n      jumpi\n      dup3\n      swap1\n      sub\n      0x1f\n      and\n      dup3\n      add\n      swap2\n    tag_168:\n      pop\n      pop\n      pop\n      pop\n      pop\n      swap1\n      pop\n        /* \"@openzeppelin/contracts/token/ERC721/extensions/ERC721URIStorage.sol\":1396:1414  string memory base */\n      0x00\n        /* \"@openzeppelin/contracts/token/ERC721/extensions/ERC721URIStorage.sol\":1417:1427  _baseURI() */\n      tag_171\n        /* \"@openzeppelin/contracts/token/ERC721/extensions/ERC721URIStorage.sol\":1417:1425  _baseURI */\n      tag_172\n        /* \"@openzeppelin/contracts/token/ERC721/extensions/ERC721URIStorage.sol\":1417:1427  _baseURI() */\n      jump\t// in\n    tag_171:\n        /* \"@openzeppelin/contracts/token/ERC721/extensions/ERC721URIStorage.sol\":1396:1427  string memory base = _baseURI() */\n      swap1\n      pop\n        /* \"@openzeppelin/contracts/token/ERC721/extensions/ERC721URIStorage.sol\":1522:1523  0 */\n      0x00\n        /* \"@openzeppelin/contracts/token/ERC721/extensions/ERC721URIStorage.sol\":1506:1510  base */\n      dup2\n        /* \"@openzeppelin/contracts/token/ERC721/extensions/ERC721URIStorage.sol\":1500:1518  bytes(base).length */\n      mload\n        /* \"@openzeppelin/contracts/token/ERC721/extensions/ERC721URIStorage.sol\":1500:1523  bytes(base).length == 0 */\n      sub\n        /* \"@openzeppelin/contracts/token/ERC721/extensions/ERC721URIStorage.sol\":1496:1566  if (bytes(base).length == 0) {... */\n      tag_173\n      jumpi\n        /* \"@openzeppelin/contracts/token/ERC721/extensions/ERC721URIStorage.sol\":1546:1555  _tokenURI */\n      dup2\n        /* \"@openzeppelin/contracts/token/ERC721/extensions/ERC721URIStorage.sol\":1539:1555  return _tokenURI */\n      swap3\n      pop\n      pop\n      pop\n      jump(tag_164)\n        /* \"@openzeppelin/contracts/token/ERC721/extensions/ERC721URIStorage.sol\":1496:1566  if (bytes(base).length == 0) {... */\n    tag_173:\n        /* \"@openzeppelin/contracts/token/ERC721/extensions/ERC721URIStorage.sol\":1691:1692  0 */\n      0x00\n        /* \"@openzeppelin/contracts/token/ERC721/extensions/ERC721URIStorage.sol\":1671:1680  _tokenURI */\n      dup3\n        /* \"@openzeppelin/contracts/token/ERC721/extensions/ERC721URIStorage.sol\":1665:1688  bytes(_tokenURI).length */\n      mload\n        /* \"@openzeppelin/contracts/token/ERC721/extensions/ERC721URIStorage.sol\":1665:1692  bytes(_tokenURI).length > 0 */\n      gt\n        /* \"@openzeppelin/contracts/token/ERC721/extensions/ERC721URIStorage.sol\":1661:1756  if (bytes(_tokenURI).length > 0) {... */\n      iszero\n      tag_174\n      jumpi\n        /* \"@openzeppelin/contracts/token/ERC721/extensions/ERC721URIStorage.sol\":1729:1733  base */\n      dup1\n        /* \"@openzeppelin/contracts/token/ERC721/extensions/ERC721URIStorage.sol\":1735:1744  _tokenURI */\n      dup3\n        /* \"@openzeppelin/contracts/token/ERC721/extensions/ERC721URIStorage.sol\":1715:1745  string.concat(base, _tokenURI) */\n      add(0x20, mload(0x40))\n      tag_175\n      swap3\n      swap2\n      swap1\n      tag_176\n      jump\t// in\n    tag_175:\n      mload(0x40)\n      0x20\n      dup2\n      dup4\n      sub\n      sub\n      dup2\n      mstore\n      swap1\n      0x40\n      mstore\n        /* \"@openzeppelin/contracts/token/ERC721/extensions/ERC721URIStorage.sol\":1708:1745  return string.concat(base, _tokenURI) */\n      swap3\n      pop\n      pop\n      pop\n      jump(tag_164)\n        /* \"@openzeppelin/contracts/token/ERC721/extensions/ERC721URIStorage.sol\":1661:1756  if (bytes(_tokenURI).length > 0) {... */\n    tag_174:\n        /* \"@openzeppelin/contracts/token/ERC721/extensions/ERC721URIStorage.sol\":1773:1796  super.tokenURI(tokenId) */\n      tag_177\n        /* \"@openzeppelin/contracts/token/ERC721/extensions/ERC721URIStorage.sol\":1788:1795  tokenId */\n      dup5\n        /* \"@openzeppelin/contracts/token/ERC721/extensions/ERC721URIStorage.sol\":1773:1787  super.tokenURI */\n      tag_178\n        /* \"@openzeppelin/contracts/token/ERC721/extensions/ERC721URIStorage.sol\":1773:1796  super.tokenURI(tokenId) */\n      jump\t// in\n    tag_177:\n        /* \"@openzeppelin/contracts/token/ERC721/extensions/ERC721URIStorage.sol\":1766:1796  return super.tokenURI(tokenId) */\n      swap3\n      pop\n      pop\n      pop\n        /* \"@openzeppelin/contracts/token/ERC721/extensions/ERC721URIStorage.sol\":1210:1803  function tokenURI(uint256 tokenId) public view virtual override returns (string memory) {... */\n    tag_164:\n      swap2\n      swap1\n      pop\n      jump\t// out\n        /* \"LouNFT.sol\":720:1029  function mint(address to, string memory tokenURI) public onlyOwner {... */\n    tag_92:\n        /* \"@openzeppelin/contracts/access/Ownable.sol\":1531:1544  _checkOwner() */\n      tag_180\n        /* \"@openzeppelin/contracts/access/Ownable.sol\":1531:1542  _checkOwner */\n      tag_135\n        /* \"@openzeppelin/contracts/access/Ownable.sol\":1531:1544  _checkOwner() */\n      jump\t// in\n    tag_180:\n        /* \"LouNFT.sol\":797:812  uint256 tokenId */\n      0x00\n        /* \"LouNFT.sol\":815:837  _nextTokenId.current() */\n      tag_182\n        /* \"LouNFT.sol\":815:827  _nextTokenId */\n      0x08\n        /* \"LouNFT.sol\":815:835  _nextTokenId.current */\n      tag_183\n        /* \"LouNFT.sol\":815:837  _nextTokenId.current() */\n      jump\t// in\n    tag_182:\n        /* \"LouNFT.sol\":797:837  uint256 tokenId = _nextTokenId.current() */\n      swap1\n      pop\n        /* \"LouNFT.sol\":867:868  0 */\n      0x00\n        /* \"LouNFT.sol\":856:863  tokenId */\n      dup2\n        /* \"LouNFT.sol\":856:868  tokenId >= 0 */\n      lt\n      iszero\n        /* \"LouNFT.sol\":856:890  tokenId >= 0 && tokenId < MAX_APES */\n      dup1\n      iszero\n      tag_184\n      jumpi\n      pop\n        /* \"LouNFT.sol\":882:890  MAX_APES */\n      sload(0x0a)\n        /* \"LouNFT.sol\":872:879  tokenId */\n      dup2\n        /* \"LouNFT.sol\":872:890  tokenId < MAX_APES */\n      lt\n        /* \"LouNFT.sol\":856:890  tokenId >= 0 && tokenId < MAX_APES */\n    tag_184:\n        /* \"LouNFT.sol\":848:915  require(tokenId >= 0 && tokenId < MAX_APES, \"tokenId out of range\") */\n      tag_185\n      jumpi\n      mload(0x40)\n      0x08c379a000000000000000000000000000000000000000000000000000000000\n      dup2\n      mstore\n      0x04\n      add\n      tag_186\n      swap1\n      tag_187\n      jump\t// in\n    tag_186:\n      mload(0x40)\n      dup1\n      swap2\n      sub\n      swap1\n      revert\n    tag_185:\n        /* \"LouNFT.sol\":925:949  _nextTokenId.increment() */\n      tag_188\n        /* \"LouNFT.sol\":925:937  _nextTokenId */\n      0x08\n        /* \"LouNFT.sol\":925:947  _nextTokenId.increment */\n      tag_189\n        /* \"LouNFT.sol\":925:949  _nextTokenId.increment() */\n      jump\t// in\n    tag_188:\n        /* \"LouNFT.sol\":959:981  _safeMint(to, tokenId) */\n      tag_190\n        /* \"LouNFT.sol\":969:971  to */\n      dup4\n        /* \"LouNFT.sol\":973:980  tokenId */\n      dup3\n        /* \"LouNFT.sol\":959:968  _safeMint */\n      tag_191\n        /* \"LouNFT.sol\":959:981  _safeMint(to, tokenId) */\n      jump\t// in\n    tag_190:\n        /* \"LouNFT.sol\":991:1022  _setTokenURI(tokenId, tokenURI) */\n      tag_192\n        /* \"LouNFT.sol\":1004:1011  tokenId */\n      dup2\n        /* \"LouNFT.sol\":1013:1021  tokenURI */\n      dup4\n        /* \"LouNFT.sol\":991:1003  _setTokenURI */\n      tag_193\n        /* \"LouNFT.sol\":991:1022  _setTokenURI(tokenId, tokenURI) */\n      jump\t// in\n    tag_192:\n        /* \"LouNFT.sol\":787:1029  {... */\n      pop\n        /* \"LouNFT.sol\":720:1029  function mint(address to, string memory tokenURI) public onlyOwner {... */\n      pop\n      pop\n      jump\t// out\n        /* \"@openzeppelin/contracts/token/ERC721/ERC721.sol\":3928:4081  function isApprovedForAll(address owner, address operator) public view virtual returns (bool) {... */\n    tag_96:\n        /* \"@openzeppelin/contracts/token/ERC721/ERC721.sol\":4016:4020  bool */\n      0x00\n        /* \"@openzeppelin/contracts/token/ERC721/ERC721.sol\":4039:4057  _operatorApprovals */\n      0x05\n        /* \"@openzeppelin/contracts/token/ERC721/ERC721.sol\":4039:4064  _operatorApprovals[owner] */\n      0x00\n        /* \"@openzeppelin/contracts/token/ERC721/ERC721.sol\":4058:4063  owner */\n      dup5\n        /* \"@openzeppelin/contracts/token/ERC721/ERC721.sol\":4039:4064  _operatorApprovals[owner] */\n      0xffffffffffffffffffffffffffffffffffffffff\n      and\n      0xffffffffffffffffffffffffffffffffffffffff\n      and\n      dup2\n      mstore\n      0x20\n      add\n      swap1\n      dup2\n      mstore\n      0x20\n      add\n      0x00\n      keccak256\n        /* \"@openzeppelin/contracts/token/ERC721/ERC721.sol\":4039:4074  _operatorApprovals[owner][operator] */\n      0x00\n        /* \"@openzeppelin/contracts/token/ERC721/ERC721.sol\":4065:4073  operator */\n      dup4\n        /* \"@openzeppelin/contracts/token/ERC721/ERC721.sol\":4039:4074  _operatorApprovals[owner][operator] */\n      0xffffffffffffffffffffffffffffffffffffffff\n      and\n      0xffffffffffffffffffffffffffffffffffffffff\n      and\n      dup2\n      mstore\n      0x20\n      add\n      swap1\n      dup2\n      mstore\n      0x20\n      add\n      0x00\n      keccak256\n      0x00\n      swap1\n      sload\n      swap1\n      0x0100\n      exp\n      swap1\n      div\n      0xff\n      and\n        /* \"@openzeppelin/contracts/token/ERC721/ERC721.sol\":4032:4074  return _operatorApprovals[owner][operator] */\n      swap1\n      pop\n        /* \"@openzeppelin/contracts/token/ERC721/ERC721.sol\":3928:4081  function isApprovedForAll(address owner, address operator) public view virtual returns (bool) {... */\n      swap3\n      swap2\n      pop\n      pop\n      jump\t// out\n        /* \"@openzeppelin/contracts/access/Ownable.sol\":2543:2758  function transferOwnership(address newOwner) public virtual onlyOwner {... */\n    tag_100:\n        /* \"@openzeppelin/contracts/access/Ownable.sol\":1531:1544  _checkOwner() */\n      tag_196\n        /* \"@openzeppelin/contracts/access/Ownable.sol\":1531:1542  _checkOwner */\n      tag_135\n        /* \"@openzeppelin/contracts/access/Ownable.sol\":1531:1544  _checkOwner() */\n      jump\t// in\n    tag_196:\n        /* \"@openzeppelin/contracts/access/Ownable.sol\":2647:2648  0 */\n      0x00\n        /* \"@openzeppelin/contracts/access/Ownable.sol\":2627:2649  newOwner == address(0) */\n      0xffffffffffffffffffffffffffffffffffffffff\n      and\n        /* \"@openzeppelin/contracts/access/Ownable.sol\":2627:2635  newOwner */\n      dup2\n        /* \"@openzeppelin/contracts/access/Ownable.sol\":2627:2649  newOwner == address(0) */\n      0xffffffffffffffffffffffffffffffffffffffff\n      and\n      sub\n        /* \"@openzeppelin/contracts/access/Ownable.sol\":2623:2714  if (newOwner == address(0)) {... */\n      tag_198\n      jumpi\n        /* \"@openzeppelin/contracts/access/Ownable.sol\":2700:2701  0 */\n      0x00\n        /* \"@openzeppelin/contracts/access/Ownable.sol\":2672:2703  OwnableInvalidOwner(address(0)) */\n      mload(0x40)\n      0x1e4fbdf700000000000000000000000000000000000000000000000000000000\n      dup2\n      mstore\n      0x04\n      add\n      tag_199\n      swap2\n      swap1\n      tag_40\n      jump\t// in\n    tag_199:\n      mload(0x40)\n      dup1\n      swap2\n      sub\n      swap1\n      revert\n        /* \"@openzeppelin/contracts/access/Ownable.sol\":2623:2714  if (newOwner == address(0)) {... */\n    tag_198:\n        /* \"@openzeppelin/contracts/access/Ownable.sol\":2723:2751  _transferOwnership(newOwner) */\n      tag_200\n        /* \"@openzeppelin/contracts/access/Ownable.sol\":2742:2750  newOwner */\n      dup2\n        /* \"@openzeppelin/contracts/access/Ownable.sol\":2723:2741  _transferOwnership */\n      tag_148\n        /* \"@openzeppelin/contracts/access/Ownable.sol\":2723:2751  _transferOwnership(newOwner) */\n      jump\t// in\n    tag_200:\n        /* \"@openzeppelin/contracts/access/Ownable.sol\":2543:2758  function transferOwnership(address newOwner) public virtual onlyOwner {... */\n      pop\n      jump\t// out\n        /* \"@openzeppelin/contracts/token/ERC721/ERC721.sol\":1561:1861  function supportsInterface(bytes4 interfaceId) public view virtual override(ERC165, IERC165) returns (bool) {... */\n    tag_104:\n        /* \"@openzeppelin/contracts/token/ERC721/ERC721.sol\":1663:1667  bool */\n      0x00\n        /* \"@openzeppelin/contracts/token/ERC721/ERC721.sol\":1713:1738  type(IERC721).interfaceId */\n      0x80ac58cd00000000000000000000000000000000000000000000000000000000\n        /* \"@openzeppelin/contracts/token/ERC721/ERC721.sol\":1698:1738  interfaceId == type(IERC721).interfaceId */\n      not(0xffffffffffffffffffffffffffffffffffffffffffffffffffffffff)\n      and\n        /* \"@openzeppelin/contracts/token/ERC721/ERC721.sol\":1698:1709  interfaceId */\n      dup3\n        /* \"@openzeppelin/contracts/token/ERC721/ERC721.sol\":1698:1738  interfaceId == type(IERC721).interfaceId */\n      not(0xffffffffffffffffffffffffffffffffffffffffffffffffffffffff)\n      and\n      eq\n        /* \"@openzeppelin/contracts/token/ERC721/ERC721.sol\":1698:1802  interfaceId == type(IERC721).interfaceId ||... */\n      dup1\n      tag_202\n      jumpi\n      pop\n        /* \"@openzeppelin/contracts/token/ERC721/ERC721.sol\":1769:1802  type(IERC721Metadata).interfaceId */\n      0x5b5e139f00000000000000000000000000000000000000000000000000000000\n        /* \"@openzeppelin/contracts/token/ERC721/ERC721.sol\":1754:1802  interfaceId == type(IERC721Metadata).interfaceId */\n      not(0xffffffffffffffffffffffffffffffffffffffffffffffffffffffff)\n      and\n        /* \"@openzeppelin/contracts/token/ERC721/ERC721.sol\":1754:1765  interfaceId */\n      dup3\n        /* \"@openzeppelin/contracts/token/ERC721/ERC721.sol\":1754:1802  interfaceId == type(IERC721Metadata).interfaceId */\n      not(0xffffffffffffffffffffffffffffffffffffffffffffffffffffffff)\n      and\n      eq\n        /* \"@openzeppelin/contracts/token/ERC721/ERC721.sol\":1698:1802  interfaceId == type(IERC721).interfaceId ||... */\n    tag_202:\n        /* \"@openzeppelin/contracts/token/ERC721/ERC721.sol\":1698:1854  interfaceId == type(IERC721).interfaceId ||... */\n      dup1\n      tag_203\n      jumpi\n      pop\n        /* \"@openzeppelin/contracts/token/ERC721/ERC721.sol\":1818:1854  super.supportsInterface(interfaceId) */\n      tag_204\n        /* \"@openzeppelin/contracts/token/ERC721/ERC721.sol\":1842:1853  interfaceId */\n      dup3\n        /* \"@openzeppelin/contracts/token/ERC721/ERC721.sol\":1818:1841  super.supportsInterface */\n      tag_205\n        /* \"@openzeppelin/contracts/token/ERC721/ERC721.sol\":1818:1854  super.supportsInterface(interfaceId) */\n      jump\t// in\n    tag_204:\n        /* \"@openzeppelin/contracts/token/ERC721/ERC721.sol\":1698:1854  interfaceId == type(IERC721).interfaceId ||... */\n    tag_203:\n        /* \"@openzeppelin/contracts/token/ERC721/ERC721.sol\":1679:1854  return... */\n      swap1\n      pop\n        /* \"@openzeppelin/contracts/token/ERC721/ERC721.sol\":1561:1861  function supportsInterface(bytes4 interfaceId) public view virtual override(ERC165, IERC165) returns (bool) {... */\n      swap2\n      swap1\n      pop\n      jump\t// out\n        /* \"@openzeppelin/contracts/token/ERC721/ERC721.sol\":16138:16379  function _requireOwned(uint256 tokenId) internal view returns (address) {... */\n    tag_114:\n        /* \"@openzeppelin/contracts/token/ERC721/ERC721.sol\":16201:16208  address */\n      0x00\n        /* \"@openzeppelin/contracts/token/ERC721/ERC721.sol\":16220:16233  address owner */\n      dup1\n        /* \"@openzeppelin/contracts/token/ERC721/ERC721.sol\":16236:16253  _ownerOf(tokenId) */\n      tag_207\n        /* \"@openzeppelin/contracts/token/ERC721/ERC721.sol\":16245:16252  tokenId */\n      dup4\n        /* \"@openzeppelin/contracts/token/ERC721/ERC721.sol\":16236:16244  _ownerOf */\n      tag_208\n        /* \"@openzeppelin/contracts/token/ERC721/ERC721.sol\":16236:16253  _ownerOf(tokenId) */\n      jump\t// in\n    tag_207:\n        /* \"@openzeppelin/contracts/token/ERC721/ERC721.sol\":16220:16253  address owner = _ownerOf(tokenId) */\n      swap1\n      pop\n        /* \"@openzeppelin/contracts/token/ERC721/ERC721.sol\":16284:16285  0 */\n      0x00\n        /* \"@openzeppelin/contracts/token/ERC721/ERC721.sol\":16267:16286  owner == address(0) */\n      0xffffffffffffffffffffffffffffffffffffffff\n      and\n        /* \"@openzeppelin/contracts/token/ERC721/ERC721.sol\":16267:16272  owner */\n      dup2\n        /* \"@openzeppelin/contracts/token/ERC721/ERC721.sol\":16267:16286  owner == address(0) */\n      0xffffffffffffffffffffffffffffffffffffffff\n      and\n      sub\n        /* \"@openzeppelin/contracts/token/ERC721/ERC721.sol\":16263:16351  if (owner == address(0)) {... */\n      tag_209\n      jumpi\n        /* \"@openzeppelin/contracts/token/ERC721/ERC721.sol\":16332:16339  tokenId */\n      dup3\n        /* \"@openzeppelin/contracts/token/ERC721/ERC721.sol\":16309:16340  ERC721NonexistentToken(tokenId) */\n      mload(0x40)\n      0x7e27328900000000000000000000000000000000000000000000000000000000\n      dup2\n      mstore\n      0x04\n      add\n      tag_210\n      swap2\n      swap1\n      tag_65\n      jump\t// in\n    tag_210:\n      mload(0x40)\n      dup1\n      swap2\n      sub\n      swap1\n      revert\n        /* \"@openzeppelin/contracts/token/ERC721/ERC721.sol\":16263:16351  if (owner == address(0)) {... */\n    tag_209:\n        /* \"@openzeppelin/contracts/token/ERC721/ERC721.sol\":16367:16372  owner */\n      dup1\n        /* \"@openzeppelin/contracts/token/ERC721/ERC721.sol\":16360:16372  return owner */\n      swap2\n      pop\n      pop\n        /* \"@openzeppelin/contracts/token/ERC721/ERC721.sol\":16138:16379  function _requireOwned(uint256 tokenId) internal view returns (address) {... */\n      swap2\n      swap1\n      pop\n      jump\t// out\n        /* \"@openzeppelin/contracts/token/ERC721/ERC721.sol\":5938:6065  function _getApproved(uint256 tokenId) internal view virtual returns (address) {... */\n    tag_116:\n        /* \"@openzeppelin/contracts/token/ERC721/ERC721.sol\":6008:6015  address */\n      0x00\n        /* \"@openzeppelin/contracts/token/ERC721/ERC721.sol\":6034:6049  _tokenApprovals */\n      0x04\n        /* \"@openzeppelin/contracts/token/ERC721/ERC721.sol\":6034:6058  _tokenApprovals[tokenId] */\n      0x00\n        /* \"@openzeppelin/contracts/token/ERC721/ERC721.sol\":6050:6057  tokenId */\n      dup4\n        /* \"@openzeppelin/contracts/token/ERC721/ERC721.sol\":6034:6058  _tokenApprovals[tokenId] */\n      dup2\n      mstore\n      0x20\n      add\n      swap1\n      dup2\n      mstore\n      0x20\n      add\n      0x00\n      keccak256\n      0x00\n      swap1\n      sload\n      swap1\n      0x0100\n      exp\n      swap1\n      div\n      0xffffffffffffffffffffffffffffffffffffffff\n      and\n        /* \"@openzeppelin/contracts/token/ERC721/ERC721.sol\":6027:6058  return _tokenApprovals[tokenId] */\n      swap1\n      pop\n        /* \"@openzeppelin/contracts/token/ERC721/ERC721.sol\":5938:6065  function _getApproved(uint256 tokenId) internal view virtual returns (address) {... */\n      swap2\n      swap1\n      pop\n      jump\t// out\n        /* \"@openzeppelin/contracts/utils/Context.sol\":656:752  function _msgSender() internal view virtual returns (address) {... */\n    tag_120:\n        /* \"@openzeppelin/contracts/utils/Context.sol\":709:716  address */\n      0x00\n        /* \"@openzeppelin/contracts/utils/Context.sol\":735:745  msg.sender */\n      caller\n        /* \"@openzeppelin/contracts/utils/Context.sol\":728:745  return msg.sender */\n      swap1\n      pop\n        /* \"@openzeppelin/contracts/utils/Context.sol\":656:752  function _msgSender() internal view virtual returns (address) {... */\n      swap1\n      jump\t// out\n        /* \"@openzeppelin/contracts/token/ERC721/ERC721.sol\":14418:14538  function _approve(address to, uint256 tokenId, address auth) internal {... */\n    tag_121:\n        /* \"@openzeppelin/contracts/token/ERC721/ERC721.sol\":14498:14531  _approve(to, tokenId, auth, true) */\n      tag_214\n        /* \"@openzeppelin/contracts/token/ERC721/ERC721.sol\":14507:14509  to */\n      dup4\n        /* \"@openzeppelin/contracts/token/ERC721/ERC721.sol\":14511:14518  tokenId */\n      dup4\n        /* \"@openzeppelin/contracts/token/ERC721/ERC721.sol\":14520:14524  auth */\n      dup4\n        /* \"@openzeppelin/contracts/token/ERC721/ERC721.sol\":14526:14530  true */\n      0x01\n        /* \"@openzeppelin/contracts/token/ERC721/ERC721.sol\":14498:14506  _approve */\n      tag_215\n        /* \"@openzeppelin/contracts/token/ERC721/ERC721.sol\":14498:14531  _approve(to, tokenId, auth, true) */\n      jump\t// in\n    tag_214:\n        /* \"@openzeppelin/contracts/token/ERC721/ERC721.sol\":14418:14538  function _approve(address to, uint256 tokenId, address auth) internal {... */\n      pop\n      pop\n      pop\n      jump\t// out\n        /* \"@openzeppelin/contracts/token/ERC721/ERC721.sol\":8838:9633  function _update(address to, uint256 tokenId, address auth) internal virtual returns (address) {... */\n    tag_127:\n        /* \"@openzeppelin/contracts/token/ERC721/ERC721.sol\":8924:8931  address */\n      0x00\n        /* \"@openzeppelin/contracts/token/ERC721/ERC721.sol\":8943:8955  address from */\n      dup1\n        /* \"@openzeppelin/contracts/token/ERC721/ERC721.sol\":8958:8975  _ownerOf(tokenId) */\n      tag_217\n        /* \"@openzeppelin/contracts/token/ERC721/ERC721.sol\":8967:8974  tokenId */\n      dup5\n        /* \"@openzeppelin/contracts/token/ERC721/ERC721.sol\":8958:8966  _ownerOf */\n      tag_208\n        /* \"@openzeppelin/contracts/token/ERC721/ERC721.sol\":8958:8975  _ownerOf(tokenId) */\n      jump\t// in\n    tag_217:\n        /* \"@openzeppelin/contracts/token/ERC721/ERC721.sol\":8943:8975  address from = _ownerOf(tokenId) */\n      swap1\n      pop\n        /* \"@openzeppelin/contracts/token/ERC721/ERC721.sol\":9051:9052  0 */\n      0x00\n        /* \"@openzeppelin/contracts/token/ERC721/ERC721.sol\":9035:9053  auth != address(0) */\n      0xffffffffffffffffffffffffffffffffffffffff\n      and\n        /* \"@openzeppelin/contracts/token/ERC721/ERC721.sol\":9035:9039  auth */\n      dup4\n        /* \"@openzeppelin/contracts/token/ERC721/ERC721.sol\":9035:9053  auth != address(0) */\n      0xffffffffffffffffffffffffffffffffffffffff\n      and\n      eq\n        /* \"@openzeppelin/contracts/token/ERC721/ERC721.sol\":9031:9117  if (auth != address(0)) {... */\n      tag_218\n      jumpi\n        /* \"@openzeppelin/contracts/token/ERC721/ERC721.sol\":9069:9106  _checkAuthorized(from, auth, tokenId) */\n      tag_219\n        /* \"@openzeppelin/contracts/token/ERC721/ERC721.sol\":9086:9090  from */\n      dup2\n        /* \"@openzeppelin/contracts/token/ERC721/ERC721.sol\":9092:9096  auth */\n      dup5\n        /* \"@openzeppelin/contracts/token/ERC721/ERC721.sol\":9098:9105  tokenId */\n      dup7\n        /* \"@openzeppelin/contracts/token/ERC721/ERC721.sol\":9069:9085  _checkAuthorized */\n      tag_220\n        /* \"@openzeppelin/contracts/token/ERC721/ERC721.sol\":9069:9106  _checkAuthorized(from, auth, tokenId) */\n      jump\t// in\n    tag_219:\n        /* \"@openzeppelin/contracts/token/ERC721/ERC721.sol\":9031:9117  if (auth != address(0)) {... */\n    tag_218:\n        /* \"@openzeppelin/contracts/token/ERC721/ERC721.sol\":9177:9178  0 */\n      0x00\n        /* \"@openzeppelin/contracts/token/ERC721/ERC721.sol\":9161:9179  from != address(0) */\n      0xffffffffffffffffffffffffffffffffffffffff\n      and\n        /* \"@openzeppelin/contracts/token/ERC721/ERC721.sol\":9161:9165  from */\n      dup2\n        /* \"@openzeppelin/contracts/token/ERC721/ERC721.sol\":9161:9179  from != address(0) */\n      0xffffffffffffffffffffffffffffffffffffffff\n      and\n      eq\n        /* \"@openzeppelin/contracts/token/ERC721/ERC721.sol\":9157:9413  if (from != address(0)) {... */\n      tag_221\n      jumpi\n        /* \"@openzeppelin/contracts/token/ERC721/ERC721.sol\":9277:9325  _approve(address(0), tokenId, address(0), false) */\n      tag_222\n        /* \"@openzeppelin/contracts/token/ERC721/ERC721.sol\":9294:9295  0 */\n      0x00\n        /* \"@openzeppelin/contracts/token/ERC721/ERC721.sol\":9298:9305  tokenId */\n      dup6\n        /* \"@openzeppelin/contracts/token/ERC721/ERC721.sol\":9315:9316  0 */\n      0x00\n        /* \"@openzeppelin/contracts/token/ERC721/ERC721.sol\":9319:9324  false */\n      dup1\n        /* \"@openzeppelin/contracts/token/ERC721/ERC721.sol\":9277:9285  _approve */\n      tag_215\n        /* \"@openzeppelin/contracts/token/ERC721/ERC721.sol\":9277:9325  _approve(address(0), tokenId, address(0), false) */\n      jump\t// in\n    tag_222:\n        /* \"@openzeppelin/contracts/token/ERC721/ERC721.sol\":9387:9388  1 */\n      0x01\n        /* \"@openzeppelin/contracts/token/ERC721/ERC721.sol\":9368:9377  _balances */\n      0x03\n        /* \"@openzeppelin/contracts/token/ERC721/ERC721.sol\":9368:9383  _balances[from] */\n      0x00\n        /* \"@openzeppelin/contracts/token/ERC721/ERC721.sol\":9378:9382  from */\n      dup4\n        /* \"@openzeppelin/contracts/token/ERC721/ERC721.sol\":9368:9383  _balances[from] */\n      0xffffffffffffffffffffffffffffffffffffffff\n      and\n      0xffffffffffffffffffffffffffffffffffffffff\n      and\n      dup2\n      mstore\n      0x20\n      add\n      swap1\n      dup2\n      mstore\n      0x20\n      add\n      0x00\n      keccak256\n      0x00\n        /* \"@openzeppelin/contracts/token/ERC721/ERC721.sol\":9368:9388  _balances[from] -= 1 */\n      dup3\n      dup3\n      sload\n      sub\n      swap3\n      pop\n      pop\n      dup2\n      swap1\n      sstore\n      pop\n        /* \"@openzeppelin/contracts/token/ERC721/ERC721.sol\":9157:9413  if (from != address(0)) {... */\n    tag_221:\n        /* \"@openzeppelin/contracts/token/ERC721/ERC721.sol\":9441:9442  0 */\n      0x00\n        /* \"@openzeppelin/contracts/token/ERC721/ERC721.sol\":9427:9443  to != address(0) */\n      0xffffffffffffffffffffffffffffffffffffffff\n      and\n        /* \"@openzeppelin/contracts/token/ERC721/ERC721.sol\":9427:9429  to */\n      dup6\n        /* \"@openzeppelin/contracts/token/ERC721/ERC721.sol\":9427:9443  to != address(0) */\n      0xffffffffffffffffffffffffffffffffffffffff\n      and\n      eq\n        /* \"@openzeppelin/contracts/token/ERC721/ERC721.sol\":9423:9530  if (to != address(0)) {... */\n      tag_223\n      jumpi\n        /* \"@openzeppelin/contracts/token/ERC721/ERC721.sol\":9504:9505  1 */\n      0x01\n        /* \"@openzeppelin/contracts/token/ERC721/ERC721.sol\":9487:9496  _balances */\n      0x03\n        /* \"@openzeppelin/contracts/token/ERC721/ERC721.sol\":9487:9500  _balances[to] */\n      0x00\n        /* \"@openzeppelin/contracts/token/ERC721/ERC721.sol\":9497:9499  to */\n      dup8\n        /* \"@openzeppelin/contracts/token/ERC721/ERC721.sol\":9487:9500  _balances[to] */\n      0xffffffffffffffffffffffffffffffffffffffff\n      and\n      0xffffffffffffffffffffffffffffffffffffffff\n      and\n      dup2\n      mstore\n      0x20\n      add\n      swap1\n      dup2\n      mstore\n      0x20\n      add\n      0x00\n      keccak256\n      0x00\n        /* \"@openzeppelin/contracts/token/ERC721/ERC721.sol\":9487:9505  _balances[to] += 1 */\n      dup3\n      dup3\n      sload\n      add\n      swap3\n      pop\n      pop\n      dup2\n      swap1\n      sstore\n      pop\n        /* \"@openzeppelin/contracts/token/ERC721/ERC721.sol\":9423:9530  if (to != address(0)) {... */\n    tag_223:\n        /* \"@openzeppelin/contracts/token/ERC721/ERC721.sol\":9559:9561  to */\n      dup5\n        /* \"@openzeppelin/contracts/token/ERC721/ERC721.sol\":9540:9547  _owners */\n      0x02\n        /* \"@openzeppelin/contracts/token/ERC721/ERC721.sol\":9540:9556  _owners[tokenId] */\n      0x00\n        /* \"@openzeppelin/contracts/token/ERC721/ERC721.sol\":9548:9555  tokenId */\n      dup7\n        /* \"@openzeppelin/contracts/token/ERC721/ERC721.sol\":9540:9556  _owners[tokenId] */\n      dup2\n      mstore\n      0x20\n      add\n      swap1\n      dup2\n      mstore\n      0x20\n      add\n      0x00\n      keccak256\n      0x00\n        /* \"@openzeppelin/contracts/token/ERC721/ERC721.sol\":9540:9561  _owners[tokenId] = to */\n      0x0100\n      exp\n      dup2\n      sload\n      dup2\n      0xffffffffffffffffffffffffffffffffffffffff\n      mul\n      not\n      and\n      swap1\n      dup4\n      0xffffffffffffffffffffffffffffffffffffffff\n      and\n      mul\n      or\n      swap1\n      sstore\n      pop\n        /* \"@openzeppelin/contracts/token/ERC721/ERC721.sol\":9596:9603  tokenId */\n      dup4\n        /* \"@openzeppelin/contracts/token/ERC721/ERC721.sol\":9592:9594  to */\n      dup6\n        /* \"@openzeppelin/contracts/token/ERC721/ERC721.sol\":9577:9604  Transfer(from, to, tokenId) */\n      0xffffffffffffffffffffffffffffffffffffffff\n      and\n        /* \"@openzeppelin/contracts/token/ERC721/ERC721.sol\":9586:9590  from */\n      dup3\n        /* \"@openzeppelin/contracts/token/ERC721/ERC721.sol\":9577:9604  Transfer(from, to, tokenId) */\n      0xffffffffffffffffffffffffffffffffffffffff\n      and\n      0xddf252ad1be2c89b69c2b068fc378daa952ba7f163c4a11628f55a4df523b3ef\n      mload(0x40)\n      mload(0x40)\n      dup1\n      swap2\n      sub\n      swap1\n      log4\n        /* \"@openzeppelin/contracts/token/ERC721/ERC721.sol\":9622:9626  from */\n      dup1\n        /* \"@openzeppelin/contracts/token/ERC721/ERC721.sol\":9615:9626  return from */\n      swap2\n      pop\n      pop\n        /* \"@openzeppelin/contracts/token/ERC721/ERC721.sol\":8838:9633  function _update(address to, uint256 tokenId, address auth) internal virtual returns (address) {... */\n      swap4\n      swap3\n      pop\n      pop\n      pop\n      jump\t// out\n        /* \"@openzeppelin/contracts/access/Ownable.sol\":1796:1958  function _checkOwner() internal view virtual {... */\n    tag_135:\n        /* \"@openzeppelin/contracts/access/Ownable.sol\":1866:1878  _msgSender() */\n      tag_225\n        /* \"@openzeppelin/contracts/access/Ownable.sol\":1866:1876  _msgSender */\n      tag_120\n        /* \"@openzeppelin/contracts/access/Ownable.sol\":1866:1878  _msgSender() */\n      jump\t// in\n    tag_225:\n        /* \"@openzeppelin/contracts/access/Ownable.sol\":1855:1878  owner() != _msgSender() */\n      0xffffffffffffffffffffffffffffffffffffffff\n      and\n        /* \"@openzeppelin/contracts/access/Ownable.sol\":1855:1862  owner() */\n      tag_226\n        /* \"@openzeppelin/contracts/access/Ownable.sol\":1855:1860  owner */\n      tag_69\n        /* \"@openzeppelin/contracts/access/Ownable.sol\":1855:1862  owner() */\n      jump\t// in\n    tag_226:\n        /* \"@openzeppelin/contracts/access/Ownable.sol\":1855:1878  owner() != _msgSender() */\n      0xffffffffffffffffffffffffffffffffffffffff\n      and\n      eq\n        /* \"@openzeppelin/contracts/access/Ownable.sol\":1851:1952  if (owner() != _msgSender()) {... */\n      tag_227\n      jumpi\n        /* \"@openzeppelin/contracts/access/Ownable.sol\":1928:1940  _msgSender() */\n      tag_228\n        /* \"@openzeppelin/contracts/access/Ownable.sol\":1928:1938  _msgSender */\n      tag_120\n        /* \"@openzeppelin/contracts/access/Ownable.sol\":1928:1940  _msgSender() */\n      jump\t// in\n    tag_228:\n        /* \"@openzeppelin/contracts/access/Ownable.sol\":1901:1941  OwnableUnauthorizedAccount(_msgSender()) */\n      mload(0x40)\n      0x118cdaa700000000000000000000000000000000000000000000000000000000\n      dup2\n      mstore\n      0x04\n      add\n      tag_229\n      swap2\n      swap1\n      tag_40\n      jump\t// in\n    tag_229:\n      mload(0x40)\n      dup1\n      swap2\n      sub\n      swap1\n      revert\n        /* \"@openzeppelin/contracts/access/Ownable.sol\":1851:1952  if (owner() != _msgSender()) {... */\n    tag_227:\n        /* \"@openzeppelin/contracts/access/Ownable.sol\":1796:1958  function _checkOwner() internal view virtual {... */\n      jump\t// out\n        /* \"@openzeppelin/contracts/access/Ownable.sol\":2912:3099  function _transferOwnership(address newOwner) internal virtual {... */\n    tag_148:\n        /* \"@openzeppelin/contracts/access/Ownable.sol\":2985:3001  address oldOwner */\n      0x00\n        /* \"@openzeppelin/contracts/access/Ownable.sol\":3004:3010  _owner */\n      0x07\n      0x00\n      swap1\n      sload\n      swap1\n      0x0100\n      exp\n      swap1\n      div\n      0xffffffffffffffffffffffffffffffffffffffff\n      and\n        /* \"@openzeppelin/contracts/access/Ownable.sol\":2985:3010  address oldOwner = _owner */\n      swap1\n      pop\n        /* \"@openzeppelin/contracts/access/Ownable.sol\":3029:3037  newOwner */\n      dup2\n        /* \"@openzeppelin/contracts/access/Ownable.sol\":3020:3026  _owner */\n      0x07\n      0x00\n        /* \"@openzeppelin/contracts/access/Ownable.sol\":3020:3037  _owner = newOwner */\n      0x0100\n      exp\n      dup2\n      sload\n      dup2\n      0xffffffffffffffffffffffffffffffffffffffff\n      mul\n      not\n      and\n      swap1\n      dup4\n      0xffffffffffffffffffffffffffffffffffffffff\n      and\n      mul\n      or\n      swap1\n      sstore\n      pop\n        /* \"@openzeppelin/contracts/access/Ownable.sol\":3083:3091  newOwner */\n      dup2\n        /* \"@openzeppelin/contracts/access/Ownable.sol\":3052:3092  OwnershipTransferred(oldOwner, newOwner) */\n      0xffffffffffffffffffffffffffffffffffffffff\n      and\n        /* \"@openzeppelin/contracts/access/Ownable.sol\":3073:3081  oldOwner */\n      dup2\n        /* \"@openzeppelin/contracts/access/Ownable.sol\":3052:3092  OwnershipTransferred(oldOwner, newOwner) */\n      0xffffffffffffffffffffffffffffffffffffffff\n      and\n      0x8be0079c531659141344cd1fd0a4f28419497f9722a3daafe3b4186f6b6457e0\n      mload(0x40)\n      mload(0x40)\n      dup1\n      swap2\n      sub\n      swap1\n      log3\n        /* \"@openzeppelin/contracts/access/Ownable.sol\":2975:3099  {... */\n      pop\n        /* \"@openzeppelin/contracts/access/Ownable.sol\":2912:3099  function _transferOwnership(address newOwner) internal virtual {... */\n      pop\n      jump\t// out\n        /* \"@openzeppelin/contracts/token/ERC721/ERC721.sol\":15591:15903  function _setApprovalForAll(address owner, address operator, bool approved) internal virtual {... */\n    tag_159:\n        /* \"@openzeppelin/contracts/token/ERC721/ERC721.sol\":15718:15719  0 */\n      0x00\n        /* \"@openzeppelin/contracts/token/ERC721/ERC721.sol\":15698:15720  operator == address(0) */\n      0xffffffffffffffffffffffffffffffffffffffff\n      and\n        /* \"@openzeppelin/contracts/token/ERC721/ERC721.sol\":15698:15706  operator */\n      dup3\n        /* \"@openzeppelin/contracts/token/ERC721/ERC721.sol\":15698:15720  operator == address(0) */\n      0xffffffffffffffffffffffffffffffffffffffff\n      and\n      sub\n        /* \"@openzeppelin/contracts/token/ERC721/ERC721.sol\":15694:15785  if (operator == address(0)) {... */\n      tag_232\n      jumpi\n        /* \"@openzeppelin/contracts/token/ERC721/ERC721.sol\":15765:15773  operator */\n      dup2\n        /* \"@openzeppelin/contracts/token/ERC721/ERC721.sol\":15743:15774  ERC721InvalidOperator(operator) */\n      mload(0x40)\n      0x5b08ba1800000000000000000000000000000000000000000000000000000000\n      dup2\n      mstore\n      0x04\n      add\n      tag_233\n      swap2\n      swap1\n      tag_40\n      jump\t// in\n    tag_233:\n      mload(0x40)\n      dup1\n      swap2\n      sub\n      swap1\n      revert\n        /* \"@openzeppelin/contracts/token/ERC721/ERC721.sol\":15694:15785  if (operator == address(0)) {... */\n    tag_232:\n        /* \"@openzeppelin/contracts/token/ERC721/ERC721.sol\":15832:15840  approved */\n      dup1\n        /* \"@openzeppelin/contracts/token/ERC721/ERC721.sol\":15794:15812  _operatorApprovals */\n      0x05\n        /* \"@openzeppelin/contracts/token/ERC721/ERC721.sol\":15794:15819  _operatorApprovals[owner] */\n      0x00\n        /* \"@openzeppelin/contracts/token/ERC721/ERC721.sol\":15813:15818  owner */\n      dup6\n        /* \"@openzeppelin/contracts/token/ERC721/ERC721.sol\":15794:15819  _operatorApprovals[owner] */\n      0xffffffffffffffffffffffffffffffffffffffff\n      and\n      0xffffffffffffffffffffffffffffffffffffffff\n      and\n      dup2\n      mstore\n      0x20\n      add\n      swap1\n      dup2\n      mstore\n      0x20\n      add\n      0x00\n      keccak256\n        /* \"@openzeppelin/contracts/token/ERC721/ERC721.sol\":15794:15829  _operatorApprovals[owner][operator] */\n      0x00\n        /* \"@openzeppelin/contracts/token/ERC721/ERC721.sol\":15820:15828  operator */\n      dup5\n        /* \"@openzeppelin/contracts/token/ERC721/ERC721.sol\":15794:15829  _operatorApprovals[owner][operator] */\n      0xffffffffffffffffffffffffffffffffffffffff\n      and\n      0xffffffffffffffffffffffffffffffffffffffff\n      and\n      dup2\n      mstore\n      0x20\n      add\n      swap1\n      dup2\n      mstore\n      0x20\n      add\n      0x00\n      keccak256\n      0x00\n        /* \"@openzeppelin/contracts/token/ERC721/ERC721.sol\":15794:15840  _operatorApprovals[owner][operator] = approved */\n      0x0100\n      exp\n      dup2\n      sload\n      dup2\n      0xff\n      mul\n      not\n      and\n      swap1\n      dup4\n      iszero\n      iszero\n      mul\n      or\n      swap1\n      sstore\n      pop\n        /* \"@openzeppelin/contracts/token/ERC721/ERC721.sol\":15877:15885  operator */\n      dup2\n        /* \"@openzeppelin/contracts/token/ERC721/ERC721.sol\":15855:15896  ApprovalForAll(owner, operator, approved) */\n      0xffffffffffffffffffffffffffffffffffffffff\n      and\n        /* \"@openzeppelin/contracts/token/ERC721/ERC721.sol\":15870:15875  owner */\n      dup4\n        /* \"@openzeppelin/contracts/token/ERC721/ERC721.sol\":15855:15896  ApprovalForAll(owner, operator, approved) */\n      0xffffffffffffffffffffffffffffffffffffffff\n      and\n      0x17307eab39ab6107e8899845ad3d59bd9653f200f220920489ca2b5937696c31\n        /* \"@openzeppelin/contracts/token/ERC721/ERC721.sol\":15887:15895  approved */\n      dup4\n        /* \"@openzeppelin/contracts/token/ERC721/ERC721.sol\":15855:15896  ApprovalForAll(owner, operator, approved) */\n      mload(0x40)\n      tag_234\n      swap2\n      swap1\n      tag_30\n      jump\t// in\n    tag_234:\n      mload(0x40)\n      dup1\n      swap2\n      sub\n      swap1\n      log3\n        /* \"@openzeppelin/contracts/token/ERC721/ERC721.sol\":15591:15903  function _setApprovalForAll(address owner, address operator, bool approved) internal virtual {... */\n      pop\n      pop\n      pop\n      jump\t// out\n        /* \"@openzeppelin/contracts/token/ERC721/ERC721.sol\":16918:17700  function _checkOnERC721Received(address from, address to, uint256 tokenId, bytes memory data) private {... */\n    tag_163:\n        /* \"@openzeppelin/contracts/token/ERC721/ERC721.sol\":17051:17052  0 */\n      0x00\n        /* \"@openzeppelin/contracts/token/ERC721/ERC721.sol\":17034:17036  to */\n      dup4\n        /* \"@openzeppelin/contracts/token/ERC721/ERC721.sol\":17034:17048  to.code.length */\n      0xffffffffffffffffffffffffffffffffffffffff\n      and\n      extcodesize\n        /* \"@openzeppelin/contracts/token/ERC721/ERC721.sol\":17034:17052  to.code.length > 0 */\n      gt\n        /* \"@openzeppelin/contracts/token/ERC721/ERC721.sol\":17030:17694  if (to.code.length > 0) {... */\n      iszero\n      tag_236\n      jumpi\n        /* \"@openzeppelin/contracts/token/ERC721/ERC721.sol\":17088:17090  to */\n      dup3\n        /* \"@openzeppelin/contracts/token/ERC721/ERC721.sol\":17072:17108  IERC721Receiver(to).onERC721Received */\n      0xffffffffffffffffffffffffffffffffffffffff\n      and\n      0x150b7a02\n        /* \"@openzeppelin/contracts/token/ERC721/ERC721.sol\":17109:17121  _msgSender() */\n      tag_237\n        /* \"@openzeppelin/contracts/token/ERC721/ERC721.sol\":17109:17119  _msgSender */\n      tag_120\n        /* \"@openzeppelin/contracts/token/ERC721/ERC721.sol\":17109:17121  _msgSender() */\n      jump\t// in\n    tag_237:\n        /* \"@openzeppelin/contracts/token/ERC721/ERC721.sol\":17123:17127  from */\n      dup7\n        /* \"@openzeppelin/contracts/token/ERC721/ERC721.sol\":17129:17136  tokenId */\n      dup6\n        /* \"@openzeppelin/contracts/token/ERC721/ERC721.sol\":17138:17142  data */\n      dup6\n        /* \"@openzeppelin/contracts/token/ERC721/ERC721.sol\":17072:17143  IERC721Receiver(to).onERC721Received(_msgSender(), from, tokenId, data) */\n      mload(0x40)\n      dup6\n      0xffffffff\n      and\n      0xe0\n      shl\n      dup2\n      mstore\n      0x04\n      add\n      tag_238\n      swap5\n      swap4\n      swap3\n      swap2\n      swap1\n      tag_239\n      jump\t// in\n    tag_238:\n      0x20\n      mload(0x40)\n      dup1\n      dup4\n      sub\n      dup2\n      0x00\n      dup8\n      gas\n      call\n      swap3\n      pop\n      pop\n      pop\n      dup1\n      iszero\n      tag_240\n      jumpi\n      pop\n      mload(0x40)\n      returndatasize\n      not(0x1f)\n      0x1f\n      dup3\n      add\n      and\n      dup3\n      add\n      dup1\n      0x40\n      mstore\n      pop\n      dup2\n      add\n      swap1\n      tag_241\n      swap2\n      swap1\n      tag_242\n      jump\t// in\n    tag_241:\n      0x01\n    tag_240:\n        /* \"@openzeppelin/contracts/token/ERC721/ERC721.sol\":17068:17684  try IERC721Receiver(to).onERC721Received(_msgSender(), from, tokenId, data) returns (bytes4 retval) {... */\n      tag_243\n      jumpi\n      returndatasize\n      dup1\n      0x00\n      dup2\n      eq\n      tag_248\n      jumpi\n      mload(0x40)\n      swap2\n      pop\n      and(add(returndatasize, 0x3f), not(0x1f))\n      dup3\n      add\n      0x40\n      mstore\n      returndatasize\n      dup3\n      mstore\n      returndatasize\n      0x00\n      0x20\n      dup5\n      add\n      returndatacopy\n      jump(tag_247)\n    tag_248:\n      0x60\n      swap2\n      pop\n    tag_247:\n      pop\n        /* \"@openzeppelin/contracts/token/ERC721/ERC721.sol\":17398:17399  0 */\n      0x00\n        /* \"@openzeppelin/contracts/token/ERC721/ERC721.sol\":17381:17387  reason */\n      dup2\n        /* \"@openzeppelin/contracts/token/ERC721/ERC721.sol\":17381:17394  reason.length */\n      mload\n        /* \"@openzeppelin/contracts/token/ERC721/ERC721.sol\":17381:17399  reason.length == 0 */\n      sub\n        /* \"@openzeppelin/contracts/token/ERC721/ERC721.sol\":17377:17670  if (reason.length == 0) {... */\n      tag_249\n      jumpi\n        /* \"@openzeppelin/contracts/token/ERC721/ERC721.sol\":17452:17454  to */\n      dup4\n        /* \"@openzeppelin/contracts/token/ERC721/ERC721.sol\":17430:17455  ERC721InvalidReceiver(to) */\n      mload(0x40)\n      0x64a0ae9200000000000000000000000000000000000000000000000000000000\n      dup2\n      mstore\n      0x04\n      add\n      tag_250\n      swap2\n      swap1\n      tag_40\n      jump\t// in\n    tag_250:\n      mload(0x40)\n      dup1\n      swap2\n      sub\n      swap1\n      revert\n        /* \"@openzeppelin/contracts/token/ERC721/ERC721.sol\":17377:17670  if (reason.length == 0) {... */\n    tag_249:\n        /* \"@openzeppelin/contracts/token/ERC721/ERC721.sol\":17622:17628  reason */\n      dup1\n        /* \"@openzeppelin/contracts/token/ERC721/ERC721.sol\":17616:17629  mload(reason) */\n      mload\n        /* \"@openzeppelin/contracts/token/ERC721/ERC721.sol\":17607:17613  reason */\n      dup2\n        /* \"@openzeppelin/contracts/token/ERC721/ERC721.sol\":17603:17605  32 */\n      0x20\n        /* \"@openzeppelin/contracts/token/ERC721/ERC721.sol\":17599:17614  add(32, reason) */\n      add\n        /* \"@openzeppelin/contracts/token/ERC721/ERC721.sol\":17592:17630  revert(add(32, reason), mload(reason)) */\n      revert\n        /* \"@openzeppelin/contracts/token/ERC721/ERC721.sol\":17068:17684  try IERC721Receiver(to).onERC721Received(_msgSender(), from, tokenId, data) returns (bytes4 retval) {... */\n    tag_243:\n        /* \"@openzeppelin/contracts/token/ERC721/ERC721.sol\":17200:17241  IERC721Receiver.onERC721Received.selector */\n      shl(0xe0, 0x150b7a02)\n        /* \"@openzeppelin/contracts/token/ERC721/ERC721.sol\":17190:17241  retval != IERC721Receiver.onERC721Received.selector */\n      not(0xffffffffffffffffffffffffffffffffffffffffffffffffffffffff)\n      and\n        /* \"@openzeppelin/contracts/token/ERC721/ERC721.sol\":17190:17196  retval */\n      dup2\n        /* \"@openzeppelin/contracts/token/ERC721/ERC721.sol\":17190:17241  retval != IERC721Receiver.onERC721Received.selector */\n      not(0xffffffffffffffffffffffffffffffffffffffffffffffffffffffff)\n      and\n      eq\n        /* \"@openzeppelin/contracts/token/ERC721/ERC721.sol\":17186:17316  if (retval != IERC721Receiver.onERC721Received.selector) {... */\n      tag_253\n      jumpi\n        /* \"@openzeppelin/contracts/token/ERC721/ERC721.sol\":17294:17296  to */\n      dup4\n        /* \"@openzeppelin/contracts/token/ERC721/ERC721.sol\":17272:17297  ERC721InvalidReceiver(to) */\n      mload(0x40)\n      0x64a0ae9200000000000000000000000000000000000000000000000000000000\n      dup2\n      mstore\n      0x04\n      add\n      tag_254\n      swap2\n      swap1\n      tag_40\n      jump\t// in\n    tag_254:\n      mload(0x40)\n      dup1\n      swap2\n      sub\n      swap1\n      revert\n        /* \"@openzeppelin/contracts/token/ERC721/ERC721.sol\":17186:17316  if (retval != IERC721Receiver.onERC721Received.selector) {... */\n    tag_253:\n        /* \"@openzeppelin/contracts/token/ERC721/ERC721.sol\":17144:17330  returns (bytes4 retval) {... */\n      pop\n        /* \"@openzeppelin/contracts/token/ERC721/ERC721.sol\":17030:17694  if (to.code.length > 0) {... */\n    tag_236:\n        /* \"@openzeppelin/contracts/token/ERC721/ERC721.sol\":16918:17700  function _checkOnERC721Received(address from, address to, uint256 tokenId, bytes memory data) private {... */\n      pop\n      pop\n      pop\n      pop\n      jump\t// out\n        /* \"LouNFT.sol\":1035:1139  function _baseURI() internal view override returns (string memory) {... */\n    tag_172:\n        /* \"LouNFT.sol\":1087:1100  string memory */\n      0x60\n        /* \"LouNFT.sol\":1119:1132  _baseTokenURI */\n      0x09\n        /* \"LouNFT.sol\":1112:1132  return _baseTokenURI */\n      dup1\n      sload\n      tag_256\n      swap1\n      tag_107\n      jump\t// in\n    tag_256:\n      dup1\n      0x1f\n      add\n      0x20\n      dup1\n      swap2\n      div\n      mul\n      0x20\n      add\n      mload(0x40)\n      swap1\n      dup2\n      add\n      0x40\n      mstore\n      dup1\n      swap3\n      swap2\n      swap1\n      dup2\n      dup2\n      mstore\n      0x20\n      add\n      dup3\n      dup1\n      sload\n      tag_257\n      swap1\n      tag_107\n      jump\t// in\n    tag_257:\n      dup1\n      iszero\n      tag_258\n      jumpi\n      dup1\n      0x1f\n      lt\n      tag_259\n      jumpi\n      0x0100\n      dup1\n      dup4\n      sload\n      div\n      mul\n      dup4\n      mstore\n      swap2\n      0x20\n      add\n      swap2\n      jump(tag_258)\n    tag_259:\n      dup3\n      add\n      swap2\n      swap1\n      0x00\n      mstore\n      keccak256(0x00, 0x20)\n      swap1\n    tag_260:\n      dup2\n      sload\n      dup2\n      mstore\n      swap1\n      0x01\n      add\n      swap1\n      0x20\n      add\n      dup1\n      dup4\n      gt\n      tag_260\n      jumpi\n      dup3\n      swap1\n      sub\n      0x1f\n      and\n      dup3\n      add\n      swap2\n    tag_258:\n      pop\n      pop\n      pop\n      pop\n      pop\n      swap1\n      pop\n        /* \"LouNFT.sol\":1035:1139  function _baseURI() internal view override returns (string memory) {... */\n      swap1\n      jump\t// out\n        /* \"@openzeppelin/contracts/token/ERC721/ERC721.sol\":2677:2932  function tokenURI(uint256 tokenId) public view virtual returns (string memory) {... */\n    tag_178:\n        /* \"@openzeppelin/contracts/token/ERC721/ERC721.sol\":2741:2754  string memory */\n      0x60\n        /* \"@openzeppelin/contracts/token/ERC721/ERC721.sol\":2766:2788  _requireOwned(tokenId) */\n      tag_262\n        /* \"@openzeppelin/contracts/token/ERC721/ERC721.sol\":2780:2787  tokenId */\n      dup3\n        /* \"@openzeppelin/contracts/token/ERC721/ERC721.sol\":2766:2779  _requireOwned */\n      tag_114\n        /* \"@openzeppelin/contracts/token/ERC721/ERC721.sol\":2766:2788  _requireOwned(tokenId) */\n      jump\t// in\n    tag_262:\n      pop\n        /* \"@openzeppelin/contracts/token/ERC721/ERC721.sol\":2799:2820  string memory baseURI */\n      0x00\n        /* \"@openzeppelin/contracts/token/ERC721/ERC721.sol\":2823:2833  _baseURI() */\n      tag_263\n        /* \"@openzeppelin/contracts/token/ERC721/ERC721.sol\":2823:2831  _baseURI */\n      tag_172\n        /* \"@openzeppelin/contracts/token/ERC721/ERC721.sol\":2823:2833  _baseURI() */\n      jump\t// in\n    tag_263:\n        /* \"@openzeppelin/contracts/token/ERC721/ERC721.sol\":2799:2833  string memory baseURI = _baseURI() */\n      swap1\n      pop\n        /* \"@openzeppelin/contracts/token/ERC721/ERC721.sol\":2874:2875  0 */\n      0x00\n        /* \"@openzeppelin/contracts/token/ERC721/ERC721.sol\":2856:2863  baseURI */\n      dup2\n        /* \"@openzeppelin/contracts/token/ERC721/ERC721.sol\":2850:2871  bytes(baseURI).length */\n      mload\n        /* \"@openzeppelin/contracts/token/ERC721/ERC721.sol\":2850:2875  bytes(baseURI).length > 0 */\n      gt\n        /* \"@openzeppelin/contracts/token/ERC721/ERC721.sol\":2850:2925  bytes(baseURI).length > 0 ? string.concat(baseURI, tokenId.toString()) : \"\" */\n      tag_264\n      jumpi\n      mload(0x40)\n      dup1\n      0x20\n      add\n      0x40\n      mstore\n      dup1\n      0x00\n      dup2\n      mstore\n      pop\n      jump(tag_265)\n    tag_264:\n        /* \"@openzeppelin/contracts/token/ERC721/ERC721.sol\":2892:2899  baseURI */\n      dup1\n        /* \"@openzeppelin/contracts/token/ERC721/ERC721.sol\":2901:2919  tokenId.toString() */\n      tag_266\n        /* \"@openzeppelin/contracts/token/ERC721/ERC721.sol\":2901:2908  tokenId */\n      dup5\n        /* \"@openzeppelin/contracts/token/ERC721/ERC721.sol\":2901:2917  tokenId.toString */\n      tag_267\n        /* \"@openzeppelin/contracts/token/ERC721/ERC721.sol\":2901:2919  tokenId.toString() */\n      jump\t// in\n    tag_266:\n        /* \"@openzeppelin/contracts/token/ERC721/ERC721.sol\":2878:2920  string.concat(baseURI, tokenId.toString()) */\n      add(0x20, mload(0x40))\n      tag_268\n      swap3\n      swap2\n      swap1\n      tag_176\n      jump\t// in\n    tag_268:\n      mload(0x40)\n      0x20\n      dup2\n      dup4\n      sub\n      sub\n      dup2\n      mstore\n      swap1\n      0x40\n      mstore\n        /* \"@openzeppelin/contracts/token/ERC721/ERC721.sol\":2850:2925  bytes(baseURI).length > 0 ? string.concat(baseURI, tokenId.toString()) : \"\" */\n    tag_265:\n        /* \"@openzeppelin/contracts/token/ERC721/ERC721.sol\":2843:2925  return bytes(baseURI).length > 0 ? string.concat(baseURI, tokenId.toString()) : \"\" */\n      swap2\n      pop\n      pop\n        /* \"@openzeppelin/contracts/token/ERC721/ERC721.sol\":2677:2932  function tokenURI(uint256 tokenId) public view virtual returns (string memory) {... */\n      swap2\n      swap1\n      pop\n      jump\t// out\n        /* \"@openzeppelin/contracts/utils/Counters.sol\":827:939  function current(Counter storage counter) internal view returns (uint256) {... */\n    tag_183:\n        /* \"@openzeppelin/contracts/utils/Counters.sol\":892:899  uint256 */\n      0x00\n        /* \"@openzeppelin/contracts/utils/Counters.sol\":918:925  counter */\n      dup2\n        /* \"@openzeppelin/contracts/utils/Counters.sol\":918:932  counter._value */\n      0x00\n      add\n      sload\n        /* \"@openzeppelin/contracts/utils/Counters.sol\":911:932  return counter._value */\n      swap1\n      pop\n        /* \"@openzeppelin/contracts/utils/Counters.sol\":827:939  function current(Counter storage counter) internal view returns (uint256) {... */\n      swap2\n      swap1\n      pop\n      jump\t// out\n        /* \"@openzeppelin/contracts/utils/Counters.sol\":945:1068  function increment(Counter storage counter) internal {... */\n    tag_189:\n        /* \"@openzeppelin/contracts/utils/Counters.sol\":1050:1051  1 */\n      0x01\n        /* \"@openzeppelin/contracts/utils/Counters.sol\":1032:1039  counter */\n      dup2\n        /* \"@openzeppelin/contracts/utils/Counters.sol\":1032:1046  counter._value */\n      0x00\n      add\n      0x00\n        /* \"@openzeppelin/contracts/utils/Counters.sol\":1032:1051  counter._value += 1 */\n      dup3\n      dup3\n      sload\n      add\n      swap3\n      pop\n      pop\n      dup2\n      swap1\n      sstore\n      pop\n        /* \"@openzeppelin/contracts/utils/Counters.sol\":945:1068  function increment(Counter storage counter) internal {... */\n      pop\n      jump\t// out\n        /* \"@openzeppelin/contracts/token/ERC721/ERC721.sol\":10633:10733  function _safeMint(address to, uint256 tokenId) internal {... */\n    tag_191:\n        /* \"@openzeppelin/contracts/token/ERC721/ERC721.sol\":10700:10726  _safeMint(to, tokenId, \"\") */\n      tag_272\n        /* \"@openzeppelin/contracts/token/ERC721/ERC721.sol\":10710:10712  to */\n      dup3\n        /* \"@openzeppelin/contracts/token/ERC721/ERC721.sol\":10714:10721  tokenId */\n      dup3\n        /* \"@openzeppelin/contracts/token/ERC721/ERC721.sol\":10700:10726  _safeMint(to, tokenId, \"\") */\n      mload(0x40)\n      dup1\n      0x20\n      add\n      0x40\n      mstore\n      dup1\n      0x00\n      dup2\n      mstore\n      pop\n        /* \"@openzeppelin/contracts/token/ERC721/ERC721.sol\":10700:10709  _safeMint */\n      tag_273\n        /* \"@openzeppelin/contracts/token/ERC721/ERC721.sol\":10700:10726  _safeMint(to, tokenId, \"\") */\n      jump\t// in\n    tag_272:\n        /* \"@openzeppelin/contracts/token/ERC721/ERC721.sol\":10633:10733  function _safeMint(address to, uint256 tokenId) internal {... */\n      pop\n      pop\n      jump\t// out\n        /* \"@openzeppelin/contracts/token/ERC721/extensions/ERC721URIStorage.sol\":1922:2089  function _setTokenURI(uint256 tokenId, string memory _tokenURI) internal virtual {... */\n    tag_193:\n        /* \"@openzeppelin/contracts/token/ERC721/extensions/ERC721URIStorage.sol\":2035:2044  _tokenURI */\n      dup1\n        /* \"@openzeppelin/contracts/token/ERC721/extensions/ERC721URIStorage.sol\":2013:2023  _tokenURIs */\n      0x06\n        /* \"@openzeppelin/contracts/token/ERC721/extensions/ERC721URIStorage.sol\":2013:2032  _tokenURIs[tokenId] */\n      0x00\n        /* \"@openzeppelin/contracts/token/ERC721/extensions/ERC721URIStorage.sol\":2024:2031  tokenId */\n      dup5\n        /* \"@openzeppelin/contracts/token/ERC721/extensions/ERC721URIStorage.sol\":2013:2032  _tokenURIs[tokenId] */\n      dup2\n      mstore\n      0x20\n      add\n      swap1\n      dup2\n      mstore\n      0x20\n      add\n      0x00\n      keccak256\n        /* \"@openzeppelin/contracts/token/ERC721/extensions/ERC721URIStorage.sol\":2013:2044  _tokenURIs[tokenId] = _tokenURI */\n      swap1\n      dup2\n      tag_275\n      swap2\n      swap1\n      tag_138\n      jump\t// in\n    tag_275:\n      pop\n        /* \"@openzeppelin/contracts/token/ERC721/extensions/ERC721URIStorage.sol\":2059:2082  MetadataUpdate(tokenId) */\n      0xf8e1a15aba9398e019f0b49df1a4fde98ee17ae345cb5f6b5e2c27f5033e8ce7\n        /* \"@openzeppelin/contracts/token/ERC721/extensions/ERC721URIStorage.sol\":2074:2081  tokenId */\n      dup3\n        /* \"@openzeppelin/contracts/token/ERC721/extensions/ERC721URIStorage.sol\":2059:2082  MetadataUpdate(tokenId) */\n      mload(0x40)\n      tag_276\n      swap2\n      swap1\n      tag_65\n      jump\t// in\n    tag_276:\n      mload(0x40)\n      dup1\n      swap2\n      sub\n      swap1\n      log1\n        /* \"@openzeppelin/contracts/token/ERC721/extensions/ERC721URIStorage.sol\":1922:2089  function _setTokenURI(uint256 tokenId, string memory _tokenURI) internal virtual {... */\n      pop\n      pop\n      jump\t// out\n        /* \"@openzeppelin/contracts/utils/introspection/ERC165.sol\":762:908  function supportsInterface(bytes4 interfaceId) public view virtual returns (bool) {... */\n    tag_205:\n        /* \"@openzeppelin/contracts/utils/introspection/ERC165.sol\":838:842  bool */\n      0x00\n        /* \"@openzeppelin/contracts/utils/introspection/ERC165.sol\":876:901  type(IERC165).interfaceId */\n      0x01ffc9a700000000000000000000000000000000000000000000000000000000\n        /* \"@openzeppelin/contracts/utils/introspection/ERC165.sol\":861:901  interfaceId == type(IERC165).interfaceId */\n      not(0xffffffffffffffffffffffffffffffffffffffffffffffffffffffff)\n      and\n        /* \"@openzeppelin/contracts/utils/introspection/ERC165.sol\":861:872  interfaceId */\n      dup3\n        /* \"@openzeppelin/contracts/utils/introspection/ERC165.sol\":861:901  interfaceId == type(IERC165).interfaceId */\n      not(0xffffffffffffffffffffffffffffffffffffffffffffffffffffffff)\n      and\n      eq\n        /* \"@openzeppelin/contracts/utils/introspection/ERC165.sol\":854:901  return interfaceId == type(IERC165).interfaceId */\n      swap1\n      pop\n        /* \"@openzeppelin/contracts/utils/introspection/ERC165.sol\":762:908  function supportsInterface(bytes4 interfaceId) public view virtual returns (bool) {... */\n      swap2\n      swap1\n      pop\n      jump\t// out\n        /* \"@openzeppelin/contracts/token/ERC721/ERC721.sol\":5707:5822  function _ownerOf(uint256 tokenId) internal view virtual returns (address) {... */\n    tag_208:\n        /* \"@openzeppelin/contracts/token/ERC721/ERC721.sol\":5773:5780  address */\n      0x00\n        /* \"@openzeppelin/contracts/token/ERC721/ERC721.sol\":5799:5806  _owners */\n      0x02\n        /* \"@openzeppelin/contracts/token/ERC721/ERC721.sol\":5799:5815  _owners[tokenId] */\n      0x00\n        /* \"@openzeppelin/contracts/token/ERC721/ERC721.sol\":5807:5814  tokenId */\n      dup4\n        /* \"@openzeppelin/contracts/token/ERC721/ERC721.sol\":5799:5815  _owners[tokenId] */\n      dup2\n      mstore\n      0x20\n      add\n      swap1\n      dup2\n      mstore\n      0x20\n      add\n      0x00\n      keccak256\n      0x00\n      swap1\n      sload\n      swap1\n      0x0100\n      exp\n      swap1\n      div\n      0xffffffffffffffffffffffffffffffffffffffff\n      and\n        /* \"@openzeppelin/contracts/token/ERC721/ERC721.sol\":5792:5815  return _owners[tokenId] */\n      swap1\n      pop\n        /* \"@openzeppelin/contracts/token/ERC721/ERC721.sol\":5707:5822  function _ownerOf(uint256 tokenId) internal view virtual returns (address) {... */\n      swap2\n      swap1\n      pop\n      jump\t// out\n        /* \"@openzeppelin/contracts/token/ERC721/ERC721.sol\":14720:15382  function _approve(address to, uint256 tokenId, address auth, bool emitEvent) internal virtual {... */\n    tag_215:\n        /* \"@openzeppelin/contracts/token/ERC721/ERC721.sol\":14880:14889  emitEvent */\n      dup1\n        /* \"@openzeppelin/contracts/token/ERC721/ERC721.sol\":14880:14911  emitEvent || auth != address(0) */\n      dup1\n      tag_280\n      jumpi\n      pop\n        /* \"@openzeppelin/contracts/token/ERC721/ERC721.sol\":14909:14910  0 */\n      0x00\n        /* \"@openzeppelin/contracts/token/ERC721/ERC721.sol\":14893:14911  auth != address(0) */\n      0xffffffffffffffffffffffffffffffffffffffff\n      and\n        /* \"@openzeppelin/contracts/token/ERC721/ERC721.sol\":14893:14897  auth */\n      dup3\n        /* \"@openzeppelin/contracts/token/ERC721/ERC721.sol\":14893:14911  auth != address(0) */\n      0xffffffffffffffffffffffffffffffffffffffff\n      and\n      eq\n      iszero\n        /* \"@openzeppelin/contracts/token/ERC721/ERC721.sol\":14880:14911  emitEvent || auth != address(0) */\n    tag_280:\n        /* \"@openzeppelin/contracts/token/ERC721/ERC721.sol\":14876:15336  if (emitEvent || auth != address(0)) {... */\n      iszero\n      tag_281\n      jumpi\n        /* \"@openzeppelin/contracts/token/ERC721/ERC721.sol\":14927:14940  address owner */\n      0x00\n        /* \"@openzeppelin/contracts/token/ERC721/ERC721.sol\":14943:14965  _requireOwned(tokenId) */\n      tag_282\n        /* \"@openzeppelin/contracts/token/ERC721/ERC721.sol\":14957:14964  tokenId */\n      dup5\n        /* \"@openzeppelin/contracts/token/ERC721/ERC721.sol\":14943:14956  _requireOwned */\n      tag_114\n        /* \"@openzeppelin/contracts/token/ERC721/ERC721.sol\":14943:14965  _requireOwned(tokenId) */\n      jump\t// in\n    tag_282:\n        /* \"@openzeppelin/contracts/token/ERC721/ERC721.sol\":14927:14965  address owner = _requireOwned(tokenId) */\n      swap1\n      pop\n        /* \"@openzeppelin/contracts/token/ERC721/ERC721.sol\":15109:15110  0 */\n      0x00\n        /* \"@openzeppelin/contracts/token/ERC721/ERC721.sol\":15093:15111  auth != address(0) */\n      0xffffffffffffffffffffffffffffffffffffffff\n      and\n        /* \"@openzeppelin/contracts/token/ERC721/ERC721.sol\":15093:15097  auth */\n      dup4\n        /* \"@openzeppelin/contracts/token/ERC721/ERC721.sol\":15093:15111  auth != address(0) */\n      0xffffffffffffffffffffffffffffffffffffffff\n      and\n      eq\n      iszero\n        /* \"@openzeppelin/contracts/token/ERC721/ERC721.sol\":15093:15128  auth != address(0) && owner != auth */\n      dup1\n      iszero\n      tag_283\n      jumpi\n      pop\n        /* \"@openzeppelin/contracts/token/ERC721/ERC721.sol\":15124:15128  auth */\n      dup3\n        /* \"@openzeppelin/contracts/token/ERC721/ERC721.sol\":15115:15128  owner != auth */\n      0xffffffffffffffffffffffffffffffffffffffff\n      and\n        /* \"@openzeppelin/contracts/token/ERC721/ERC721.sol\":15115:15120  owner */\n      dup2\n        /* \"@openzeppelin/contracts/token/ERC721/ERC721.sol\":15115:15128  owner != auth */\n      0xffffffffffffffffffffffffffffffffffffffff\n      and\n      eq\n      iszero\n        /* \"@openzeppelin/contracts/token/ERC721/ERC721.sol\":15093:15128  auth != address(0) && owner != auth */\n    tag_283:\n        /* \"@openzeppelin/contracts/token/ERC721/ERC721.sol\":15093:15162  auth != address(0) && owner != auth && !isApprovedForAll(owner, auth) */\n      dup1\n      iszero\n      tag_284\n      jumpi\n      pop\n        /* \"@openzeppelin/contracts/token/ERC721/ERC721.sol\":15133:15162  isApprovedForAll(owner, auth) */\n      tag_285\n        /* \"@openzeppelin/contracts/token/ERC721/ERC721.sol\":15150:15155  owner */\n      dup2\n        /* \"@openzeppelin/contracts/token/ERC721/ERC721.sol\":15157:15161  auth */\n      dup5\n        /* \"@openzeppelin/contracts/token/ERC721/ERC721.sol\":15133:15149  isApprovedForAll */\n      tag_96\n        /* \"@openzeppelin/contracts/token/ERC721/ERC721.sol\":15133:15162  isApprovedForAll(owner, auth) */\n      jump\t// in\n    tag_285:\n        /* \"@openzeppelin/contracts/token/ERC721/ERC721.sol\":15132:15162  !isApprovedForAll(owner, auth) */\n      iszero\n        /* \"@openzeppelin/contracts/token/ERC721/ERC721.sol\":15093:15162  auth != address(0) && owner != auth && !isApprovedForAll(owner, auth) */\n    tag_284:\n        /* \"@openzeppelin/contracts/token/ERC721/ERC721.sol\":15089:15231  if (auth != address(0) && owner != auth && !isApprovedForAll(owner, auth)) {... */\n      iszero\n      tag_286\n      jumpi\n        /* \"@openzeppelin/contracts/token/ERC721/ERC721.sol\":15211:15215  auth */\n      dup3\n        /* \"@openzeppelin/contracts/token/ERC721/ERC721.sol\":15189:15216  ERC721InvalidApprover(auth) */\n      mload(0x40)\n      0xa9fbf51f00000000000000000000000000000000000000000000000000000000\n      dup2\n      mstore\n      0x04\n      add\n      tag_287\n      swap2\n      swap1\n      tag_40\n      jump\t// in\n    tag_287:\n      mload(0x40)\n      dup1\n      swap2\n      sub\n      swap1\n      revert\n        /* \"@openzeppelin/contracts/token/ERC721/ERC721.sol\":15089:15231  if (auth != address(0) && owner != auth && !isApprovedForAll(owner, auth)) {... */\n    tag_286:\n        /* \"@openzeppelin/contracts/token/ERC721/ERC721.sol\":15249:15258  emitEvent */\n      dup2\n        /* \"@openzeppelin/contracts/token/ERC721/ERC721.sol\":15245:15326  if (emitEvent) {... */\n      iszero\n      tag_288\n      jumpi\n        /* \"@openzeppelin/contracts/token/ERC721/ERC721.sol\":15303:15310  tokenId */\n      dup4\n        /* \"@openzeppelin/contracts/token/ERC721/ERC721.sol\":15299:15301  to */\n      dup6\n        /* \"@openzeppelin/contracts/token/ERC721/ERC721.sol\":15283:15311  Approval(owner, to, tokenId) */\n      0xffffffffffffffffffffffffffffffffffffffff\n      and\n        /* \"@openzeppelin/contracts/token/ERC721/ERC721.sol\":15292:15297  owner */\n      dup3\n        /* \"@openzeppelin/contracts/token/ERC721/ERC721.sol\":15283:15311  Approval(owner, to, tokenId) */\n      0xffffffffffffffffffffffffffffffffffffffff\n      and\n      0x8c5be1e5ebec7d5bd14f71427d1e84f3dd0314c0f7b2291e5b200ac8c7c3b925\n      mload(0x40)\n      mload(0x40)\n      dup1\n      swap2\n      sub\n      swap1\n      log4\n        /* \"@openzeppelin/contracts/token/ERC721/ERC721.sol\":15245:15326  if (emitEvent) {... */\n    tag_288:\n        /* \"@openzeppelin/contracts/token/ERC721/ERC721.sol\":14913:15336  {... */\n      pop\n        /* \"@openzeppelin/contracts/token/ERC721/ERC721.sol\":14876:15336  if (emitEvent || auth != address(0)) {... */\n    tag_281:\n        /* \"@openzeppelin/contracts/token/ERC721/ERC721.sol\":15373:15375  to */\n      dup4\n        /* \"@openzeppelin/contracts/token/ERC721/ERC721.sol\":15346:15361  _tokenApprovals */\n      0x04\n        /* \"@openzeppelin/contracts/token/ERC721/ERC721.sol\":15346:15370  _tokenApprovals[tokenId] */\n      0x00\n        /* \"@openzeppelin/contracts/token/ERC721/ERC721.sol\":15362:15369  tokenId */\n      dup6\n        /* \"@openzeppelin/contracts/token/ERC721/ERC721.sol\":15346:15370  _tokenApprovals[tokenId] */\n      dup2\n      mstore\n      0x20\n      add\n      swap1\n      dup2\n      mstore\n      0x20\n      add\n      0x00\n      keccak256\n      0x00\n        /* \"@openzeppelin/contracts/token/ERC721/ERC721.sol\":15346:15375  _tokenApprovals[tokenId] = to */\n      0x0100\n      exp\n      dup2\n      sload\n      dup2\n      0xffffffffffffffffffffffffffffffffffffffff\n      mul\n      not\n      and\n      swap1\n      dup4\n      0xffffffffffffffffffffffffffffffffffffffff\n      and\n      mul\n      or\n      swap1\n      sstore\n      pop\n        /* \"@openzeppelin/contracts/token/ERC721/ERC721.sol\":14720:15382  function _approve(address to, uint256 tokenId, address auth, bool emitEvent) internal virtual {... */\n      pop\n      pop\n      pop\n      pop\n      jump\t// out\n        /* \"@openzeppelin/contracts/token/ERC721/ERC721.sol\":7082:7450  function _checkAuthorized(address owner, address spender, uint256 tokenId) internal view virtual {... */\n    tag_220:\n        /* \"@openzeppelin/contracts/token/ERC721/ERC721.sol\":7194:7232  _isAuthorized(owner, spender, tokenId) */\n      tag_290\n        /* \"@openzeppelin/contracts/token/ERC721/ERC721.sol\":7208:7213  owner */\n      dup4\n        /* \"@openzeppelin/contracts/token/ERC721/ERC721.sol\":7215:7222  spender */\n      dup4\n        /* \"@openzeppelin/contracts/token/ERC721/ERC721.sol\":7224:7231  tokenId */\n      dup4\n        /* \"@openzeppelin/contracts/token/ERC721/ERC721.sol\":7194:7207  _isAuthorized */\n      tag_291\n        /* \"@openzeppelin/contracts/token/ERC721/ERC721.sol\":7194:7232  _isAuthorized(owner, spender, tokenId) */\n      jump\t// in\n    tag_290:\n        /* \"@openzeppelin/contracts/token/ERC721/ERC721.sol\":7189:7444  if (!_isAuthorized(owner, spender, tokenId)) {... */\n      tag_292\n      jumpi\n        /* \"@openzeppelin/contracts/token/ERC721/ERC721.sol\":7269:7270  0 */\n      0x00\n        /* \"@openzeppelin/contracts/token/ERC721/ERC721.sol\":7252:7271  owner == address(0) */\n      0xffffffffffffffffffffffffffffffffffffffff\n      and\n        /* \"@openzeppelin/contracts/token/ERC721/ERC721.sol\":7252:7257  owner */\n      dup4\n        /* \"@openzeppelin/contracts/token/ERC721/ERC721.sol\":7252:7271  owner == address(0) */\n      0xffffffffffffffffffffffffffffffffffffffff\n      and\n      sub\n        /* \"@openzeppelin/contracts/token/ERC721/ERC721.sol\":7248:7434  if (owner == address(0)) {... */\n      tag_293\n      jumpi\n        /* \"@openzeppelin/contracts/token/ERC721/ERC721.sol\":7321:7328  tokenId */\n      dup1\n        /* \"@openzeppelin/contracts/token/ERC721/ERC721.sol\":7298:7329  ERC721NonexistentToken(tokenId) */\n      mload(0x40)\n      0x7e27328900000000000000000000000000000000000000000000000000000000\n      dup2\n      mstore\n      0x04\n      add\n      tag_294\n      swap2\n      swap1\n      tag_65\n      jump\t// in\n    tag_294:\n      mload(0x40)\n      dup1\n      swap2\n      sub\n      swap1\n      revert\n        /* \"@openzeppelin/contracts/token/ERC721/ERC721.sol\":7248:7434  if (owner == address(0)) {... */\n    tag_293:\n        /* \"@openzeppelin/contracts/token/ERC721/ERC721.sol\":7402:7409  spender */\n      dup2\n        /* \"@openzeppelin/contracts/token/ERC721/ERC721.sol\":7411:7418  tokenId */\n      dup2\n        /* \"@openzeppelin/contracts/token/ERC721/ERC721.sol\":7375:7419  ERC721InsufficientApproval(spender, tokenId) */\n      mload(0x40)\n      0x177e802f00000000000000000000000000000000000000000000000000000000\n      dup2\n      mstore\n      0x04\n      add\n      tag_296\n      swap3\n      swap2\n      swap1\n      tag_297\n      jump\t// in\n    tag_296:\n      mload(0x40)\n      dup1\n      swap2\n      sub\n      swap1\n      revert\n        /* \"@openzeppelin/contracts/token/ERC721/ERC721.sol\":7189:7444  if (!_isAuthorized(owner, spender, tokenId)) {... */\n    tag_292:\n        /* \"@openzeppelin/contracts/token/ERC721/ERC721.sol\":7082:7450  function _checkAuthorized(address owner, address spender, uint256 tokenId) internal view virtual {... */\n      pop\n      pop\n      pop\n      jump\t// out\n        /* \"@openzeppelin/contracts/utils/Strings.sol\":637:1335  function toString(uint256 value) internal pure returns (string memory) {... */\n    tag_267:\n        /* \"@openzeppelin/contracts/utils/Strings.sol\":693:706  string memory */\n      0x60\n        /* \"@openzeppelin/contracts/utils/Strings.sol\":742:756  uint256 length */\n      0x00\n        /* \"@openzeppelin/contracts/utils/Strings.sol\":779:780  1 */\n      0x01\n        /* \"@openzeppelin/contracts/utils/Strings.sol\":759:776  Math.log10(value) */\n      tag_299\n        /* \"@openzeppelin/contracts/utils/Strings.sol\":770:775  value */\n      dup5\n        /* \"@openzeppelin/contracts/utils/Strings.sol\":759:769  Math.log10 */\n      tag_300\n        /* \"@openzeppelin/contracts/utils/Strings.sol\":759:776  Math.log10(value) */\n      jump\t// in\n    tag_299:\n        /* \"@openzeppelin/contracts/utils/Strings.sol\":759:780  Math.log10(value) + 1 */\n      add\n        /* \"@openzeppelin/contracts/utils/Strings.sol\":742:780  uint256 length = Math.log10(value) + 1 */\n      swap1\n      pop\n        /* \"@openzeppelin/contracts/utils/Strings.sol\":794:814  string memory buffer */\n      0x00\n        /* \"@openzeppelin/contracts/utils/Strings.sol\":828:834  length */\n      dup2\n        /* \"@openzeppelin/contracts/utils/Strings.sol\":817:835  new string(length) */\n      0xffffffffffffffff\n      dup2\n      gt\n      iszero\n      tag_301\n      jumpi\n      tag_302\n      tag_303\n      jump\t// in\n    tag_302:\n    tag_301:\n      mload(0x40)\n      swap1\n      dup1\n      dup3\n      mstore\n      dup1\n      0x1f\n      add\n      not(0x1f)\n      and\n      0x20\n      add\n      dup3\n      add\n      0x40\n      mstore\n      dup1\n      iszero\n      tag_304\n      jumpi\n      dup2\n      0x20\n      add\n      0x01\n      dup3\n      mul\n      dup1\n      calldatasize\n      dup4\n      calldatacopy\n      dup1\n      dup3\n      add\n      swap2\n      pop\n      pop\n      swap1\n      pop\n    tag_304:\n      pop\n        /* \"@openzeppelin/contracts/utils/Strings.sol\":794:835  string memory buffer = new string(length) */\n      swap1\n      pop\n        /* \"@openzeppelin/contracts/utils/Strings.sol\":849:860  uint256 ptr */\n      0x00\n        /* \"@openzeppelin/contracts/utils/Strings.sol\":975:981  length */\n      dup3\n        /* \"@openzeppelin/contracts/utils/Strings.sol\":971:973  32 */\n      0x20\n        /* \"@openzeppelin/contracts/utils/Strings.sol\":967:982  add(32, length) */\n      add\n        /* \"@openzeppelin/contracts/utils/Strings.sol\":959:965  buffer */\n      dup3\n        /* \"@openzeppelin/contracts/utils/Strings.sol\":955:983  add(buffer, add(32, length)) */\n      add\n        /* \"@openzeppelin/contracts/utils/Strings.sol\":948:983  ptr := add(buffer, add(32, length)) */\n      swap1\n      pop\n        /* \"@openzeppelin/contracts/utils/Strings.sol\":1010:1292  while (true) {... */\n    tag_305:\n        /* \"@openzeppelin/contracts/utils/Strings.sol\":1017:1021  true */\n      0x01\n        /* \"@openzeppelin/contracts/utils/Strings.sol\":1010:1292  while (true) {... */\n      iszero\n      tag_306\n      jumpi\n        /* \"@openzeppelin/contracts/utils/Strings.sol\":1041:1046  ptr-- */\n      dup1\n      dup1\n      0x01\n      swap1\n      sub\n      swap2\n      pop\n      pop\n        /* \"@openzeppelin/contracts/utils/Strings.sol\":1180:1190  HEX_DIGITS */\n      0x3031323334353637383961626364656600000000000000000000000000000000\n        /* \"@openzeppelin/contracts/utils/Strings.sol\":1175:1177  10 */\n      0x0a\n        /* \"@openzeppelin/contracts/utils/Strings.sol\":1168:1173  value */\n      dup7\n        /* \"@openzeppelin/contracts/utils/Strings.sol\":1164:1178  mod(value, 10) */\n      mod\n        /* \"@openzeppelin/contracts/utils/Strings.sol\":1159:1191  byte(mod(value, 10), HEX_DIGITS) */\n      byte\n        /* \"@openzeppelin/contracts/utils/Strings.sol\":1154:1157  ptr */\n      dup2\n        /* \"@openzeppelin/contracts/utils/Strings.sol\":1146:1192  mstore8(ptr, byte(mod(value, 10), HEX_DIGITS)) */\n      mstore8\n        /* \"@openzeppelin/contracts/utils/Strings.sol\":1236:1238  10 */\n      0x0a\n        /* \"@openzeppelin/contracts/utils/Strings.sol\":1227:1238  value /= 10 */\n      dup6\n      dup2\n      tag_307\n      jumpi\n      tag_308\n      tag_309\n      jump\t// in\n    tag_308:\n    tag_307:\n      div\n      swap5\n      pop\n        /* \"@openzeppelin/contracts/utils/Strings.sol\":1269:1270  0 */\n      0x00\n        /* \"@openzeppelin/contracts/utils/Strings.sol\":1260:1265  value */\n      dup6\n        /* \"@openzeppelin/contracts/utils/Strings.sol\":1260:1270  value == 0 */\n      sub\n        /* \"@openzeppelin/contracts/utils/Strings.sol\":1010:1292  while (true) {... */\n      tag_305\n        /* \"@openzeppelin/contracts/utils/Strings.sol\":1256:1277  if (value == 0) break */\n      jumpi\n        /* \"@openzeppelin/contracts/utils/Strings.sol\":1010:1292  while (true) {... */\n    tag_306:\n        /* \"@openzeppelin/contracts/utils/Strings.sol\":1312:1318  buffer */\n      dup2\n        /* \"@openzeppelin/contracts/utils/Strings.sol\":1305:1318  return buffer */\n      swap4\n      pop\n      pop\n      pop\n      pop\n        /* \"@openzeppelin/contracts/utils/Strings.sol\":637:1335  function toString(uint256 value) internal pure returns (string memory) {... */\n      swap2\n      swap1\n      pop\n      jump\t// out\n        /* \"@openzeppelin/contracts/token/ERC721/ERC721.sol\":10954:11136  function _safeMint(address to, uint256 tokenId, bytes memory data) internal virtual {... */\n    tag_273:\n        /* \"@openzeppelin/contracts/token/ERC721/ERC721.sol\":11048:11066  _mint(to, tokenId) */\n      tag_312\n        /* \"@openzeppelin/contracts/token/ERC721/ERC721.sol\":11054:11056  to */\n      dup4\n        /* \"@openzeppelin/contracts/token/ERC721/ERC721.sol\":11058:11065  tokenId */\n      dup4\n        /* \"@openzeppelin/contracts/token/ERC721/ERC721.sol\":11048:11053  _mint */\n      tag_313\n        /* \"@openzeppelin/contracts/token/ERC721/ERC721.sol\":11048:11066  _mint(to, tokenId) */\n      jump\t// in\n    tag_312:\n        /* \"@openzeppelin/contracts/token/ERC721/ERC721.sol\":11076:11129  _checkOnERC721Received(address(0), to, tokenId, data) */\n      tag_314\n        /* \"@openzeppelin/contracts/token/ERC721/ERC721.sol\":11107:11108  0 */\n      0x00\n        /* \"@openzeppelin/contracts/token/ERC721/ERC721.sol\":11111:11113  to */\n      dup5\n        /* \"@openzeppelin/contracts/token/ERC721/ERC721.sol\":11115:11122  tokenId */\n      dup5\n        /* \"@openzeppelin/contracts/token/ERC721/ERC721.sol\":11124:11128  data */\n      dup5\n        /* \"@openzeppelin/contracts/token/ERC721/ERC721.sol\":11076:11098  _checkOnERC721Received */\n      tag_163\n        /* \"@openzeppelin/contracts/token/ERC721/ERC721.sol\":11076:11129  _checkOnERC721Received(address(0), to, tokenId, data) */\n      jump\t// in\n    tag_314:\n        /* \"@openzeppelin/contracts/token/ERC721/ERC721.sol\":10954:11136  function _safeMint(address to, uint256 tokenId, bytes memory data) internal virtual {... */\n      pop\n      pop\n      pop\n      jump\t// out\n        /* \"@openzeppelin/contracts/token/ERC721/ERC721.sol\":6376:6648  function _isAuthorized(address owner, address spender, uint256 tokenId) internal view virtual returns (bool) {... */\n    tag_291:\n        /* \"@openzeppelin/contracts/token/ERC721/ERC721.sol\":6479:6483  bool */\n      0x00\n        /* \"@openzeppelin/contracts/token/ERC721/ERC721.sol\":6533:6534  0 */\n      dup1\n        /* \"@openzeppelin/contracts/token/ERC721/ERC721.sol\":6514:6535  spender != address(0) */\n      0xffffffffffffffffffffffffffffffffffffffff\n      and\n        /* \"@openzeppelin/contracts/token/ERC721/ERC721.sol\":6514:6521  spender */\n      dup4\n        /* \"@openzeppelin/contracts/token/ERC721/ERC721.sol\":6514:6535  spender != address(0) */\n      0xffffffffffffffffffffffffffffffffffffffff\n      and\n      eq\n      iszero\n        /* \"@openzeppelin/contracts/token/ERC721/ERC721.sol\":6514:6641  spender != address(0) &&... */\n      dup1\n      iszero\n      tag_316\n      jumpi\n      pop\n        /* \"@openzeppelin/contracts/token/ERC721/ERC721.sol\":6561:6568  spender */\n      dup3\n        /* \"@openzeppelin/contracts/token/ERC721/ERC721.sol\":6552:6568  owner == spender */\n      0xffffffffffffffffffffffffffffffffffffffff\n      and\n        /* \"@openzeppelin/contracts/token/ERC721/ERC721.sol\":6552:6557  owner */\n      dup5\n        /* \"@openzeppelin/contracts/token/ERC721/ERC721.sol\":6552:6568  owner == spender */\n      0xffffffffffffffffffffffffffffffffffffffff\n      and\n      eq\n        /* \"@openzeppelin/contracts/token/ERC721/ERC721.sol\":6552:6604  owner == spender || isApprovedForAll(owner, spender) */\n      dup1\n      tag_317\n      jumpi\n      pop\n        /* \"@openzeppelin/contracts/token/ERC721/ERC721.sol\":6572:6604  isApprovedForAll(owner, spender) */\n      tag_318\n        /* \"@openzeppelin/contracts/token/ERC721/ERC721.sol\":6589:6594  owner */\n      dup5\n        /* \"@openzeppelin/contracts/token/ERC721/ERC721.sol\":6596:6603  spender */\n      dup5\n        /* \"@openzeppelin/contracts/token/ERC721/ERC721.sol\":6572:6588  isApprovedForAll */\n      tag_96\n        /* \"@openzeppelin/contracts/token/ERC721/ERC721.sol\":6572:6604  isApprovedForAll(owner, spender) */\n      jump\t// in\n    tag_318:\n        /* \"@openzeppelin/contracts/token/ERC721/ERC721.sol\":6552:6604  owner == spender || isApprovedForAll(owner, spender) */\n    tag_317:\n        /* \"@openzeppelin/contracts/token/ERC721/ERC721.sol\":6552:6640  owner == spender || isApprovedForAll(owner, spender) || _getApproved(tokenId) == spender */\n      dup1\n      tag_319\n      jumpi\n      pop\n        /* \"@openzeppelin/contracts/token/ERC721/ERC721.sol\":6633:6640  spender */\n      dup3\n        /* \"@openzeppelin/contracts/token/ERC721/ERC721.sol\":6608:6640  _getApproved(tokenId) == spender */\n      0xffffffffffffffffffffffffffffffffffffffff\n      and\n        /* \"@openzeppelin/contracts/token/ERC721/ERC721.sol\":6608:6629  _getApproved(tokenId) */\n      tag_320\n        /* \"@openzeppelin/contracts/token/ERC721/ERC721.sol\":6621:6628  tokenId */\n      dup4\n        /* \"@openzeppelin/contracts/token/ERC721/ERC721.sol\":6608:6620  _getApproved */\n      tag_116\n        /* \"@openzeppelin/contracts/token/ERC721/ERC721.sol\":6608:6629  _getApproved(tokenId) */\n      jump\t// in\n    tag_320:\n        /* \"@openzeppelin/contracts/token/ERC721/ERC721.sol\":6608:6640  _getApproved(tokenId) == spender */\n      0xffffffffffffffffffffffffffffffffffffffff\n      and\n      eq\n        /* \"@openzeppelin/contracts/token/ERC721/ERC721.sol\":6552:6640  owner == spender || isApprovedForAll(owner, spender) || _getApproved(tokenId) == spender */\n    tag_319:\n        /* \"@openzeppelin/contracts/token/ERC721/ERC721.sol\":6514:6641  spender != address(0) &&... */\n    tag_316:\n        /* \"@openzeppelin/contracts/token/ERC721/ERC721.sol\":6495:6641  return... */\n      swap1\n      pop\n        /* \"@openzeppelin/contracts/token/ERC721/ERC721.sol\":6376:6648  function _isAuthorized(address owner, address spender, uint256 tokenId) internal view virtual returns (bool) {... */\n      swap4\n      swap3\n      pop\n      pop\n      pop\n      jump\t// out\n        /* \"@openzeppelin/contracts/utils/math/Math.sol\":12214:13130  function log10(uint256 value) internal pure returns (uint256) {... */\n    tag_300:\n        /* \"@openzeppelin/contracts/utils/math/Math.sol\":12267:12274  uint256 */\n      0x00\n        /* \"@openzeppelin/contracts/utils/math/Math.sol\":12286:12300  uint256 result */\n      dup1\n        /* \"@openzeppelin/contracts/utils/math/Math.sol\":12303:12304  0 */\n      0x00\n        /* \"@openzeppelin/contracts/utils/math/Math.sol\":12286:12304  uint256 result = 0 */\n      swap1\n      pop\n        /* \"@openzeppelin/contracts/utils/math/Math.sol\":12351:12359  10 ** 64 */\n      0x184f03e93ff9f4daa797ed6e38ed64bf6a1f010000000000000000\n        /* \"@openzeppelin/contracts/utils/math/Math.sol\":12342:12347  value */\n      dup4\n        /* \"@openzeppelin/contracts/utils/math/Math.sol\":12342:12359  value >= 10 ** 64 */\n      lt\n        /* \"@openzeppelin/contracts/utils/math/Math.sol\":12338:12441  if (value >= 10 ** 64) {... */\n      tag_322\n      jumpi\n        /* \"@openzeppelin/contracts/utils/math/Math.sol\":12388:12396  10 ** 64 */\n      0x184f03e93ff9f4daa797ed6e38ed64bf6a1f010000000000000000\n        /* \"@openzeppelin/contracts/utils/math/Math.sol\":12379:12396  value /= 10 ** 64 */\n      dup4\n      dup2\n      tag_323\n      jumpi\n      tag_324\n      tag_309\n      jump\t// in\n    tag_324:\n    tag_323:\n      div\n      swap3\n      pop\n        /* \"@openzeppelin/contracts/utils/math/Math.sol\":12424:12426  64 */\n      0x40\n        /* \"@openzeppelin/contracts/utils/math/Math.sol\":12414:12426  result += 64 */\n      dup2\n      add\n      swap1\n      pop\n        /* \"@openzeppelin/contracts/utils/math/Math.sol\":12338:12441  if (value >= 10 ** 64) {... */\n    tag_322:\n        /* \"@openzeppelin/contracts/utils/math/Math.sol\":12467:12475  10 ** 32 */\n      0x04ee2d6d415b85acef8100000000\n        /* \"@openzeppelin/contracts/utils/math/Math.sol\":12458:12463  value */\n      dup4\n        /* \"@openzeppelin/contracts/utils/math/Math.sol\":12458:12475  value >= 10 ** 32 */\n      lt\n        /* \"@openzeppelin/contracts/utils/math/Math.sol\":12454:12557  if (value >= 10 ** 32) {... */\n      tag_325\n      jumpi\n        /* \"@openzeppelin/contracts/utils/math/Math.sol\":12504:12512  10 ** 32 */\n      0x04ee2d6d415b85acef8100000000\n        /* \"@openzeppelin/contracts/utils/math/Math.sol\":12495:12512  value /= 10 ** 32 */\n      dup4\n      dup2\n      tag_326\n      jumpi\n      tag_327\n      tag_309\n      jump\t// in\n    tag_327:\n    tag_326:\n      div\n      swap3\n      pop\n        /* \"@openzeppelin/contracts/utils/math/Math.sol\":12540:12542  32 */\n      0x20\n        /* \"@openzeppelin/contracts/utils/math/Math.sol\":12530:12542  result += 32 */\n      dup2\n      add\n      swap1\n      pop\n        /* \"@openzeppelin/contracts/utils/math/Math.sol\":12454:12557  if (value >= 10 ** 32) {... */\n    tag_325:\n        /* \"@openzeppelin/contracts/utils/math/Math.sol\":12583:12591  10 ** 16 */\n      0x2386f26fc10000\n        /* \"@openzeppelin/contracts/utils/math/Math.sol\":12574:12579  value */\n      dup4\n        /* \"@openzeppelin/contracts/utils/math/Math.sol\":12574:12591  value >= 10 ** 16 */\n      lt\n        /* \"@openzeppelin/contracts/utils/math/Math.sol\":12570:12673  if (value >= 10 ** 16) {... */\n      tag_328\n      jumpi\n        /* \"@openzeppelin/contracts/utils/math/Math.sol\":12620:12628  10 ** 16 */\n      0x2386f26fc10000\n        /* \"@openzeppelin/contracts/utils/math/Math.sol\":12611:12628  value /= 10 ** 16 */\n      dup4\n      dup2\n      tag_329\n      jumpi\n      tag_330\n      tag_309\n      jump\t// in\n    tag_330:\n    tag_329:\n      div\n      swap3\n      pop\n        /* \"@openzeppelin/contracts/utils/math/Math.sol\":12656:12658  16 */\n      0x10\n        /* \"@openzeppelin/contracts/utils/math/Math.sol\":12646:12658  result += 16 */\n      dup2\n      add\n      swap1\n      pop\n        /* \"@openzeppelin/contracts/utils/math/Math.sol\":12570:12673  if (value >= 10 ** 16) {... */\n    tag_328:\n        /* \"@openzeppelin/contracts/utils/math/Math.sol\":12699:12706  10 ** 8 */\n      0x05f5e100\n        /* \"@openzeppelin/contracts/utils/math/Math.sol\":12690:12695  value */\n      dup4\n        /* \"@openzeppelin/contracts/utils/math/Math.sol\":12690:12706  value >= 10 ** 8 */\n      lt\n        /* \"@openzeppelin/contracts/utils/math/Math.sol\":12686:12786  if (value >= 10 ** 8) {... */\n      tag_331\n      jumpi\n        /* \"@openzeppelin/contracts/utils/math/Math.sol\":12735:12742  10 ** 8 */\n      0x05f5e100\n        /* \"@openzeppelin/contracts/utils/math/Math.sol\":12726:12742  value /= 10 ** 8 */\n      dup4\n      dup2\n      tag_332\n      jumpi\n      tag_333\n      tag_309\n      jump\t// in\n    tag_333:\n    tag_332:\n      div\n      swap3\n      pop\n        /* \"@openzeppelin/contracts/utils/math/Math.sol\":12770:12771  8 */\n      0x08\n        /* \"@openzeppelin/contracts/utils/math/Math.sol\":12760:12771  result += 8 */\n      dup2\n      add\n      swap1\n      pop\n        /* \"@openzeppelin/contracts/utils/math/Math.sol\":12686:12786  if (value >= 10 ** 8) {... */\n    tag_331:\n        /* \"@openzeppelin/contracts/utils/math/Math.sol\":12812:12819  10 ** 4 */\n      0x2710\n        /* \"@openzeppelin/contracts/utils/math/Math.sol\":12803:12808  value */\n      dup4\n        /* \"@openzeppelin/contracts/utils/math/Math.sol\":12803:12819  value >= 10 ** 4 */\n      lt\n        /* \"@openzeppelin/contracts/utils/math/Math.sol\":12799:12899  if (value >= 10 ** 4) {... */\n      tag_334\n      jumpi\n        /* \"@openzeppelin/contracts/utils/math/Math.sol\":12848:12855  10 ** 4 */\n      0x2710\n        /* \"@openzeppelin/contracts/utils/math/Math.sol\":12839:12855  value /= 10 ** 4 */\n      dup4\n      dup2\n      tag_335\n      jumpi\n      tag_336\n      tag_309\n      jump\t// in\n    tag_336:\n    tag_335:\n      div\n      swap3\n      pop\n        /* \"@openzeppelin/contracts/utils/math/Math.sol\":12883:12884  4 */\n      0x04\n        /* \"@openzeppelin/contracts/utils/math/Math.sol\":12873:12884  result += 4 */\n      dup2\n      add\n      swap1\n      pop\n        /* \"@openzeppelin/contracts/utils/math/Math.sol\":12799:12899  if (value >= 10 ** 4) {... */\n    tag_334:\n        /* \"@openzeppelin/contracts/utils/math/Math.sol\":12925:12932  10 ** 2 */\n      0x64\n        /* \"@openzeppelin/contracts/utils/math/Math.sol\":12916:12921  value */\n      dup4\n        /* \"@openzeppelin/contracts/utils/math/Math.sol\":12916:12932  value >= 10 ** 2 */\n      lt\n        /* \"@openzeppelin/contracts/utils/math/Math.sol\":12912:13012  if (value >= 10 ** 2) {... */\n      tag_337\n      jumpi\n        /* \"@openzeppelin/contracts/utils/math/Math.sol\":12961:12968  10 ** 2 */\n      0x64\n        /* \"@openzeppelin/contracts/utils/math/Math.sol\":12952:12968  value /= 10 ** 2 */\n      dup4\n      dup2\n      tag_338\n      jumpi\n      tag_339\n      tag_309\n      jump\t// in\n    tag_339:\n    tag_338:\n      div\n      swap3\n      pop\n        /* \"@openzeppelin/contracts/utils/math/Math.sol\":12996:12997  2 */\n      0x02\n        /* \"@openzeppelin/contracts/utils/math/Math.sol\":12986:12997  result += 2 */\n      dup2\n      add\n      swap1\n      pop\n        /* \"@openzeppelin/contracts/utils/math/Math.sol\":12912:13012  if (value >= 10 ** 2) {... */\n    tag_337:\n        /* \"@openzeppelin/contracts/utils/math/Math.sol\":13038:13045  10 ** 1 */\n      0x0a\n        /* \"@openzeppelin/contracts/utils/math/Math.sol\":13029:13034  value */\n      dup4\n        /* \"@openzeppelin/contracts/utils/math/Math.sol\":13029:13045  value >= 10 ** 1 */\n      lt\n        /* \"@openzeppelin/contracts/utils/math/Math.sol\":13025:13091  if (value >= 10 ** 1) {... */\n      tag_340\n      jumpi\n        /* \"@openzeppelin/contracts/utils/math/Math.sol\":13075:13076  1 */\n      0x01\n        /* \"@openzeppelin/contracts/utils/math/Math.sol\":13065:13076  result += 1 */\n      dup2\n      add\n      swap1\n      pop\n        /* \"@openzeppelin/contracts/utils/math/Math.sol\":13025:13091  if (value >= 10 ** 1) {... */\n    tag_340:\n        /* \"@openzeppelin/contracts/utils/math/Math.sol\":13117:13123  result */\n      dup1\n        /* \"@openzeppelin/contracts/utils/math/Math.sol\":13110:13123  return result */\n      swap2\n      pop\n      pop\n        /* \"@openzeppelin/contracts/utils/math/Math.sol\":12214:13130  function log10(uint256 value) internal pure returns (uint256) {... */\n      swap2\n      swap1\n      pop\n      jump\t// out\n        /* \"@openzeppelin/contracts/token/ERC721/ERC721.sol\":9955:10282  function _mint(address to, uint256 tokenId) internal {... */\n    tag_313:\n        /* \"@openzeppelin/contracts/token/ERC721/ERC721.sol\":10036:10037  0 */\n      0x00\n        /* \"@openzeppelin/contracts/token/ERC721/ERC721.sol\":10022:10038  to == address(0) */\n      0xffffffffffffffffffffffffffffffffffffffff\n      and\n        /* \"@openzeppelin/contracts/token/ERC721/ERC721.sol\":10022:10024  to */\n      dup3\n        /* \"@openzeppelin/contracts/token/ERC721/ERC721.sol\":10022:10038  to == address(0) */\n      0xffffffffffffffffffffffffffffffffffffffff\n      and\n      sub\n        /* \"@openzeppelin/contracts/token/ERC721/ERC721.sol\":10018:10105  if (to == address(0)) {... */\n      tag_342\n      jumpi\n        /* \"@openzeppelin/contracts/token/ERC721/ERC721.sol\":10091:10092  0 */\n      0x00\n        /* \"@openzeppelin/contracts/token/ERC721/ERC721.sol\":10061:10094  ERC721InvalidReceiver(address(0)) */\n      mload(0x40)\n      0x64a0ae9200000000000000000000000000000000000000000000000000000000\n      dup2\n      mstore\n      0x04\n      add\n      tag_343\n      swap2\n      swap1\n      tag_40\n      jump\t// in\n    tag_343:\n      mload(0x40)\n      dup1\n      swap2\n      sub\n      swap1\n      revert\n        /* \"@openzeppelin/contracts/token/ERC721/ERC721.sol\":10018:10105  if (to == address(0)) {... */\n    tag_342:\n        /* \"@openzeppelin/contracts/token/ERC721/ERC721.sol\":10114:10135  address previousOwner */\n      0x00\n        /* \"@openzeppelin/contracts/token/ERC721/ERC721.sol\":10138:10170  _update(to, tokenId, address(0)) */\n      tag_344\n        /* \"@openzeppelin/contracts/token/ERC721/ERC721.sol\":10146:10148  to */\n      dup4\n        /* \"@openzeppelin/contracts/token/ERC721/ERC721.sol\":10150:10157  tokenId */\n      dup4\n        /* \"@openzeppelin/contracts/token/ERC721/ERC721.sol\":10167:10168  0 */\n      0x00\n        /* \"@openzeppelin/contracts/token/ERC721/ERC721.sol\":10138:10145  _update */\n      tag_127\n        /* \"@openzeppelin/contracts/token/ERC721/ERC721.sol\":10138:10170  _update(to, tokenId, address(0)) */\n      jump\t// in\n    tag_344:\n        /* \"@openzeppelin/contracts/token/ERC721/ERC721.sol\":10114:10170  address previousOwner = _update(to, tokenId, address(0)) */\n      swap1\n      pop\n        /* \"@openzeppelin/contracts/token/ERC721/ERC721.sol\":10209:10210  0 */\n      0x00\n        /* \"@openzeppelin/contracts/token/ERC721/ERC721.sol\":10184:10211  previousOwner != address(0) */\n      0xffffffffffffffffffffffffffffffffffffffff\n      and\n        /* \"@openzeppelin/contracts/token/ERC721/ERC721.sol\":10184:10197  previousOwner */\n      dup2\n        /* \"@openzeppelin/contracts/token/ERC721/ERC721.sol\":10184:10211  previousOwner != address(0) */\n      0xffffffffffffffffffffffffffffffffffffffff\n      and\n      eq\n        /* \"@openzeppelin/contracts/token/ERC721/ERC721.sol\":10180:10276  if (previousOwner != address(0)) {... */\n      tag_345\n      jumpi\n        /* \"@openzeppelin/contracts/token/ERC721/ERC721.sol\":10262:10263  0 */\n      0x00\n        /* \"@openzeppelin/contracts/token/ERC721/ERC721.sol\":10234:10265  ERC721InvalidSender(address(0)) */\n      mload(0x40)\n      0x73c6ac6e00000000000000000000000000000000000000000000000000000000\n      dup2\n      mstore\n      0x04\n      add\n      tag_346\n      swap2\n      swap1\n      tag_40\n      jump\t// in\n    tag_346:\n      mload(0x40)\n      dup1\n      swap2\n      sub\n      swap1\n      revert\n        /* \"@openzeppelin/contracts/token/ERC721/ERC721.sol\":10180:10276  if (previousOwner != address(0)) {... */\n    tag_345:\n        /* \"@openzeppelin/contracts/token/ERC721/ERC721.sol\":10008:10282  {... */\n      pop\n        /* \"@openzeppelin/contracts/token/ERC721/ERC721.sol\":9955:10282  function _mint(address to, uint256 tokenId) internal {... */\n      pop\n      pop\n      jump\t// out\n        /* \"#utility.yul\":7:82   */\n    tag_347:\n        /* \"#utility.yul\":40:46   */\n      0x00\n        /* \"#utility.yul\":73:75   */\n      0x40\n        /* \"#utility.yul\":67:76   */\n      mload\n        /* \"#utility.yul\":57:76   */\n      swap1\n      pop\n        /* \"#utility.yul\":7:82   */\n      swap1\n      jump\t// out\n        /* \"#utility.yul\":88:205   */\n    tag_348:\n        /* \"#utility.yul\":197:198   */\n      0x00\n        /* \"#utility.yul\":194:195   */\n      dup1\n        /* \"#utility.yul\":187:199   */\n      revert\n        /* \"#utility.yul\":211:328   */\n    tag_349:\n        /* \"#utility.yul\":320:321   */\n      0x00\n        /* \"#utility.yul\":317:318   */\n      dup1\n        /* \"#utility.yul\":310:322   */\n      revert\n        /* \"#utility.yul\":334:483   */\n    tag_350:\n        /* \"#utility.yul\":370:377   */\n      0x00\n        /* \"#utility.yul\":410:476   */\n      0xffffffff00000000000000000000000000000000000000000000000000000000\n        /* \"#utility.yul\":403:408   */\n      dup3\n        /* \"#utility.yul\":399:477   */\n      and\n        /* \"#utility.yul\":388:477   */\n      swap1\n      pop\n        /* \"#utility.yul\":334:483   */\n      swap2\n      swap1\n      pop\n      jump\t// out\n        /* \"#utility.yul\":489:609   */\n    tag_351:\n        /* \"#utility.yul\":561:584   */\n      tag_412\n        /* \"#utility.yul\":578:583   */\n      dup2\n        /* \"#utility.yul\":561:584   */\n      tag_350\n      jump\t// in\n    tag_412:\n        /* \"#utility.yul\":554:559   */\n      dup2\n        /* \"#utility.yul\":551:585   */\n      eq\n        /* \"#utility.yul\":541:603   */\n      tag_413\n      jumpi\n        /* \"#utility.yul\":599:600   */\n      0x00\n        /* \"#utility.yul\":596:597   */\n      dup1\n        /* \"#utility.yul\":589:601   */\n      revert\n        /* \"#utility.yul\":541:603   */\n    tag_413:\n        /* \"#utility.yul\":489:609   */\n      pop\n      jump\t// out\n        /* \"#utility.yul\":615:752   */\n    tag_352:\n        /* \"#utility.yul\":660:665   */\n      0x00\n        /* \"#utility.yul\":698:704   */\n      dup2\n        /* \"#utility.yul\":685:705   */\n      calldataload\n        /* \"#utility.yul\":676:705   */\n      swap1\n      pop\n        /* \"#utility.yul\":714:746   */\n      tag_415\n        /* \"#utility.yul\":740:745   */\n      dup2\n        /* \"#utility.yul\":714:746   */\n      tag_351\n      jump\t// in\n    tag_415:\n        /* \"#utility.yul\":615:752   */\n      swap3\n      swap2\n      pop\n      pop\n      jump\t// out\n        /* \"#utility.yul\":758:1085   */\n    tag_27:\n        /* \"#utility.yul\":816:822   */\n      0x00\n        /* \"#utility.yul\":865:867   */\n      0x20\n        /* \"#utility.yul\":853:862   */\n      dup3\n        /* \"#utility.yul\":844:851   */\n      dup5\n        /* \"#utility.yul\":840:863   */\n      sub\n        /* \"#utility.yul\":836:868   */\n      slt\n        /* \"#utility.yul\":833:952   */\n      iszero\n      tag_417\n      jumpi\n        /* \"#utility.yul\":871:950   */\n      tag_418\n      tag_348\n      jump\t// in\n    tag_418:\n        /* \"#utility.yul\":833:952   */\n    tag_417:\n        /* \"#utility.yul\":991:992   */\n      0x00\n        /* \"#utility.yul\":1016:1068   */\n      tag_419\n        /* \"#utility.yul\":1060:1067   */\n      dup5\n        /* \"#utility.yul\":1051:1057   */\n      dup3\n        /* \"#utility.yul\":1040:1049   */\n      dup6\n        /* \"#utility.yul\":1036:1058   */\n      add\n        /* \"#utility.yul\":1016:1068   */\n      tag_352\n      jump\t// in\n    tag_419:\n        /* \"#utility.yul\":1006:1068   */\n      swap2\n      pop\n        /* \"#utility.yul\":962:1078   */\n      pop\n        /* \"#utility.yul\":758:1085   */\n      swap3\n      swap2\n      pop\n      pop\n      jump\t// out\n        /* \"#utility.yul\":1091:1181   */\n    tag_353:\n        /* \"#utility.yul\":1125:1132   */\n      0x00\n        /* \"#utility.yul\":1168:1173   */\n      dup2\n        /* \"#utility.yul\":1161:1174   */\n      iszero\n        /* \"#utility.yul\":1154:1175   */\n      iszero\n        /* \"#utility.yul\":1143:1175   */\n      swap1\n      pop\n        /* \"#utility.yul\":1091:1181   */\n      swap2\n      swap1\n      pop\n      jump\t// out\n        /* \"#utility.yul\":1187:1296   */\n    tag_354:\n        /* \"#utility.yul\":1268:1289   */\n      tag_422\n        /* \"#utility.yul\":1283:1288   */\n      dup2\n        /* \"#utility.yul\":1268:1289   */\n      tag_353\n      jump\t// in\n    tag_422:\n        /* \"#utility.yul\":1263:1266   */\n      dup3\n        /* \"#utility.yul\":1256:1290   */\n      mstore\n        /* \"#utility.yul\":1187:1296   */\n      pop\n      pop\n      jump\t// out\n        /* \"#utility.yul\":1302:1512   */\n    tag_30:\n        /* \"#utility.yul\":1389:1393   */\n      0x00\n        /* \"#utility.yul\":1427:1429   */\n      0x20\n        /* \"#utility.yul\":1416:1425   */\n      dup3\n        /* \"#utility.yul\":1412:1430   */\n      add\n        /* \"#utility.yul\":1404:1430   */\n      swap1\n      pop\n        /* \"#utility.yul\":1440:1505   */\n      tag_424\n        /* \"#utility.yul\":1502:1503   */\n      0x00\n        /* \"#utility.yul\":1491:1500   */\n      dup4\n        /* \"#utility.yul\":1487:1504   */\n      add\n        /* \"#utility.yul\":1478:1484   */\n      dup5\n        /* \"#utility.yul\":1440:1505   */\n      tag_354\n      jump\t// in\n    tag_424:\n        /* \"#utility.yul\":1302:1512   */\n      swap3\n      swap2\n      pop\n      pop\n      jump\t// out\n        /* \"#utility.yul\":1518:1617   */\n    tag_355:\n        /* \"#utility.yul\":1570:1576   */\n      0x00\n        /* \"#utility.yul\":1604:1609   */\n      dup2\n        /* \"#utility.yul\":1598:1610   */\n      mload\n        /* \"#utility.yul\":1588:1610   */\n      swap1\n      pop\n        /* \"#utility.yul\":1518:1617   */\n      swap2\n      swap1\n      pop\n      jump\t// out\n        /* \"#utility.yul\":1623:1792   */\n    tag_356:\n        /* \"#utility.yul\":1707:1718   */\n      0x00\n        /* \"#utility.yul\":1741:1747   */\n      dup3\n        /* \"#utility.yul\":1736:1739   */\n      dup3\n        /* \"#utility.yul\":1729:1748   */\n      mstore\n        /* \"#utility.yul\":1781:1785   */\n      0x20\n        /* \"#utility.yul\":1776:1779   */\n      dup3\n        /* \"#utility.yul\":1772:1786   */\n      add\n        /* \"#utility.yul\":1757:1786   */\n      swap1\n      pop\n        /* \"#utility.yul\":1623:1792   */\n      swap3\n      swap2\n      pop\n      pop\n      jump\t// out\n        /* \"#utility.yul\":1798:1937   */\n    tag_357:\n        /* \"#utility.yul\":1887:1893   */\n      dup3\n        /* \"#utility.yul\":1882:1885   */\n      dup2\n        /* \"#utility.yul\":1877:1880   */\n      dup4\n        /* \"#utility.yul\":1871:1894   */\n      mcopy\n        /* \"#utility.yul\":1928:1929   */\n      0x00\n        /* \"#utility.yul\":1919:1925   */\n      dup4\n        /* \"#utility.yul\":1914:1917   */\n      dup4\n        /* \"#utility.yul\":1910:1926   */\n      add\n        /* \"#utility.yul\":1903:1930   */\n      mstore\n        /* \"#utility.yul\":1798:1937   */\n      pop\n      pop\n      pop\n      jump\t// out\n        /* \"#utility.yul\":1943:2045   */\n    tag_358:\n        /* \"#utility.yul\":1984:1990   */\n      0x00\n        /* \"#utility.yul\":2035:2037   */\n      0x1f\n        /* \"#utility.yul\":2031:2038   */\n      not\n        /* \"#utility.yul\":2026:2028   */\n      0x1f\n        /* \"#utility.yul\":2019:2024   */\n      dup4\n        /* \"#utility.yul\":2015:2029   */\n      add\n        /* \"#utility.yul\":2011:2039   */\n      and\n        /* \"#utility.yul\":2001:2039   */\n      swap1\n      pop\n        /* \"#utility.yul\":1943:2045   */\n      swap2\n      swap1\n      pop\n      jump\t// out\n        /* \"#utility.yul\":2051:2428   */\n    tag_359:\n        /* \"#utility.yul\":2139:2142   */\n      0x00\n        /* \"#utility.yul\":2167:2206   */\n      tag_430\n        /* \"#utility.yul\":2200:2205   */\n      dup3\n        /* \"#utility.yul\":2167:2206   */\n      tag_355\n      jump\t// in\n    tag_430:\n        /* \"#utility.yul\":2222:2293   */\n      tag_431\n        /* \"#utility.yul\":2286:2292   */\n      dup2\n        /* \"#utility.yul\":2281:2284   */\n      dup6\n        /* \"#utility.yul\":2222:2293   */\n      tag_356\n      jump\t// in\n    tag_431:\n        /* \"#utility.yul\":2215:2293   */\n      swap4\n      pop\n        /* \"#utility.yul\":2302:2367   */\n      tag_432\n        /* \"#utility.yul\":2360:2366   */\n      dup2\n        /* \"#utility.yul\":2355:2358   */\n      dup6\n        /* \"#utility.yul\":2348:2352   */\n      0x20\n        /* \"#utility.yul\":2341:2346   */\n      dup7\n        /* \"#utility.yul\":2337:2353   */\n      add\n        /* \"#utility.yul\":2302:2367   */\n      tag_357\n      jump\t// in\n    tag_432:\n        /* \"#utility.yul\":2392:2421   */\n      tag_433\n        /* \"#utility.yul\":2414:2420   */\n      dup2\n        /* \"#utility.yul\":2392:2421   */\n      tag_358\n      jump\t// in\n    tag_433:\n        /* \"#utility.yul\":2387:2390   */\n      dup5\n        /* \"#utility.yul\":2383:2422   */\n      add\n        /* \"#utility.yul\":2376:2422   */\n      swap2\n      pop\n        /* \"#utility.yul\":2143:2428   */\n      pop\n        /* \"#utility.yul\":2051:2428   */\n      swap3\n      swap2\n      pop\n      pop\n      jump\t// out\n        /* \"#utility.yul\":2434:2747   */\n    tag_34:\n        /* \"#utility.yul\":2547:2551   */\n      0x00\n        /* \"#utility.yul\":2585:2587   */\n      0x20\n        /* \"#utility.yul\":2574:2583   */\n      dup3\n        /* \"#utility.yul\":2570:2588   */\n      add\n        /* \"#utility.yul\":2562:2588   */\n      swap1\n      pop\n        /* \"#utility.yul\":2634:2643   */\n      dup2\n        /* \"#utility.yul\":2628:2632   */\n      dup2\n        /* \"#utility.yul\":2624:2644   */\n      sub\n        /* \"#utility.yul\":2620:2621   */\n      0x00\n        /* \"#utility.yul\":2609:2618   */\n      dup4\n        /* \"#utility.yul\":2605:2622   */\n      add\n        /* \"#utility.yul\":2598:2645   */\n      mstore\n        /* \"#utility.yul\":2662:2740   */\n      tag_435\n        /* \"#utility.yul\":2735:2739   */\n      dup2\n        /* \"#utility.yul\":2726:2732   */\n      dup5\n        /* \"#utility.yul\":2662:2740   */\n      tag_359\n      jump\t// in\n    tag_435:\n        /* \"#utility.yul\":2654:2740   */\n      swap1\n      pop\n        /* \"#utility.yul\":2434:2747   */\n      swap3\n      swap2\n      pop\n      pop\n      jump\t// out\n        /* \"#utility.yul\":2753:2830   */\n    tag_360:\n        /* \"#utility.yul\":2790:2797   */\n      0x00\n        /* \"#utility.yul\":2819:2824   */\n      dup2\n        /* \"#utility.yul\":2808:2824   */\n      swap1\n      pop\n        /* \"#utility.yul\":2753:2830   */\n      swap2\n      swap1\n      pop\n      jump\t// out\n        /* \"#utility.yul\":2836:2958   */\n    tag_361:\n        /* \"#utility.yul\":2909:2933   */\n      tag_438\n        /* \"#utility.yul\":2927:2932   */\n      dup2\n        /* \"#utility.yul\":2909:2933   */\n      tag_360\n      jump\t// in\n    tag_438:\n        /* \"#utility.yul\":2902:2907   */\n      dup2\n        /* \"#utility.yul\":2899:2934   */\n      eq\n        /* \"#utility.yul\":2889:2952   */\n      tag_439\n      jumpi\n        /* \"#utility.yul\":2948:2949   */\n      0x00\n        /* \"#utility.yul\":2945:2946   */\n      dup1\n        /* \"#utility.yul\":2938:2950   */\n      revert\n        /* \"#utility.yul\":2889:2952   */\n    tag_439:\n        /* \"#utility.yul\":2836:2958   */\n      pop\n      jump\t// out\n        /* \"#utility.yul\":2964:3103   */\n    tag_362:\n        /* \"#utility.yul\":3010:3015   */\n      0x00\n        /* \"#utility.yul\":3048:3054   */\n      dup2\n        /* \"#utility.yul\":3035:3055   */\n      calldataload\n        /* \"#utility.yul\":3026:3055   */\n      swap1\n      pop\n        /* \"#utility.yul\":3064:3097   */\n      tag_441\n        /* \"#utility.yul\":3091:3096   */\n      dup2\n        /* \"#utility.yul\":3064:3097   */\n      tag_361\n      jump\t// in\n    tag_441:\n        /* \"#utility.yul\":2964:3103   */\n      swap3\n      swap2\n      pop\n      pop\n      jump\t// out\n        /* \"#utility.yul\":3109:3438   */\n    tag_37:\n        /* \"#utility.yul\":3168:3174   */\n      0x00\n        /* \"#utility.yul\":3217:3219   */\n      0x20\n        /* \"#utility.yul\":3205:3214   */\n      dup3\n        /* \"#utility.yul\":3196:3203   */\n      dup5\n        /* \"#utility.yul\":3192:3215   */\n      sub\n        /* \"#utility.yul\":3188:3220   */\n      slt\n        /* \"#utility.yul\":3185:3304   */\n      iszero\n      tag_443\n      jumpi\n        /* \"#utility.yul\":3223:3302   */\n      tag_444\n      tag_348\n      jump\t// in\n    tag_444:\n        /* \"#utility.yul\":3185:3304   */\n    tag_443:\n        /* \"#utility.yul\":3343:3344   */\n      0x00\n        /* \"#utility.yul\":3368:3421   */\n      tag_445\n        /* \"#utility.yul\":3413:3420   */\n      dup5\n        /* \"#utility.yul\":3404:3410   */\n      dup3\n        /* \"#utility.yul\":3393:3402   */\n      dup6\n        /* \"#utility.yul\":3389:3411   */\n      add\n        /* \"#utility.yul\":3368:3421   */\n      tag_362\n      jump\t// in\n    tag_445:\n        /* \"#utility.yul\":3358:3421   */\n      swap2\n      pop\n        /* \"#utility.yul\":3314:3431   */\n      pop\n        /* \"#utility.yul\":3109:3438   */\n      swap3\n      swap2\n      pop\n      pop\n      jump\t// out\n        /* \"#utility.yul\":3444:3570   */\n    tag_363:\n        /* \"#utility.yul\":3481:3488   */\n      0x00\n        /* \"#utility.yul\":3521:3563   */\n      0xffffffffffffffffffffffffffffffffffffffff\n        /* \"#utility.yul\":3514:3519   */\n      dup3\n        /* \"#utility.yul\":3510:3564   */\n      and\n        /* \"#utility.yul\":3499:3564   */\n      swap1\n      pop\n        /* \"#utility.yul\":3444:3570   */\n      swap2\n      swap1\n      pop\n      jump\t// out\n        /* \"#utility.yul\":3576:3672   */\n    tag_364:\n        /* \"#utility.yul\":3613:3620   */\n      0x00\n        /* \"#utility.yul\":3642:3666   */\n      tag_448\n        /* \"#utility.yul\":3660:3665   */\n      dup3\n        /* \"#utility.yul\":3642:3666   */\n      tag_363\n      jump\t// in\n    tag_448:\n        /* \"#utility.yul\":3631:3666   */\n      swap1\n      pop\n        /* \"#utility.yul\":3576:3672   */\n      swap2\n      swap1\n      pop\n      jump\t// out\n        /* \"#utility.yul\":3678:3796   */\n    tag_365:\n        /* \"#utility.yul\":3765:3789   */\n      tag_450\n        /* \"#utility.yul\":3783:3788   */\n      dup2\n        /* \"#utility.yul\":3765:3789   */\n      tag_364\n      jump\t// in\n    tag_450:\n        /* \"#utility.yul\":3760:3763   */\n      dup3\n        /* \"#utility.yul\":3753:3790   */\n      mstore\n        /* \"#utility.yul\":3678:3796   */\n      pop\n      pop\n      jump\t// out\n        /* \"#utility.yul\":3802:4024   */\n    tag_40:\n        /* \"#utility.yul\":3895:3899   */\n      0x00\n        /* \"#utility.yul\":3933:3935   */\n      0x20\n        /* \"#utility.yul\":3922:3931   */\n      dup3\n        /* \"#utility.yul\":3918:3936   */\n      add\n        /* \"#utility.yul\":3910:3936   */\n      swap1\n      pop\n        /* \"#utility.yul\":3946:4017   */\n      tag_452\n        /* \"#utility.yul\":4014:4015   */\n      0x00\n        /* \"#utility.yul\":4003:4012   */\n      dup4\n        /* \"#utility.yul\":3999:4016   */\n      add\n        /* \"#utility.yul\":3990:3996   */\n      dup5\n        /* \"#utility.yul\":3946:4017   */\n      tag_365\n      jump\t// in\n    tag_452:\n        /* \"#utility.yul\":3802:4024   */\n      swap3\n      swap2\n      pop\n      pop\n      jump\t// out\n        /* \"#utility.yul\":4030:4152   */\n    tag_366:\n        /* \"#utility.yul\":4103:4127   */\n      tag_454\n        /* \"#utility.yul\":4121:4126   */\n      dup2\n        /* \"#utility.yul\":4103:4127   */\n      tag_364\n      jump\t// in\n    tag_454:\n        /* \"#utility.yul\":4096:4101   */\n      dup2\n        /* \"#utility.yul\":4093:4128   */\n      eq\n        /* \"#utility.yul\":4083:4146   */\n      tag_455\n      jumpi\n        /* \"#utility.yul\":4142:4143   */\n      0x00\n        /* \"#utility.yul\":4139:4140   */\n      dup1\n        /* \"#utility.yul\":4132:4144   */\n      revert\n        /* \"#utility.yul\":4083:4146   */\n    tag_455:\n        /* \"#utility.yul\":4030:4152   */\n      pop\n      jump\t// out\n        /* \"#utility.yul\":4158:4297   */\n    tag_367:\n        /* \"#utility.yul\":4204:4209   */\n      0x00\n        /* \"#utility.yul\":4242:4248   */\n      dup2\n        /* \"#utility.yul\":4229:4249   */\n      calldataload\n        /* \"#utility.yul\":4220:4249   */\n      swap1\n      pop\n        /* \"#utility.yul\":4258:4291   */\n      tag_457\n        /* \"#utility.yul\":4285:4290   */\n      dup2\n        /* \"#utility.yul\":4258:4291   */\n      tag_366\n      jump\t// in\n    tag_457:\n        /* \"#utility.yul\":4158:4297   */\n      swap3\n      swap2\n      pop\n      pop\n      jump\t// out\n        /* \"#utility.yul\":4303:4777   */\n    tag_43:\n        /* \"#utility.yul\":4371:4377   */\n      0x00\n        /* \"#utility.yul\":4379:4385   */\n      dup1\n        /* \"#utility.yul\":4428:4430   */\n      0x40\n        /* \"#utility.yul\":4416:4425   */\n      dup4\n        /* \"#utility.yul\":4407:4414   */\n      dup6\n        /* \"#utility.yul\":4403:4426   */\n      sub\n        /* \"#utility.yul\":4399:4431   */\n      slt\n        /* \"#utility.yul\":4396:4515   */\n      iszero\n      tag_459\n      jumpi\n        /* \"#utility.yul\":4434:4513   */\n      tag_460\n      tag_348\n      jump\t// in\n    tag_460:\n        /* \"#utility.yul\":4396:4515   */\n    tag_459:\n        /* \"#utility.yul\":4554:4555   */\n      0x00\n        /* \"#utility.yul\":4579:4632   */\n      tag_461\n        /* \"#utility.yul\":4624:4631   */\n      dup6\n        /* \"#utility.yul\":4615:4621   */\n      dup3\n        /* \"#utility.yul\":4604:4613   */\n      dup7\n        /* \"#utility.yul\":4600:4622   */\n      add\n        /* \"#utility.yul\":4579:4632   */\n      tag_367\n      jump\t// in\n    tag_461:\n        /* \"#utility.yul\":4569:4632   */\n      swap3\n      pop\n        /* \"#utility.yul\":4525:4642   */\n      pop\n        /* \"#utility.yul\":4681:4683   */\n      0x20\n        /* \"#utility.yul\":4707:4760   */\n      tag_462\n        /* \"#utility.yul\":4752:4759   */\n      dup6\n        /* \"#utility.yul\":4743:4749   */\n      dup3\n        /* \"#utility.yul\":4732:4741   */\n      dup7\n        /* \"#utility.yul\":4728:4750   */\n      add\n        /* \"#utility.yul\":4707:4760   */\n      tag_362\n      jump\t// in\n    tag_462:\n        /* \"#utility.yul\":4697:4760   */\n      swap2\n      pop\n        /* \"#utility.yul\":4652:4770   */\n      pop\n        /* \"#utility.yul\":4303:4777   */\n      swap3\n      pop\n      swap3\n      swap1\n      pop\n      jump\t// out\n        /* \"#utility.yul\":4783:5402   */\n    tag_47:\n        /* \"#utility.yul\":4860:4866   */\n      0x00\n        /* \"#utility.yul\":4868:4874   */\n      dup1\n        /* \"#utility.yul\":4876:4882   */\n      0x00\n        /* \"#utility.yul\":4925:4927   */\n      0x60\n        /* \"#utility.yul\":4913:4922   */\n      dup5\n        /* \"#utility.yul\":4904:4911   */\n      dup7\n        /* \"#utility.yul\":4900:4923   */\n      sub\n        /* \"#utility.yul\":4896:4928   */\n      slt\n        /* \"#utility.yul\":4893:5012   */\n      iszero\n      tag_464\n      jumpi\n        /* \"#utility.yul\":4931:5010   */\n      tag_465\n      tag_348\n      jump\t// in\n    tag_465:\n        /* \"#utility.yul\":4893:5012   */\n    tag_464:\n        /* \"#utility.yul\":5051:5052   */\n      0x00\n        /* \"#utility.yul\":5076:5129   */\n      tag_466\n        /* \"#utility.yul\":5121:5128   */\n      dup7\n        /* \"#utility.yul\":5112:5118   */\n      dup3\n        /* \"#utility.yul\":5101:5110   */\n      dup8\n        /* \"#utility.yul\":5097:5119   */\n      add\n        /* \"#utility.yul\":5076:5129   */\n      tag_367\n      jump\t// in\n    tag_466:\n        /* \"#utility.yul\":5066:5129   */\n      swap4\n      pop\n        /* \"#utility.yul\":5022:5139   */\n      pop\n        /* \"#utility.yul\":5178:5180   */\n      0x20\n        /* \"#utility.yul\":5204:5257   */\n      tag_467\n        /* \"#utility.yul\":5249:5256   */\n      dup7\n        /* \"#utility.yul\":5240:5246   */\n      dup3\n        /* \"#utility.yul\":5229:5238   */\n      dup8\n        /* \"#utility.yul\":5225:5247   */\n      add\n        /* \"#utility.yul\":5204:5257   */\n      tag_367\n      jump\t// in\n    tag_467:\n        /* \"#utility.yul\":5194:5257   */\n      swap3\n      pop\n        /* \"#utility.yul\":5149:5267   */\n      pop\n        /* \"#utility.yul\":5306:5308   */\n      0x40\n        /* \"#utility.yul\":5332:5385   */\n      tag_468\n        /* \"#utility.yul\":5377:5384   */\n      dup7\n        /* \"#utility.yul\":5368:5374   */\n      dup3\n        /* \"#utility.yul\":5357:5366   */\n      dup8\n        /* \"#utility.yul\":5353:5375   */\n      add\n        /* \"#utility.yul\":5332:5385   */\n      tag_362\n      jump\t// in\n    tag_468:\n        /* \"#utility.yul\":5322:5385   */\n      swap2\n      pop\n        /* \"#utility.yul\":5277:5395   */\n      pop\n        /* \"#utility.yul\":4783:5402   */\n      swap3\n      pop\n      swap3\n      pop\n      swap3\n      jump\t// out\n        /* \"#utility.yul\":5408:5525   */\n    tag_368:\n        /* \"#utility.yul\":5517:5518   */\n      0x00\n        /* \"#utility.yul\":5514:5515   */\n      dup1\n        /* \"#utility.yul\":5507:5519   */\n      revert\n        /* \"#utility.yul\":5531:5648   */\n    tag_369:\n        /* \"#utility.yul\":5640:5641   */\n      0x00\n        /* \"#utility.yul\":5637:5638   */\n      dup1\n        /* \"#utility.yul\":5630:5642   */\n      revert\n        /* \"#utility.yul\":5654:5834   */\n    tag_303:\n        /* \"#utility.yul\":5702:5779   */\n      0x4e487b7100000000000000000000000000000000000000000000000000000000\n        /* \"#utility.yul\":5699:5700   */\n      0x00\n        /* \"#utility.yul\":5692:5780   */\n      mstore\n        /* \"#utility.yul\":5799:5803   */\n      0x41\n        /* \"#utility.yul\":5796:5797   */\n      0x04\n        /* \"#utility.yul\":5789:5804   */\n      mstore\n        /* \"#utility.yul\":5823:5827   */\n      0x24\n        /* \"#utility.yul\":5820:5821   */\n      0x00\n        /* \"#utility.yul\":5813:5828   */\n      revert\n        /* \"#utility.yul\":5840:6121   */\n    tag_370:\n        /* \"#utility.yul\":5923:5950   */\n      tag_473\n        /* \"#utility.yul\":5945:5949   */\n      dup3\n        /* \"#utility.yul\":5923:5950   */\n      tag_358\n      jump\t// in\n    tag_473:\n        /* \"#utility.yul\":5915:5921   */\n      dup2\n        /* \"#utility.yul\":5911:5951   */\n      add\n        /* \"#utility.yul\":6053:6059   */\n      dup2\n        /* \"#utility.yul\":6041:6051   */\n      dup2\n        /* \"#utility.yul\":6038:6060   */\n      lt\n        /* \"#utility.yul\":6017:6035   */\n      0xffffffffffffffff\n        /* \"#utility.yul\":6005:6015   */\n      dup3\n        /* \"#utility.yul\":6002:6036   */\n      gt\n        /* \"#utility.yul\":5999:6061   */\n      or\n        /* \"#utility.yul\":5996:6084   */\n      iszero\n      tag_474\n      jumpi\n        /* \"#utility.yul\":6064:6082   */\n      tag_475\n      tag_303\n      jump\t// in\n    tag_475:\n        /* \"#utility.yul\":5996:6084   */\n    tag_474:\n        /* \"#utility.yul\":6104:6114   */\n      dup1\n        /* \"#utility.yul\":6100:6102   */\n      0x40\n        /* \"#utility.yul\":6093:6115   */\n      mstore\n        /* \"#utility.yul\":5883:6121   */\n      pop\n        /* \"#utility.yul\":5840:6121   */\n      pop\n      pop\n      jump\t// out\n        /* \"#utility.yul\":6127:6256   */\n    tag_371:\n        /* \"#utility.yul\":6161:6167   */\n      0x00\n        /* \"#utility.yul\":6188:6208   */\n      tag_477\n      tag_347\n      jump\t// in\n    tag_477:\n        /* \"#utility.yul\":6178:6208   */\n      swap1\n      pop\n        /* \"#utility.yul\":6217:6250   */\n      tag_478\n        /* \"#utility.yul\":6245:6249   */\n      dup3\n        /* \"#utility.yul\":6237:6243   */\n      dup3\n        /* \"#utility.yul\":6217:6250   */\n      tag_370\n      jump\t// in\n    tag_478:\n        /* \"#utility.yul\":6127:6256   */\n      swap2\n      swap1\n      pop\n      jump\t// out\n        /* \"#utility.yul\":6262:6570   */\n    tag_372:\n        /* \"#utility.yul\":6324:6328   */\n      0x00\n        /* \"#utility.yul\":6414:6432   */\n      0xffffffffffffffff\n        /* \"#utility.yul\":6406:6412   */\n      dup3\n        /* \"#utility.yul\":6403:6433   */\n      gt\n        /* \"#utility.yul\":6400:6456   */\n      iszero\n      tag_480\n      jumpi\n        /* \"#utility.yul\":6436:6454   */\n      tag_481\n      tag_303\n      jump\t// in\n    tag_481:\n        /* \"#utility.yul\":6400:6456   */\n    tag_480:\n        /* \"#utility.yul\":6474:6503   */\n      tag_482\n        /* \"#utility.yul\":6496:6502   */\n      dup3\n        /* \"#utility.yul\":6474:6503   */\n      tag_358\n      jump\t// in\n    tag_482:\n        /* \"#utility.yul\":6466:6503   */\n      swap1\n      pop\n        /* \"#utility.yul\":6558:6562   */\n      0x20\n        /* \"#utility.yul\":6552:6556   */\n      dup2\n        /* \"#utility.yul\":6548:6563   */\n      add\n        /* \"#utility.yul\":6540:6563   */\n      swap1\n      pop\n        /* \"#utility.yul\":6262:6570   */\n      swap2\n      swap1\n      pop\n      jump\t// out\n        /* \"#utility.yul\":6576:6724   */\n    tag_373:\n        /* \"#utility.yul\":6674:6680   */\n      dup3\n        /* \"#utility.yul\":6669:6672   */\n      dup2\n        /* \"#utility.yul\":6664:6667   */\n      dup4\n        /* \"#utility.yul\":6651:6681   */\n      calldatacopy\n        /* \"#utility.yul\":6715:6716   */\n      0x00\n        /* \"#utility.yul\":6706:6712   */\n      dup4\n        /* \"#utility.yul\":6701:6704   */\n      dup4\n        /* \"#utility.yul\":6697:6713   */\n      add\n        /* \"#utility.yul\":6690:6717   */\n      mstore\n        /* \"#utility.yul\":6576:6724   */\n      pop\n      pop\n      pop\n      jump\t// out\n        /* \"#utility.yul\":6730:7155   */\n    tag_374:\n        /* \"#utility.yul\":6808:6813   */\n      0x00\n        /* \"#utility.yul\":6833:6899   */\n      tag_485\n        /* \"#utility.yul\":6849:6898   */\n      tag_486\n        /* \"#utility.yul\":6891:6897   */\n      dup5\n        /* \"#utility.yul\":6849:6898   */\n      tag_372\n      jump\t// in\n    tag_486:\n        /* \"#utility.yul\":6833:6899   */\n      tag_371\n      jump\t// in\n    tag_485:\n        /* \"#utility.yul\":6824:6899   */\n      swap1\n      pop\n        /* \"#utility.yul\":6922:6928   */\n      dup3\n        /* \"#utility.yul\":6915:6920   */\n      dup2\n        /* \"#utility.yul\":6908:6929   */\n      mstore\n        /* \"#utility.yul\":6960:6964   */\n      0x20\n        /* \"#utility.yul\":6953:6958   */\n      dup2\n        /* \"#utility.yul\":6949:6965   */\n      add\n        /* \"#utility.yul\":6998:7001   */\n      dup5\n        /* \"#utility.yul\":6989:6995   */\n      dup5\n        /* \"#utility.yul\":6984:6987   */\n      dup5\n        /* \"#utility.yul\":6980:6996   */\n      add\n        /* \"#utility.yul\":6977:7002   */\n      gt\n        /* \"#utility.yul\":6974:7086   */\n      iszero\n      tag_487\n      jumpi\n        /* \"#utility.yul\":7005:7084   */\n      tag_488\n      tag_369\n      jump\t// in\n    tag_488:\n        /* \"#utility.yul\":6974:7086   */\n    tag_487:\n        /* \"#utility.yul\":7095:7149   */\n      tag_489\n        /* \"#utility.yul\":7142:7148   */\n      dup5\n        /* \"#utility.yul\":7137:7140   */\n      dup3\n        /* \"#utility.yul\":7132:7135   */\n      dup6\n        /* \"#utility.yul\":7095:7149   */\n      tag_373\n      jump\t// in\n    tag_489:\n        /* \"#utility.yul\":6814:7155   */\n      pop\n        /* \"#utility.yul\":6730:7155   */\n      swap4\n      swap3\n      pop\n      pop\n      pop\n      jump\t// out\n        /* \"#utility.yul\":7175:7515   */\n    tag_375:\n        /* \"#utility.yul\":7231:7236   */\n      0x00\n        /* \"#utility.yul\":7280:7283   */\n      dup3\n        /* \"#utility.yul\":7273:7277   */\n      0x1f\n        /* \"#utility.yul\":7265:7271   */\n      dup4\n        /* \"#utility.yul\":7261:7278   */\n      add\n        /* \"#utility.yul\":7257:7284   */\n      slt\n        /* \"#utility.yul\":7247:7369   */\n      tag_491\n      jumpi\n        /* \"#utility.yul\":7288:7367   */\n      tag_492\n      tag_368\n      jump\t// in\n    tag_492:\n        /* \"#utility.yul\":7247:7369   */\n    tag_491:\n        /* \"#utility.yul\":7405:7411   */\n      dup2\n        /* \"#utility.yul\":7392:7412   */\n      calldataload\n        /* \"#utility.yul\":7430:7509   */\n      tag_493\n        /* \"#utility.yul\":7505:7508   */\n      dup5\n        /* \"#utility.yul\":7497:7503   */\n      dup3\n        /* \"#utility.yul\":7490:7494   */\n      0x20\n        /* \"#utility.yul\":7482:7488   */\n      dup7\n        /* \"#utility.yul\":7478:7495   */\n      add\n        /* \"#utility.yul\":7430:7509   */\n      tag_374\n      jump\t// in\n    tag_493:\n        /* \"#utility.yul\":7421:7509   */\n      swap2\n      pop\n        /* \"#utility.yul\":7237:7515   */\n      pop\n        /* \"#utility.yul\":7175:7515   */\n      swap3\n      swap2\n      pop\n      pop\n      jump\t// out\n        /* \"#utility.yul\":7521:8030   */\n    tag_54:\n        /* \"#utility.yul\":7590:7596   */\n      0x00\n        /* \"#utility.yul\":7639:7641   */\n      0x20\n        /* \"#utility.yul\":7627:7636   */\n      dup3\n        /* \"#utility.yul\":7618:7625   */\n      dup5\n        /* \"#utility.yul\":7614:7637   */\n      sub\n        /* \"#utility.yul\":7610:7642   */\n      slt\n        /* \"#utility.yul\":7607:7726   */\n      iszero\n      tag_495\n      jumpi\n        /* \"#utility.yul\":7645:7724   */\n      tag_496\n      tag_348\n      jump\t// in\n    tag_496:\n        /* \"#utility.yul\":7607:7726   */\n    tag_495:\n        /* \"#utility.yul\":7793:7794   */\n      0x00\n        /* \"#utility.yul\":7782:7791   */\n      dup3\n        /* \"#utility.yul\":7778:7795   */\n      add\n        /* \"#utility.yul\":7765:7796   */\n      calldataload\n        /* \"#utility.yul\":7823:7841   */\n      0xffffffffffffffff\n        /* \"#utility.yul\":7815:7821   */\n      dup2\n        /* \"#utility.yul\":7812:7842   */\n      gt\n        /* \"#utility.yul\":7809:7926   */\n      iszero\n      tag_497\n      jumpi\n        /* \"#utility.yul\":7845:7924   */\n      tag_498\n      tag_349\n      jump\t// in\n    tag_498:\n        /* \"#utility.yul\":7809:7926   */\n    tag_497:\n        /* \"#utility.yul\":7950:8013   */\n      tag_499\n        /* \"#utility.yul\":8005:8012   */\n      dup5\n        /* \"#utility.yul\":7996:8002   */\n      dup3\n        /* \"#utility.yul\":7985:7994   */\n      dup6\n        /* \"#utility.yul\":7981:8003   */\n      add\n        /* \"#utility.yul\":7950:8013   */\n      tag_375\n      jump\t// in\n    tag_499:\n        /* \"#utility.yul\":7940:8013   */\n      swap2\n      pop\n        /* \"#utility.yul\":7736:8023   */\n      pop\n        /* \"#utility.yul\":7521:8030   */\n      swap3\n      swap2\n      pop\n      pop\n      jump\t// out\n        /* \"#utility.yul\":8036:8365   */\n    tag_62:\n        /* \"#utility.yul\":8095:8101   */\n      0x00\n        /* \"#utility.yul\":8144:8146   */\n      0x20\n        /* \"#utility.yul\":8132:8141   */\n      dup3\n        /* \"#utility.yul\":8123:8130   */\n      dup5\n        /* \"#utility.yul\":8119:8142   */\n      sub\n        /* \"#utility.yul\":8115:8147   */\n      slt\n        /* \"#utility.yul\":8112:8231   */\n      iszero\n      tag_501\n      jumpi\n        /* \"#utility.yul\":8150:8229   */\n      tag_502\n      tag_348\n      jump\t// in\n    tag_502:\n        /* \"#utility.yul\":8112:8231   */\n    tag_501:\n        /* \"#utility.yul\":8270:8271   */\n      0x00\n        /* \"#utility.yul\":8295:8348   */\n      tag_503\n        /* \"#utility.yul\":8340:8347   */\n      dup5\n        /* \"#utility.yul\":8331:8337   */\n      dup3\n        /* \"#utility.yul\":8320:8329   */\n      dup6\n        /* \"#utility.yul\":8316:8338   */\n      add\n        /* \"#utility.yul\":8295:8348   */\n      tag_367\n      jump\t// in\n    tag_503:\n        /* \"#utility.yul\":8285:8348   */\n      swap2\n      pop\n        /* \"#utility.yul\":8241:8358   */\n      pop\n        /* \"#utility.yul\":8036:8365   */\n      swap3\n      swap2\n      pop\n      pop\n      jump\t// out\n        /* \"#utility.yul\":8371:8489   */\n    tag_376:\n        /* \"#utility.yul\":8458:8482   */\n      tag_505\n        /* \"#utility.yul\":8476:8481   */\n      dup2\n        /* \"#utility.yul\":8458:8482   */\n      tag_360\n      jump\t// in\n    tag_505:\n        /* \"#utility.yul\":8453:8456   */\n      dup3\n        /* \"#utility.yul\":8446:8483   */\n      mstore\n        /* \"#utility.yul\":8371:8489   */\n      pop\n      pop\n      jump\t// out\n        /* \"#utility.yul\":8495:8717   */\n    tag_65:\n        /* \"#utility.yul\":8588:8592   */\n      0x00\n        /* \"#utility.yul\":8626:8628   */\n      0x20\n        /* \"#utility.yul\":8615:8624   */\n      dup3\n        /* \"#utility.yul\":8611:8629   */\n      add\n        /* \"#utility.yul\":8603:8629   */\n      swap1\n      pop\n        /* \"#utility.yul\":8639:8710   */\n      tag_507\n        /* \"#utility.yul\":8707:8708   */\n      0x00\n        /* \"#utility.yul\":8696:8705   */\n      dup4\n        /* \"#utility.yul\":8692:8709   */\n      add\n        /* \"#utility.yul\":8683:8689   */\n      dup5\n        /* \"#utility.yul\":8639:8710   */\n      tag_376\n      jump\t// in\n    tag_507:\n        /* \"#utility.yul\":8495:8717   */\n      swap3\n      swap2\n      pop\n      pop\n      jump\t// out\n        /* \"#utility.yul\":8723:8839   */\n    tag_377:\n        /* \"#utility.yul\":8793:8814   */\n      tag_509\n        /* \"#utility.yul\":8808:8813   */\n      dup2\n        /* \"#utility.yul\":8793:8814   */\n      tag_353\n      jump\t// in\n    tag_509:\n        /* \"#utility.yul\":8786:8791   */\n      dup2\n        /* \"#utility.yul\":8783:8815   */\n      eq\n        /* \"#utility.yul\":8773:8833   */\n      tag_510\n      jumpi\n        /* \"#utility.yul\":8829:8830   */\n      0x00\n        /* \"#utility.yul\":8826:8827   */\n      dup1\n        /* \"#utility.yul\":8819:8831   */\n      revert\n        /* \"#utility.yul\":8773:8833   */\n    tag_510:\n        /* \"#utility.yul\":8723:8839   */\n      pop\n      jump\t// out\n        /* \"#utility.yul\":8845:8978   */\n    tag_378:\n        /* \"#utility.yul\":8888:8893   */\n      0x00\n        /* \"#utility.yul\":8926:8932   */\n      dup2\n        /* \"#utility.yul\":8913:8933   */\n      calldataload\n        /* \"#utility.yul\":8904:8933   */\n      swap1\n      pop\n        /* \"#utility.yul\":8942:8972   */\n      tag_512\n        /* \"#utility.yul\":8966:8971   */\n      dup2\n        /* \"#utility.yul\":8942:8972   */\n      tag_377\n      jump\t// in\n    tag_512:\n        /* \"#utility.yul\":8845:8978   */\n      swap3\n      swap2\n      pop\n      pop\n      jump\t// out\n        /* \"#utility.yul\":8984:9452   */\n    tag_76:\n        /* \"#utility.yul\":9049:9055   */\n      0x00\n        /* \"#utility.yul\":9057:9063   */\n      dup1\n        /* \"#utility.yul\":9106:9108   */\n      0x40\n        /* \"#utility.yul\":9094:9103   */\n      dup4\n        /* \"#utility.yul\":9085:9092   */\n      dup6\n        /* \"#utility.yul\":9081:9104   */\n      sub\n        /* \"#utility.yul\":9077:9109   */\n      slt\n        /* \"#utility.yul\":9074:9193   */\n      iszero\n      tag_514\n      jumpi\n        /* \"#utility.yul\":9112:9191   */\n      tag_515\n      tag_348\n      jump\t// in\n    tag_515:\n        /* \"#utility.yul\":9074:9193   */\n    tag_514:\n        /* \"#utility.yul\":9232:9233   */\n      0x00\n        /* \"#utility.yul\":9257:9310   */\n      tag_516\n        /* \"#utility.yul\":9302:9309   */\n      dup6\n        /* \"#utility.yul\":9293:9299   */\n      dup3\n        /* \"#utility.yul\":9282:9291   */\n      dup7\n        /* \"#utility.yul\":9278:9300   */\n      add\n        /* \"#utility.yul\":9257:9310   */\n      tag_367\n      jump\t// in\n    tag_516:\n        /* \"#utility.yul\":9247:9310   */\n      swap3\n      pop\n        /* \"#utility.yul\":9203:9320   */\n      pop\n        /* \"#utility.yul\":9359:9361   */\n      0x20\n        /* \"#utility.yul\":9385:9435   */\n      tag_517\n        /* \"#utility.yul\":9427:9434   */\n      dup6\n        /* \"#utility.yul\":9418:9424   */\n      dup3\n        /* \"#utility.yul\":9407:9416   */\n      dup7\n        /* \"#utility.yul\":9403:9425   */\n      add\n        /* \"#utility.yul\":9385:9435   */\n      tag_378\n      jump\t// in\n    tag_517:\n        /* \"#utility.yul\":9375:9435   */\n      swap2\n      pop\n        /* \"#utility.yul\":9330:9445   */\n      pop\n        /* \"#utility.yul\":8984:9452   */\n      swap3\n      pop\n      swap3\n      swap1\n      pop\n      jump\t// out\n        /* \"#utility.yul\":9458:9765   */\n    tag_379:\n        /* \"#utility.yul\":9519:9523   */\n      0x00\n        /* \"#utility.yul\":9609:9627   */\n      0xffffffffffffffff\n        /* \"#utility.yul\":9601:9607   */\n      dup3\n        /* \"#utility.yul\":9598:9628   */\n      gt\n        /* \"#utility.yul\":9595:9651   */\n      iszero\n      tag_519\n      jumpi\n        /* \"#utility.yul\":9631:9649   */\n      tag_520\n      tag_303\n      jump\t// in\n    tag_520:\n        /* \"#utility.yul\":9595:9651   */\n    tag_519:\n        /* \"#utility.yul\":9669:9698   */\n      tag_521\n        /* \"#utility.yul\":9691:9697   */\n      dup3\n        /* \"#utility.yul\":9669:9698   */\n      tag_358\n      jump\t// in\n    tag_521:\n        /* \"#utility.yul\":9661:9698   */\n      swap1\n      pop\n        /* \"#utility.yul\":9753:9757   */\n      0x20\n        /* \"#utility.yul\":9747:9751   */\n      dup2\n        /* \"#utility.yul\":9743:9758   */\n      add\n        /* \"#utility.yul\":9735:9758   */\n      swap1\n      pop\n        /* \"#utility.yul\":9458:9765   */\n      swap2\n      swap1\n      pop\n      jump\t// out\n        /* \"#utility.yul\":9771:10194   */\n    tag_380:\n        /* \"#utility.yul\":9848:9853   */\n      0x00\n        /* \"#utility.yul\":9873:9938   */\n      tag_523\n        /* \"#utility.yul\":9889:9937   */\n      tag_524\n        /* \"#utility.yul\":9930:9936   */\n      dup5\n        /* \"#utility.yul\":9889:9937   */\n      tag_379\n      jump\t// in\n    tag_524:\n        /* \"#utility.yul\":9873:9938   */\n      tag_371\n      jump\t// in\n    tag_523:\n        /* \"#utility.yul\":9864:9938   */\n      swap1\n      pop\n        /* \"#utility.yul\":9961:9967   */\n      dup3\n        /* \"#utility.yul\":9954:9959   */\n      dup2\n        /* \"#utility.yul\":9947:9968   */\n      mstore\n        /* \"#utility.yul\":9999:10003   */\n      0x20\n        /* \"#utility.yul\":9992:9997   */\n      dup2\n        /* \"#utility.yul\":9988:10004   */\n      add\n        /* \"#utility.yul\":10037:10040   */\n      dup5\n        /* \"#utility.yul\":10028:10034   */\n      dup5\n        /* \"#utility.yul\":10023:10026   */\n      dup5\n        /* \"#utility.yul\":10019:10035   */\n      add\n        /* \"#utility.yul\":10016:10041   */\n      gt\n        /* \"#utility.yul\":10013:10125   */\n      iszero\n      tag_525\n      jumpi\n        /* \"#utility.yul\":10044:10123   */\n      tag_526\n      tag_369\n      jump\t// in\n    tag_526:\n        /* \"#utility.yul\":10013:10125   */\n    tag_525:\n        /* \"#utility.yul\":10134:10188   */\n      tag_527\n        /* \"#utility.yul\":10181:10187   */\n      dup5\n        /* \"#utility.yul\":10176:10179   */\n      dup3\n        /* \"#utility.yul\":10171:10174   */\n      dup6\n        /* \"#utility.yul\":10134:10188   */\n      tag_373\n      jump\t// in\n    tag_527:\n        /* \"#utility.yul\":9854:10194   */\n      pop\n        /* \"#utility.yul\":9771:10194   */\n      swap4\n      swap3\n      pop\n      pop\n      pop\n      jump\t// out\n        /* \"#utility.yul\":10213:10551   */\n    tag_381:\n        /* \"#utility.yul\":10268:10273   */\n      0x00\n        /* \"#utility.yul\":10317:10320   */\n      dup3\n        /* \"#utility.yul\":10310:10314   */\n      0x1f\n        /* \"#utility.yul\":10302:10308   */\n      dup4\n        /* \"#utility.yul\":10298:10315   */\n      add\n        /* \"#utility.yul\":10294:10321   */\n      slt\n        /* \"#utility.yul\":10284:10406   */\n      tag_529\n      jumpi\n        /* \"#utility.yul\":10325:10404   */\n      tag_530\n      tag_368\n      jump\t// in\n    tag_530:\n        /* \"#utility.yul\":10284:10406   */\n    tag_529:\n        /* \"#utility.yul\":10442:10448   */\n      dup2\n        /* \"#utility.yul\":10429:10449   */\n      calldataload\n        /* \"#utility.yul\":10467:10545   */\n      tag_531\n        /* \"#utility.yul\":10541:10544   */\n      dup5\n        /* \"#utility.yul\":10533:10539   */\n      dup3\n        /* \"#utility.yul\":10526:10530   */\n      0x20\n        /* \"#utility.yul\":10518:10524   */\n      dup7\n        /* \"#utility.yul\":10514:10531   */\n      add\n        /* \"#utility.yul\":10467:10545   */\n      tag_380\n      jump\t// in\n    tag_531:\n        /* \"#utility.yul\":10458:10545   */\n      swap2\n      pop\n        /* \"#utility.yul\":10274:10551   */\n      pop\n        /* \"#utility.yul\":10213:10551   */\n      swap3\n      swap2\n      pop\n      pop\n      jump\t// out\n        /* \"#utility.yul\":10557:11500   */\n    tag_80:\n        /* \"#utility.yul\":10652:10658   */\n      0x00\n        /* \"#utility.yul\":10660:10666   */\n      dup1\n        /* \"#utility.yul\":10668:10674   */\n      0x00\n        /* \"#utility.yul\":10676:10682   */\n      dup1\n        /* \"#utility.yul\":10725:10728   */\n      0x80\n        /* \"#utility.yul\":10713:10722   */\n      dup6\n        /* \"#utility.yul\":10704:10711   */\n      dup8\n        /* \"#utility.yul\":10700:10723   */\n      sub\n        /* \"#utility.yul\":10696:10729   */\n      slt\n        /* \"#utility.yul\":10693:10813   */\n      iszero\n      tag_533\n      jumpi\n        /* \"#utility.yul\":10732:10811   */\n      tag_534\n      tag_348\n      jump\t// in\n    tag_534:\n        /* \"#utility.yul\":10693:10813   */\n    tag_533:\n        /* \"#utility.yul\":10852:10853   */\n      0x00\n        /* \"#utility.yul\":10877:10930   */\n      tag_535\n        /* \"#utility.yul\":10922:10929   */\n      dup8\n        /* \"#utility.yul\":10913:10919   */\n      dup3\n        /* \"#utility.yul\":10902:10911   */\n      dup9\n        /* \"#utility.yul\":10898:10920   */\n      add\n        /* \"#utility.yul\":10877:10930   */\n      tag_367\n      jump\t// in\n    tag_535:\n        /* \"#utility.yul\":10867:10930   */\n      swap5\n      pop\n        /* \"#utility.yul\":10823:10940   */\n      pop\n        /* \"#utility.yul\":10979:10981   */\n      0x20\n        /* \"#utility.yul\":11005:11058   */\n      tag_536\n        /* \"#utility.yul\":11050:11057   */\n      dup8\n        /* \"#utility.yul\":11041:11047   */\n      dup3\n        /* \"#utility.yul\":11030:11039   */\n      dup9\n        /* \"#utility.yul\":11026:11048   */\n      add\n        /* \"#utility.yul\":11005:11058   */\n      tag_367\n      jump\t// in\n    tag_536:\n        /* \"#utility.yul\":10995:11058   */\n      swap4\n      pop\n        /* \"#utility.yul\":10950:11068   */\n      pop\n        /* \"#utility.yul\":11107:11109   */\n      0x40\n        /* \"#utility.yul\":11133:11186   */\n      tag_537\n        /* \"#utility.yul\":11178:11185   */\n      dup8\n        /* \"#utility.yul\":11169:11175   */\n      dup3\n        /* \"#utility.yul\":11158:11167   */\n      dup9\n        /* \"#utility.yul\":11154:11176   */\n      add\n        /* \"#utility.yul\":11133:11186   */\n      tag_362\n      jump\t// in\n    tag_537:\n        /* \"#utility.yul\":11123:11186   */\n      swap3\n      pop\n        /* \"#utility.yul\":11078:11196   */\n      pop\n        /* \"#utility.yul\":11263:11265   */\n      0x60\n        /* \"#utility.yul\":11252:11261   */\n      dup6\n        /* \"#utility.yul\":11248:11266   */\n      add\n        /* \"#utility.yul\":11235:11267   */\n      calldataload\n        /* \"#utility.yul\":11294:11312   */\n      0xffffffffffffffff\n        /* \"#utility.yul\":11286:11292   */\n      dup2\n        /* \"#utility.yul\":11283:11313   */\n      gt\n        /* \"#utility.yul\":11280:11397   */\n      iszero\n      tag_538\n      jumpi\n        /* \"#utility.yul\":11316:11395   */\n      tag_539\n      tag_349\n      jump\t// in\n    tag_539:\n        /* \"#utility.yul\":11280:11397   */\n    tag_538:\n        /* \"#utility.yul\":11421:11483   */\n      tag_540\n        /* \"#utility.yul\":11475:11482   */\n      dup8\n        /* \"#utility.yul\":11466:11472   */\n      dup3\n        /* \"#utility.yul\":11455:11464   */\n      dup9\n        /* \"#utility.yul\":11451:11473   */\n      add\n        /* \"#utility.yul\":11421:11483   */\n      tag_381\n      jump\t// in\n    tag_540:\n        /* \"#utility.yul\":11411:11483   */\n      swap2\n      pop\n        /* \"#utility.yul\":11206:11493   */\n      pop\n        /* \"#utility.yul\":10557:11500   */\n      swap3\n      swap6\n      swap2\n      swap5\n      pop\n      swap3\n      pop\n      jump\t// out\n        /* \"#utility.yul\":11506:12160   */\n    tag_91:\n        /* \"#utility.yul\":11584:11590   */\n      0x00\n        /* \"#utility.yul\":11592:11598   */\n      dup1\n        /* \"#utility.yul\":11641:11643   */\n      0x40\n        /* \"#utility.yul\":11629:11638   */\n      dup4\n        /* \"#utility.yul\":11620:11627   */\n      dup6\n        /* \"#utility.yul\":11616:11639   */\n      sub\n        /* \"#utility.yul\":11612:11644   */\n      slt\n        /* \"#utility.yul\":11609:11728   */\n      iszero\n      tag_542\n      jumpi\n        /* \"#utility.yul\":11647:11726   */\n      tag_543\n      tag_348\n      jump\t// in\n    tag_543:\n        /* \"#utility.yul\":11609:11728   */\n    tag_542:\n        /* \"#utility.yul\":11767:11768   */\n      0x00\n        /* \"#utility.yul\":11792:11845   */\n      tag_544\n        /* \"#utility.yul\":11837:11844   */\n      dup6\n        /* \"#utility.yul\":11828:11834   */\n      dup3\n        /* \"#utility.yul\":11817:11826   */\n      dup7\n        /* \"#utility.yul\":11813:11835   */\n      add\n        /* \"#utility.yul\":11792:11845   */\n      tag_367\n      jump\t// in\n    tag_544:\n        /* \"#utility.yul\":11782:11845   */\n      swap3\n      pop\n        /* \"#utility.yul\":11738:11855   */\n      pop\n        /* \"#utility.yul\":11922:11924   */\n      0x20\n        /* \"#utility.yul\":11911:11920   */\n      dup4\n        /* \"#utility.yul\":11907:11925   */\n      add\n        /* \"#utility.yul\":11894:11926   */\n      calldataload\n        /* \"#utility.yul\":11953:11971   */\n      0xffffffffffffffff\n        /* \"#utility.yul\":11945:11951   */\n      dup2\n        /* \"#utility.yul\":11942:11972   */\n      gt\n        /* \"#utility.yul\":11939:12056   */\n      iszero\n      tag_545\n      jumpi\n        /* \"#utility.yul\":11975:12054   */\n      tag_546\n      tag_349\n      jump\t// in\n    tag_546:\n        /* \"#utility.yul\":11939:12056   */\n    tag_545:\n        /* \"#utility.yul\":12080:12143   */\n      tag_547\n        /* \"#utility.yul\":12135:12142   */\n      dup6\n        /* \"#utility.yul\":12126:12132   */\n      dup3\n        /* \"#utility.yul\":12115:12124   */\n      dup7\n        /* \"#utility.yul\":12111:12133   */\n      add\n        /* \"#utility.yul\":12080:12143   */\n      tag_375\n      jump\t// in\n    tag_547:\n        /* \"#utility.yul\":12070:12143   */\n      swap2\n      pop\n        /* \"#utility.yul\":11865:12153   */\n      pop\n        /* \"#utility.yul\":11506:12160   */\n      swap3\n      pop\n      swap3\n      swap1\n      pop\n      jump\t// out\n        /* \"#utility.yul\":12166:12640   */\n    tag_95:\n        /* \"#utility.yul\":12234:12240   */\n      0x00\n        /* \"#utility.yul\":12242:12248   */\n      dup1\n        /* \"#utility.yul\":12291:12293   */\n      0x40\n        /* \"#utility.yul\":12279:12288   */\n      dup4\n        /* \"#utility.yul\":12270:12277   */\n      dup6\n        /* \"#utility.yul\":12266:12289   */\n      sub\n        /* \"#utility.yul\":12262:12294   */\n      slt\n        /* \"#utility.yul\":12259:12378   */\n      iszero\n      tag_549\n      jumpi\n        /* \"#utility.yul\":12297:12376   */\n      tag_550\n      tag_348\n      jump\t// in\n    tag_550:\n        /* \"#utility.yul\":12259:12378   */\n    tag_549:\n        /* \"#utility.yul\":12417:12418   */\n      0x00\n        /* \"#utility.yul\":12442:12495   */\n      tag_551\n        /* \"#utility.yul\":12487:12494   */\n      dup6\n        /* \"#utility.yul\":12478:12484   */\n      dup3\n        /* \"#utility.yul\":12467:12476   */\n      dup7\n        /* \"#utility.yul\":12463:12485   */\n      add\n        /* \"#utility.yul\":12442:12495   */\n      tag_367\n      jump\t// in\n    tag_551:\n        /* \"#utility.yul\":12432:12495   */\n      swap3\n      pop\n        /* \"#utility.yul\":12388:12505   */\n      pop\n        /* \"#utility.yul\":12544:12546   */\n      0x20\n        /* \"#utility.yul\":12570:12623   */\n      tag_552\n        /* \"#utility.yul\":12615:12622   */\n      dup6\n        /* \"#utility.yul\":12606:12612   */\n      dup3\n        /* \"#utility.yul\":12595:12604   */\n      dup7\n        /* \"#utility.yul\":12591:12613   */\n      add\n        /* \"#utility.yul\":12570:12623   */\n      tag_367\n      jump\t// in\n    tag_552:\n        /* \"#utility.yul\":12560:12623   */\n      swap2\n      pop\n        /* \"#utility.yul\":12515:12633   */\n      pop\n        /* \"#utility.yul\":12166:12640   */\n      swap3\n      pop\n      swap3\n      swap1\n      pop\n      jump\t// out\n        /* \"#utility.yul\":12646:12826   */\n    tag_382:\n        /* \"#utility.yul\":12694:12771   */\n      0x4e487b7100000000000000000000000000000000000000000000000000000000\n        /* \"#utility.yul\":12691:12692   */\n      0x00\n        /* \"#utility.yul\":12684:12772   */\n      mstore\n        /* \"#utility.yul\":12791:12795   */\n      0x22\n        /* \"#utility.yul\":12788:12789   */\n      0x04\n        /* \"#utility.yul\":12781:12796   */\n      mstore\n        /* \"#utility.yul\":12815:12819   */\n      0x24\n        /* \"#utility.yul\":12812:12813   */\n      0x00\n        /* \"#utility.yul\":12805:12820   */\n      revert\n        /* \"#utility.yul\":12832:13152   */\n    tag_107:\n        /* \"#utility.yul\":12876:12882   */\n      0x00\n        /* \"#utility.yul\":12913:12914   */\n      0x02\n        /* \"#utility.yul\":12907:12911   */\n      dup3\n        /* \"#utility.yul\":12903:12915   */\n      div\n        /* \"#utility.yul\":12893:12915   */\n      swap1\n      pop\n        /* \"#utility.yul\":12960:12961   */\n      0x01\n        /* \"#utility.yul\":12954:12958   */\n      dup3\n        /* \"#utility.yul\":12950:12962   */\n      and\n        /* \"#utility.yul\":12981:12999   */\n      dup1\n        /* \"#utility.yul\":12971:13052   */\n      tag_555\n      jumpi\n        /* \"#utility.yul\":13037:13041   */\n      0x7f\n        /* \"#utility.yul\":13029:13035   */\n      dup3\n        /* \"#utility.yul\":13025:13042   */\n      and\n        /* \"#utility.yul\":13015:13042   */\n      swap2\n      pop\n        /* \"#utility.yul\":12971:13052   */\n    tag_555:\n        /* \"#utility.yul\":13099:13101   */\n      0x20\n        /* \"#utility.yul\":13091:13097   */\n      dup3\n        /* \"#utility.yul\":13088:13102   */\n      lt\n        /* \"#utility.yul\":13068:13086   */\n      dup2\n        /* \"#utility.yul\":13065:13103   */\n      sub\n        /* \"#utility.yul\":13062:13146   */\n      tag_556\n      jumpi\n        /* \"#utility.yul\":13118:13136   */\n      tag_557\n      tag_382\n      jump\t// in\n    tag_557:\n        /* \"#utility.yul\":13062:13146   */\n    tag_556:\n        /* \"#utility.yul\":12883:13152   */\n      pop\n        /* \"#utility.yul\":12832:13152   */\n      swap2\n      swap1\n      pop\n      jump\t// out\n        /* \"#utility.yul\":13158:13600   */\n    tag_130:\n        /* \"#utility.yul\":13307:13311   */\n      0x00\n        /* \"#utility.yul\":13345:13347   */\n      0x60\n        /* \"#utility.yul\":13334:13343   */\n      dup3\n        /* \"#utility.yul\":13330:13348   */\n      add\n        /* \"#utility.yul\":13322:13348   */\n      swap1\n      pop\n        /* \"#utility.yul\":13358:13429   */\n      tag_559\n        /* \"#utility.yul\":13426:13427   */\n      0x00\n        /* \"#utility.yul\":13415:13424   */\n      dup4\n        /* \"#utility.yul\":13411:13428   */\n      add\n        /* \"#utility.yul\":13402:13408   */\n      dup7\n        /* \"#utility.yul\":13358:13429   */\n      tag_365\n      jump\t// in\n    tag_559:\n        /* \"#utility.yul\":13439:13511   */\n      tag_560\n        /* \"#utility.yul\":13507:13509   */\n      0x20\n        /* \"#utility.yul\":13496:13505   */\n      dup4\n        /* \"#utility.yul\":13492:13510   */\n      add\n        /* \"#utility.yul\":13483:13489   */\n      dup6\n        /* \"#utility.yul\":13439:13511   */\n      tag_376\n      jump\t// in\n    tag_560:\n        /* \"#utility.yul\":13521:13593   */\n      tag_561\n        /* \"#utility.yul\":13589:13591   */\n      0x40\n        /* \"#utility.yul\":13578:13587   */\n      dup4\n        /* \"#utility.yul\":13574:13592   */\n      add\n        /* \"#utility.yul\":13565:13571   */\n      dup5\n        /* \"#utility.yul\":13521:13593   */\n      tag_365\n      jump\t// in\n    tag_561:\n        /* \"#utility.yul\":13158:13600   */\n      swap5\n      swap4\n      pop\n      pop\n      pop\n      pop\n      jump\t// out\n        /* \"#utility.yul\":13606:13747   */\n    tag_383:\n        /* \"#utility.yul\":13655:13659   */\n      0x00\n        /* \"#utility.yul\":13678:13681   */\n      dup2\n        /* \"#utility.yul\":13670:13681   */\n      swap1\n      pop\n        /* \"#utility.yul\":13701:13704   */\n      dup2\n        /* \"#utility.yul\":13698:13699   */\n      0x00\n        /* \"#utility.yul\":13691:13705   */\n      mstore\n        /* \"#utility.yul\":13735:13739   */\n      0x20\n        /* \"#utility.yul\":13732:13733   */\n      0x00\n        /* \"#utility.yul\":13722:13740   */\n      keccak256\n        /* \"#utility.yul\":13714:13740   */\n      swap1\n      pop\n        /* \"#utility.yul\":13606:13747   */\n      swap2\n      swap1\n      pop\n      jump\t// out\n        /* \"#utility.yul\":13753:13846   */\n    tag_384:\n        /* \"#utility.yul\":13790:13796   */\n      0x00\n        /* \"#utility.yul\":13837:13839   */\n      0x20\n        /* \"#utility.yul\":13832:13834   */\n      0x1f\n        /* \"#utility.yul\":13825:13830   */\n      dup4\n        /* \"#utility.yul\":13821:13835   */\n      add\n        /* \"#utility.yul\":13817:13840   */\n      div\n        /* \"#utility.yul\":13807:13840   */\n      swap1\n      pop\n        /* \"#utility.yul\":13753:13846   */\n      swap2\n      swap1\n      pop\n      jump\t// out\n        /* \"#utility.yul\":13852:13959   */\n    tag_385:\n        /* \"#utility.yul\":13896:13904   */\n      0x00\n        /* \"#utility.yul\":13946:13951   */\n      dup3\n        /* \"#utility.yul\":13940:13944   */\n      dup3\n        /* \"#utility.yul\":13936:13952   */\n      shl\n        /* \"#utility.yul\":13915:13952   */\n      swap1\n      pop\n        /* \"#utility.yul\":13852:13959   */\n      swap3\n      swap2\n      pop\n      pop\n      jump\t// out\n        /* \"#utility.yul\":13965:14358   */\n    tag_386:\n        /* \"#utility.yul\":14034:14040   */\n      0x00\n        /* \"#utility.yul\":14084:14085   */\n      0x08\n        /* \"#utility.yul\":14072:14082   */\n      dup4\n        /* \"#utility.yul\":14068:14086   */\n      mul\n        /* \"#utility.yul\":14107:14204   */\n      tag_566\n        /* \"#utility.yul\":14137:14203   */\n      0xffffffffffffffffffffffffffffffffffffffffffffffffffffffffffffffff\n        /* \"#utility.yul\":14126:14135   */\n      dup3\n        /* \"#utility.yul\":14107:14204   */\n      tag_385\n      jump\t// in\n    tag_566:\n        /* \"#utility.yul\":14225:14264   */\n      tag_567\n        /* \"#utility.yul\":14255:14263   */\n      dup7\n        /* \"#utility.yul\":14244:14253   */\n      dup4\n        /* \"#utility.yul\":14225:14264   */\n      tag_385\n      jump\t// in\n    tag_567:\n        /* \"#utility.yul\":14213:14264   */\n      swap6\n      pop\n        /* \"#utility.yul\":14297:14301   */\n      dup1\n        /* \"#utility.yul\":14293:14302   */\n      not\n        /* \"#utility.yul\":14286:14291   */\n      dup5\n        /* \"#utility.yul\":14282:14303   */\n      and\n        /* \"#utility.yul\":14273:14303   */\n      swap4\n      pop\n        /* \"#utility.yul\":14346:14350   */\n      dup1\n        /* \"#utility.yul\":14336:14344   */\n      dup7\n        /* \"#utility.yul\":14332:14351   */\n      and\n        /* \"#utility.yul\":14325:14330   */\n      dup5\n        /* \"#utility.yul\":14322:14352   */\n      or\n        /* \"#utility.yul\":14312:14352   */\n      swap3\n      pop\n        /* \"#utility.yul\":14041:14358   */\n      pop\n      pop\n        /* \"#utility.yul\":13965:14358   */\n      swap4\n      swap3\n      pop\n      pop\n      pop\n      jump\t// out\n        /* \"#utility.yul\":14364:14424   */\n    tag_387:\n        /* \"#utility.yul\":14392:14395   */\n      0x00\n        /* \"#utility.yul\":14413:14418   */\n      dup2\n        /* \"#utility.yul\":14406:14418   */\n      swap1\n      pop\n        /* \"#utility.yul\":14364:14424   */\n      swap2\n      swap1\n      pop\n      jump\t// out\n        /* \"#utility.yul\":14430:14572   */\n    tag_388:\n        /* \"#utility.yul\":14480:14489   */\n      0x00\n        /* \"#utility.yul\":14513:14566   */\n      tag_570\n        /* \"#utility.yul\":14531:14565   */\n      tag_571\n        /* \"#utility.yul\":14540:14564   */\n      tag_572\n        /* \"#utility.yul\":14558:14563   */\n      dup5\n        /* \"#utility.yul\":14540:14564   */\n      tag_360\n      jump\t// in\n    tag_572:\n        /* \"#utility.yul\":14531:14565   */\n      tag_387\n      jump\t// in\n    tag_571:\n        /* \"#utility.yul\":14513:14566   */\n      tag_360\n      jump\t// in\n    tag_570:\n        /* \"#utility.yul\":14500:14566   */\n      swap1\n      pop\n        /* \"#utility.yul\":14430:14572   */\n      swap2\n      swap1\n      pop\n      jump\t// out\n        /* \"#utility.yul\":14578:14653   */\n    tag_389:\n        /* \"#utility.yul\":14621:14624   */\n      0x00\n        /* \"#utility.yul\":14642:14647   */\n      dup2\n        /* \"#utility.yul\":14635:14647   */\n      swap1\n      pop\n        /* \"#utility.yul\":14578:14653   */\n      swap2\n      swap1\n      pop\n      jump\t// out\n        /* \"#utility.yul\":14659:14928   */\n    tag_390:\n        /* \"#utility.yul\":14769:14808   */\n      tag_575\n        /* \"#utility.yul\":14800:14807   */\n      dup4\n        /* \"#utility.yul\":14769:14808   */\n      tag_388\n      jump\t// in\n    tag_575:\n        /* \"#utility.yul\":14830:14921   */\n      tag_576\n        /* \"#utility.yul\":14879:14920   */\n      tag_577\n        /* \"#utility.yul\":14903:14919   */\n      dup3\n        /* \"#utility.yul\":14879:14920   */\n      tag_389\n      jump\t// in\n    tag_577:\n        /* \"#utility.yul\":14871:14877   */\n      dup5\n        /* \"#utility.yul\":14864:14868   */\n      dup5\n        /* \"#utility.yul\":14858:14869   */\n      sload\n        /* \"#utility.yul\":14830:14921   */\n      tag_386\n      jump\t// in\n    tag_576:\n        /* \"#utility.yul\":14824:14828   */\n      dup3\n        /* \"#utility.yul\":14817:14922   */\n      sstore\n        /* \"#utility.yul\":14735:14928   */\n      pop\n        /* \"#utility.yul\":14659:14928   */\n      pop\n      pop\n      pop\n      jump\t// out\n        /* \"#utility.yul\":14934:15007   */\n    tag_391:\n        /* \"#utility.yul\":14979:14982   */\n      0x00\n        /* \"#utility.yul\":14934:15007   */\n      swap1\n      jump\t// out\n        /* \"#utility.yul\":15013:15202   */\n    tag_392:\n        /* \"#utility.yul\":15090:15122   */\n      tag_580\n      tag_391\n      jump\t// in\n    tag_580:\n        /* \"#utility.yul\":15131:15196   */\n      tag_581\n        /* \"#utility.yul\":15189:15195   */\n      dup2\n        /* \"#utility.yul\":15181:15187   */\n      dup5\n        /* \"#utility.yul\":15175:15179   */\n      dup5\n        /* \"#utility.yul\":15131:15196   */\n      tag_390\n      jump\t// in\n    tag_581:\n        /* \"#utility.yul\":15066:15202   */\n      pop\n        /* \"#utility.yul\":15013:15202   */\n      pop\n      pop\n      jump\t// out\n        /* \"#utility.yul\":15208:15394   */\n    tag_393:\n        /* \"#utility.yul\":15268:15388   */\n    tag_583:\n        /* \"#utility.yul\":15285:15288   */\n      dup2\n        /* \"#utility.yul\":15278:15283   */\n      dup2\n        /* \"#utility.yul\":15275:15289   */\n      lt\n        /* \"#utility.yul\":15268:15388   */\n      iszero\n      tag_585\n      jumpi\n        /* \"#utility.yul\":15339:15378   */\n      tag_586\n        /* \"#utility.yul\":15376:15377   */\n      0x00\n        /* \"#utility.yul\":15369:15374   */\n      dup3\n        /* \"#utility.yul\":15339:15378   */\n      tag_392\n      jump\t// in\n    tag_586:\n        /* \"#utility.yul\":15312:15313   */\n      0x01\n        /* \"#utility.yul\":15305:15310   */\n      dup2\n        /* \"#utility.yul\":15301:15314   */\n      add\n        /* \"#utility.yul\":15292:15314   */\n      swap1\n      pop\n        /* \"#utility.yul\":15268:15388   */\n      jump(tag_583)\n    tag_585:\n        /* \"#utility.yul\":15208:15394   */\n      pop\n      pop\n      jump\t// out\n        /* \"#utility.yul\":15400:15943   */\n    tag_394:\n        /* \"#utility.yul\":15501:15503   */\n      0x1f\n        /* \"#utility.yul\":15496:15499   */\n      dup3\n        /* \"#utility.yul\":15493:15504   */\n      gt\n        /* \"#utility.yul\":15490:15936   */\n      iszero\n      tag_588\n      jumpi\n        /* \"#utility.yul\":15535:15573   */\n      tag_589\n        /* \"#utility.yul\":15567:15572   */\n      dup2\n        /* \"#utility.yul\":15535:15573   */\n      tag_383\n      jump\t// in\n    tag_589:\n        /* \"#utility.yul\":15619:15648   */\n      tag_590\n        /* \"#utility.yul\":15637:15647   */\n      dup5\n        /* \"#utility.yul\":15619:15648   */\n      tag_384\n      jump\t// in\n    tag_590:\n        /* \"#utility.yul\":15609:15617   */\n      dup2\n        /* \"#utility.yul\":15605:15649   */\n      add\n        /* \"#utility.yul\":15802:15804   */\n      0x20\n        /* \"#utility.yul\":15790:15800   */\n      dup6\n        /* \"#utility.yul\":15787:15805   */\n      lt\n        /* \"#utility.yul\":15784:15833   */\n      iszero\n      tag_591\n      jumpi\n        /* \"#utility.yul\":15823:15831   */\n      dup2\n        /* \"#utility.yul\":15808:15831   */\n      swap1\n      pop\n        /* \"#utility.yul\":15784:15833   */\n    tag_591:\n        /* \"#utility.yul\":15846:15926   */\n      tag_592\n        /* \"#utility.yul\":15902:15924   */\n      tag_593\n        /* \"#utility.yul\":15920:15923   */\n      dup6\n        /* \"#utility.yul\":15902:15924   */\n      tag_384\n      jump\t// in\n    tag_593:\n        /* \"#utility.yul\":15892:15900   */\n      dup4\n        /* \"#utility.yul\":15888:15925   */\n      add\n        /* \"#utility.yul\":15875:15886   */\n      dup3\n        /* \"#utility.yul\":15846:15926   */\n      tag_393\n      jump\t// in\n    tag_592:\n        /* \"#utility.yul\":15505:15936   */\n      pop\n      pop\n        /* \"#utility.yul\":15490:15936   */\n    tag_588:\n        /* \"#utility.yul\":15400:15943   */\n      pop\n      pop\n      pop\n      jump\t// out\n        /* \"#utility.yul\":15949:16066   */\n    tag_395:\n        /* \"#utility.yul\":16003:16011   */\n      0x00\n        /* \"#utility.yul\":16053:16058   */\n      dup3\n        /* \"#utility.yul\":16047:16051   */\n      dup3\n        /* \"#utility.yul\":16043:16059   */\n      shr\n        /* \"#utility.yul\":16022:16059   */\n      swap1\n      pop\n        /* \"#utility.yul\":15949:16066   */\n      swap3\n      swap2\n      pop\n      pop\n      jump\t// out\n        /* \"#utility.yul\":16072:16241   */\n    tag_396:\n        /* \"#utility.yul\":16116:16122   */\n      0x00\n        /* \"#utility.yul\":16149:16200   */\n      tag_596\n        /* \"#utility.yul\":16197:16198   */\n      0x00\n        /* \"#utility.yul\":16193:16199   */\n      not\n        /* \"#utility.yul\":16185:16190   */\n      dup5\n        /* \"#utility.yul\":16182:16183   */\n      0x08\n        /* \"#utility.yul\":16178:16191   */\n      mul\n        /* \"#utility.yul\":16149:16200   */\n      tag_395\n      jump\t// in\n    tag_596:\n        /* \"#utility.yul\":16145:16201   */\n      not\n        /* \"#utility.yul\":16230:16234   */\n      dup1\n        /* \"#utility.yul\":16224:16228   */\n      dup4\n        /* \"#utility.yul\":16220:16235   */\n      and\n        /* \"#utility.yul\":16210:16235   */\n      swap2\n      pop\n        /* \"#utility.yul\":16123:16241   */\n      pop\n        /* \"#utility.yul\":16072:16241   */\n      swap3\n      swap2\n      pop\n      pop\n      jump\t// out\n        /* \"#utility.yul\":16246:16541   */\n    tag_397:\n        /* \"#utility.yul\":16322:16326   */\n      0x00\n        /* \"#utility.yul\":16468:16497   */\n      tag_598\n        /* \"#utility.yul\":16493:16496   */\n      dup4\n        /* \"#utility.yul\":16487:16491   */\n      dup4\n        /* \"#utility.yul\":16468:16497   */\n      tag_396\n      jump\t// in\n    tag_598:\n        /* \"#utility.yul\":16460:16497   */\n      swap2\n      pop\n        /* \"#utility.yul\":16530:16533   */\n      dup3\n        /* \"#utility.yul\":16527:16528   */\n      0x02\n        /* \"#utility.yul\":16523:16534   */\n      mul\n        /* \"#utility.yul\":16517:16521   */\n      dup3\n        /* \"#utility.yul\":16514:16535   */\n      or\n        /* \"#utility.yul\":16506:16535   */\n      swap1\n      pop\n        /* \"#utility.yul\":16246:16541   */\n      swap3\n      swap2\n      pop\n      pop\n      jump\t// out\n        /* \"#utility.yul\":16546:17941   */\n    tag_138:\n        /* \"#utility.yul\":16663:16700   */\n      tag_600\n        /* \"#utility.yul\":16696:16699   */\n      dup3\n        /* \"#utility.yul\":16663:16700   */\n      tag_355\n      jump\t// in\n    tag_600:\n        /* \"#utility.yul\":16765:16783   */\n      0xffffffffffffffff\n        /* \"#utility.yul\":16757:16763   */\n      dup2\n        /* \"#utility.yul\":16754:16784   */\n      gt\n        /* \"#utility.yul\":16751:16807   */\n      iszero\n      tag_601\n      jumpi\n        /* \"#utility.yul\":16787:16805   */\n      tag_602\n      tag_303\n      jump\t// in\n    tag_602:\n        /* \"#utility.yul\":16751:16807   */\n    tag_601:\n        /* \"#utility.yul\":16831:16869   */\n      tag_603\n        /* \"#utility.yul\":16863:16867   */\n      dup3\n        /* \"#utility.yul\":16857:16868   */\n      sload\n        /* \"#utility.yul\":16831:16869   */\n      tag_107\n      jump\t// in\n    tag_603:\n        /* \"#utility.yul\":16916:16983   */\n      tag_604\n        /* \"#utility.yul\":16976:16982   */\n      dup3\n        /* \"#utility.yul\":16968:16974   */\n      dup3\n        /* \"#utility.yul\":16962:16966   */\n      dup6\n        /* \"#utility.yul\":16916:16983   */\n      tag_394\n      jump\t// in\n    tag_604:\n        /* \"#utility.yul\":17010:17011   */\n      0x00\n        /* \"#utility.yul\":17034:17038   */\n      0x20\n        /* \"#utility.yul\":17021:17038   */\n      swap1\n      pop\n        /* \"#utility.yul\":17066:17068   */\n      0x1f\n        /* \"#utility.yul\":17058:17064   */\n      dup4\n        /* \"#utility.yul\":17055:17069   */\n      gt\n        /* \"#utility.yul\":17083:17084   */\n      0x01\n        /* \"#utility.yul\":17078:17696   */\n      dup2\n      eq\n      tag_606\n      jumpi\n        /* \"#utility.yul\":17740:17741   */\n      0x00\n        /* \"#utility.yul\":17757:17763   */\n      dup5\n        /* \"#utility.yul\":17754:17831   */\n      iszero\n      tag_607\n      jumpi\n        /* \"#utility.yul\":17806:17815   */\n      dup3\n        /* \"#utility.yul\":17801:17804   */\n      dup8\n        /* \"#utility.yul\":17797:17816   */\n      add\n        /* \"#utility.yul\":17791:17817   */\n      mload\n        /* \"#utility.yul\":17782:17817   */\n      swap1\n      pop\n        /* \"#utility.yul\":17754:17831   */\n    tag_607:\n        /* \"#utility.yul\":17857:17924   */\n      tag_608\n        /* \"#utility.yul\":17917:17923   */\n      dup6\n        /* \"#utility.yul\":17910:17915   */\n      dup3\n        /* \"#utility.yul\":17857:17924   */\n      tag_397\n      jump\t// in\n    tag_608:\n        /* \"#utility.yul\":17851:17855   */\n      dup7\n        /* \"#utility.yul\":17844:17925   */\n      sstore\n        /* \"#utility.yul\":17713:17935   */\n      pop\n        /* \"#utility.yul\":17048:17935   */\n      jump(tag_605)\n        /* \"#utility.yul\":17078:17696   */\n    tag_606:\n        /* \"#utility.yul\":17130:17134   */\n      0x1f\n        /* \"#utility.yul\":17126:17135   */\n      not\n        /* \"#utility.yul\":17118:17124   */\n      dup5\n        /* \"#utility.yul\":17114:17136   */\n      and\n        /* \"#utility.yul\":17164:17201   */\n      tag_609\n        /* \"#utility.yul\":17196:17200   */\n      dup7\n        /* \"#utility.yul\":17164:17201   */\n      tag_383\n      jump\t// in\n    tag_609:\n        /* \"#utility.yul\":17223:17224   */\n      0x00\n        /* \"#utility.yul\":17237:17445   */\n    tag_610:\n        /* \"#utility.yul\":17251:17258   */\n      dup3\n        /* \"#utility.yul\":17248:17249   */\n      dup2\n        /* \"#utility.yul\":17245:17259   */\n      lt\n        /* \"#utility.yul\":17237:17445   */\n      iszero\n      tag_612\n      jumpi\n        /* \"#utility.yul\":17330:17339   */\n      dup5\n        /* \"#utility.yul\":17325:17328   */\n      dup10\n        /* \"#utility.yul\":17321:17340   */\n      add\n        /* \"#utility.yul\":17315:17341   */\n      mload\n        /* \"#utility.yul\":17307:17313   */\n      dup3\n        /* \"#utility.yul\":17300:17342   */\n      sstore\n        /* \"#utility.yul\":17381:17382   */\n      0x01\n        /* \"#utility.yul\":17373:17379   */\n      dup3\n        /* \"#utility.yul\":17369:17383   */\n      add\n        /* \"#utility.yul\":17359:17383   */\n      swap2\n      pop\n        /* \"#utility.yul\":17428:17430   */\n      0x20\n        /* \"#utility.yul\":17417:17426   */\n      dup6\n        /* \"#utility.yul\":17413:17431   */\n      add\n        /* \"#utility.yul\":17400:17431   */\n      swap5\n      pop\n        /* \"#utility.yul\":17274:17278   */\n      0x20\n        /* \"#utility.yul\":17271:17272   */\n      dup2\n        /* \"#utility.yul\":17267:17279   */\n      add\n        /* \"#utility.yul\":17262:17279   */\n      swap1\n      pop\n        /* \"#utility.yul\":17237:17445   */\n      jump(tag_610)\n    tag_612:\n        /* \"#utility.yul\":17473:17479   */\n      dup7\n        /* \"#utility.yul\":17464:17471   */\n      dup4\n        /* \"#utility.yul\":17461:17480   */\n      lt\n        /* \"#utility.yul\":17458:17637   */\n      iszero\n      tag_613\n      jumpi\n        /* \"#utility.yul\":17531:17540   */\n      dup5\n        /* \"#utility.yul\":17526:17529   */\n      dup10\n        /* \"#utility.yul\":17522:17541   */\n      add\n        /* \"#utility.yul\":17516:17542   */\n      mload\n        /* \"#utility.yul\":17574:17622   */\n      tag_614\n        /* \"#utility.yul\":17616:17620   */\n      0x1f\n        /* \"#utility.yul\":17608:17614   */\n      dup10\n        /* \"#utility.yul\":17604:17621   */\n      and\n        /* \"#utility.yul\":17593:17602   */\n      dup3\n        /* \"#utility.yul\":17574:17622   */\n      tag_396\n      jump\t// in\n    tag_614:\n        /* \"#utility.yul\":17566:17572   */\n      dup4\n        /* \"#utility.yul\":17559:17623   */\n      sstore\n        /* \"#utility.yul\":17481:17637   */\n      pop\n        /* \"#utility.yul\":17458:17637   */\n    tag_613:\n        /* \"#utility.yul\":17683:17684   */\n      0x01\n        /* \"#utility.yul\":17679:17680   */\n      0x02\n        /* \"#utility.yul\":17671:17677   */\n      dup9\n        /* \"#utility.yul\":17667:17681   */\n      mul\n        /* \"#utility.yul\":17663:17685   */\n      add\n        /* \"#utility.yul\":17657:17661   */\n      dup9\n        /* \"#utility.yul\":17650:17686   */\n      sstore\n        /* \"#utility.yul\":17085:17696   */\n      pop\n      pop\n      pop\n        /* \"#utility.yul\":17048:17935   */\n    tag_605:\n      pop\n        /* \"#utility.yul\":16638:17941   */\n      pop\n      pop\n      pop\n        /* \"#utility.yul\":16546:17941   */\n      pop\n      pop\n      jump\t// out\n        /* \"#utility.yul\":17947:18095   */\n    tag_398:\n        /* \"#utility.yul\":18049:18060   */\n      0x00\n        /* \"#utility.yul\":18086:18089   */\n      dup2\n        /* \"#utility.yul\":18071:18089   */\n      swap1\n      pop\n        /* \"#utility.yul\":17947:18095   */\n      swap3\n      swap2\n      pop\n      pop\n      jump\t// out\n        /* \"#utility.yul\":18101:18491   */\n    tag_399:\n        /* \"#utility.yul\":18207:18210   */\n      0x00\n        /* \"#utility.yul\":18235:18274   */\n      tag_617\n        /* \"#utility.yul\":18268:18273   */\n      dup3\n        /* \"#utility.yul\":18235:18274   */\n      tag_355\n      jump\t// in\n    tag_617:\n        /* \"#utility.yul\":18290:18379   */\n      tag_618\n        /* \"#utility.yul\":18372:18378   */\n      dup2\n        /* \"#utility.yul\":18367:18370   */\n      dup6\n        /* \"#utility.yul\":18290:18379   */\n      tag_398\n      jump\t// in\n    tag_618:\n        /* \"#utility.yul\":18283:18379   */\n      swap4\n      pop\n        /* \"#utility.yul\":18388:18453   */\n      tag_619\n        /* \"#utility.yul\":18446:18452   */\n      dup2\n        /* \"#utility.yul\":18441:18444   */\n      dup6\n        /* \"#utility.yul\":18434:18438   */\n      0x20\n        /* \"#utility.yul\":18427:18432   */\n      dup7\n        /* \"#utility.yul\":18423:18439   */\n      add\n        /* \"#utility.yul\":18388:18453   */\n      tag_357\n      jump\t// in\n    tag_619:\n        /* \"#utility.yul\":18478:18484   */\n      dup1\n        /* \"#utility.yul\":18473:18476   */\n      dup5\n        /* \"#utility.yul\":18469:18485   */\n      add\n        /* \"#utility.yul\":18462:18485   */\n      swap2\n      pop\n        /* \"#utility.yul\":18211:18491   */\n      pop\n        /* \"#utility.yul\":18101:18491   */\n      swap3\n      swap2\n      pop\n      pop\n      jump\t// out\n        /* \"#utility.yul\":18497:18932   */\n    tag_176:\n        /* \"#utility.yul\":18677:18680   */\n      0x00\n        /* \"#utility.yul\":18699:18794   */\n      tag_621\n        /* \"#utility.yul\":18790:18793   */\n      dup3\n        /* \"#utility.yul\":18781:18787   */\n      dup6\n        /* \"#utility.yul\":18699:18794   */\n      tag_399\n      jump\t// in\n    tag_621:\n        /* \"#utility.yul\":18692:18794   */\n      swap2\n      pop\n        /* \"#utility.yul\":18811:18906   */\n      tag_622\n        /* \"#utility.yul\":18902:18905   */\n      dup3\n        /* \"#utility.yul\":18893:18899   */\n      dup5\n        /* \"#utility.yul\":18811:18906   */\n      tag_399\n      jump\t// in\n    tag_622:\n        /* \"#utility.yul\":18804:18906   */\n      swap2\n      pop\n        /* \"#utility.yul\":18923:18926   */\n      dup2\n        /* \"#utility.yul\":18916:18926   */\n      swap1\n      pop\n        /* \"#utility.yul\":18497:18932   */\n      swap4\n      swap3\n      pop\n      pop\n      pop\n      jump\t// out\n        /* \"#utility.yul\":18938:19108   */\n    tag_400:\n        /* \"#utility.yul\":19078:19100   */\n      0x746f6b656e4964206f7574206f662072616e6765000000000000000000000000\n        /* \"#utility.yul\":19074:19075   */\n      0x00\n        /* \"#utility.yul\":19066:19072   */\n      dup3\n        /* \"#utility.yul\":19062:19076   */\n      add\n        /* \"#utility.yul\":19055:19101   */\n      mstore\n        /* \"#utility.yul\":18938:19108   */\n      pop\n      jump\t// out\n        /* \"#utility.yul\":19114:19480   */\n    tag_401:\n        /* \"#utility.yul\":19256:19259   */\n      0x00\n        /* \"#utility.yul\":19277:19344   */\n      tag_625\n        /* \"#utility.yul\":19341:19343   */\n      0x14\n        /* \"#utility.yul\":19336:19339   */\n      dup4\n        /* \"#utility.yul\":19277:19344   */\n      tag_356\n      jump\t// in\n    tag_625:\n        /* \"#utility.yul\":19270:19344   */\n      swap2\n      pop\n        /* \"#utility.yul\":19353:19446   */\n      tag_626\n        /* \"#utility.yul\":19442:19445   */\n      dup3\n        /* \"#utility.yul\":19353:19446   */\n      tag_400\n      jump\t// in\n    tag_626:\n        /* \"#utility.yul\":19471:19473   */\n      0x20\n        /* \"#utility.yul\":19466:19469   */\n      dup3\n        /* \"#utility.yul\":19462:19474   */\n      add\n        /* \"#utility.yul\":19455:19474   */\n      swap1\n      pop\n        /* \"#utility.yul\":19114:19480   */\n      swap2\n      swap1\n      pop\n      jump\t// out\n        /* \"#utility.yul\":19486:19905   */\n    tag_187:\n        /* \"#utility.yul\":19652:19656   */\n      0x00\n        /* \"#utility.yul\":19690:19692   */\n      0x20\n        /* \"#utility.yul\":19679:19688   */\n      dup3\n        /* \"#utility.yul\":19675:19693   */\n      add\n        /* \"#utility.yul\":19667:19693   */\n      swap1\n      pop\n        /* \"#utility.yul\":19739:19748   */\n      dup2\n        /* \"#utility.yul\":19733:19737   */\n      dup2\n        /* \"#utility.yul\":19729:19749   */\n      sub\n        /* \"#utility.yul\":19725:19726   */\n      0x00\n        /* \"#utility.yul\":19714:19723   */\n      dup4\n        /* \"#utility.yul\":19710:19727   */\n      add\n        /* \"#utility.yul\":19703:19750   */\n      mstore\n        /* \"#utility.yul\":19767:19898   */\n      tag_628\n        /* \"#utility.yul\":19893:19897   */\n      dup2\n        /* \"#utility.yul\":19767:19898   */\n      tag_401\n      jump\t// in\n    tag_628:\n        /* \"#utility.yul\":19759:19898   */\n      swap1\n      pop\n        /* \"#utility.yul\":19486:19905   */\n      swap2\n      swap1\n      pop\n      jump\t// out\n        /* \"#utility.yul\":19911:20009   */\n    tag_402:\n        /* \"#utility.yul\":19962:19968   */\n      0x00\n        /* \"#utility.yul\":19996:20001   */\n      dup2\n        /* \"#utility.yul\":19990:20002   */\n      mload\n        /* \"#utility.yul\":19980:20002   */\n      swap1\n      pop\n        /* \"#utility.yul\":19911:20009   */\n      swap2\n      swap1\n      pop\n      jump\t// out\n        /* \"#utility.yul\":20015:20183   */\n    tag_403:\n        /* \"#utility.yul\":20098:20109   */\n      0x00\n        /* \"#utility.yul\":20132:20138   */\n      dup3\n        /* \"#utility.yul\":20127:20130   */\n      dup3\n        /* \"#utility.yul\":20120:20139   */\n      mstore\n        /* \"#utility.yul\":20172:20176   */\n      0x20\n        /* \"#utility.yul\":20167:20170   */\n      dup3\n        /* \"#utility.yul\":20163:20177   */\n      add\n        /* \"#utility.yul\":20148:20177   */\n      swap1\n      pop\n        /* \"#utility.yul\":20015:20183   */\n      swap3\n      swap2\n      pop\n      pop\n      jump\t// out\n        /* \"#utility.yul\":20189:20562   */\n    tag_404:\n        /* \"#utility.yul\":20275:20278   */\n      0x00\n        /* \"#utility.yul\":20303:20341   */\n      tag_632\n        /* \"#utility.yul\":20335:20340   */\n      dup3\n        /* \"#utility.yul\":20303:20341   */\n      tag_402\n      jump\t// in\n    tag_632:\n        /* \"#utility.yul\":20357:20427   */\n      tag_633\n        /* \"#utility.yul\":20420:20426   */\n      dup2\n        /* \"#utility.yul\":20415:20418   */\n      dup6\n        /* \"#utility.yul\":20357:20427   */\n      tag_403\n      jump\t// in\n    tag_633:\n        /* \"#utility.yul\":20350:20427   */\n      swap4\n      pop\n        /* \"#utility.yul\":20436:20501   */\n      tag_634\n        /* \"#utility.yul\":20494:20500   */\n      dup2\n        /* \"#utility.yul\":20489:20492   */\n      dup6\n        /* \"#utility.yul\":20482:20486   */\n      0x20\n        /* \"#utility.yul\":20475:20480   */\n      dup7\n        /* \"#utility.yul\":20471:20487   */\n      add\n        /* \"#utility.yul\":20436:20501   */\n      tag_357\n      jump\t// in\n    tag_634:\n        /* \"#utility.yul\":20526:20555   */\n      tag_635\n        /* \"#utility.yul\":20548:20554   */\n      dup2\n        /* \"#utility.yul\":20526:20555   */\n      tag_358\n      jump\t// in\n    tag_635:\n        /* \"#utility.yul\":20521:20524   */\n      dup5\n        /* \"#utility.yul\":20517:20556   */\n      add\n        /* \"#utility.yul\":20510:20556   */\n      swap2\n      pop\n        /* \"#utility.yul\":20279:20562   */\n      pop\n        /* \"#utility.yul\":20189:20562   */\n      swap3\n      swap2\n      pop\n      pop\n      jump\t// out\n        /* \"#utility.yul\":20568:21208   */\n    tag_239:\n        /* \"#utility.yul\":20763:20767   */\n      0x00\n        /* \"#utility.yul\":20801:20804   */\n      0x80\n        /* \"#utility.yul\":20790:20799   */\n      dup3\n        /* \"#utility.yul\":20786:20805   */\n      add\n        /* \"#utility.yul\":20778:20805   */\n      swap1\n      pop\n        /* \"#utility.yul\":20815:20886   */\n      tag_637\n        /* \"#utility.yul\":20883:20884   */\n      0x00\n        /* \"#utility.yul\":20872:20881   */\n      dup4\n        /* \"#utility.yul\":20868:20885   */\n      add\n        /* \"#utility.yul\":20859:20865   */\n      dup8\n        /* \"#utility.yul\":20815:20886   */\n      tag_365\n      jump\t// in\n    tag_637:\n        /* \"#utility.yul\":20896:20968   */\n      tag_638\n        /* \"#utility.yul\":20964:20966   */\n      0x20\n        /* \"#utility.yul\":20953:20962   */\n      dup4\n        /* \"#utility.yul\":20949:20967   */\n      add\n        /* \"#utility.yul\":20940:20946   */\n      dup7\n        /* \"#utility.yul\":20896:20968   */\n      tag_365\n      jump\t// in\n    tag_638:\n        /* \"#utility.yul\":20978:21050   */\n      tag_639\n        /* \"#utility.yul\":21046:21048   */\n      0x40\n        /* \"#utility.yul\":21035:21044   */\n      dup4\n        /* \"#utility.yul\":21031:21049   */\n      add\n        /* \"#utility.yul\":21022:21028   */\n      dup6\n        /* \"#utility.yul\":20978:21050   */\n      tag_376\n      jump\t// in\n    tag_639:\n        /* \"#utility.yul\":21097:21106   */\n      dup2\n        /* \"#utility.yul\":21091:21095   */\n      dup2\n        /* \"#utility.yul\":21087:21107   */\n      sub\n        /* \"#utility.yul\":21082:21084   */\n      0x60\n        /* \"#utility.yul\":21071:21080   */\n      dup4\n        /* \"#utility.yul\":21067:21085   */\n      add\n        /* \"#utility.yul\":21060:21108   */\n      mstore\n        /* \"#utility.yul\":21125:21201   */\n      tag_640\n        /* \"#utility.yul\":21196:21200   */\n      dup2\n        /* \"#utility.yul\":21187:21193   */\n      dup5\n        /* \"#utility.yul\":21125:21201   */\n      tag_404\n      jump\t// in\n    tag_640:\n        /* \"#utility.yul\":21117:21201   */\n      swap1\n      pop\n        /* \"#utility.yul\":20568:21208   */\n      swap6\n      swap5\n      pop\n      pop\n      pop\n      pop\n      pop\n      jump\t// out\n        /* \"#utility.yul\":21214:21355   */\n    tag_405:\n        /* \"#utility.yul\":21270:21275   */\n      0x00\n        /* \"#utility.yul\":21301:21307   */\n      dup2\n        /* \"#utility.yul\":21295:21308   */\n      mload\n        /* \"#utility.yul\":21286:21308   */\n      swap1\n      pop\n        /* \"#utility.yul\":21317:21349   */\n      tag_642\n        /* \"#utility.yul\":21343:21348   */\n      dup2\n        /* \"#utility.yul\":21317:21349   */\n      tag_351\n      jump\t// in\n    tag_642:\n        /* \"#utility.yul\":21214:21355   */\n      swap3\n      swap2\n      pop\n      pop\n      jump\t// out\n        /* \"#utility.yul\":21361:21710   */\n    tag_242:\n        /* \"#utility.yul\":21430:21436   */\n      0x00\n        /* \"#utility.yul\":21479:21481   */\n      0x20\n        /* \"#utility.yul\":21467:21476   */\n      dup3\n        /* \"#utility.yul\":21458:21465   */\n      dup5\n        /* \"#utility.yul\":21454:21477   */\n      sub\n        /* \"#utility.yul\":21450:21482   */\n      slt\n        /* \"#utility.yul\":21447:21566   */\n      iszero\n      tag_644\n      jumpi\n        /* \"#utility.yul\":21485:21564   */\n      tag_645\n      tag_348\n      jump\t// in\n    tag_645:\n        /* \"#utility.yul\":21447:21566   */\n    tag_644:\n        /* \"#utility.yul\":21605:21606   */\n      0x00\n        /* \"#utility.yul\":21630:21693   */\n      tag_646\n        /* \"#utility.yul\":21685:21692   */\n      dup5\n        /* \"#utility.yul\":21676:21682   */\n      dup3\n        /* \"#utility.yul\":21665:21674   */\n      dup6\n        /* \"#utility.yul\":21661:21683   */\n      add\n        /* \"#utility.yul\":21630:21693   */\n      tag_405\n      jump\t// in\n    tag_646:\n        /* \"#utility.yul\":21620:21693   */\n      swap2\n      pop\n        /* \"#utility.yul\":21576:21703   */\n      pop\n        /* \"#utility.yul\":21361:21710   */\n      swap3\n      swap2\n      pop\n      pop\n      jump\t// out\n        /* \"#utility.yul\":21716:22048   */\n    tag_297:\n        /* \"#utility.yul\":21837:21841   */\n      0x00\n        /* \"#utility.yul\":21875:21877   */\n      0x40\n        /* \"#utility.yul\":21864:21873   */\n      dup3\n        /* \"#utility.yul\":21860:21878   */\n      add\n        /* \"#utility.yul\":21852:21878   */\n      swap1\n      pop\n        /* \"#utility.yul\":21888:21959   */\n      tag_648\n        /* \"#utility.yul\":21956:21957   */\n      0x00\n        /* \"#utility.yul\":21945:21954   */\n      dup4\n        /* \"#utility.yul\":21941:21958   */\n      add\n        /* \"#utility.yul\":21932:21938   */\n      dup6\n        /* \"#utility.yul\":21888:21959   */\n      tag_365\n      jump\t// in\n    tag_648:\n        /* \"#utility.yul\":21969:22041   */\n      tag_649\n        /* \"#utility.yul\":22037:22039   */\n      0x20\n        /* \"#utility.yul\":22026:22035   */\n      dup4\n        /* \"#utility.yul\":22022:22040   */\n      add\n        /* \"#utility.yul\":22013:22019   */\n      dup5\n        /* \"#utility.yul\":21969:22041   */\n      tag_376\n      jump\t// in\n    tag_649:\n        /* \"#utility.yul\":21716:22048   */\n      swap4\n      swap3\n      pop\n      pop\n      pop\n      jump\t// out\n        /* \"#utility.yul\":22054:22234   */\n    tag_309:\n        /* \"#utility.yul\":22102:22179   */\n      0x4e487b7100000000000000000000000000000000000000000000000000000000\n        /* \"#utility.yul\":22099:22100   */\n      0x00\n        /* \"#utility.yul\":22092:22180   */\n      mstore\n        /* \"#utility.yul\":22199:22203   */\n      0x12\n        /* \"#utility.yul\":22196:22197   */\n      0x04\n        /* \"#utility.yul\":22189:22204   */\n      mstore\n        /* \"#utility.yul\":22223:22227   */\n      0x24\n        /* \"#utility.yul\":22220:22221   */\n      0x00\n        /* \"#utility.yul\":22213:22228   */\n      revert\n\n    auxdata: 0xa2646970667358221220b36650b80a462f3359986f174dd60c54e1e57587811e069bef4604e2e5b2c24364736f6c634300081a0033\n}\n",
				"bytecode": {
					"linkReferences": {},
					"object": "60806040526005600a55348015610014575f80fd5b50604051612df1380380612df18339818101604052810190610036919061036a565b336040518060400160405280600681526020017f4c6f754e465400000000000000000000000000000000000000000000000000008152506040518060400160405280600381526020017f4c4f550000000000000000000000000000000000000000000000000000000000815250815f90816100b191906105be565b5080600190816100c191906105be565b5050505f73ffffffffffffffffffffffffffffffffffffffff168173ffffffffffffffffffffffffffffffffffffffff1603610134575f6040517f1e4fbdf700000000000000000000000000000000000000000000000000000000815260040161012b91906106cc565b60405180910390fd5b6101438161015a60201b60201c565b50806009908161015391906105be565b50506106e5565b5f60075f9054906101000a900473ffffffffffffffffffffffffffffffffffffffff1690508160075f6101000a81548173ffffffffffffffffffffffffffffffffffffffff021916908373ffffffffffffffffffffffffffffffffffffffff1602179055508173ffffffffffffffffffffffffffffffffffffffff168173ffffffffffffffffffffffffffffffffffffffff167f8be0079c531659141344cd1fd0a4f28419497f9722a3daafe3b4186f6b6457e060405160405180910390a35050565b5f604051905090565b5f80fd5b5f80fd5b5f80fd5b5f80fd5b5f601f19601f8301169050919050565b7f4e487b71000000000000000000000000000000000000000000000000000000005f52604160045260245ffd5b61027c82610236565b810181811067ffffffffffffffff8211171561029b5761029a610246565b5b80604052505050565b5f6102ad61021d565b90506102b98282610273565b919050565b5f67ffffffffffffffff8211156102d8576102d7610246565b5b6102e182610236565b9050602081019050919050565b8281835e5f83830152505050565b5f61030e610309846102be565b6102a4565b90508281526020810184848401111561032a57610329610232565b5b6103358482856102ee565b509392505050565b5f82601f8301126103515761035061022e565b5b81516103618482602086016102fc565b91505092915050565b5f6020828403121561037f5761037e610226565b5b5f82015167ffffffffffffffff81111561039c5761039b61022a565b5b6103a88482850161033d565b91505092915050565b5f81519050919050565b7f4e487b71000000000000000000000000000000000000000000000000000000005f52602260045260245ffd5b5f60028204905060018216806103ff57607f821691505b602082108103610412576104116103bb565b5b50919050565b5f819050815f5260205f209050919050565b5f6020601f8301049050919050565b5f82821b905092915050565b5f600883026104747fffffffffffffffffffffffffffffffffffffffffffffffffffffffffffffffff82610439565b61047e8683610439565b95508019841693508086168417925050509392505050565b5f819050919050565b5f819050919050565b5f6104c26104bd6104b884610496565b61049f565b610496565b9050919050565b5f819050919050565b6104db836104a8565b6104ef6104e7826104c9565b848454610445565b825550505050565b5f90565b6105036104f7565b61050e8184846104d2565b505050565b5b81811015610531576105265f826104fb565b600181019050610514565b5050565b601f8211156105765761054781610418565b6105508461042a565b8101602085101561055f578190505b61057361056b8561042a565b830182610513565b50505b505050565b5f82821c905092915050565b5f6105965f198460080261057b565b1980831691505092915050565b5f6105ae8383610587565b9150826002028217905092915050565b6105c7826103b1565b67ffffffffffffffff8111156105e0576105df610246565b5b6105ea82546103e8565b6105f5828285610535565b5f60209050601f831160018114610626575f8415610614578287015190505b61061e85826105a3565b865550610685565b601f19841661063486610418565b5f5b8281101561065b57848901518255600182019150602085019450602081019050610636565b868310156106785784890151610674601f891682610587565b8355505b6001600288020188555050505b505050505050565b5f73ffffffffffffffffffffffffffffffffffffffff82169050919050565b5f6106b68261068d565b9050919050565b6106c6816106ac565b82525050565b5f6020820190506106df5f8301846106bd565b92915050565b6126ff806106f25f395ff3fe608060405234801561000f575f80fd5b506004361061011f575f3560e01c8063715018a6116100ab578063bb8a16bd1161006f578063bb8a16bd146102ef578063c87b56dd1461030d578063d0def5211461033d578063e985e9c514610359578063f2fde38b146103895761011f565b8063715018a6146102715780638da5cb5b1461027b57806395d89b4114610299578063a22cb465146102b7578063b88d4fde146102d35761011f565b806323b872dd116100f257806323b872dd146101bd57806342842e0e146101d957806355f804b3146101f55780636352211e1461021157806370a08231146102415761011f565b806301ffc9a71461012357806306fdde0314610153578063081812fc14610171578063095ea7b3146101a1575b5f80fd5b61013d60048036038101906101389190611b97565b6103a5565b60405161014a9190611bdc565b60405180910390f35b61015b610405565b6040516101689190611c65565b60405180910390f35b61018b60048036038101906101869190611cb8565b610494565b6040516101989190611d22565b60405180910390f35b6101bb60048036038101906101b69190611d65565b6104af565b005b6101d760048036038101906101d29190611da3565b6104c5565b005b6101f360048036038101906101ee9190611da3565b6105c4565b005b61020f600480360381019061020a9190611f1f565b6105e3565b005b61022b60048036038101906102269190611cb8565b6105fe565b6040516102389190611d22565b60405180910390f35b61025b60048036038101906102569190611f66565b61060f565b6040516102689190611fa0565b60405180910390f35b6102796106c5565b005b6102836106d8565b6040516102909190611d22565b60405180910390f35b6102a1610700565b6040516102ae9190611c65565b60405180910390f35b6102d160048036038101906102cc9190611fe3565b610790565b005b6102ed60048036038101906102e891906120bf565b6107a6565b005b6102f76107c3565b6040516103049190611fa0565b60405180910390f35b61032760048036038101906103229190611cb8565b6107c9565b6040516103349190611c65565b60405180910390f35b6103576004803603810190610352919061213f565b6108d4565b005b610373600480360381019061036e9190612199565b61095c565b6040516103809190611bdc565b60405180910390f35b6103a3600480360381019061039e9190611f66565b6109ea565b005b5f634906490660e01b7bffffffffffffffffffffffffffffffffffffffffffffffffffffffff1916827bffffffffffffffffffffffffffffffffffffffffffffffffffffffff191614806103fe57506103fd82610a6e565b5b9050919050565b60605f805461041390612204565b80601f016020809104026020016040519081016040528092919081815260200182805461043f90612204565b801561048a5780601f106104615761010080835404028352916020019161048a565b820191905f5260205f20905b81548152906001019060200180831161046d57829003601f168201915b5050505050905090565b5f61049e82610b4f565b506104a882610bd5565b9050919050565b6104c182826104bc610c0e565b610c15565b5050565b5f73ffffffffffffffffffffffffffffffffffffffff168273ffffffffffffffffffffffffffffffffffffffff1603610535575f6040517f64a0ae9200000000000000000000000000000000000000000000000000000000815260040161052c9190611d22565b60405180910390fd5b5f6105488383610543610c0e565b610c27565b90508373ffffffffffffffffffffffffffffffffffffffff168173ffffffffffffffffffffffffffffffffffffffff16146105be578382826040517f64283d7b0000000000000000000000000000000000000000000000000000000081526004016105b593929190612234565b60405180910390fd5b50505050565b6105de83838360405180602001604052805f8152506107a6565b505050565b6105eb610e32565b80600990816105fa9190612406565b5050565b5f61060882610b4f565b9050919050565b5f8073ffffffffffffffffffffffffffffffffffffffff168273ffffffffffffffffffffffffffffffffffffffff1603610680575f6040517f89c62b640000000000000000000000000000000000000000000000000000000081526004016106779190611d22565b60405180910390fd5b60035f8373ffffffffffffffffffffffffffffffffffffffff1673ffffffffffffffffffffffffffffffffffffffff1681526020019081526020015f20549050919050565b6106cd610e32565b6106d65f610eb9565b565b5f60075f9054906101000a900473ffffffffffffffffffffffffffffffffffffffff16905090565b60606001805461070f90612204565b80601f016020809104026020016040519081016040528092919081815260200182805461073b90612204565b80156107865780601f1061075d57610100808354040283529160200191610786565b820191905f5260205f20905b81548152906001019060200180831161076957829003601f168201915b5050505050905090565b6107a261079b610c0e565b8383610f7c565b5050565b6107b18484846104c5565b6107bd848484846110e5565b50505050565b600a5481565b60606107d482610b4f565b505f60065f8481526020019081526020015f2080546107f290612204565b80601f016020809104026020016040519081016040528092919081815260200182805461081e90612204565b80156108695780601f1061084057610100808354040283529160200191610869565b820191905f5260205f20905b81548152906001019060200180831161084c57829003601f168201915b505050505090505f610879611297565b90505f81510361088d5781925050506108cf565b5f825111156108c15780826040516020016108a992919061250f565b604051602081830303815290604052925050506108cf565b6108ca84611327565b925050505b919050565b6108dc610e32565b5f6108e7600861138d565b90505f81101580156108fa5750600a5481105b610939576040517f08c379a00000000000000000000000000000000000000000000000000000000081526004016109309061257c565b60405180910390fd5b6109436008611399565b61094d83826113ad565b61095781836113ca565b505050565b5f60055f8473ffffffffffffffffffffffffffffffffffffffff1673ffffffffffffffffffffffffffffffffffffffff1681526020019081526020015f205f8373ffffffffffffffffffffffffffffffffffffffff1673ffffffffffffffffffffffffffffffffffffffff1681526020019081526020015f205f9054906101000a900460ff16905092915050565b6109f2610e32565b5f73ffffffffffffffffffffffffffffffffffffffff168173ffffffffffffffffffffffffffffffffffffffff1603610a62575f6040517f1e4fbdf7000000000000000000000000000000000000000000000000000000008152600401610a599190611d22565b60405180910390fd5b610a6b81610eb9565b50565b5f7f80ac58cd000000000000000000000000000000000000000000000000000000007bffffffffffffffffffffffffffffffffffffffffffffffffffffffff1916827bffffffffffffffffffffffffffffffffffffffffffffffffffffffff19161480610b3857507f5b5e139f000000000000000000000000000000000000000000000000000000007bffffffffffffffffffffffffffffffffffffffffffffffffffffffff1916827bffffffffffffffffffffffffffffffffffffffffffffffffffffffff1916145b80610b485750610b4782611424565b5b9050919050565b5f80610b5a8361148d565b90505f73ffffffffffffffffffffffffffffffffffffffff168173ffffffffffffffffffffffffffffffffffffffff1603610bcc57826040517f7e273289000000000000000000000000000000000000000000000000000000008152600401610bc39190611fa0565b60405180910390fd5b80915050919050565b5f60045f8381526020019081526020015f205f9054906101000a900473ffffffffffffffffffffffffffffffffffffffff169050919050565b5f33905090565b610c2283838360016114c6565b505050565b5f80610c328461148d565b90505f73ffffffffffffffffffffffffffffffffffffffff168373ffffffffffffffffffffffffffffffffffffffff1614610c7357610c72818486611685565b5b5f73ffffffffffffffffffffffffffffffffffffffff168173ffffffffffffffffffffffffffffffffffffffff1614610cfe57610cb25f855f806114c6565b600160035f8373ffffffffffffffffffffffffffffffffffffffff1673ffffffffffffffffffffffffffffffffffffffff1681526020019081526020015f205f82825403925050819055505b5f73ffffffffffffffffffffffffffffffffffffffff168573ffffffffffffffffffffffffffffffffffffffff1614610d7d57600160035f8773ffffffffffffffffffffffffffffffffffffffff1673ffffffffffffffffffffffffffffffffffffffff1681526020019081526020015f205f82825401925050819055505b8460025f8681526020019081526020015f205f6101000a81548173ffffffffffffffffffffffffffffffffffffffff021916908373ffffffffffffffffffffffffffffffffffffffff160217905550838573ffffffffffffffffffffffffffffffffffffffff168273ffffffffffffffffffffffffffffffffffffffff167fddf252ad1be2c89b69c2b068fc378daa952ba7f163c4a11628f55a4df523b3ef60405160405180910390a4809150509392505050565b610e3a610c0e565b73ffffffffffffffffffffffffffffffffffffffff16610e586106d8565b73ffffffffffffffffffffffffffffffffffffffff1614610eb757610e7b610c0e565b6040517f118cdaa7000000000000000000000000000000000000000000000000000000008152600401610eae9190611d22565b60405180910390fd5b565b5f60075f9054906101000a900473ffffffffffffffffffffffffffffffffffffffff1690508160075f6101000a81548173ffffffffffffffffffffffffffffffffffffffff021916908373ffffffffffffffffffffffffffffffffffffffff1602179055508173ffffffffffffffffffffffffffffffffffffffff168173ffffffffffffffffffffffffffffffffffffffff167f8be0079c531659141344cd1fd0a4f28419497f9722a3daafe3b4186f6b6457e060405160405180910390a35050565b5f73ffffffffffffffffffffffffffffffffffffffff168273ffffffffffffffffffffffffffffffffffffffff1603610fec57816040517f5b08ba18000000000000000000000000000000000000000000000000000000008152600401610fe39190611d22565b60405180910390fd5b8060055f8573ffffffffffffffffffffffffffffffffffffffff1673ffffffffffffffffffffffffffffffffffffffff1681526020019081526020015f205f8473ffffffffffffffffffffffffffffffffffffffff1673ffffffffffffffffffffffffffffffffffffffff1681526020019081526020015f205f6101000a81548160ff0219169083151502179055508173ffffffffffffffffffffffffffffffffffffffff168373ffffffffffffffffffffffffffffffffffffffff167f17307eab39ab6107e8899845ad3d59bd9653f200f220920489ca2b5937696c31836040516110d89190611bdc565b60405180910390a3505050565b5f8373ffffffffffffffffffffffffffffffffffffffff163b1115611291578273ffffffffffffffffffffffffffffffffffffffff1663150b7a02611128610c0e565b8685856040518563ffffffff1660e01b815260040161114a94939291906125ec565b6020604051808303815f875af192505050801561118557506040513d601f19601f82011682018060405250810190611182919061264a565b60015b611206573d805f81146111b3576040519150601f19603f3d011682016040523d82523d5f602084013e6111b8565b606091505b505f8151036111fe57836040517f64a0ae920000000000000000000000000000000000000000000000000000000081526004016111f59190611d22565b60405180910390fd5b805181602001fd5b63150b7a0260e01b7bffffffffffffffffffffffffffffffffffffffffffffffffffffffff1916817bffffffffffffffffffffffffffffffffffffffffffffffffffffffff19161461128f57836040517f64a0ae920000000000000000000000000000000000000000000000000000000081526004016112869190611d22565b60405180910390fd5b505b50505050565b6060600980546112a690612204565b80601f01602080910402602001604051908101604052809291908181526020018280546112d290612204565b801561131d5780601f106112f45761010080835404028352916020019161131d565b820191905f5260205f20905b81548152906001019060200180831161130057829003601f168201915b5050505050905090565b606061133282610b4f565b505f61133c611297565b90505f81511161135a5760405180602001604052805f815250611385565b8061136484611748565b60405160200161137592919061250f565b6040516020818303038152906040525b915050919050565b5f815f01549050919050565b6001815f015f828254019250508190555050565b6113c6828260405180602001604052805f815250611812565b5050565b8060065f8481526020019081526020015f2090816113e89190612406565b507ff8e1a15aba9398e019f0b49df1a4fde98ee17ae345cb5f6b5e2c27f5033e8ce7826040516114189190611fa0565b60405180910390a15050565b5f7f01ffc9a7000000000000000000000000000000000000000000000000000000007bffffffffffffffffffffffffffffffffffffffffffffffffffffffff1916827bffffffffffffffffffffffffffffffffffffffffffffffffffffffff1916149050919050565b5f60025f8381526020019081526020015f205f9054906101000a900473ffffffffffffffffffffffffffffffffffffffff169050919050565b80806114fe57505f73ffffffffffffffffffffffffffffffffffffffff168273ffffffffffffffffffffffffffffffffffffffff1614155b15611630575f61150d84610b4f565b90505f73ffffffffffffffffffffffffffffffffffffffff168373ffffffffffffffffffffffffffffffffffffffff161415801561157757508273ffffffffffffffffffffffffffffffffffffffff168173ffffffffffffffffffffffffffffffffffffffff1614155b801561158a5750611588818461095c565b155b156115cc57826040517fa9fbf51f0000000000000000000000000000000000000000000000000000000081526004016115c39190611d22565b60405180910390fd5b811561162e57838573ffffffffffffffffffffffffffffffffffffffff168273ffffffffffffffffffffffffffffffffffffffff167f8c5be1e5ebec7d5bd14f71427d1e84f3dd0314c0f7b2291e5b200ac8c7c3b92560405160405180910390a45b505b8360045f8581526020019081526020015f205f6101000a81548173ffffffffffffffffffffffffffffffffffffffff021916908373ffffffffffffffffffffffffffffffffffffffff16021790555050505050565b61169083838361182d565b611743575f73ffffffffffffffffffffffffffffffffffffffff168373ffffffffffffffffffffffffffffffffffffffff160361170457806040517f7e2732890000000000000000000000000000000000000000000000000000000081526004016116fb9190611fa0565b60405180910390fd5b81816040517f177e802f00000000000000000000000000000000000000000000000000000000815260040161173a929190612675565b60405180910390fd5b505050565b60605f6001611756846118ed565b0190505f8167ffffffffffffffff81111561177457611773611dfb565b5b6040519080825280601f01601f1916602001820160405280156117a65781602001600182028036833780820191505090505b5090505f82602001820190505b600115611807578080600190039150507f3031323334353637383961626364656600000000000000000000000000000000600a86061a8153600a85816117fc576117fb61269c565b5b0494505f85036117b3575b819350505050919050565b61181c8383611a3e565b6118285f8484846110e5565b505050565b5f8073ffffffffffffffffffffffffffffffffffffffff168373ffffffffffffffffffffffffffffffffffffffff16141580156118e457508273ffffffffffffffffffffffffffffffffffffffff168473ffffffffffffffffffffffffffffffffffffffff1614806118a557506118a4848461095c565b5b806118e357508273ffffffffffffffffffffffffffffffffffffffff166118cb83610bd5565b73ffffffffffffffffffffffffffffffffffffffff16145b5b90509392505050565b5f805f90507a184f03e93ff9f4daa797ed6e38ed64bf6a1f0100000000000000008310611949577a184f03e93ff9f4daa797ed6e38ed64bf6a1f010000000000000000838161193f5761193e61269c565b5b0492506040810190505b6d04ee2d6d415b85acef81000000008310611986576d04ee2d6d415b85acef8100000000838161197c5761197b61269c565b5b0492506020810190505b662386f26fc1000083106119b557662386f26fc1000083816119ab576119aa61269c565b5b0492506010810190505b6305f5e10083106119de576305f5e10083816119d4576119d361269c565b5b0492506008810190505b6127108310611a035761271083816119f9576119f861269c565b5b0492506004810190505b60648310611a265760648381611a1c57611a1b61269c565b5b0492506002810190505b600a8310611a35576001810190505b80915050919050565b5f73ffffffffffffffffffffffffffffffffffffffff168273ffffffffffffffffffffffffffffffffffffffff1603611aae575f6040517f64a0ae92000000000000000000000000000000000000000000000000000000008152600401611aa59190611d22565b60405180910390fd5b5f611aba83835f610c27565b90505f73ffffffffffffffffffffffffffffffffffffffff168173ffffffffffffffffffffffffffffffffffffffff1614611b2c575f6040517f73c6ac6e000000000000000000000000000000000000000000000000000000008152600401611b239190611d22565b60405180910390fd5b505050565b5f604051905090565b5f80fd5b5f80fd5b5f7fffffffff0000000000000000000000000000000000000000000000000000000082169050919050565b611b7681611b42565b8114611b80575f80fd5b50565b5f81359050611b9181611b6d565b92915050565b5f60208284031215611bac57611bab611b3a565b5b5f611bb984828501611b83565b91505092915050565b5f8115159050919050565b611bd681611bc2565b82525050565b5f602082019050611bef5f830184611bcd565b92915050565b5f81519050919050565b5f82825260208201905092915050565b8281835e5f83830152505050565b5f601f19601f8301169050919050565b5f611c3782611bf5565b611c418185611bff565b9350611c51818560208601611c0f565b611c5a81611c1d565b840191505092915050565b5f6020820190508181035f830152611c7d8184611c2d565b905092915050565b5f819050919050565b611c9781611c85565b8114611ca1575f80fd5b50565b5f81359050611cb281611c8e565b92915050565b5f60208284031215611ccd57611ccc611b3a565b5b5f611cda84828501611ca4565b91505092915050565b5f73ffffffffffffffffffffffffffffffffffffffff82169050919050565b5f611d0c82611ce3565b9050919050565b611d1c81611d02565b82525050565b5f602082019050611d355f830184611d13565b92915050565b611d4481611d02565b8114611d4e575f80fd5b50565b5f81359050611d5f81611d3b565b92915050565b5f8060408385031215611d7b57611d7a611b3a565b5b5f611d8885828601611d51565b9250506020611d9985828601611ca4565b9150509250929050565b5f805f60608486031215611dba57611db9611b3a565b5b5f611dc786828701611d51565b9350506020611dd886828701611d51565b9250506040611de986828701611ca4565b9150509250925092565b5f80fd5b5f80fd5b7f4e487b71000000000000000000000000000000000000000000000000000000005f52604160045260245ffd5b611e3182611c1d565b810181811067ffffffffffffffff82111715611e5057611e4f611dfb565b5b80604052505050565b5f611e62611b31565b9050611e6e8282611e28565b919050565b5f67ffffffffffffffff821115611e8d57611e8c611dfb565b5b611e9682611c1d565b9050602081019050919050565b828183375f83830152505050565b5f611ec3611ebe84611e73565b611e59565b905082815260208101848484011115611edf57611ede611df7565b5b611eea848285611ea3565b509392505050565b5f82601f830112611f0657611f05611df3565b5b8135611f16848260208601611eb1565b91505092915050565b5f60208284031215611f3457611f33611b3a565b5b5f82013567ffffffffffffffff811115611f5157611f50611b3e565b5b611f5d84828501611ef2565b91505092915050565b5f60208284031215611f7b57611f7a611b3a565b5b5f611f8884828501611d51565b91505092915050565b611f9a81611c85565b82525050565b5f602082019050611fb35f830184611f91565b92915050565b611fc281611bc2565b8114611fcc575f80fd5b50565b5f81359050611fdd81611fb9565b92915050565b5f8060408385031215611ff957611ff8611b3a565b5b5f61200685828601611d51565b925050602061201785828601611fcf565b9150509250929050565b5f67ffffffffffffffff82111561203b5761203a611dfb565b5b61204482611c1d565b9050602081019050919050565b5f61206361205e84612021565b611e59565b90508281526020810184848401111561207f5761207e611df7565b5b61208a848285611ea3565b509392505050565b5f82601f8301126120a6576120a5611df3565b5b81356120b6848260208601612051565b91505092915050565b5f805f80608085870312156120d7576120d6611b3a565b5b5f6120e487828801611d51565b94505060206120f587828801611d51565b935050604061210687828801611ca4565b925050606085013567ffffffffffffffff81111561212757612126611b3e565b5b61213387828801612092565b91505092959194509250565b5f806040838503121561215557612154611b3a565b5b5f61216285828601611d51565b925050602083013567ffffffffffffffff81111561218357612182611b3e565b5b61218f85828601611ef2565b9150509250929050565b5f80604083850312156121af576121ae611b3a565b5b5f6121bc85828601611d51565b92505060206121cd85828601611d51565b9150509250929050565b7f4e487b71000000000000000000000000000000000000000000000000000000005f52602260045260245ffd5b5f600282049050600182168061221b57607f821691505b60208210810361222e5761222d6121d7565b5b50919050565b5f6060820190506122475f830186611d13565b6122546020830185611f91565b6122616040830184611d13565b949350505050565b5f819050815f5260205f209050919050565b5f6020601f8301049050919050565b5f82821b905092915050565b5f600883026122c57fffffffffffffffffffffffffffffffffffffffffffffffffffffffffffffffff8261228a565b6122cf868361228a565b95508019841693508086168417925050509392505050565b5f819050919050565b5f61230a61230561230084611c85565b6122e7565b611c85565b9050919050565b5f819050919050565b612323836122f0565b61233761232f82612311565b848454612296565b825550505050565b5f90565b61234b61233f565b61235681848461231a565b505050565b5b818110156123795761236e5f82612343565b60018101905061235c565b5050565b601f8211156123be5761238f81612269565b6123988461227b565b810160208510156123a7578190505b6123bb6123b38561227b565b83018261235b565b50505b505050565b5f82821c905092915050565b5f6123de5f19846008026123c3565b1980831691505092915050565b5f6123f683836123cf565b9150826002028217905092915050565b61240f82611bf5565b67ffffffffffffffff81111561242857612427611dfb565b5b6124328254612204565b61243d82828561237d565b5f60209050601f83116001811461246e575f841561245c578287015190505b61246685826123eb565b8655506124cd565b601f19841661247c86612269565b5f5b828110156124a35784890151825560018201915060208501945060208101905061247e565b868310156124c057848901516124bc601f8916826123cf565b8355505b6001600288020188555050505b505050505050565b5f81905092915050565b5f6124e982611bf5565b6124f381856124d5565b9350612503818560208601611c0f565b80840191505092915050565b5f61251a82856124df565b915061252682846124df565b91508190509392505050565b7f746f6b656e4964206f7574206f662072616e67650000000000000000000000005f82015250565b5f612566601483611bff565b915061257182612532565b602082019050919050565b5f6020820190508181035f8301526125938161255a565b9050919050565b5f81519050919050565b5f82825260208201905092915050565b5f6125be8261259a565b6125c881856125a4565b93506125d8818560208601611c0f565b6125e181611c1d565b840191505092915050565b5f6080820190506125ff5f830187611d13565b61260c6020830186611d13565b6126196040830185611f91565b818103606083015261262b81846125b4565b905095945050505050565b5f8151905061264481611b6d565b92915050565b5f6020828403121561265f5761265e611b3a565b5b5f61266c84828501612636565b91505092915050565b5f6040820190506126885f830185611d13565b6126956020830184611f91565b9392505050565b7f4e487b71000000000000000000000000000000000000000000000000000000005f52601260045260245ffdfea2646970667358221220b36650b80a462f3359986f174dd60c54e1e57587811e069bef4604e2e5b2c24364736f6c634300081a0033",
					"opcodes": "PUSH1 0x80 PUSH1 0x40 MSTORE PUSH1 0x5 PUSH1 0xA SSTORE CALLVALUE DUP1 ISZERO PUSH2 0x14 JUMPI PUSH0 DUP1 REVERT JUMPDEST POP PUSH1 0x40 MLOAD PUSH2 0x2DF1 CODESIZE SUB DUP1 PUSH2 0x2DF1 DUP4 CODECOPY DUP2 DUP2 ADD PUSH1 0x40 MSTORE DUP2 ADD SWAP1 PUSH2 0x36 SWAP2 SWAP1 PUSH2 0x36A JUMP JUMPDEST CALLER PUSH1 0x40 MLOAD DUP1 PUSH1 0x40 ADD PUSH1 0x40 MSTORE DUP1 PUSH1 0x6 DUP2 MSTORE PUSH1 0x20 ADD PUSH32 0x4C6F754E46540000000000000000000000000000000000000000000000000000 DUP2 MSTORE POP PUSH1 0x40 MLOAD DUP1 PUSH1 0x40 ADD PUSH1 0x40 MSTORE DUP1 PUSH1 0x3 DUP2 MSTORE PUSH1 0x20 ADD PUSH32 0x4C4F550000000000000000000000000000000000000000000000000000000000 DUP2 MSTORE POP DUP2 PUSH0 SWAP1 DUP2 PUSH2 0xB1 SWAP2 SWAP1 PUSH2 0x5BE JUMP JUMPDEST POP DUP1 PUSH1 0x1 SWAP1 DUP2 PUSH2 0xC1 SWAP2 SWAP1 PUSH2 0x5BE JUMP JUMPDEST POP POP POP PUSH0 PUSH20 0xFFFFFFFFFFFFFFFFFFFFFFFFFFFFFFFFFFFFFFFF AND DUP2 PUSH20 0xFFFFFFFFFFFFFFFFFFFFFFFFFFFFFFFFFFFFFFFF AND SUB PUSH2 0x134 JUMPI PUSH0 PUSH1 0x40 MLOAD PUSH32 0x1E4FBDF700000000000000000000000000000000000000000000000000000000 DUP2 MSTORE PUSH1 0x4 ADD PUSH2 0x12B SWAP2 SWAP1 PUSH2 0x6CC JUMP JUMPDEST PUSH1 0x40 MLOAD DUP1 SWAP2 SUB SWAP1 REVERT JUMPDEST PUSH2 0x143 DUP2 PUSH2 0x15A PUSH1 0x20 SHL PUSH1 0x20 SHR JUMP JUMPDEST POP DUP1 PUSH1 0x9 SWAP1 DUP2 PUSH2 0x153 SWAP2 SWAP1 PUSH2 0x5BE JUMP JUMPDEST POP POP PUSH2 0x6E5 JUMP JUMPDEST PUSH0 PUSH1 0x7 PUSH0 SWAP1 SLOAD SWAP1 PUSH2 0x100 EXP SWAP1 DIV PUSH20 0xFFFFFFFFFFFFFFFFFFFFFFFFFFFFFFFFFFFFFFFF AND SWAP1 POP DUP2 PUSH1 0x7 PUSH0 PUSH2 0x100 EXP DUP2 SLOAD DUP2 PUSH20 0xFFFFFFFFFFFFFFFFFFFFFFFFFFFFFFFFFFFFFFFF MUL NOT AND SWAP1 DUP4 PUSH20 0xFFFFFFFFFFFFFFFFFFFFFFFFFFFFFFFFFFFFFFFF AND MUL OR SWAP1 SSTORE POP DUP2 PUSH20 0xFFFFFFFFFFFFFFFFFFFFFFFFFFFFFFFFFFFFFFFF AND DUP2 PUSH20 0xFFFFFFFFFFFFFFFFFFFFFFFFFFFFFFFFFFFFFFFF AND PUSH32 0x8BE0079C531659141344CD1FD0A4F28419497F9722A3DAAFE3B4186F6B6457E0 PUSH1 0x40 MLOAD PUSH1 0x40 MLOAD DUP1 SWAP2 SUB SWAP1 LOG3 POP POP JUMP JUMPDEST PUSH0 PUSH1 0x40 MLOAD SWAP1 POP SWAP1 JUMP JUMPDEST PUSH0 DUP1 REVERT JUMPDEST PUSH0 DUP1 REVERT JUMPDEST PUSH0 DUP1 REVERT JUMPDEST PUSH0 DUP1 REVERT JUMPDEST PUSH0 PUSH1 0x1F NOT PUSH1 0x1F DUP4 ADD AND SWAP1 POP SWAP2 SWAP1 POP JUMP JUMPDEST PUSH32 0x4E487B7100000000000000000000000000000000000000000000000000000000 PUSH0 MSTORE PUSH1 0x41 PUSH1 0x4 MSTORE PUSH1 0x24 PUSH0 REVERT JUMPDEST PUSH2 0x27C DUP3 PUSH2 0x236 JUMP JUMPDEST DUP2 ADD DUP2 DUP2 LT PUSH8 0xFFFFFFFFFFFFFFFF DUP3 GT OR ISZERO PUSH2 0x29B JUMPI PUSH2 0x29A PUSH2 0x246 JUMP JUMPDEST JUMPDEST DUP1 PUSH1 0x40 MSTORE POP POP POP JUMP JUMPDEST PUSH0 PUSH2 0x2AD PUSH2 0x21D JUMP JUMPDEST SWAP1 POP PUSH2 0x2B9 DUP3 DUP3 PUSH2 0x273 JUMP JUMPDEST SWAP2 SWAP1 POP JUMP JUMPDEST PUSH0 PUSH8 0xFFFFFFFFFFFFFFFF DUP3 GT ISZERO PUSH2 0x2D8 JUMPI PUSH2 0x2D7 PUSH2 0x246 JUMP JUMPDEST JUMPDEST PUSH2 0x2E1 DUP3 PUSH2 0x236 JUMP JUMPDEST SWAP1 POP PUSH1 0x20 DUP2 ADD SWAP1 POP SWAP2 SWAP1 POP JUMP JUMPDEST DUP3 DUP2 DUP4 MCOPY PUSH0 DUP4 DUP4 ADD MSTORE POP POP POP JUMP JUMPDEST PUSH0 PUSH2 0x30E PUSH2 0x309 DUP5 PUSH2 0x2BE JUMP JUMPDEST PUSH2 0x2A4 JUMP JUMPDEST SWAP1 POP DUP3 DUP2 MSTORE PUSH1 0x20 DUP2 ADD DUP5 DUP5 DUP5 ADD GT ISZERO PUSH2 0x32A JUMPI PUSH2 0x329 PUSH2 0x232 JUMP JUMPDEST JUMPDEST PUSH2 0x335 DUP5 DUP3 DUP6 PUSH2 0x2EE JUMP JUMPDEST POP SWAP4 SWAP3 POP POP POP JUMP JUMPDEST PUSH0 DUP3 PUSH1 0x1F DUP4 ADD SLT PUSH2 0x351 JUMPI PUSH2 0x350 PUSH2 0x22E JUMP JUMPDEST JUMPDEST DUP2 MLOAD PUSH2 0x361 DUP5 DUP3 PUSH1 0x20 DUP7 ADD PUSH2 0x2FC JUMP JUMPDEST SWAP2 POP POP SWAP3 SWAP2 POP POP JUMP JUMPDEST PUSH0 PUSH1 0x20 DUP3 DUP5 SUB SLT ISZERO PUSH2 0x37F JUMPI PUSH2 0x37E PUSH2 0x226 JUMP JUMPDEST JUMPDEST PUSH0 DUP3 ADD MLOAD PUSH8 0xFFFFFFFFFFFFFFFF DUP2 GT ISZERO PUSH2 0x39C JUMPI PUSH2 0x39B PUSH2 0x22A JUMP JUMPDEST JUMPDEST PUSH2 0x3A8 DUP5 DUP3 DUP6 ADD PUSH2 0x33D JUMP JUMPDEST SWAP2 POP POP SWAP3 SWAP2 POP POP JUMP JUMPDEST PUSH0 DUP2 MLOAD SWAP1 POP SWAP2 SWAP1 POP JUMP JUMPDEST PUSH32 0x4E487B7100000000000000000000000000000000000000000000000000000000 PUSH0 MSTORE PUSH1 0x22 PUSH1 0x4 MSTORE PUSH1 0x24 PUSH0 REVERT JUMPDEST PUSH0 PUSH1 0x2 DUP3 DIV SWAP1 POP PUSH1 0x1 DUP3 AND DUP1 PUSH2 0x3FF JUMPI PUSH1 0x7F DUP3 AND SWAP2 POP JUMPDEST PUSH1 0x20 DUP3 LT DUP2 SUB PUSH2 0x412 JUMPI PUSH2 0x411 PUSH2 0x3BB JUMP JUMPDEST JUMPDEST POP SWAP2 SWAP1 POP JUMP JUMPDEST PUSH0 DUP2 SWAP1 POP DUP2 PUSH0 MSTORE PUSH1 0x20 PUSH0 KECCAK256 SWAP1 POP SWAP2 SWAP1 POP JUMP JUMPDEST PUSH0 PUSH1 0x20 PUSH1 0x1F DUP4 ADD DIV SWAP1 POP SWAP2 SWAP1 POP JUMP JUMPDEST PUSH0 DUP3 DUP3 SHL SWAP1 POP SWAP3 SWAP2 POP POP JUMP JUMPDEST PUSH0 PUSH1 0x8 DUP4 MUL PUSH2 0x474 PUSH32 0xFFFFFFFFFFFFFFFFFFFFFFFFFFFFFFFFFFFFFFFFFFFFFFFFFFFFFFFFFFFFFFFF DUP3 PUSH2 0x439 JUMP JUMPDEST PUSH2 0x47E DUP7 DUP4 PUSH2 0x439 JUMP JUMPDEST SWAP6 POP DUP1 NOT DUP5 AND SWAP4 POP DUP1 DUP7 AND DUP5 OR SWAP3 POP POP POP SWAP4 SWAP3 POP POP POP JUMP JUMPDEST PUSH0 DUP2 SWAP1 POP SWAP2 SWAP1 POP JUMP JUMPDEST PUSH0 DUP2 SWAP1 POP SWAP2 SWAP1 POP JUMP JUMPDEST PUSH0 PUSH2 0x4C2 PUSH2 0x4BD PUSH2 0x4B8 DUP5 PUSH2 0x496 JUMP JUMPDEST PUSH2 0x49F JUMP JUMPDEST PUSH2 0x496 JUMP JUMPDEST SWAP1 POP SWAP2 SWAP1 POP JUMP JUMPDEST PUSH0 DUP2 SWAP1 POP SWAP2 SWAP1 POP JUMP JUMPDEST PUSH2 0x4DB DUP4 PUSH2 0x4A8 JUMP JUMPDEST PUSH2 0x4EF PUSH2 0x4E7 DUP3 PUSH2 0x4C9 JUMP JUMPDEST DUP5 DUP5 SLOAD PUSH2 0x445 JUMP JUMPDEST DUP3 SSTORE POP POP POP POP JUMP JUMPDEST PUSH0 SWAP1 JUMP JUMPDEST PUSH2 0x503 PUSH2 0x4F7 JUMP JUMPDEST PUSH2 0x50E DUP2 DUP5 DUP5 PUSH2 0x4D2 JUMP JUMPDEST POP POP POP JUMP JUMPDEST JUMPDEST DUP2 DUP2 LT ISZERO PUSH2 0x531 JUMPI PUSH2 0x526 PUSH0 DUP3 PUSH2 0x4FB JUMP JUMPDEST PUSH1 0x1 DUP2 ADD SWAP1 POP PUSH2 0x514 JUMP JUMPDEST POP POP JUMP JUMPDEST PUSH1 0x1F DUP3 GT ISZERO PUSH2 0x576 JUMPI PUSH2 0x547 DUP2 PUSH2 0x418 JUMP JUMPDEST PUSH2 0x550 DUP5 PUSH2 0x42A JUMP JUMPDEST DUP2 ADD PUSH1 0x20 DUP6 LT ISZERO PUSH2 0x55F JUMPI DUP2 SWAP1 POP JUMPDEST PUSH2 0x573 PUSH2 0x56B DUP6 PUSH2 0x42A JUMP JUMPDEST DUP4 ADD DUP3 PUSH2 0x513 JUMP JUMPDEST POP POP JUMPDEST POP POP POP JUMP JUMPDEST PUSH0 DUP3 DUP3 SHR SWAP1 POP SWAP3 SWAP2 POP POP JUMP JUMPDEST PUSH0 PUSH2 0x596 PUSH0 NOT DUP5 PUSH1 0x8 MUL PUSH2 0x57B JUMP JUMPDEST NOT DUP1 DUP4 AND SWAP2 POP POP SWAP3 SWAP2 POP POP JUMP JUMPDEST PUSH0 PUSH2 0x5AE DUP4 DUP4 PUSH2 0x587 JUMP JUMPDEST SWAP2 POP DUP3 PUSH1 0x2 MUL DUP3 OR SWAP1 POP SWAP3 SWAP2 POP POP JUMP JUMPDEST PUSH2 0x5C7 DUP3 PUSH2 0x3B1 JUMP JUMPDEST PUSH8 0xFFFFFFFFFFFFFFFF DUP2 GT ISZERO PUSH2 0x5E0 JUMPI PUSH2 0x5DF PUSH2 0x246 JUMP JUMPDEST JUMPDEST PUSH2 0x5EA DUP3 SLOAD PUSH2 0x3E8 JUMP JUMPDEST PUSH2 0x5F5 DUP3 DUP3 DUP6 PUSH2 0x535 JUMP JUMPDEST PUSH0 PUSH1 0x20 SWAP1 POP PUSH1 0x1F DUP4 GT PUSH1 0x1 DUP2 EQ PUSH2 0x626 JUMPI PUSH0 DUP5 ISZERO PUSH2 0x614 JUMPI DUP3 DUP8 ADD MLOAD SWAP1 POP JUMPDEST PUSH2 0x61E DUP6 DUP3 PUSH2 0x5A3 JUMP JUMPDEST DUP7 SSTORE POP PUSH2 0x685 JUMP JUMPDEST PUSH1 0x1F NOT DUP5 AND PUSH2 0x634 DUP7 PUSH2 0x418 JUMP JUMPDEST PUSH0 JUMPDEST DUP3 DUP2 LT ISZERO PUSH2 0x65B JUMPI DUP5 DUP10 ADD MLOAD DUP3 SSTORE PUSH1 0x1 DUP3 ADD SWAP2 POP PUSH1 0x20 DUP6 ADD SWAP5 POP PUSH1 0x20 DUP2 ADD SWAP1 POP PUSH2 0x636 JUMP JUMPDEST DUP7 DUP4 LT ISZERO PUSH2 0x678 JUMPI DUP5 DUP10 ADD MLOAD PUSH2 0x674 PUSH1 0x1F DUP10 AND DUP3 PUSH2 0x587 JUMP JUMPDEST DUP4 SSTORE POP JUMPDEST PUSH1 0x1 PUSH1 0x2 DUP9 MUL ADD DUP9 SSTORE POP POP POP JUMPDEST POP POP POP POP POP POP JUMP JUMPDEST PUSH0 PUSH20 0xFFFFFFFFFFFFFFFFFFFFFFFFFFFFFFFFFFFFFFFF DUP3 AND SWAP1 POP SWAP2 SWAP1 POP JUMP JUMPDEST PUSH0 PUSH2 0x6B6 DUP3 PUSH2 0x68D JUMP JUMPDEST SWAP1 POP SWAP2 SWAP1 POP JUMP JUMPDEST PUSH2 0x6C6 DUP2 PUSH2 0x6AC JUMP JUMPDEST DUP3 MSTORE POP POP JUMP JUMPDEST PUSH0 PUSH1 0x20 DUP3 ADD SWAP1 POP PUSH2 0x6DF PUSH0 DUP4 ADD DUP5 PUSH2 0x6BD JUMP JUMPDEST SWAP3 SWAP2 POP POP JUMP JUMPDEST PUSH2 0x26FF DUP1 PUSH2 0x6F2 PUSH0 CODECOPY PUSH0 RETURN INVALID PUSH1 0x80 PUSH1 0x40 MSTORE CALLVALUE DUP1 ISZERO PUSH2 0xF JUMPI PUSH0 DUP1 REVERT JUMPDEST POP PUSH1 0x4 CALLDATASIZE LT PUSH2 0x11F JUMPI PUSH0 CALLDATALOAD PUSH1 0xE0 SHR DUP1 PUSH4 0x715018A6 GT PUSH2 0xAB JUMPI DUP1 PUSH4 0xBB8A16BD GT PUSH2 0x6F JUMPI DUP1 PUSH4 0xBB8A16BD EQ PUSH2 0x2EF JUMPI DUP1 PUSH4 0xC87B56DD EQ PUSH2 0x30D JUMPI DUP1 PUSH4 0xD0DEF521 EQ PUSH2 0x33D JUMPI DUP1 PUSH4 0xE985E9C5 EQ PUSH2 0x359 JUMPI DUP1 PUSH4 0xF2FDE38B EQ PUSH2 0x389 JUMPI PUSH2 0x11F JUMP JUMPDEST DUP1 PUSH4 0x715018A6 EQ PUSH2 0x271 JUMPI DUP1 PUSH4 0x8DA5CB5B EQ PUSH2 0x27B JUMPI DUP1 PUSH4 0x95D89B41 EQ PUSH2 0x299 JUMPI DUP1 PUSH4 0xA22CB465 EQ PUSH2 0x2B7 JUMPI DUP1 PUSH4 0xB88D4FDE EQ PUSH2 0x2D3 JUMPI PUSH2 0x11F JUMP JUMPDEST DUP1 PUSH4 0x23B872DD GT PUSH2 0xF2 JUMPI DUP1 PUSH4 0x23B872DD EQ PUSH2 0x1BD JUMPI DUP1 PUSH4 0x42842E0E EQ PUSH2 0x1D9 JUMPI DUP1 PUSH4 0x55F804B3 EQ PUSH2 0x1F5 JUMPI DUP1 PUSH4 0x6352211E EQ PUSH2 0x211 JUMPI DUP1 PUSH4 0x70A08231 EQ PUSH2 0x241 JUMPI PUSH2 0x11F JUMP JUMPDEST DUP1 PUSH4 0x1FFC9A7 EQ PUSH2 0x123 JUMPI DUP1 PUSH4 0x6FDDE03 EQ PUSH2 0x153 JUMPI DUP1 PUSH4 0x81812FC EQ PUSH2 0x171 JUMPI DUP1 PUSH4 0x95EA7B3 EQ PUSH2 0x1A1 JUMPI JUMPDEST PUSH0 DUP1 REVERT JUMPDEST PUSH2 0x13D PUSH1 0x4 DUP1 CALLDATASIZE SUB DUP2 ADD SWAP1 PUSH2 0x138 SWAP2 SWAP1 PUSH2 0x1B97 JUMP JUMPDEST PUSH2 0x3A5 JUMP JUMPDEST PUSH1 0x40 MLOAD PUSH2 0x14A SWAP2 SWAP1 PUSH2 0x1BDC JUMP JUMPDEST PUSH1 0x40 MLOAD DUP1 SWAP2 SUB SWAP1 RETURN JUMPDEST PUSH2 0x15B PUSH2 0x405 JUMP JUMPDEST PUSH1 0x40 MLOAD PUSH2 0x168 SWAP2 SWAP1 PUSH2 0x1C65 JUMP JUMPDEST PUSH1 0x40 MLOAD DUP1 SWAP2 SUB SWAP1 RETURN JUMPDEST PUSH2 0x18B PUSH1 0x4 DUP1 CALLDATASIZE SUB DUP2 ADD SWAP1 PUSH2 0x186 SWAP2 SWAP1 PUSH2 0x1CB8 JUMP JUMPDEST PUSH2 0x494 JUMP JUMPDEST PUSH1 0x40 MLOAD PUSH2 0x198 SWAP2 SWAP1 PUSH2 0x1D22 JUMP JUMPDEST PUSH1 0x40 MLOAD DUP1 SWAP2 SUB SWAP1 RETURN JUMPDEST PUSH2 0x1BB PUSH1 0x4 DUP1 CALLDATASIZE SUB DUP2 ADD SWAP1 PUSH2 0x1B6 SWAP2 SWAP1 PUSH2 0x1D65 JUMP JUMPDEST PUSH2 0x4AF JUMP JUMPDEST STOP JUMPDEST PUSH2 0x1D7 PUSH1 0x4 DUP1 CALLDATASIZE SUB DUP2 ADD SWAP1 PUSH2 0x1D2 SWAP2 SWAP1 PUSH2 0x1DA3 JUMP JUMPDEST PUSH2 0x4C5 JUMP JUMPDEST STOP JUMPDEST PUSH2 0x1F3 PUSH1 0x4 DUP1 CALLDATASIZE SUB DUP2 ADD SWAP1 PUSH2 0x1EE SWAP2 SWAP1 PUSH2 0x1DA3 JUMP JUMPDEST PUSH2 0x5C4 JUMP JUMPDEST STOP JUMPDEST PUSH2 0x20F PUSH1 0x4 DUP1 CALLDATASIZE SUB DUP2 ADD SWAP1 PUSH2 0x20A SWAP2 SWAP1 PUSH2 0x1F1F JUMP JUMPDEST PUSH2 0x5E3 JUMP JUMPDEST STOP JUMPDEST PUSH2 0x22B PUSH1 0x4 DUP1 CALLDATASIZE SUB DUP2 ADD SWAP1 PUSH2 0x226 SWAP2 SWAP1 PUSH2 0x1CB8 JUMP JUMPDEST PUSH2 0x5FE JUMP JUMPDEST PUSH1 0x40 MLOAD PUSH2 0x238 SWAP2 SWAP1 PUSH2 0x1D22 JUMP JUMPDEST PUSH1 0x40 MLOAD DUP1 SWAP2 SUB SWAP1 RETURN JUMPDEST PUSH2 0x25B PUSH1 0x4 DUP1 CALLDATASIZE SUB DUP2 ADD SWAP1 PUSH2 0x256 SWAP2 SWAP1 PUSH2 0x1F66 JUMP JUMPDEST PUSH2 0x60F JUMP JUMPDEST PUSH1 0x40 MLOAD PUSH2 0x268 SWAP2 SWAP1 PUSH2 0x1FA0 JUMP JUMPDEST PUSH1 0x40 MLOAD DUP1 SWAP2 SUB SWAP1 RETURN JUMPDEST PUSH2 0x279 PUSH2 0x6C5 JUMP JUMPDEST STOP JUMPDEST PUSH2 0x283 PUSH2 0x6D8 JUMP JUMPDEST PUSH1 0x40 MLOAD PUSH2 0x290 SWAP2 SWAP1 PUSH2 0x1D22 JUMP JUMPDEST PUSH1 0x40 MLOAD DUP1 SWAP2 SUB SWAP1 RETURN JUMPDEST PUSH2 0x2A1 PUSH2 0x700 JUMP JUMPDEST PUSH1 0x40 MLOAD PUSH2 0x2AE SWAP2 SWAP1 PUSH2 0x1C65 JUMP JUMPDEST PUSH1 0x40 MLOAD DUP1 SWAP2 SUB SWAP1 RETURN JUMPDEST PUSH2 0x2D1 PUSH1 0x4 DUP1 CALLDATASIZE SUB DUP2 ADD SWAP1 PUSH2 0x2CC SWAP2 SWAP1 PUSH2 0x1FE3 JUMP JUMPDEST PUSH2 0x790 JUMP JUMPDEST STOP JUMPDEST PUSH2 0x2ED PUSH1 0x4 DUP1 CALLDATASIZE SUB DUP2 ADD SWAP1 PUSH2 0x2E8 SWAP2 SWAP1 PUSH2 0x20BF JUMP JUMPDEST PUSH2 0x7A6 JUMP JUMPDEST STOP JUMPDEST PUSH2 0x2F7 PUSH2 0x7C3 JUMP JUMPDEST PUSH1 0x40 MLOAD PUSH2 0x304 SWAP2 SWAP1 PUSH2 0x1FA0 JUMP JUMPDEST PUSH1 0x40 MLOAD DUP1 SWAP2 SUB SWAP1 RETURN JUMPDEST PUSH2 0x327 PUSH1 0x4 DUP1 CALLDATASIZE SUB DUP2 ADD SWAP1 PUSH2 0x322 SWAP2 SWAP1 PUSH2 0x1CB8 JUMP JUMPDEST PUSH2 0x7C9 JUMP JUMPDEST PUSH1 0x40 MLOAD PUSH2 0x334 SWAP2 SWAP1 PUSH2 0x1C65 JUMP JUMPDEST PUSH1 0x40 MLOAD DUP1 SWAP2 SUB SWAP1 RETURN JUMPDEST PUSH2 0x357 PUSH1 0x4 DUP1 CALLDATASIZE SUB DUP2 ADD SWAP1 PUSH2 0x352 SWAP2 SWAP1 PUSH2 0x213F JUMP JUMPDEST PUSH2 0x8D4 JUMP JUMPDEST STOP JUMPDEST PUSH2 0x373 PUSH1 0x4 DUP1 CALLDATASIZE SUB DUP2 ADD SWAP1 PUSH2 0x36E SWAP2 SWAP1 PUSH2 0x2199 JUMP JUMPDEST PUSH2 0x95C JUMP JUMPDEST PUSH1 0x40 MLOAD PUSH2 0x380 SWAP2 SWAP1 PUSH2 0x1BDC JUMP JUMPDEST PUSH1 0x40 MLOAD DUP1 SWAP2 SUB SWAP1 RETURN JUMPDEST PUSH2 0x3A3 PUSH1 0x4 DUP1 CALLDATASIZE SUB DUP2 ADD SWAP1 PUSH2 0x39E SWAP2 SWAP1 PUSH2 0x1F66 JUMP JUMPDEST PUSH2 0x9EA JUMP JUMPDEST STOP JUMPDEST PUSH0 PUSH4 0x49064906 PUSH1 0xE0 SHL PUSH28 0xFFFFFFFFFFFFFFFFFFFFFFFFFFFFFFFFFFFFFFFFFFFFFFFFFFFFFFFF NOT AND DUP3 PUSH28 0xFFFFFFFFFFFFFFFFFFFFFFFFFFFFFFFFFFFFFFFFFFFFFFFFFFFFFFFF NOT AND EQ DUP1 PUSH2 0x3FE JUMPI POP PUSH2 0x3FD DUP3 PUSH2 0xA6E JUMP JUMPDEST JUMPDEST SWAP1 POP SWAP2 SWAP1 POP JUMP JUMPDEST PUSH1 0x60 PUSH0 DUP1 SLOAD PUSH2 0x413 SWAP1 PUSH2 0x2204 JUMP JUMPDEST DUP1 PUSH1 0x1F ADD PUSH1 0x20 DUP1 SWAP2 DIV MUL PUSH1 0x20 ADD PUSH1 0x40 MLOAD SWAP1 DUP2 ADD PUSH1 0x40 MSTORE DUP1 SWAP3 SWAP2 SWAP1 DUP2 DUP2 MSTORE PUSH1 0x20 ADD DUP3 DUP1 SLOAD PUSH2 0x43F SWAP1 PUSH2 0x2204 JUMP JUMPDEST DUP1 ISZERO PUSH2 0x48A JUMPI DUP1 PUSH1 0x1F LT PUSH2 0x461 JUMPI PUSH2 0x100 DUP1 DUP4 SLOAD DIV MUL DUP4 MSTORE SWAP2 PUSH1 0x20 ADD SWAP2 PUSH2 0x48A JUMP JUMPDEST DUP3 ADD SWAP2 SWAP1 PUSH0 MSTORE PUSH1 0x20 PUSH0 KECCAK256 SWAP1 JUMPDEST DUP2 SLOAD DUP2 MSTORE SWAP1 PUSH1 0x1 ADD SWAP1 PUSH1 0x20 ADD DUP1 DUP4 GT PUSH2 0x46D JUMPI DUP3 SWAP1 SUB PUSH1 0x1F AND DUP3 ADD SWAP2 JUMPDEST POP POP POP POP POP SWAP1 POP SWAP1 JUMP JUMPDEST PUSH0 PUSH2 0x49E DUP3 PUSH2 0xB4F JUMP JUMPDEST POP PUSH2 0x4A8 DUP3 PUSH2 0xBD5 JUMP JUMPDEST SWAP1 POP SWAP2 SWAP1 POP JUMP JUMPDEST PUSH2 0x4C1 DUP3 DUP3 PUSH2 0x4BC PUSH2 0xC0E JUMP JUMPDEST PUSH2 0xC15 JUMP JUMPDEST POP POP JUMP JUMPDEST PUSH0 PUSH20 0xFFFFFFFFFFFFFFFFFFFFFFFFFFFFFFFFFFFFFFFF AND DUP3 PUSH20 0xFFFFFFFFFFFFFFFFFFFFFFFFFFFFFFFFFFFFFFFF AND SUB PUSH2 0x535 JUMPI PUSH0 PUSH1 0x40 MLOAD PUSH32 0x64A0AE9200000000000000000000000000000000000000000000000000000000 DUP2 MSTORE PUSH1 0x4 ADD PUSH2 0x52C SWAP2 SWAP1 PUSH2 0x1D22 JUMP JUMPDEST PUSH1 0x40 MLOAD DUP1 SWAP2 SUB SWAP1 REVERT JUMPDEST PUSH0 PUSH2 0x548 DUP4 DUP4 PUSH2 0x543 PUSH2 0xC0E JUMP JUMPDEST PUSH2 0xC27 JUMP JUMPDEST SWAP1 POP DUP4 PUSH20 0xFFFFFFFFFFFFFFFFFFFFFFFFFFFFFFFFFFFFFFFF AND DUP2 PUSH20 0xFFFFFFFFFFFFFFFFFFFFFFFFFFFFFFFFFFFFFFFF AND EQ PUSH2 0x5BE JUMPI DUP4 DUP3 DUP3 PUSH1 0x40 MLOAD PUSH32 0x64283D7B00000000000000000000000000000000000000000000000000000000 DUP2 MSTORE PUSH1 0x4 ADD PUSH2 0x5B5 SWAP4 SWAP3 SWAP2 SWAP1 PUSH2 0x2234 JUMP JUMPDEST PUSH1 0x40 MLOAD DUP1 SWAP2 SUB SWAP1 REVERT JUMPDEST POP POP POP POP JUMP JUMPDEST PUSH2 0x5DE DUP4 DUP4 DUP4 PUSH1 0x40 MLOAD DUP1 PUSH1 0x20 ADD PUSH1 0x40 MSTORE DUP1 PUSH0 DUP2 MSTORE POP PUSH2 0x7A6 JUMP JUMPDEST POP POP POP JUMP JUMPDEST PUSH2 0x5EB PUSH2 0xE32 JUMP JUMPDEST DUP1 PUSH1 0x9 SWAP1 DUP2 PUSH2 0x5FA SWAP2 SWAP1 PUSH2 0x2406 JUMP JUMPDEST POP POP JUMP JUMPDEST PUSH0 PUSH2 0x608 DUP3 PUSH2 0xB4F JUMP JUMPDEST SWAP1 POP SWAP2 SWAP1 POP JUMP JUMPDEST PUSH0 DUP1 PUSH20 0xFFFFFFFFFFFFFFFFFFFFFFFFFFFFFFFFFFFFFFFF AND DUP3 PUSH20 0xFFFFFFFFFFFFFFFFFFFFFFFFFFFFFFFFFFFFFFFF AND SUB PUSH2 0x680 JUMPI PUSH0 PUSH1 0x40 MLOAD PUSH32 0x89C62B6400000000000000000000000000000000000000000000000000000000 DUP2 MSTORE PUSH1 0x4 ADD PUSH2 0x677 SWAP2 SWAP1 PUSH2 0x1D22 JUMP JUMPDEST PUSH1 0x40 MLOAD DUP1 SWAP2 SUB SWAP1 REVERT JUMPDEST PUSH1 0x3 PUSH0 DUP4 PUSH20 0xFFFFFFFFFFFFFFFFFFFFFFFFFFFFFFFFFFFFFFFF AND PUSH20 0xFFFFFFFFFFFFFFFFFFFFFFFFFFFFFFFFFFFFFFFF AND DUP2 MSTORE PUSH1 0x20 ADD SWAP1 DUP2 MSTORE PUSH1 0x20 ADD PUSH0 KECCAK256 SLOAD SWAP1 POP SWAP2 SWAP1 POP JUMP JUMPDEST PUSH2 0x6CD PUSH2 0xE32 JUMP JUMPDEST PUSH2 0x6D6 PUSH0 PUSH2 0xEB9 JUMP JUMPDEST JUMP JUMPDEST PUSH0 PUSH1 0x7 PUSH0 SWAP1 SLOAD SWAP1 PUSH2 0x100 EXP SWAP1 DIV PUSH20 0xFFFFFFFFFFFFFFFFFFFFFFFFFFFFFFFFFFFFFFFF AND SWAP1 POP SWAP1 JUMP JUMPDEST PUSH1 0x60 PUSH1 0x1 DUP1 SLOAD PUSH2 0x70F SWAP1 PUSH2 0x2204 JUMP JUMPDEST DUP1 PUSH1 0x1F ADD PUSH1 0x20 DUP1 SWAP2 DIV MUL PUSH1 0x20 ADD PUSH1 0x40 MLOAD SWAP1 DUP2 ADD PUSH1 0x40 MSTORE DUP1 SWAP3 SWAP2 SWAP1 DUP2 DUP2 MSTORE PUSH1 0x20 ADD DUP3 DUP1 SLOAD PUSH2 0x73B SWAP1 PUSH2 0x2204 JUMP JUMPDEST DUP1 ISZERO PUSH2 0x786 JUMPI DUP1 PUSH1 0x1F LT PUSH2 0x75D JUMPI PUSH2 0x100 DUP1 DUP4 SLOAD DIV MUL DUP4 MSTORE SWAP2 PUSH1 0x20 ADD SWAP2 PUSH2 0x786 JUMP JUMPDEST DUP3 ADD SWAP2 SWAP1 PUSH0 MSTORE PUSH1 0x20 PUSH0 KECCAK256 SWAP1 JUMPDEST DUP2 SLOAD DUP2 MSTORE SWAP1 PUSH1 0x1 ADD SWAP1 PUSH1 0x20 ADD DUP1 DUP4 GT PUSH2 0x769 JUMPI DUP3 SWAP1 SUB PUSH1 0x1F AND DUP3 ADD SWAP2 JUMPDEST POP POP POP POP POP SWAP1 POP SWAP1 JUMP JUMPDEST PUSH2 0x7A2 PUSH2 0x79B PUSH2 0xC0E JUMP JUMPDEST DUP4 DUP4 PUSH2 0xF7C JUMP JUMPDEST POP POP JUMP JUMPDEST PUSH2 0x7B1 DUP5 DUP5 DUP5 PUSH2 0x4C5 JUMP JUMPDEST PUSH2 0x7BD DUP5 DUP5 DUP5 DUP5 PUSH2 0x10E5 JUMP JUMPDEST POP POP POP POP JUMP JUMPDEST PUSH1 0xA SLOAD DUP2 JUMP JUMPDEST PUSH1 0x60 PUSH2 0x7D4 DUP3 PUSH2 0xB4F JUMP JUMPDEST POP PUSH0 PUSH1 0x6 PUSH0 DUP5 DUP2 MSTORE PUSH1 0x20 ADD SWAP1 DUP2 MSTORE PUSH1 0x20 ADD PUSH0 KECCAK256 DUP1 SLOAD PUSH2 0x7F2 SWAP1 PUSH2 0x2204 JUMP JUMPDEST DUP1 PUSH1 0x1F ADD PUSH1 0x20 DUP1 SWAP2 DIV MUL PUSH1 0x20 ADD PUSH1 0x40 MLOAD SWAP1 DUP2 ADD PUSH1 0x40 MSTORE DUP1 SWAP3 SWAP2 SWAP1 DUP2 DUP2 MSTORE PUSH1 0x20 ADD DUP3 DUP1 SLOAD PUSH2 0x81E SWAP1 PUSH2 0x2204 JUMP JUMPDEST DUP1 ISZERO PUSH2 0x869 JUMPI DUP1 PUSH1 0x1F LT PUSH2 0x840 JUMPI PUSH2 0x100 DUP1 DUP4 SLOAD DIV MUL DUP4 MSTORE SWAP2 PUSH1 0x20 ADD SWAP2 PUSH2 0x869 JUMP JUMPDEST DUP3 ADD SWAP2 SWAP1 PUSH0 MSTORE PUSH1 0x20 PUSH0 KECCAK256 SWAP1 JUMPDEST DUP2 SLOAD DUP2 MSTORE SWAP1 PUSH1 0x1 ADD SWAP1 PUSH1 0x20 ADD DUP1 DUP4 GT PUSH2 0x84C JUMPI DUP3 SWAP1 SUB PUSH1 0x1F AND DUP3 ADD SWAP2 JUMPDEST POP POP POP POP POP SWAP1 POP PUSH0 PUSH2 0x879 PUSH2 0x1297 JUMP JUMPDEST SWAP1 POP PUSH0 DUP2 MLOAD SUB PUSH2 0x88D JUMPI DUP2 SWAP3 POP POP POP PUSH2 0x8CF JUMP JUMPDEST PUSH0 DUP3 MLOAD GT ISZERO PUSH2 0x8C1 JUMPI DUP1 DUP3 PUSH1 0x40 MLOAD PUSH1 0x20 ADD PUSH2 0x8A9 SWAP3 SWAP2 SWAP1 PUSH2 0x250F JUMP JUMPDEST PUSH1 0x40 MLOAD PUSH1 0x20 DUP2 DUP4 SUB SUB DUP2 MSTORE SWAP1 PUSH1 0x40 MSTORE SWAP3 POP POP POP PUSH2 0x8CF JUMP JUMPDEST PUSH2 0x8CA DUP5 PUSH2 0x1327 JUMP JUMPDEST SWAP3 POP POP POP JUMPDEST SWAP2 SWAP1 POP JUMP JUMPDEST PUSH2 0x8DC PUSH2 0xE32 JUMP JUMPDEST PUSH0 PUSH2 0x8E7 PUSH1 0x8 PUSH2 0x138D JUMP JUMPDEST SWAP1 POP PUSH0 DUP2 LT ISZERO DUP1 ISZERO PUSH2 0x8FA JUMPI POP PUSH1 0xA SLOAD DUP2 LT JUMPDEST PUSH2 0x939 JUMPI PUSH1 0x40 MLOAD PUSH32 0x8C379A000000000000000000000000000000000000000000000000000000000 DUP2 MSTORE PUSH1 0x4 ADD PUSH2 0x930 SWAP1 PUSH2 0x257C JUMP JUMPDEST PUSH1 0x40 MLOAD DUP1 SWAP2 SUB SWAP1 REVERT JUMPDEST PUSH2 0x943 PUSH1 0x8 PUSH2 0x1399 JUMP JUMPDEST PUSH2 0x94D DUP4 DUP3 PUSH2 0x13AD JUMP JUMPDEST PUSH2 0x957 DUP2 DUP4 PUSH2 0x13CA JUMP JUMPDEST POP POP POP JUMP JUMPDEST PUSH0 PUSH1 0x5 PUSH0 DUP5 PUSH20 0xFFFFFFFFFFFFFFFFFFFFFFFFFFFFFFFFFFFFFFFF AND PUSH20 0xFFFFFFFFFFFFFFFFFFFFFFFFFFFFFFFFFFFFFFFF AND DUP2 MSTORE PUSH1 0x20 ADD SWAP1 DUP2 MSTORE PUSH1 0x20 ADD PUSH0 KECCAK256 PUSH0 DUP4 PUSH20 0xFFFFFFFFFFFFFFFFFFFFFFFFFFFFFFFFFFFFFFFF AND PUSH20 0xFFFFFFFFFFFFFFFFFFFFFFFFFFFFFFFFFFFFFFFF AND DUP2 MSTORE PUSH1 0x20 ADD SWAP1 DUP2 MSTORE PUSH1 0x20 ADD PUSH0 KECCAK256 PUSH0 SWAP1 SLOAD SWAP1 PUSH2 0x100 EXP SWAP1 DIV PUSH1 0xFF AND SWAP1 POP SWAP3 SWAP2 POP POP JUMP JUMPDEST PUSH2 0x9F2 PUSH2 0xE32 JUMP JUMPDEST PUSH0 PUSH20 0xFFFFFFFFFFFFFFFFFFFFFFFFFFFFFFFFFFFFFFFF AND DUP2 PUSH20 0xFFFFFFFFFFFFFFFFFFFFFFFFFFFFFFFFFFFFFFFF AND SUB PUSH2 0xA62 JUMPI PUSH0 PUSH1 0x40 MLOAD PUSH32 0x1E4FBDF700000000000000000000000000000000000000000000000000000000 DUP2 MSTORE PUSH1 0x4 ADD PUSH2 0xA59 SWAP2 SWAP1 PUSH2 0x1D22 JUMP JUMPDEST PUSH1 0x40 MLOAD DUP1 SWAP2 SUB SWAP1 REVERT JUMPDEST PUSH2 0xA6B DUP2 PUSH2 0xEB9 JUMP JUMPDEST POP JUMP JUMPDEST PUSH0 PUSH32 0x80AC58CD00000000000000000000000000000000000000000000000000000000 PUSH28 0xFFFFFFFFFFFFFFFFFFFFFFFFFFFFFFFFFFFFFFFFFFFFFFFFFFFFFFFF NOT AND DUP3 PUSH28 0xFFFFFFFFFFFFFFFFFFFFFFFFFFFFFFFFFFFFFFFFFFFFFFFFFFFFFFFF NOT AND EQ DUP1 PUSH2 0xB38 JUMPI POP PUSH32 0x5B5E139F00000000000000000000000000000000000000000000000000000000 PUSH28 0xFFFFFFFFFFFFFFFFFFFFFFFFFFFFFFFFFFFFFFFFFFFFFFFFFFFFFFFF NOT AND DUP3 PUSH28 0xFFFFFFFFFFFFFFFFFFFFFFFFFFFFFFFFFFFFFFFFFFFFFFFFFFFFFFFF NOT AND EQ JUMPDEST DUP1 PUSH2 0xB48 JUMPI POP PUSH2 0xB47 DUP3 PUSH2 0x1424 JUMP JUMPDEST JUMPDEST SWAP1 POP SWAP2 SWAP1 POP JUMP JUMPDEST PUSH0 DUP1 PUSH2 0xB5A DUP4 PUSH2 0x148D JUMP JUMPDEST SWAP1 POP PUSH0 PUSH20 0xFFFFFFFFFFFFFFFFFFFFFFFFFFFFFFFFFFFFFFFF AND DUP2 PUSH20 0xFFFFFFFFFFFFFFFFFFFFFFFFFFFFFFFFFFFFFFFF AND SUB PUSH2 0xBCC JUMPI DUP3 PUSH1 0x40 MLOAD PUSH32 0x7E27328900000000000000000000000000000000000000000000000000000000 DUP2 MSTORE PUSH1 0x4 ADD PUSH2 0xBC3 SWAP2 SWAP1 PUSH2 0x1FA0 JUMP JUMPDEST PUSH1 0x40 MLOAD DUP1 SWAP2 SUB SWAP1 REVERT JUMPDEST DUP1 SWAP2 POP POP SWAP2 SWAP1 POP JUMP JUMPDEST PUSH0 PUSH1 0x4 PUSH0 DUP4 DUP2 MSTORE PUSH1 0x20 ADD SWAP1 DUP2 MSTORE PUSH1 0x20 ADD PUSH0 KECCAK256 PUSH0 SWAP1 SLOAD SWAP1 PUSH2 0x100 EXP SWAP1 DIV PUSH20 0xFFFFFFFFFFFFFFFFFFFFFFFFFFFFFFFFFFFFFFFF AND SWAP1 POP SWAP2 SWAP1 POP JUMP JUMPDEST PUSH0 CALLER SWAP1 POP SWAP1 JUMP JUMPDEST PUSH2 0xC22 DUP4 DUP4 DUP4 PUSH1 0x1 PUSH2 0x14C6 JUMP JUMPDEST POP POP POP JUMP JUMPDEST PUSH0 DUP1 PUSH2 0xC32 DUP5 PUSH2 0x148D JUMP JUMPDEST SWAP1 POP PUSH0 PUSH20 0xFFFFFFFFFFFFFFFFFFFFFFFFFFFFFFFFFFFFFFFF AND DUP4 PUSH20 0xFFFFFFFFFFFFFFFFFFFFFFFFFFFFFFFFFFFFFFFF AND EQ PUSH2 0xC73 JUMPI PUSH2 0xC72 DUP2 DUP5 DUP7 PUSH2 0x1685 JUMP JUMPDEST JUMPDEST PUSH0 PUSH20 0xFFFFFFFFFFFFFFFFFFFFFFFFFFFFFFFFFFFFFFFF AND DUP2 PUSH20 0xFFFFFFFFFFFFFFFFFFFFFFFFFFFFFFFFFFFFFFFF AND EQ PUSH2 0xCFE JUMPI PUSH2 0xCB2 PUSH0 DUP6 PUSH0 DUP1 PUSH2 0x14C6 JUMP JUMPDEST PUSH1 0x1 PUSH1 0x3 PUSH0 DUP4 PUSH20 0xFFFFFFFFFFFFFFFFFFFFFFFFFFFFFFFFFFFFFFFF AND PUSH20 0xFFFFFFFFFFFFFFFFFFFFFFFFFFFFFFFFFFFFFFFF AND DUP2 MSTORE PUSH1 0x20 ADD SWAP1 DUP2 MSTORE PUSH1 0x20 ADD PUSH0 KECCAK256 PUSH0 DUP3 DUP3 SLOAD SUB SWAP3 POP POP DUP2 SWAP1 SSTORE POP JUMPDEST PUSH0 PUSH20 0xFFFFFFFFFFFFFFFFFFFFFFFFFFFFFFFFFFFFFFFF AND DUP6 PUSH20 0xFFFFFFFFFFFFFFFFFFFFFFFFFFFFFFFFFFFFFFFF AND EQ PUSH2 0xD7D JUMPI PUSH1 0x1 PUSH1 0x3 PUSH0 DUP8 PUSH20 0xFFFFFFFFFFFFFFFFFFFFFFFFFFFFFFFFFFFFFFFF AND PUSH20 0xFFFFFFFFFFFFFFFFFFFFFFFFFFFFFFFFFFFFFFFF AND DUP2 MSTORE PUSH1 0x20 ADD SWAP1 DUP2 MSTORE PUSH1 0x20 ADD PUSH0 KECCAK256 PUSH0 DUP3 DUP3 SLOAD ADD SWAP3 POP POP DUP2 SWAP1 SSTORE POP JUMPDEST DUP5 PUSH1 0x2 PUSH0 DUP7 DUP2 MSTORE PUSH1 0x20 ADD SWAP1 DUP2 MSTORE PUSH1 0x20 ADD PUSH0 KECCAK256 PUSH0 PUSH2 0x100 EXP DUP2 SLOAD DUP2 PUSH20 0xFFFFFFFFFFFFFFFFFFFFFFFFFFFFFFFFFFFFFFFF MUL NOT AND SWAP1 DUP4 PUSH20 0xFFFFFFFFFFFFFFFFFFFFFFFFFFFFFFFFFFFFFFFF AND MUL OR SWAP1 SSTORE POP DUP4 DUP6 PUSH20 0xFFFFFFFFFFFFFFFFFFFFFFFFFFFFFFFFFFFFFFFF AND DUP3 PUSH20 0xFFFFFFFFFFFFFFFFFFFFFFFFFFFFFFFFFFFFFFFF AND PUSH32 0xDDF252AD1BE2C89B69C2B068FC378DAA952BA7F163C4A11628F55A4DF523B3EF PUSH1 0x40 MLOAD PUSH1 0x40 MLOAD DUP1 SWAP2 SUB SWAP1 LOG4 DUP1 SWAP2 POP POP SWAP4 SWAP3 POP POP POP JUMP JUMPDEST PUSH2 0xE3A PUSH2 0xC0E JUMP JUMPDEST PUSH20 0xFFFFFFFFFFFFFFFFFFFFFFFFFFFFFFFFFFFFFFFF AND PUSH2 0xE58 PUSH2 0x6D8 JUMP JUMPDEST PUSH20 0xFFFFFFFFFFFFFFFFFFFFFFFFFFFFFFFFFFFFFFFF AND EQ PUSH2 0xEB7 JUMPI PUSH2 0xE7B PUSH2 0xC0E JUMP JUMPDEST PUSH1 0x40 MLOAD PUSH32 0x118CDAA700000000000000000000000000000000000000000000000000000000 DUP2 MSTORE PUSH1 0x4 ADD PUSH2 0xEAE SWAP2 SWAP1 PUSH2 0x1D22 JUMP JUMPDEST PUSH1 0x40 MLOAD DUP1 SWAP2 SUB SWAP1 REVERT JUMPDEST JUMP JUMPDEST PUSH0 PUSH1 0x7 PUSH0 SWAP1 SLOAD SWAP1 PUSH2 0x100 EXP SWAP1 DIV PUSH20 0xFFFFFFFFFFFFFFFFFFFFFFFFFFFFFFFFFFFFFFFF AND SWAP1 POP DUP2 PUSH1 0x7 PUSH0 PUSH2 0x100 EXP DUP2 SLOAD DUP2 PUSH20 0xFFFFFFFFFFFFFFFFFFFFFFFFFFFFFFFFFFFFFFFF MUL NOT AND SWAP1 DUP4 PUSH20 0xFFFFFFFFFFFFFFFFFFFFFFFFFFFFFFFFFFFFFFFF AND MUL OR SWAP1 SSTORE POP DUP2 PUSH20 0xFFFFFFFFFFFFFFFFFFFFFFFFFFFFFFFFFFFFFFFF AND DUP2 PUSH20 0xFFFFFFFFFFFFFFFFFFFFFFFFFFFFFFFFFFFFFFFF AND PUSH32 0x8BE0079C531659141344CD1FD0A4F28419497F9722A3DAAFE3B4186F6B6457E0 PUSH1 0x40 MLOAD PUSH1 0x40 MLOAD DUP1 SWAP2 SUB SWAP1 LOG3 POP POP JUMP JUMPDEST PUSH0 PUSH20 0xFFFFFFFFFFFFFFFFFFFFFFFFFFFFFFFFFFFFFFFF AND DUP3 PUSH20 0xFFFFFFFFFFFFFFFFFFFFFFFFFFFFFFFFFFFFFFFF AND SUB PUSH2 0xFEC JUMPI DUP2 PUSH1 0x40 MLOAD PUSH32 0x5B08BA1800000000000000000000000000000000000000000000000000000000 DUP2 MSTORE PUSH1 0x4 ADD PUSH2 0xFE3 SWAP2 SWAP1 PUSH2 0x1D22 JUMP JUMPDEST PUSH1 0x40 MLOAD DUP1 SWAP2 SUB SWAP1 REVERT JUMPDEST DUP1 PUSH1 0x5 PUSH0 DUP6 PUSH20 0xFFFFFFFFFFFFFFFFFFFFFFFFFFFFFFFFFFFFFFFF AND PUSH20 0xFFFFFFFFFFFFFFFFFFFFFFFFFFFFFFFFFFFFFFFF AND DUP2 MSTORE PUSH1 0x20 ADD SWAP1 DUP2 MSTORE PUSH1 0x20 ADD PUSH0 KECCAK256 PUSH0 DUP5 PUSH20 0xFFFFFFFFFFFFFFFFFFFFFFFFFFFFFFFFFFFFFFFF AND PUSH20 0xFFFFFFFFFFFFFFFFFFFFFFFFFFFFFFFFFFFFFFFF AND DUP2 MSTORE PUSH1 0x20 ADD SWAP1 DUP2 MSTORE PUSH1 0x20 ADD PUSH0 KECCAK256 PUSH0 PUSH2 0x100 EXP DUP2 SLOAD DUP2 PUSH1 0xFF MUL NOT AND SWAP1 DUP4 ISZERO ISZERO MUL OR SWAP1 SSTORE POP DUP2 PUSH20 0xFFFFFFFFFFFFFFFFFFFFFFFFFFFFFFFFFFFFFFFF AND DUP4 PUSH20 0xFFFFFFFFFFFFFFFFFFFFFFFFFFFFFFFFFFFFFFFF AND PUSH32 0x17307EAB39AB6107E8899845AD3D59BD9653F200F220920489CA2B5937696C31 DUP4 PUSH1 0x40 MLOAD PUSH2 0x10D8 SWAP2 SWAP1 PUSH2 0x1BDC JUMP JUMPDEST PUSH1 0x40 MLOAD DUP1 SWAP2 SUB SWAP1 LOG3 POP POP POP JUMP JUMPDEST PUSH0 DUP4 PUSH20 0xFFFFFFFFFFFFFFFFFFFFFFFFFFFFFFFFFFFFFFFF AND EXTCODESIZE GT ISZERO PUSH2 0x1291 JUMPI DUP3 PUSH20 0xFFFFFFFFFFFFFFFFFFFFFFFFFFFFFFFFFFFFFFFF AND PUSH4 0x150B7A02 PUSH2 0x1128 PUSH2 0xC0E JUMP JUMPDEST DUP7 DUP6 DUP6 PUSH1 0x40 MLOAD DUP6 PUSH4 0xFFFFFFFF AND PUSH1 0xE0 SHL DUP2 MSTORE PUSH1 0x4 ADD PUSH2 0x114A SWAP5 SWAP4 SWAP3 SWAP2 SWAP1 PUSH2 0x25EC JUMP JUMPDEST PUSH1 0x20 PUSH1 0x40 MLOAD DUP1 DUP4 SUB DUP2 PUSH0 DUP8 GAS CALL SWAP3 POP POP POP DUP1 ISZERO PUSH2 0x1185 JUMPI POP PUSH1 0x40 MLOAD RETURNDATASIZE PUSH1 0x1F NOT PUSH1 0x1F DUP3 ADD AND DUP3 ADD DUP1 PUSH1 0x40 MSTORE POP DUP2 ADD SWAP1 PUSH2 0x1182 SWAP2 SWAP1 PUSH2 0x264A JUMP JUMPDEST PUSH1 0x1 JUMPDEST PUSH2 0x1206 JUMPI RETURNDATASIZE DUP1 PUSH0 DUP2 EQ PUSH2 0x11B3 JUMPI PUSH1 0x40 MLOAD SWAP2 POP PUSH1 0x1F NOT PUSH1 0x3F RETURNDATASIZE ADD AND DUP3 ADD PUSH1 0x40 MSTORE RETURNDATASIZE DUP3 MSTORE RETURNDATASIZE PUSH0 PUSH1 0x20 DUP5 ADD RETURNDATACOPY PUSH2 0x11B8 JUMP JUMPDEST PUSH1 0x60 SWAP2 POP JUMPDEST POP PUSH0 DUP2 MLOAD SUB PUSH2 0x11FE JUMPI DUP4 PUSH1 0x40 MLOAD PUSH32 0x64A0AE9200000000000000000000000000000000000000000000000000000000 DUP2 MSTORE PUSH1 0x4 ADD PUSH2 0x11F5 SWAP2 SWAP1 PUSH2 0x1D22 JUMP JUMPDEST PUSH1 0x40 MLOAD DUP1 SWAP2 SUB SWAP1 REVERT JUMPDEST DUP1 MLOAD DUP2 PUSH1 0x20 ADD REVERT JUMPDEST PUSH4 0x150B7A02 PUSH1 0xE0 SHL PUSH28 0xFFFFFFFFFFFFFFFFFFFFFFFFFFFFFFFFFFFFFFFFFFFFFFFFFFFFFFFF NOT AND DUP2 PUSH28 0xFFFFFFFFFFFFFFFFFFFFFFFFFFFFFFFFFFFFFFFFFFFFFFFFFFFFFFFF NOT AND EQ PUSH2 0x128F JUMPI DUP4 PUSH1 0x40 MLOAD PUSH32 0x64A0AE9200000000000000000000000000000000000000000000000000000000 DUP2 MSTORE PUSH1 0x4 ADD PUSH2 0x1286 SWAP2 SWAP1 PUSH2 0x1D22 JUMP JUMPDEST PUSH1 0x40 MLOAD DUP1 SWAP2 SUB SWAP1 REVERT JUMPDEST POP JUMPDEST POP POP POP POP JUMP JUMPDEST PUSH1 0x60 PUSH1 0x9 DUP1 SLOAD PUSH2 0x12A6 SWAP1 PUSH2 0x2204 JUMP JUMPDEST DUP1 PUSH1 0x1F ADD PUSH1 0x20 DUP1 SWAP2 DIV MUL PUSH1 0x20 ADD PUSH1 0x40 MLOAD SWAP1 DUP2 ADD PUSH1 0x40 MSTORE DUP1 SWAP3 SWAP2 SWAP1 DUP2 DUP2 MSTORE PUSH1 0x20 ADD DUP3 DUP1 SLOAD PUSH2 0x12D2 SWAP1 PUSH2 0x2204 JUMP JUMPDEST DUP1 ISZERO PUSH2 0x131D JUMPI DUP1 PUSH1 0x1F LT PUSH2 0x12F4 JUMPI PUSH2 0x100 DUP1 DUP4 SLOAD DIV MUL DUP4 MSTORE SWAP2 PUSH1 0x20 ADD SWAP2 PUSH2 0x131D JUMP JUMPDEST DUP3 ADD SWAP2 SWAP1 PUSH0 MSTORE PUSH1 0x20 PUSH0 KECCAK256 SWAP1 JUMPDEST DUP2 SLOAD DUP2 MSTORE SWAP1 PUSH1 0x1 ADD SWAP1 PUSH1 0x20 ADD DUP1 DUP4 GT PUSH2 0x1300 JUMPI DUP3 SWAP1 SUB PUSH1 0x1F AND DUP3 ADD SWAP2 JUMPDEST POP POP POP POP POP SWAP1 POP SWAP1 JUMP JUMPDEST PUSH1 0x60 PUSH2 0x1332 DUP3 PUSH2 0xB4F JUMP JUMPDEST POP PUSH0 PUSH2 0x133C PUSH2 0x1297 JUMP JUMPDEST SWAP1 POP PUSH0 DUP2 MLOAD GT PUSH2 0x135A JUMPI PUSH1 0x40 MLOAD DUP1 PUSH1 0x20 ADD PUSH1 0x40 MSTORE DUP1 PUSH0 DUP2 MSTORE POP PUSH2 0x1385 JUMP JUMPDEST DUP1 PUSH2 0x1364 DUP5 PUSH2 0x1748 JUMP JUMPDEST PUSH1 0x40 MLOAD PUSH1 0x20 ADD PUSH2 0x1375 SWAP3 SWAP2 SWAP1 PUSH2 0x250F JUMP JUMPDEST PUSH1 0x40 MLOAD PUSH1 0x20 DUP2 DUP4 SUB SUB DUP2 MSTORE SWAP1 PUSH1 0x40 MSTORE JUMPDEST SWAP2 POP POP SWAP2 SWAP1 POP JUMP JUMPDEST PUSH0 DUP2 PUSH0 ADD SLOAD SWAP1 POP SWAP2 SWAP1 POP JUMP JUMPDEST PUSH1 0x1 DUP2 PUSH0 ADD PUSH0 DUP3 DUP3 SLOAD ADD SWAP3 POP POP DUP2 SWAP1 SSTORE POP POP JUMP JUMPDEST PUSH2 0x13C6 DUP3 DUP3 PUSH1 0x40 MLOAD DUP1 PUSH1 0x20 ADD PUSH1 0x40 MSTORE DUP1 PUSH0 DUP2 MSTORE POP PUSH2 0x1812 JUMP JUMPDEST POP POP JUMP JUMPDEST DUP1 PUSH1 0x6 PUSH0 DUP5 DUP2 MSTORE PUSH1 0x20 ADD SWAP1 DUP2 MSTORE PUSH1 0x20 ADD PUSH0 KECCAK256 SWAP1 DUP2 PUSH2 0x13E8 SWAP2 SWAP1 PUSH2 0x2406 JUMP JUMPDEST POP PUSH32 0xF8E1A15ABA9398E019F0B49DF1A4FDE98EE17AE345CB5F6B5E2C27F5033E8CE7 DUP3 PUSH1 0x40 MLOAD PUSH2 0x1418 SWAP2 SWAP1 PUSH2 0x1FA0 JUMP JUMPDEST PUSH1 0x40 MLOAD DUP1 SWAP2 SUB SWAP1 LOG1 POP POP JUMP JUMPDEST PUSH0 PUSH32 0x1FFC9A700000000000000000000000000000000000000000000000000000000 PUSH28 0xFFFFFFFFFFFFFFFFFFFFFFFFFFFFFFFFFFFFFFFFFFFFFFFFFFFFFFFF NOT AND DUP3 PUSH28 0xFFFFFFFFFFFFFFFFFFFFFFFFFFFFFFFFFFFFFFFFFFFFFFFFFFFFFFFF NOT AND EQ SWAP1 POP SWAP2 SWAP1 POP JUMP JUMPDEST PUSH0 PUSH1 0x2 PUSH0 DUP4 DUP2 MSTORE PUSH1 0x20 ADD SWAP1 DUP2 MSTORE PUSH1 0x20 ADD PUSH0 KECCAK256 PUSH0 SWAP1 SLOAD SWAP1 PUSH2 0x100 EXP SWAP1 DIV PUSH20 0xFFFFFFFFFFFFFFFFFFFFFFFFFFFFFFFFFFFFFFFF AND SWAP1 POP SWAP2 SWAP1 POP JUMP JUMPDEST DUP1 DUP1 PUSH2 0x14FE JUMPI POP PUSH0 PUSH20 0xFFFFFFFFFFFFFFFFFFFFFFFFFFFFFFFFFFFFFFFF AND DUP3 PUSH20 0xFFFFFFFFFFFFFFFFFFFFFFFFFFFFFFFFFFFFFFFF AND EQ ISZERO JUMPDEST ISZERO PUSH2 0x1630 JUMPI PUSH0 PUSH2 0x150D DUP5 PUSH2 0xB4F JUMP JUMPDEST SWAP1 POP PUSH0 PUSH20 0xFFFFFFFFFFFFFFFFFFFFFFFFFFFFFFFFFFFFFFFF AND DUP4 PUSH20 0xFFFFFFFFFFFFFFFFFFFFFFFFFFFFFFFFFFFFFFFF AND EQ ISZERO DUP1 ISZERO PUSH2 0x1577 JUMPI POP DUP3 PUSH20 0xFFFFFFFFFFFFFFFFFFFFFFFFFFFFFFFFFFFFFFFF AND DUP2 PUSH20 0xFFFFFFFFFFFFFFFFFFFFFFFFFFFFFFFFFFFFFFFF AND EQ ISZERO JUMPDEST DUP1 ISZERO PUSH2 0x158A JUMPI POP PUSH2 0x1588 DUP2 DUP5 PUSH2 0x95C JUMP JUMPDEST ISZERO JUMPDEST ISZERO PUSH2 0x15CC JUMPI DUP3 PUSH1 0x40 MLOAD PUSH32 0xA9FBF51F00000000000000000000000000000000000000000000000000000000 DUP2 MSTORE PUSH1 0x4 ADD PUSH2 0x15C3 SWAP2 SWAP1 PUSH2 0x1D22 JUMP JUMPDEST PUSH1 0x40 MLOAD DUP1 SWAP2 SUB SWAP1 REVERT JUMPDEST DUP2 ISZERO PUSH2 0x162E JUMPI DUP4 DUP6 PUSH20 0xFFFFFFFFFFFFFFFFFFFFFFFFFFFFFFFFFFFFFFFF AND DUP3 PUSH20 0xFFFFFFFFFFFFFFFFFFFFFFFFFFFFFFFFFFFFFFFF AND PUSH32 0x8C5BE1E5EBEC7D5BD14F71427D1E84F3DD0314C0F7B2291E5B200AC8C7C3B925 PUSH1 0x40 MLOAD PUSH1 0x40 MLOAD DUP1 SWAP2 SUB SWAP1 LOG4 JUMPDEST POP JUMPDEST DUP4 PUSH1 0x4 PUSH0 DUP6 DUP2 MSTORE PUSH1 0x20 ADD SWAP1 DUP2 MSTORE PUSH1 0x20 ADD PUSH0 KECCAK256 PUSH0 PUSH2 0x100 EXP DUP2 SLOAD DUP2 PUSH20 0xFFFFFFFFFFFFFFFFFFFFFFFFFFFFFFFFFFFFFFFF MUL NOT AND SWAP1 DUP4 PUSH20 0xFFFFFFFFFFFFFFFFFFFFFFFFFFFFFFFFFFFFFFFF AND MUL OR SWAP1 SSTORE POP POP POP POP POP JUMP JUMPDEST PUSH2 0x1690 DUP4 DUP4 DUP4 PUSH2 0x182D JUMP JUMPDEST PUSH2 0x1743 JUMPI PUSH0 PUSH20 0xFFFFFFFFFFFFFFFFFFFFFFFFFFFFFFFFFFFFFFFF AND DUP4 PUSH20 0xFFFFFFFFFFFFFFFFFFFFFFFFFFFFFFFFFFFFFFFF AND SUB PUSH2 0x1704 JUMPI DUP1 PUSH1 0x40 MLOAD PUSH32 0x7E27328900000000000000000000000000000000000000000000000000000000 DUP2 MSTORE PUSH1 0x4 ADD PUSH2 0x16FB SWAP2 SWAP1 PUSH2 0x1FA0 JUMP JUMPDEST PUSH1 0x40 MLOAD DUP1 SWAP2 SUB SWAP1 REVERT JUMPDEST DUP2 DUP2 PUSH1 0x40 MLOAD PUSH32 0x177E802F00000000000000000000000000000000000000000000000000000000 DUP2 MSTORE PUSH1 0x4 ADD PUSH2 0x173A SWAP3 SWAP2 SWAP1 PUSH2 0x2675 JUMP JUMPDEST PUSH1 0x40 MLOAD DUP1 SWAP2 SUB SWAP1 REVERT JUMPDEST POP POP POP JUMP JUMPDEST PUSH1 0x60 PUSH0 PUSH1 0x1 PUSH2 0x1756 DUP5 PUSH2 0x18ED JUMP JUMPDEST ADD SWAP1 POP PUSH0 DUP2 PUSH8 0xFFFFFFFFFFFFFFFF DUP2 GT ISZERO PUSH2 0x1774 JUMPI PUSH2 0x1773 PUSH2 0x1DFB JUMP JUMPDEST JUMPDEST PUSH1 0x40 MLOAD SWAP1 DUP1 DUP3 MSTORE DUP1 PUSH1 0x1F ADD PUSH1 0x1F NOT AND PUSH1 0x20 ADD DUP3 ADD PUSH1 0x40 MSTORE DUP1 ISZERO PUSH2 0x17A6 JUMPI DUP2 PUSH1 0x20 ADD PUSH1 0x1 DUP3 MUL DUP1 CALLDATASIZE DUP4 CALLDATACOPY DUP1 DUP3 ADD SWAP2 POP POP SWAP1 POP JUMPDEST POP SWAP1 POP PUSH0 DUP3 PUSH1 0x20 ADD DUP3 ADD SWAP1 POP JUMPDEST PUSH1 0x1 ISZERO PUSH2 0x1807 JUMPI DUP1 DUP1 PUSH1 0x1 SWAP1 SUB SWAP2 POP POP PUSH32 0x3031323334353637383961626364656600000000000000000000000000000000 PUSH1 0xA DUP7 MOD BYTE DUP2 MSTORE8 PUSH1 0xA DUP6 DUP2 PUSH2 0x17FC JUMPI PUSH2 0x17FB PUSH2 0x269C JUMP JUMPDEST JUMPDEST DIV SWAP5 POP PUSH0 DUP6 SUB PUSH2 0x17B3 JUMPI JUMPDEST DUP2 SWAP4 POP POP POP POP SWAP2 SWAP1 POP JUMP JUMPDEST PUSH2 0x181C DUP4 DUP4 PUSH2 0x1A3E JUMP JUMPDEST PUSH2 0x1828 PUSH0 DUP5 DUP5 DUP5 PUSH2 0x10E5 JUMP JUMPDEST POP POP POP JUMP JUMPDEST PUSH0 DUP1 PUSH20 0xFFFFFFFFFFFFFFFFFFFFFFFFFFFFFFFFFFFFFFFF AND DUP4 PUSH20 0xFFFFFFFFFFFFFFFFFFFFFFFFFFFFFFFFFFFFFFFF AND EQ ISZERO DUP1 ISZERO PUSH2 0x18E4 JUMPI POP DUP3 PUSH20 0xFFFFFFFFFFFFFFFFFFFFFFFFFFFFFFFFFFFFFFFF AND DUP5 PUSH20 0xFFFFFFFFFFFFFFFFFFFFFFFFFFFFFFFFFFFFFFFF AND EQ DUP1 PUSH2 0x18A5 JUMPI POP PUSH2 0x18A4 DUP5 DUP5 PUSH2 0x95C JUMP JUMPDEST JUMPDEST DUP1 PUSH2 0x18E3 JUMPI POP DUP3 PUSH20 0xFFFFFFFFFFFFFFFFFFFFFFFFFFFFFFFFFFFFFFFF AND PUSH2 0x18CB DUP4 PUSH2 0xBD5 JUMP JUMPDEST PUSH20 0xFFFFFFFFFFFFFFFFFFFFFFFFFFFFFFFFFFFFFFFF AND EQ JUMPDEST JUMPDEST SWAP1 POP SWAP4 SWAP3 POP POP POP JUMP JUMPDEST PUSH0 DUP1 PUSH0 SWAP1 POP PUSH27 0x184F03E93FF9F4DAA797ED6E38ED64BF6A1F010000000000000000 DUP4 LT PUSH2 0x1949 JUMPI PUSH27 0x184F03E93FF9F4DAA797ED6E38ED64BF6A1F010000000000000000 DUP4 DUP2 PUSH2 0x193F JUMPI PUSH2 0x193E PUSH2 0x269C JUMP JUMPDEST JUMPDEST DIV SWAP3 POP PUSH1 0x40 DUP2 ADD SWAP1 POP JUMPDEST PUSH14 0x4EE2D6D415B85ACEF8100000000 DUP4 LT PUSH2 0x1986 JUMPI PUSH14 0x4EE2D6D415B85ACEF8100000000 DUP4 DUP2 PUSH2 0x197C JUMPI PUSH2 0x197B PUSH2 0x269C JUMP JUMPDEST JUMPDEST DIV SWAP3 POP PUSH1 0x20 DUP2 ADD SWAP1 POP JUMPDEST PUSH7 0x2386F26FC10000 DUP4 LT PUSH2 0x19B5 JUMPI PUSH7 0x2386F26FC10000 DUP4 DUP2 PUSH2 0x19AB JUMPI PUSH2 0x19AA PUSH2 0x269C JUMP JUMPDEST JUMPDEST DIV SWAP3 POP PUSH1 0x10 DUP2 ADD SWAP1 POP JUMPDEST PUSH4 0x5F5E100 DUP4 LT PUSH2 0x19DE JUMPI PUSH4 0x5F5E100 DUP4 DUP2 PUSH2 0x19D4 JUMPI PUSH2 0x19D3 PUSH2 0x269C JUMP JUMPDEST JUMPDEST DIV SWAP3 POP PUSH1 0x8 DUP2 ADD SWAP1 POP JUMPDEST PUSH2 0x2710 DUP4 LT PUSH2 0x1A03 JUMPI PUSH2 0x2710 DUP4 DUP2 PUSH2 0x19F9 JUMPI PUSH2 0x19F8 PUSH2 0x269C JUMP JUMPDEST JUMPDEST DIV SWAP3 POP PUSH1 0x4 DUP2 ADD SWAP1 POP JUMPDEST PUSH1 0x64 DUP4 LT PUSH2 0x1A26 JUMPI PUSH1 0x64 DUP4 DUP2 PUSH2 0x1A1C JUMPI PUSH2 0x1A1B PUSH2 0x269C JUMP JUMPDEST JUMPDEST DIV SWAP3 POP PUSH1 0x2 DUP2 ADD SWAP1 POP JUMPDEST PUSH1 0xA DUP4 LT PUSH2 0x1A35 JUMPI PUSH1 0x1 DUP2 ADD SWAP1 POP JUMPDEST DUP1 SWAP2 POP POP SWAP2 SWAP1 POP JUMP JUMPDEST PUSH0 PUSH20 0xFFFFFFFFFFFFFFFFFFFFFFFFFFFFFFFFFFFFFFFF AND DUP3 PUSH20 0xFFFFFFFFFFFFFFFFFFFFFFFFFFFFFFFFFFFFFFFF AND SUB PUSH2 0x1AAE JUMPI PUSH0 PUSH1 0x40 MLOAD PUSH32 0x64A0AE9200000000000000000000000000000000000000000000000000000000 DUP2 MSTORE PUSH1 0x4 ADD PUSH2 0x1AA5 SWAP2 SWAP1 PUSH2 0x1D22 JUMP JUMPDEST PUSH1 0x40 MLOAD DUP1 SWAP2 SUB SWAP1 REVERT JUMPDEST PUSH0 PUSH2 0x1ABA DUP4 DUP4 PUSH0 PUSH2 0xC27 JUMP JUMPDEST SWAP1 POP PUSH0 PUSH20 0xFFFFFFFFFFFFFFFFFFFFFFFFFFFFFFFFFFFFFFFF AND DUP2 PUSH20 0xFFFFFFFFFFFFFFFFFFFFFFFFFFFFFFFFFFFFFFFF AND EQ PUSH2 0x1B2C JUMPI PUSH0 PUSH1 0x40 MLOAD PUSH32 0x73C6AC6E00000000000000000000000000000000000000000000000000000000 DUP2 MSTORE PUSH1 0x4 ADD PUSH2 0x1B23 SWAP2 SWAP1 PUSH2 0x1D22 JUMP JUMPDEST PUSH1 0x40 MLOAD DUP1 SWAP2 SUB SWAP1 REVERT JUMPDEST POP POP POP JUMP JUMPDEST PUSH0 PUSH1 0x40 MLOAD SWAP1 POP SWAP1 JUMP JUMPDEST PUSH0 DUP1 REVERT JUMPDEST PUSH0 DUP1 REVERT JUMPDEST PUSH0 PUSH32 0xFFFFFFFF00000000000000000000000000000000000000000000000000000000 DUP3 AND SWAP1 POP SWAP2 SWAP1 POP JUMP JUMPDEST PUSH2 0x1B76 DUP2 PUSH2 0x1B42 JUMP JUMPDEST DUP2 EQ PUSH2 0x1B80 JUMPI PUSH0 DUP1 REVERT JUMPDEST POP JUMP JUMPDEST PUSH0 DUP2 CALLDATALOAD SWAP1 POP PUSH2 0x1B91 DUP2 PUSH2 0x1B6D JUMP JUMPDEST SWAP3 SWAP2 POP POP JUMP JUMPDEST PUSH0 PUSH1 0x20 DUP3 DUP5 SUB SLT ISZERO PUSH2 0x1BAC JUMPI PUSH2 0x1BAB PUSH2 0x1B3A JUMP JUMPDEST JUMPDEST PUSH0 PUSH2 0x1BB9 DUP5 DUP3 DUP6 ADD PUSH2 0x1B83 JUMP JUMPDEST SWAP2 POP POP SWAP3 SWAP2 POP POP JUMP JUMPDEST PUSH0 DUP2 ISZERO ISZERO SWAP1 POP SWAP2 SWAP1 POP JUMP JUMPDEST PUSH2 0x1BD6 DUP2 PUSH2 0x1BC2 JUMP JUMPDEST DUP3 MSTORE POP POP JUMP JUMPDEST PUSH0 PUSH1 0x20 DUP3 ADD SWAP1 POP PUSH2 0x1BEF PUSH0 DUP4 ADD DUP5 PUSH2 0x1BCD JUMP JUMPDEST SWAP3 SWAP2 POP POP JUMP JUMPDEST PUSH0 DUP2 MLOAD SWAP1 POP SWAP2 SWAP1 POP JUMP JUMPDEST PUSH0 DUP3 DUP3 MSTORE PUSH1 0x20 DUP3 ADD SWAP1 POP SWAP3 SWAP2 POP POP JUMP JUMPDEST DUP3 DUP2 DUP4 MCOPY PUSH0 DUP4 DUP4 ADD MSTORE POP POP POP JUMP JUMPDEST PUSH0 PUSH1 0x1F NOT PUSH1 0x1F DUP4 ADD AND SWAP1 POP SWAP2 SWAP1 POP JUMP JUMPDEST PUSH0 PUSH2 0x1C37 DUP3 PUSH2 0x1BF5 JUMP JUMPDEST PUSH2 0x1C41 DUP2 DUP6 PUSH2 0x1BFF JUMP JUMPDEST SWAP4 POP PUSH2 0x1C51 DUP2 DUP6 PUSH1 0x20 DUP7 ADD PUSH2 0x1C0F JUMP JUMPDEST PUSH2 0x1C5A DUP2 PUSH2 0x1C1D JUMP JUMPDEST DUP5 ADD SWAP2 POP POP SWAP3 SWAP2 POP POP JUMP JUMPDEST PUSH0 PUSH1 0x20 DUP3 ADD SWAP1 POP DUP2 DUP2 SUB PUSH0 DUP4 ADD MSTORE PUSH2 0x1C7D DUP2 DUP5 PUSH2 0x1C2D JUMP JUMPDEST SWAP1 POP SWAP3 SWAP2 POP POP JUMP JUMPDEST PUSH0 DUP2 SWAP1 POP SWAP2 SWAP1 POP JUMP JUMPDEST PUSH2 0x1C97 DUP2 PUSH2 0x1C85 JUMP JUMPDEST DUP2 EQ PUSH2 0x1CA1 JUMPI PUSH0 DUP1 REVERT JUMPDEST POP JUMP JUMPDEST PUSH0 DUP2 CALLDATALOAD SWAP1 POP PUSH2 0x1CB2 DUP2 PUSH2 0x1C8E JUMP JUMPDEST SWAP3 SWAP2 POP POP JUMP JUMPDEST PUSH0 PUSH1 0x20 DUP3 DUP5 SUB SLT ISZERO PUSH2 0x1CCD JUMPI PUSH2 0x1CCC PUSH2 0x1B3A JUMP JUMPDEST JUMPDEST PUSH0 PUSH2 0x1CDA DUP5 DUP3 DUP6 ADD PUSH2 0x1CA4 JUMP JUMPDEST SWAP2 POP POP SWAP3 SWAP2 POP POP JUMP JUMPDEST PUSH0 PUSH20 0xFFFFFFFFFFFFFFFFFFFFFFFFFFFFFFFFFFFFFFFF DUP3 AND SWAP1 POP SWAP2 SWAP1 POP JUMP JUMPDEST PUSH0 PUSH2 0x1D0C DUP3 PUSH2 0x1CE3 JUMP JUMPDEST SWAP1 POP SWAP2 SWAP1 POP JUMP JUMPDEST PUSH2 0x1D1C DUP2 PUSH2 0x1D02 JUMP JUMPDEST DUP3 MSTORE POP POP JUMP JUMPDEST PUSH0 PUSH1 0x20 DUP3 ADD SWAP1 POP PUSH2 0x1D35 PUSH0 DUP4 ADD DUP5 PUSH2 0x1D13 JUMP JUMPDEST SWAP3 SWAP2 POP POP JUMP JUMPDEST PUSH2 0x1D44 DUP2 PUSH2 0x1D02 JUMP JUMPDEST DUP2 EQ PUSH2 0x1D4E JUMPI PUSH0 DUP1 REVERT JUMPDEST POP JUMP JUMPDEST PUSH0 DUP2 CALLDATALOAD SWAP1 POP PUSH2 0x1D5F DUP2 PUSH2 0x1D3B JUMP JUMPDEST SWAP3 SWAP2 POP POP JUMP JUMPDEST PUSH0 DUP1 PUSH1 0x40 DUP4 DUP6 SUB SLT ISZERO PUSH2 0x1D7B JUMPI PUSH2 0x1D7A PUSH2 0x1B3A JUMP JUMPDEST JUMPDEST PUSH0 PUSH2 0x1D88 DUP6 DUP3 DUP7 ADD PUSH2 0x1D51 JUMP JUMPDEST SWAP3 POP POP PUSH1 0x20 PUSH2 0x1D99 DUP6 DUP3 DUP7 ADD PUSH2 0x1CA4 JUMP JUMPDEST SWAP2 POP POP SWAP3 POP SWAP3 SWAP1 POP JUMP JUMPDEST PUSH0 DUP1 PUSH0 PUSH1 0x60 DUP5 DUP7 SUB SLT ISZERO PUSH2 0x1DBA JUMPI PUSH2 0x1DB9 PUSH2 0x1B3A JUMP JUMPDEST JUMPDEST PUSH0 PUSH2 0x1DC7 DUP7 DUP3 DUP8 ADD PUSH2 0x1D51 JUMP JUMPDEST SWAP4 POP POP PUSH1 0x20 PUSH2 0x1DD8 DUP7 DUP3 DUP8 ADD PUSH2 0x1D51 JUMP JUMPDEST SWAP3 POP POP PUSH1 0x40 PUSH2 0x1DE9 DUP7 DUP3 DUP8 ADD PUSH2 0x1CA4 JUMP JUMPDEST SWAP2 POP POP SWAP3 POP SWAP3 POP SWAP3 JUMP JUMPDEST PUSH0 DUP1 REVERT JUMPDEST PUSH0 DUP1 REVERT JUMPDEST PUSH32 0x4E487B7100000000000000000000000000000000000000000000000000000000 PUSH0 MSTORE PUSH1 0x41 PUSH1 0x4 MSTORE PUSH1 0x24 PUSH0 REVERT JUMPDEST PUSH2 0x1E31 DUP3 PUSH2 0x1C1D JUMP JUMPDEST DUP2 ADD DUP2 DUP2 LT PUSH8 0xFFFFFFFFFFFFFFFF DUP3 GT OR ISZERO PUSH2 0x1E50 JUMPI PUSH2 0x1E4F PUSH2 0x1DFB JUMP JUMPDEST JUMPDEST DUP1 PUSH1 0x40 MSTORE POP POP POP JUMP JUMPDEST PUSH0 PUSH2 0x1E62 PUSH2 0x1B31 JUMP JUMPDEST SWAP1 POP PUSH2 0x1E6E DUP3 DUP3 PUSH2 0x1E28 JUMP JUMPDEST SWAP2 SWAP1 POP JUMP JUMPDEST PUSH0 PUSH8 0xFFFFFFFFFFFFFFFF DUP3 GT ISZERO PUSH2 0x1E8D JUMPI PUSH2 0x1E8C PUSH2 0x1DFB JUMP JUMPDEST JUMPDEST PUSH2 0x1E96 DUP3 PUSH2 0x1C1D JUMP JUMPDEST SWAP1 POP PUSH1 0x20 DUP2 ADD SWAP1 POP SWAP2 SWAP1 POP JUMP JUMPDEST DUP3 DUP2 DUP4 CALLDATACOPY PUSH0 DUP4 DUP4 ADD MSTORE POP POP POP JUMP JUMPDEST PUSH0 PUSH2 0x1EC3 PUSH2 0x1EBE DUP5 PUSH2 0x1E73 JUMP JUMPDEST PUSH2 0x1E59 JUMP JUMPDEST SWAP1 POP DUP3 DUP2 MSTORE PUSH1 0x20 DUP2 ADD DUP5 DUP5 DUP5 ADD GT ISZERO PUSH2 0x1EDF JUMPI PUSH2 0x1EDE PUSH2 0x1DF7 JUMP JUMPDEST JUMPDEST PUSH2 0x1EEA DUP5 DUP3 DUP6 PUSH2 0x1EA3 JUMP JUMPDEST POP SWAP4 SWAP3 POP POP POP JUMP JUMPDEST PUSH0 DUP3 PUSH1 0x1F DUP4 ADD SLT PUSH2 0x1F06 JUMPI PUSH2 0x1F05 PUSH2 0x1DF3 JUMP JUMPDEST JUMPDEST DUP2 CALLDATALOAD PUSH2 0x1F16 DUP5 DUP3 PUSH1 0x20 DUP7 ADD PUSH2 0x1EB1 JUMP JUMPDEST SWAP2 POP POP SWAP3 SWAP2 POP POP JUMP JUMPDEST PUSH0 PUSH1 0x20 DUP3 DUP5 SUB SLT ISZERO PUSH2 0x1F34 JUMPI PUSH2 0x1F33 PUSH2 0x1B3A JUMP JUMPDEST JUMPDEST PUSH0 DUP3 ADD CALLDATALOAD PUSH8 0xFFFFFFFFFFFFFFFF DUP2 GT ISZERO PUSH2 0x1F51 JUMPI PUSH2 0x1F50 PUSH2 0x1B3E JUMP JUMPDEST JUMPDEST PUSH2 0x1F5D DUP5 DUP3 DUP6 ADD PUSH2 0x1EF2 JUMP JUMPDEST SWAP2 POP POP SWAP3 SWAP2 POP POP JUMP JUMPDEST PUSH0 PUSH1 0x20 DUP3 DUP5 SUB SLT ISZERO PUSH2 0x1F7B JUMPI PUSH2 0x1F7A PUSH2 0x1B3A JUMP JUMPDEST JUMPDEST PUSH0 PUSH2 0x1F88 DUP5 DUP3 DUP6 ADD PUSH2 0x1D51 JUMP JUMPDEST SWAP2 POP POP SWAP3 SWAP2 POP POP JUMP JUMPDEST PUSH2 0x1F9A DUP2 PUSH2 0x1C85 JUMP JUMPDEST DUP3 MSTORE POP POP JUMP JUMPDEST PUSH0 PUSH1 0x20 DUP3 ADD SWAP1 POP PUSH2 0x1FB3 PUSH0 DUP4 ADD DUP5 PUSH2 0x1F91 JUMP JUMPDEST SWAP3 SWAP2 POP POP JUMP JUMPDEST PUSH2 0x1FC2 DUP2 PUSH2 0x1BC2 JUMP JUMPDEST DUP2 EQ PUSH2 0x1FCC JUMPI PUSH0 DUP1 REVERT JUMPDEST POP JUMP JUMPDEST PUSH0 DUP2 CALLDATALOAD SWAP1 POP PUSH2 0x1FDD DUP2 PUSH2 0x1FB9 JUMP JUMPDEST SWAP3 SWAP2 POP POP JUMP JUMPDEST PUSH0 DUP1 PUSH1 0x40 DUP4 DUP6 SUB SLT ISZERO PUSH2 0x1FF9 JUMPI PUSH2 0x1FF8 PUSH2 0x1B3A JUMP JUMPDEST JUMPDEST PUSH0 PUSH2 0x2006 DUP6 DUP3 DUP7 ADD PUSH2 0x1D51 JUMP JUMPDEST SWAP3 POP POP PUSH1 0x20 PUSH2 0x2017 DUP6 DUP3 DUP7 ADD PUSH2 0x1FCF JUMP JUMPDEST SWAP2 POP POP SWAP3 POP SWAP3 SWAP1 POP JUMP JUMPDEST PUSH0 PUSH8 0xFFFFFFFFFFFFFFFF DUP3 GT ISZERO PUSH2 0x203B JUMPI PUSH2 0x203A PUSH2 0x1DFB JUMP JUMPDEST JUMPDEST PUSH2 0x2044 DUP3 PUSH2 0x1C1D JUMP JUMPDEST SWAP1 POP PUSH1 0x20 DUP2 ADD SWAP1 POP SWAP2 SWAP1 POP JUMP JUMPDEST PUSH0 PUSH2 0x2063 PUSH2 0x205E DUP5 PUSH2 0x2021 JUMP JUMPDEST PUSH2 0x1E59 JUMP JUMPDEST SWAP1 POP DUP3 DUP2 MSTORE PUSH1 0x20 DUP2 ADD DUP5 DUP5 DUP5 ADD GT ISZERO PUSH2 0x207F JUMPI PUSH2 0x207E PUSH2 0x1DF7 JUMP JUMPDEST JUMPDEST PUSH2 0x208A DUP5 DUP3 DUP6 PUSH2 0x1EA3 JUMP JUMPDEST POP SWAP4 SWAP3 POP POP POP JUMP JUMPDEST PUSH0 DUP3 PUSH1 0x1F DUP4 ADD SLT PUSH2 0x20A6 JUMPI PUSH2 0x20A5 PUSH2 0x1DF3 JUMP JUMPDEST JUMPDEST DUP2 CALLDATALOAD PUSH2 0x20B6 DUP5 DUP3 PUSH1 0x20 DUP7 ADD PUSH2 0x2051 JUMP JUMPDEST SWAP2 POP POP SWAP3 SWAP2 POP POP JUMP JUMPDEST PUSH0 DUP1 PUSH0 DUP1 PUSH1 0x80 DUP6 DUP8 SUB SLT ISZERO PUSH2 0x20D7 JUMPI PUSH2 0x20D6 PUSH2 0x1B3A JUMP JUMPDEST JUMPDEST PUSH0 PUSH2 0x20E4 DUP8 DUP3 DUP9 ADD PUSH2 0x1D51 JUMP JUMPDEST SWAP5 POP POP PUSH1 0x20 PUSH2 0x20F5 DUP8 DUP3 DUP9 ADD PUSH2 0x1D51 JUMP JUMPDEST SWAP4 POP POP PUSH1 0x40 PUSH2 0x2106 DUP8 DUP3 DUP9 ADD PUSH2 0x1CA4 JUMP JUMPDEST SWAP3 POP POP PUSH1 0x60 DUP6 ADD CALLDATALOAD PUSH8 0xFFFFFFFFFFFFFFFF DUP2 GT ISZERO PUSH2 0x2127 JUMPI PUSH2 0x2126 PUSH2 0x1B3E JUMP JUMPDEST JUMPDEST PUSH2 0x2133 DUP8 DUP3 DUP9 ADD PUSH2 0x2092 JUMP JUMPDEST SWAP2 POP POP SWAP3 SWAP6 SWAP2 SWAP5 POP SWAP3 POP JUMP JUMPDEST PUSH0 DUP1 PUSH1 0x40 DUP4 DUP6 SUB SLT ISZERO PUSH2 0x2155 JUMPI PUSH2 0x2154 PUSH2 0x1B3A JUMP JUMPDEST JUMPDEST PUSH0 PUSH2 0x2162 DUP6 DUP3 DUP7 ADD PUSH2 0x1D51 JUMP JUMPDEST SWAP3 POP POP PUSH1 0x20 DUP4 ADD CALLDATALOAD PUSH8 0xFFFFFFFFFFFFFFFF DUP2 GT ISZERO PUSH2 0x2183 JUMPI PUSH2 0x2182 PUSH2 0x1B3E JUMP JUMPDEST JUMPDEST PUSH2 0x218F DUP6 DUP3 DUP7 ADD PUSH2 0x1EF2 JUMP JUMPDEST SWAP2 POP POP SWAP3 POP SWAP3 SWAP1 POP JUMP JUMPDEST PUSH0 DUP1 PUSH1 0x40 DUP4 DUP6 SUB SLT ISZERO PUSH2 0x21AF JUMPI PUSH2 0x21AE PUSH2 0x1B3A JUMP JUMPDEST JUMPDEST PUSH0 PUSH2 0x21BC DUP6 DUP3 DUP7 ADD PUSH2 0x1D51 JUMP JUMPDEST SWAP3 POP POP PUSH1 0x20 PUSH2 0x21CD DUP6 DUP3 DUP7 ADD PUSH2 0x1D51 JUMP JUMPDEST SWAP2 POP POP SWAP3 POP SWAP3 SWAP1 POP JUMP JUMPDEST PUSH32 0x4E487B7100000000000000000000000000000000000000000000000000000000 PUSH0 MSTORE PUSH1 0x22 PUSH1 0x4 MSTORE PUSH1 0x24 PUSH0 REVERT JUMPDEST PUSH0 PUSH1 0x2 DUP3 DIV SWAP1 POP PUSH1 0x1 DUP3 AND DUP1 PUSH2 0x221B JUMPI PUSH1 0x7F DUP3 AND SWAP2 POP JUMPDEST PUSH1 0x20 DUP3 LT DUP2 SUB PUSH2 0x222E JUMPI PUSH2 0x222D PUSH2 0x21D7 JUMP JUMPDEST JUMPDEST POP SWAP2 SWAP1 POP JUMP JUMPDEST PUSH0 PUSH1 0x60 DUP3 ADD SWAP1 POP PUSH2 0x2247 PUSH0 DUP4 ADD DUP7 PUSH2 0x1D13 JUMP JUMPDEST PUSH2 0x2254 PUSH1 0x20 DUP4 ADD DUP6 PUSH2 0x1F91 JUMP JUMPDEST PUSH2 0x2261 PUSH1 0x40 DUP4 ADD DUP5 PUSH2 0x1D13 JUMP JUMPDEST SWAP5 SWAP4 POP POP POP POP JUMP JUMPDEST PUSH0 DUP2 SWAP1 POP DUP2 PUSH0 MSTORE PUSH1 0x20 PUSH0 KECCAK256 SWAP1 POP SWAP2 SWAP1 POP JUMP JUMPDEST PUSH0 PUSH1 0x20 PUSH1 0x1F DUP4 ADD DIV SWAP1 POP SWAP2 SWAP1 POP JUMP JUMPDEST PUSH0 DUP3 DUP3 SHL SWAP1 POP SWAP3 SWAP2 POP POP JUMP JUMPDEST PUSH0 PUSH1 0x8 DUP4 MUL PUSH2 0x22C5 PUSH32 0xFFFFFFFFFFFFFFFFFFFFFFFFFFFFFFFFFFFFFFFFFFFFFFFFFFFFFFFFFFFFFFFF DUP3 PUSH2 0x228A JUMP JUMPDEST PUSH2 0x22CF DUP7 DUP4 PUSH2 0x228A JUMP JUMPDEST SWAP6 POP DUP1 NOT DUP5 AND SWAP4 POP DUP1 DUP7 AND DUP5 OR SWAP3 POP POP POP SWAP4 SWAP3 POP POP POP JUMP JUMPDEST PUSH0 DUP2 SWAP1 POP SWAP2 SWAP1 POP JUMP JUMPDEST PUSH0 PUSH2 0x230A PUSH2 0x2305 PUSH2 0x2300 DUP5 PUSH2 0x1C85 JUMP JUMPDEST PUSH2 0x22E7 JUMP JUMPDEST PUSH2 0x1C85 JUMP JUMPDEST SWAP1 POP SWAP2 SWAP1 POP JUMP JUMPDEST PUSH0 DUP2 SWAP1 POP SWAP2 SWAP1 POP JUMP JUMPDEST PUSH2 0x2323 DUP4 PUSH2 0x22F0 JUMP JUMPDEST PUSH2 0x2337 PUSH2 0x232F DUP3 PUSH2 0x2311 JUMP JUMPDEST DUP5 DUP5 SLOAD PUSH2 0x2296 JUMP JUMPDEST DUP3 SSTORE POP POP POP POP JUMP JUMPDEST PUSH0 SWAP1 JUMP JUMPDEST PUSH2 0x234B PUSH2 0x233F JUMP JUMPDEST PUSH2 0x2356 DUP2 DUP5 DUP5 PUSH2 0x231A JUMP JUMPDEST POP POP POP JUMP JUMPDEST JUMPDEST DUP2 DUP2 LT ISZERO PUSH2 0x2379 JUMPI PUSH2 0x236E PUSH0 DUP3 PUSH2 0x2343 JUMP JUMPDEST PUSH1 0x1 DUP2 ADD SWAP1 POP PUSH2 0x235C JUMP JUMPDEST POP POP JUMP JUMPDEST PUSH1 0x1F DUP3 GT ISZERO PUSH2 0x23BE JUMPI PUSH2 0x238F DUP2 PUSH2 0x2269 JUMP JUMPDEST PUSH2 0x2398 DUP5 PUSH2 0x227B JUMP JUMPDEST DUP2 ADD PUSH1 0x20 DUP6 LT ISZERO PUSH2 0x23A7 JUMPI DUP2 SWAP1 POP JUMPDEST PUSH2 0x23BB PUSH2 0x23B3 DUP6 PUSH2 0x227B JUMP JUMPDEST DUP4 ADD DUP3 PUSH2 0x235B JUMP JUMPDEST POP POP JUMPDEST POP POP POP JUMP JUMPDEST PUSH0 DUP3 DUP3 SHR SWAP1 POP SWAP3 SWAP2 POP POP JUMP JUMPDEST PUSH0 PUSH2 0x23DE PUSH0 NOT DUP5 PUSH1 0x8 MUL PUSH2 0x23C3 JUMP JUMPDEST NOT DUP1 DUP4 AND SWAP2 POP POP SWAP3 SWAP2 POP POP JUMP JUMPDEST PUSH0 PUSH2 0x23F6 DUP4 DUP4 PUSH2 0x23CF JUMP JUMPDEST SWAP2 POP DUP3 PUSH1 0x2 MUL DUP3 OR SWAP1 POP SWAP3 SWAP2 POP POP JUMP JUMPDEST PUSH2 0x240F DUP3 PUSH2 0x1BF5 JUMP JUMPDEST PUSH8 0xFFFFFFFFFFFFFFFF DUP2 GT ISZERO PUSH2 0x2428 JUMPI PUSH2 0x2427 PUSH2 0x1DFB JUMP JUMPDEST JUMPDEST PUSH2 0x2432 DUP3 SLOAD PUSH2 0x2204 JUMP JUMPDEST PUSH2 0x243D DUP3 DUP3 DUP6 PUSH2 0x237D JUMP JUMPDEST PUSH0 PUSH1 0x20 SWAP1 POP PUSH1 0x1F DUP4 GT PUSH1 0x1 DUP2 EQ PUSH2 0x246E JUMPI PUSH0 DUP5 ISZERO PUSH2 0x245C JUMPI DUP3 DUP8 ADD MLOAD SWAP1 POP JUMPDEST PUSH2 0x2466 DUP6 DUP3 PUSH2 0x23EB JUMP JUMPDEST DUP7 SSTORE POP PUSH2 0x24CD JUMP JUMPDEST PUSH1 0x1F NOT DUP5 AND PUSH2 0x247C DUP7 PUSH2 0x2269 JUMP JUMPDEST PUSH0 JUMPDEST DUP3 DUP2 LT ISZERO PUSH2 0x24A3 JUMPI DUP5 DUP10 ADD MLOAD DUP3 SSTORE PUSH1 0x1 DUP3 ADD SWAP2 POP PUSH1 0x20 DUP6 ADD SWAP5 POP PUSH1 0x20 DUP2 ADD SWAP1 POP PUSH2 0x247E JUMP JUMPDEST DUP7 DUP4 LT ISZERO PUSH2 0x24C0 JUMPI DUP5 DUP10 ADD MLOAD PUSH2 0x24BC PUSH1 0x1F DUP10 AND DUP3 PUSH2 0x23CF JUMP JUMPDEST DUP4 SSTORE POP JUMPDEST PUSH1 0x1 PUSH1 0x2 DUP9 MUL ADD DUP9 SSTORE POP POP POP JUMPDEST POP POP POP POP POP POP JUMP JUMPDEST PUSH0 DUP2 SWAP1 POP SWAP3 SWAP2 POP POP JUMP JUMPDEST PUSH0 PUSH2 0x24E9 DUP3 PUSH2 0x1BF5 JUMP JUMPDEST PUSH2 0x24F3 DUP2 DUP6 PUSH2 0x24D5 JUMP JUMPDEST SWAP4 POP PUSH2 0x2503 DUP2 DUP6 PUSH1 0x20 DUP7 ADD PUSH2 0x1C0F JUMP JUMPDEST DUP1 DUP5 ADD SWAP2 POP POP SWAP3 SWAP2 POP POP JUMP JUMPDEST PUSH0 PUSH2 0x251A DUP3 DUP6 PUSH2 0x24DF JUMP JUMPDEST SWAP2 POP PUSH2 0x2526 DUP3 DUP5 PUSH2 0x24DF JUMP JUMPDEST SWAP2 POP DUP2 SWAP1 POP SWAP4 SWAP3 POP POP POP JUMP JUMPDEST PUSH32 0x746F6B656E4964206F7574206F662072616E6765000000000000000000000000 PUSH0 DUP3 ADD MSTORE POP JUMP JUMPDEST PUSH0 PUSH2 0x2566 PUSH1 0x14 DUP4 PUSH2 0x1BFF JUMP JUMPDEST SWAP2 POP PUSH2 0x2571 DUP3 PUSH2 0x2532 JUMP JUMPDEST PUSH1 0x20 DUP3 ADD SWAP1 POP SWAP2 SWAP1 POP JUMP JUMPDEST PUSH0 PUSH1 0x20 DUP3 ADD SWAP1 POP DUP2 DUP2 SUB PUSH0 DUP4 ADD MSTORE PUSH2 0x2593 DUP2 PUSH2 0x255A JUMP JUMPDEST SWAP1 POP SWAP2 SWAP1 POP JUMP JUMPDEST PUSH0 DUP2 MLOAD SWAP1 POP SWAP2 SWAP1 POP JUMP JUMPDEST PUSH0 DUP3 DUP3 MSTORE PUSH1 0x20 DUP3 ADD SWAP1 POP SWAP3 SWAP2 POP POP JUMP JUMPDEST PUSH0 PUSH2 0x25BE DUP3 PUSH2 0x259A JUMP JUMPDEST PUSH2 0x25C8 DUP2 DUP6 PUSH2 0x25A4 JUMP JUMPDEST SWAP4 POP PUSH2 0x25D8 DUP2 DUP6 PUSH1 0x20 DUP7 ADD PUSH2 0x1C0F JUMP JUMPDEST PUSH2 0x25E1 DUP2 PUSH2 0x1C1D JUMP JUMPDEST DUP5 ADD SWAP2 POP POP SWAP3 SWAP2 POP POP JUMP JUMPDEST PUSH0 PUSH1 0x80 DUP3 ADD SWAP1 POP PUSH2 0x25FF PUSH0 DUP4 ADD DUP8 PUSH2 0x1D13 JUMP JUMPDEST PUSH2 0x260C PUSH1 0x20 DUP4 ADD DUP7 PUSH2 0x1D13 JUMP JUMPDEST PUSH2 0x2619 PUSH1 0x40 DUP4 ADD DUP6 PUSH2 0x1F91 JUMP JUMPDEST DUP2 DUP2 SUB PUSH1 0x60 DUP4 ADD MSTORE PUSH2 0x262B DUP2 DUP5 PUSH2 0x25B4 JUMP JUMPDEST SWAP1 POP SWAP6 SWAP5 POP POP POP POP POP JUMP JUMPDEST PUSH0 DUP2 MLOAD SWAP1 POP PUSH2 0x2644 DUP2 PUSH2 0x1B6D JUMP JUMPDEST SWAP3 SWAP2 POP POP JUMP JUMPDEST PUSH0 PUSH1 0x20 DUP3 DUP5 SUB SLT ISZERO PUSH2 0x265F JUMPI PUSH2 0x265E PUSH2 0x1B3A JUMP JUMPDEST JUMPDEST PUSH0 PUSH2 0x266C DUP5 DUP3 DUP6 ADD PUSH2 0x2636 JUMP JUMPDEST SWAP2 POP POP SWAP3 SWAP2 POP POP JUMP JUMPDEST PUSH0 PUSH1 0x40 DUP3 ADD SWAP1 POP PUSH2 0x2688 PUSH0 DUP4 ADD DUP6 PUSH2 0x1D13 JUMP JUMPDEST PUSH2 0x2695 PUSH1 0x20 DUP4 ADD DUP5 PUSH2 0x1F91 JUMP JUMPDEST SWAP4 SWAP3 POP POP POP JUMP JUMPDEST PUSH32 0x4E487B7100000000000000000000000000000000000000000000000000000000 PUSH0 MSTORE PUSH1 0x12 PUSH1 0x4 MSTORE PUSH1 0x24 PUSH0 REVERT INVALID LOG2 PUSH5 0x6970667358 0x22 SLT KECCAK256 0xB3 PUSH7 0x50B80A462F3359 SWAP9 PUSH16 0x174DD60C54E1E57587811E069BEF4604 0xE2 0xE5 0xB2 0xC2 NUMBER PUSH5 0x736F6C6343 STOP ADDMOD BYTE STOP CALLER "
				},
				"gasEstimates": {
					"creation": {
						"codeDepositCost": "1996600",
						"executionCost": "infinite",
						"totalCost": "infinite"
					},
					"external": {
						"MAX_APES()": "2447",
						"approve(address,uint256)": "infinite",
						"balanceOf(address)": "infinite",
						"getApproved(uint256)": "infinite",
						"isApprovedForAll(address,address)": "infinite",
						"mint(address,string)": "infinite",
						"name()": "infinite",
						"owner()": "2560",
						"ownerOf(uint256)": "infinite",
						"renounceOwnership()": "infinite",
						"safeTransferFrom(address,address,uint256)": "infinite",
						"safeTransferFrom(address,address,uint256,bytes)": "infinite",
						"setApprovalForAll(address,bool)": "infinite",
						"setBaseURI(string)": "infinite",
						"supportsInterface(bytes4)": "881",
						"symbol()": "infinite",
						"tokenURI(uint256)": "infinite",
						"transferFrom(address,address,uint256)": "infinite",
						"transferOwnership(address)": "infinite"
					},
					"internal": {
						"_baseURI()": "infinite"
					}
				},
				"methodIdentifiers": {
					"MAX_APES()": "bb8a16bd",
					"approve(address,uint256)": "095ea7b3",
					"balanceOf(address)": "70a08231",
					"getApproved(uint256)": "081812fc",
					"isApprovedForAll(address,address)": "e985e9c5",
					"mint(address,string)": "d0def521",
					"name()": "06fdde03",
					"owner()": "8da5cb5b",
					"ownerOf(uint256)": "6352211e",
					"renounceOwnership()": "715018a6",
					"safeTransferFrom(address,address,uint256)": "42842e0e",
					"safeTransferFrom(address,address,uint256,bytes)": "b88d4fde",
					"setApprovalForAll(address,bool)": "a22cb465",
					"setBaseURI(string)": "55f804b3",
					"supportsInterface(bytes4)": "01ffc9a7",
					"symbol()": "95d89b41",
					"tokenURI(uint256)": "c87b56dd",
					"transferFrom(address,address,uint256)": "23b872dd",
					"transferOwnership(address)": "f2fde38b"
				}
			},
			"storageLayout": {
				"storage": [
					{
						"astId": 349,
						"contract": "LouNFT.sol:LouNFT",
						"label": "_name",
						"offset": 0,
						"slot": "0",
						"type": "t_string_storage"
					},
					{
						"astId": 351,
						"contract": "LouNFT.sol:LouNFT",
						"label": "_symbol",
						"offset": 0,
						"slot": "1",
						"type": "t_string_storage"
					},
					{
						"astId": 355,
						"contract": "LouNFT.sol:LouNFT",
						"label": "_owners",
						"offset": 0,
						"slot": "2",
						"type": "t_mapping(t_uint256,t_address)"
					},
					{
						"astId": 359,
						"contract": "LouNFT.sol:LouNFT",
						"label": "_balances",
						"offset": 0,
						"slot": "3",
						"type": "t_mapping(t_address,t_uint256)"
					},
					{
						"astId": 363,
						"contract": "LouNFT.sol:LouNFT",
						"label": "_tokenApprovals",
						"offset": 0,
						"slot": "4",
						"type": "t_mapping(t_uint256,t_address)"
					},
					{
						"astId": 369,
						"contract": "LouNFT.sol:LouNFT",
						"label": "_operatorApprovals",
						"offset": 0,
						"slot": "5",
						"type": "t_mapping(t_address,t_mapping(t_address,t_bool))"
					},
					{
						"astId": 1488,
						"contract": "LouNFT.sol:LouNFT",
						"label": "_tokenURIs",
						"offset": 0,
						"slot": "6",
						"type": "t_mapping(t_uint256,t_string_storage)"
					},
					{
						"astId": 8,
						"contract": "LouNFT.sol:LouNFT",
						"label": "_owner",
						"offset": 0,
						"slot": "7",
						"type": "t_address"
					},
					{
						"astId": 3189,
						"contract": "LouNFT.sol:LouNFT",
						"label": "_nextTokenId",
						"offset": 0,
						"slot": "8",
						"type": "t_struct(Counter)1650_storage"
					},
					{
						"astId": 3191,
						"contract": "LouNFT.sol:LouNFT",
						"label": "_baseTokenURI",
						"offset": 0,
						"slot": "9",
						"type": "t_string_storage"
					},
					{
						"astId": 3194,
						"contract": "LouNFT.sol:LouNFT",
						"label": "MAX_APES",
						"offset": 0,
						"slot": "10",
						"type": "t_uint256"
					}
				],
				"types": {
					"t_address": {
						"encoding": "inplace",
						"label": "address",
						"numberOfBytes": "20"
					},
					"t_bool": {
						"encoding": "inplace",
						"label": "bool",
						"numberOfBytes": "1"
					},
					"t_mapping(t_address,t_bool)": {
						"encoding": "mapping",
						"key": "t_address",
						"label": "mapping(address => bool)",
						"numberOfBytes": "32",
						"value": "t_bool"
					},
					"t_mapping(t_address,t_mapping(t_address,t_bool))": {
						"encoding": "mapping",
						"key": "t_address",
						"label": "mapping(address => mapping(address => bool))",
						"numberOfBytes": "32",
						"value": "t_mapping(t_address,t_bool)"
					},
					"t_mapping(t_address,t_uint256)": {
						"encoding": "mapping",
						"key": "t_address",
						"label": "mapping(address => uint256)",
						"numberOfBytes": "32",
						"value": "t_uint256"
					},
					"t_mapping(t_uint256,t_address)": {
						"encoding": "mapping",
						"key": "t_uint256",
						"label": "mapping(uint256 => address)",
						"numberOfBytes": "32",
						"value": "t_address"
					},
					"t_mapping(t_uint256,t_string_storage)": {
						"encoding": "mapping",
						"key": "t_uint256",
						"label": "mapping(uint256 => string)",
						"numberOfBytes": "32",
						"value": "t_string_storage"
					},
					"t_string_storage": {
						"encoding": "bytes",
						"label": "string",
						"numberOfBytes": "32"
					},
					"t_struct(Counter)1650_storage": {
						"encoding": "inplace",
						"label": "struct Counters.Counter",
						"members": [
							{
								"astId": 1649,
								"contract": "LouNFT.sol:LouNFT",
								"label": "_value",
								"offset": 0,
								"slot": "0",
								"type": "t_uint256"
							}
						],
						"numberOfBytes": "32"
					},
					"t_uint256": {
						"encoding": "inplace",
						"label": "uint256",
						"numberOfBytes": "32"
					}
				}
			},
			"userdoc": {
				"kind": "user",
				"methods": {},
				"version": 1
			}
		}
	}
}