{
	"NFTMarket.sol": {
		"NFTMarket": {
			"abi": [
				{
					"inputs": [
						{
							"internalType": "address",
							"name": "_acceptedToken",
							"type": "address"
						}
					],
					"stateMutability": "nonpayable",
					"type": "constructor"
				},
				{
					"anonymous": false,
					"inputs": [
						{
							"indexed": false,
							"internalType": "address",
							"name": "seller",
							"type": "address"
						},
						{
							"indexed": false,
							"internalType": "address",
							"name": "nftContract",
							"type": "address"
						},
						{
							"indexed": false,
							"internalType": "uint256",
							"name": "tokenId",
							"type": "uint256"
						},
						{
							"indexed": false,
							"internalType": "uint256",
							"name": "price",
							"type": "uint256"
						},
						{
							"indexed": false,
							"internalType": "uint256",
							"name": "listingId",
							"type": "uint256"
						}
					],
					"name": "NFTListed",
					"type": "event"
				},
				{
					"anonymous": false,
					"inputs": [
						{
							"indexed": false,
							"internalType": "address",
							"name": "buyer",
							"type": "address"
						},
						{
							"indexed": false,
							"internalType": "address",
							"name": "nftContract",
							"type": "address"
						},
						{
							"indexed": false,
							"internalType": "uint256",
							"name": "tokenId",
							"type": "uint256"
						},
						{
							"indexed": false,
							"internalType": "uint256",
							"name": "price",
							"type": "uint256"
						},
						{
							"indexed": false,
							"internalType": "uint256",
							"name": "listingId",
							"type": "uint256"
						}
					],
					"name": "NFTPurchased",
					"type": "event"
				},
				{
					"inputs": [],
					"name": "acceptedToken",
					"outputs": [
						{
							"internalType": "contract IERC20",
							"name": "",
							"type": "address"
						}
					],
					"stateMutability": "view",
					"type": "function"
				},
				{
					"inputs": [],
					"name": "getListedCount",
					"outputs": [
						{
							"internalType": "uint256",
							"name": "",
							"type": "uint256"
						}
					],
					"stateMutability": "view",
					"type": "function"
				},
				{
					"inputs": [],
					"name": "getListedItem",
					"outputs": [
						{
							"components": [
								{
									"internalType": "address",
									"name": "seller",
									"type": "address"
								},
								{
									"internalType": "address",
									"name": "nftContract",
									"type": "address"
								},
								{
									"internalType": "uint256",
									"name": "tokenId",
									"type": "uint256"
								},
								{
									"internalType": "uint256",
									"name": "price",
									"type": "uint256"
								},
								{
									"internalType": "bool",
									"name": "isActive",
									"type": "bool"
								}
							],
							"internalType": "struct NFTMarket.Listing[]",
							"name": "",
							"type": "tuple[]"
						}
					],
					"stateMutability": "view",
					"type": "function"
				},
				{
					"inputs": [
						{
							"internalType": "address",
							"name": "nftContract",
							"type": "address"
						},
						{
							"internalType": "uint256",
							"name": "tokenId",
							"type": "uint256"
						},
						{
							"internalType": "uint256",
							"name": "price",
							"type": "uint256"
						}
					],
					"name": "listNFT",
					"outputs": [],
					"stateMutability": "nonpayable",
					"type": "function"
				},
				{
					"inputs": [
						{
							"internalType": "uint256",
							"name": "",
							"type": "uint256"
						}
					],
					"name": "listings",
					"outputs": [
						{
							"internalType": "address",
							"name": "seller",
							"type": "address"
						},
						{
							"internalType": "address",
							"name": "nftContract",
							"type": "address"
						},
						{
							"internalType": "uint256",
							"name": "tokenId",
							"type": "uint256"
						},
						{
							"internalType": "uint256",
							"name": "price",
							"type": "uint256"
						},
						{
							"internalType": "bool",
							"name": "isActive",
							"type": "bool"
						}
					],
					"stateMutability": "view",
					"type": "function"
				},
				{
					"inputs": [
						{
							"internalType": "address",
							"name": "",
							"type": "address"
						},
						{
							"internalType": "address",
							"name": "",
							"type": "address"
						},
						{
							"internalType": "uint256",
							"name": "",
							"type": "uint256"
						},
						{
							"internalType": "bytes",
							"name": "",
							"type": "bytes"
						}
					],
					"name": "onERC721Received",
					"outputs": [
						{
							"internalType": "bytes4",
							"name": "",
							"type": "bytes4"
						}
					],
					"stateMutability": "nonpayable",
					"type": "function"
				},
				{
					"inputs": [
						{
							"internalType": "uint256",
							"name": "listingId",
							"type": "uint256"
						}
					],
					"name": "purchaseNFT",
					"outputs": [],
					"stateMutability": "nonpayable",
					"type": "function"
				}
			],
			"devdoc": {
				"kind": "dev",
				"methods": {
					"onERC721Received(address,address,uint256,bytes)": {
						"details": "See {IERC721Receiver-onERC721Received}. Always returns `IERC721Receiver.onERC721Received.selector`."
					}
				},
				"version": 1
			},
			"evm": {
				"assembly": "    /* \"NFTMarket.sol\":450:3336  contract NFTMarket is ERC721Holder, ReentrancyGuard {... */\n  mstore(0x40, 0x80)\n    /* \"NFTMarket.sol\":1239:1330  constructor(address _acceptedToken) {... */\n  callvalue\n  dup1\n  iszero\n  tag_1\n  jumpi\n  0x00\n  dup1\n  revert\ntag_1:\n  pop\n  mload(0x40)\n  sub(codesize, bytecodeSize)\n  dup1\n  bytecodeSize\n  dup4\n  codecopy\n  dup2\n  dup2\n  add\n  0x40\n  mstore\n  dup2\n  add\n  swap1\n  tag_2\n  swap2\n  swap1\n  tag_3\n  jump\t// in\ntag_2:\n    /* \"@openzeppelin/contracts/security/ReentrancyGuard.sol\":1716:1717  1 */\n  0x01\n    /* \"@openzeppelin/contracts/security/ReentrancyGuard.sol\":1821:1828  _status */\n  0x00\n    /* \"@openzeppelin/contracts/security/ReentrancyGuard.sol\":1821:1843  _status = _NOT_ENTERED */\n  dup2\n  swap1\n  sstore\n  pop\n    /* \"NFTMarket.sol\":1308:1322  _acceptedToken */\n  dup1\n    /* \"NFTMarket.sol\":1285:1298  acceptedToken */\n  0x02\n  0x00\n    /* \"NFTMarket.sol\":1285:1323  acceptedToken = IERC20(_acceptedToken) */\n  0x0100\n  exp\n  dup2\n  sload\n  dup2\n  0xffffffffffffffffffffffffffffffffffffffff\n  mul\n  not\n  and\n  swap1\n  dup4\n  0xffffffffffffffffffffffffffffffffffffffff\n  and\n  mul\n  or\n  swap1\n  sstore\n  pop\n    /* \"NFTMarket.sol\":1239:1330  constructor(address _acceptedToken) {... */\n  pop\n    /* \"NFTMarket.sol\":450:3336  contract NFTMarket is ERC721Holder, ReentrancyGuard {... */\n  jump(tag_8)\n    /* \"#utility.yul\":88:205   */\ntag_10:\n    /* \"#utility.yul\":197:198   */\n  0x00\n    /* \"#utility.yul\":194:195   */\n  dup1\n    /* \"#utility.yul\":187:199   */\n  revert\n    /* \"#utility.yul\":334:460   */\ntag_12:\n    /* \"#utility.yul\":371:378   */\n  0x00\n    /* \"#utility.yul\":411:453   */\n  0xffffffffffffffffffffffffffffffffffffffff\n    /* \"#utility.yul\":404:409   */\n  dup3\n    /* \"#utility.yul\":400:454   */\n  and\n    /* \"#utility.yul\":389:454   */\n  swap1\n  pop\n    /* \"#utility.yul\":334:460   */\n  swap2\n  swap1\n  pop\n  jump\t// out\n    /* \"#utility.yul\":466:562   */\ntag_13:\n    /* \"#utility.yul\":503:510   */\n  0x00\n    /* \"#utility.yul\":532:556   */\n  tag_22\n    /* \"#utility.yul\":550:555   */\n  dup3\n    /* \"#utility.yul\":532:556   */\n  tag_12\n  jump\t// in\ntag_22:\n    /* \"#utility.yul\":521:556   */\n  swap1\n  pop\n    /* \"#utility.yul\":466:562   */\n  swap2\n  swap1\n  pop\n  jump\t// out\n    /* \"#utility.yul\":568:690   */\ntag_14:\n    /* \"#utility.yul\":641:665   */\n  tag_24\n    /* \"#utility.yul\":659:664   */\n  dup2\n    /* \"#utility.yul\":641:665   */\n  tag_13\n  jump\t// in\ntag_24:\n    /* \"#utility.yul\":634:639   */\n  dup2\n    /* \"#utility.yul\":631:666   */\n  eq\n    /* \"#utility.yul\":621:684   */\n  tag_25\n  jumpi\n    /* \"#utility.yul\":680:681   */\n  0x00\n    /* \"#utility.yul\":677:678   */\n  dup1\n    /* \"#utility.yul\":670:682   */\n  revert\n    /* \"#utility.yul\":621:684   */\ntag_25:\n    /* \"#utility.yul\":568:690   */\n  pop\n  jump\t// out\n    /* \"#utility.yul\":696:839   */\ntag_15:\n    /* \"#utility.yul\":753:758   */\n  0x00\n    /* \"#utility.yul\":784:790   */\n  dup2\n    /* \"#utility.yul\":778:791   */\n  mload\n    /* \"#utility.yul\":769:791   */\n  swap1\n  pop\n    /* \"#utility.yul\":800:833   */\n  tag_27\n    /* \"#utility.yul\":827:832   */\n  dup2\n    /* \"#utility.yul\":800:833   */\n  tag_14\n  jump\t// in\ntag_27:\n    /* \"#utility.yul\":696:839   */\n  swap3\n  swap2\n  pop\n  pop\n  jump\t// out\n    /* \"#utility.yul\":845:1196   */\ntag_3:\n    /* \"#utility.yul\":915:921   */\n  0x00\n    /* \"#utility.yul\":964:966   */\n  0x20\n    /* \"#utility.yul\":952:961   */\n  dup3\n    /* \"#utility.yul\":943:950   */\n  dup5\n    /* \"#utility.yul\":939:962   */\n  sub\n    /* \"#utility.yul\":935:967   */\n  slt\n    /* \"#utility.yul\":932:1051   */\n  iszero\n  tag_29\n  jumpi\n    /* \"#utility.yul\":970:1049   */\n  tag_30\n  tag_10\n  jump\t// in\ntag_30:\n    /* \"#utility.yul\":932:1051   */\ntag_29:\n    /* \"#utility.yul\":1090:1091   */\n  0x00\n    /* \"#utility.yul\":1115:1179   */\n  tag_31\n    /* \"#utility.yul\":1171:1178   */\n  dup5\n    /* \"#utility.yul\":1162:1168   */\n  dup3\n    /* \"#utility.yul\":1151:1160   */\n  dup6\n    /* \"#utility.yul\":1147:1169   */\n  add\n    /* \"#utility.yul\":1115:1179   */\n  tag_15\n  jump\t// in\ntag_31:\n    /* \"#utility.yul\":1105:1179   */\n  swap2\n  pop\n    /* \"#utility.yul\":1061:1189   */\n  pop\n    /* \"#utility.yul\":845:1196   */\n  swap3\n  swap2\n  pop\n  pop\n  jump\t// out\n    /* \"NFTMarket.sol\":450:3336  contract NFTMarket is ERC721Holder, ReentrancyGuard {... */\ntag_8:\n  dataSize(sub_0)\n  dup1\n  dataOffset(sub_0)\n  0x00\n  codecopy\n  0x00\n  return\nstop\n\nsub_0: assembly {\n        /* \"NFTMarket.sol\":450:3336  contract NFTMarket is ERC721Holder, ReentrancyGuard {... */\n      mstore(0x40, 0x80)\n      callvalue\n      dup1\n      iszero\n      tag_1\n      jumpi\n      0x00\n      dup1\n      revert\n    tag_1:\n      pop\n      jumpi(tag_2, lt(calldatasize, 0x04))\n      shr(0xe0, calldataload(0x00))\n      dup1\n      0xad05f1b4\n      gt\n      tag_10\n      jumpi\n      dup1\n      0xad05f1b4\n      eq\n      tag_6\n      jumpi\n      dup1\n      0xde74e57b\n      eq\n      tag_7\n      jumpi\n      dup1\n      0xefbbab68\n      eq\n      tag_8\n      jumpi\n      dup1\n      0xf337b21a\n      eq\n      tag_9\n      jumpi\n      jump(tag_2)\n    tag_10:\n      dup1\n      0x150b7a02\n      eq\n      tag_3\n      jumpi\n      dup1\n      0x150bde03\n      eq\n      tag_4\n      jumpi\n      dup1\n      0x451c3d80\n      eq\n      tag_5\n      jumpi\n    tag_2:\n      0x00\n      dup1\n      revert\n        /* \"@openzeppelin/contracts/token/ERC721/utils/ERC721Holder.sol\":639:792  function onERC721Received(address, address, uint256, bytes memory) public virtual returns (bytes4) {... */\n    tag_3:\n      tag_11\n      0x04\n      dup1\n      calldatasize\n      sub\n      dup2\n      add\n      swap1\n      tag_12\n      swap2\n      swap1\n      tag_13\n      jump\t// in\n    tag_12:\n      tag_14\n      jump\t// in\n    tag_11:\n      mload(0x40)\n      tag_15\n      swap2\n      swap1\n      tag_16\n      jump\t// in\n    tag_15:\n      mload(0x40)\n      dup1\n      swap2\n      sub\n      swap1\n      return\n        /* \"NFTMarket.sol\":1969:2807  function purchaseNFT(uint256 listingId) public nonReentrant {... */\n    tag_4:\n      tag_17\n      0x04\n      dup1\n      calldatasize\n      sub\n      dup2\n      add\n      swap1\n      tag_18\n      swap2\n      swap1\n      tag_19\n      jump\t// in\n    tag_18:\n      tag_20\n      jump\t// in\n    tag_17:\n      stop\n        /* \"NFTMarket.sol\":796:823  IERC20 public acceptedToken */\n    tag_5:\n      tag_21\n      tag_22\n      jump\t// in\n    tag_21:\n      mload(0x40)\n      tag_23\n      swap2\n      swap1\n      tag_24\n      jump\t// in\n    tag_23:\n      mload(0x40)\n      dup1\n      swap2\n      sub\n      swap1\n      return\n        /* \"NFTMarket.sol\":1336:1963  function listNFT(... */\n    tag_6:\n      tag_25\n      0x04\n      dup1\n      calldatasize\n      sub\n      dup2\n      add\n      swap1\n      tag_26\n      swap2\n      swap1\n      tag_27\n      jump\t// in\n    tag_26:\n      tag_28\n      jump\t// in\n    tag_25:\n      stop\n        /* \"NFTMarket.sol\":829:872  mapping(uint256 => Listing) public listings */\n    tag_7:\n      tag_29\n      0x04\n      dup1\n      calldatasize\n      sub\n      dup2\n      add\n      swap1\n      tag_30\n      swap2\n      swap1\n      tag_19\n      jump\t// in\n    tag_30:\n      tag_31\n      jump\t// in\n    tag_29:\n      mload(0x40)\n      tag_32\n      swap6\n      swap5\n      swap4\n      swap3\n      swap2\n      swap1\n      tag_33\n      jump\t// in\n    tag_32:\n      mload(0x40)\n      dup1\n      swap2\n      sub\n      swap1\n      return\n        /* \"NFTMarket.sol\":2850:2957  function getListedCount() public view returns (uint256) {... */\n    tag_8:\n      tag_34\n      tag_35\n      jump\t// in\n    tag_34:\n      mload(0x40)\n      tag_36\n      swap2\n      swap1\n      tag_37\n      jump\t// in\n    tag_36:\n      mload(0x40)\n      dup1\n      swap2\n      sub\n      swap1\n      return\n        /* \"NFTMarket.sol\":2963:3334  function getListedItem() public view returns (Listing[] memory) {... */\n    tag_9:\n      tag_38\n      tag_39\n      jump\t// in\n    tag_38:\n      mload(0x40)\n      tag_40\n      swap2\n      swap1\n      tag_41\n      jump\t// in\n    tag_40:\n      mload(0x40)\n      dup1\n      swap2\n      sub\n      swap1\n      return\n        /* \"@openzeppelin/contracts/token/ERC721/utils/ERC721Holder.sol\":639:792  function onERC721Received(address, address, uint256, bytes memory) public virtual returns (bytes4) {... */\n    tag_14:\n        /* \"@openzeppelin/contracts/token/ERC721/utils/ERC721Holder.sol\":730:736  bytes4 */\n      0x00\n        /* \"@openzeppelin/contracts/token/ERC721/utils/ERC721Holder.sol\":755:785  this.onERC721Received.selector */\n      shl(0xe0, 0x150b7a02)\n        /* \"@openzeppelin/contracts/token/ERC721/utils/ERC721Holder.sol\":748:785  return this.onERC721Received.selector */\n      swap1\n      pop\n        /* \"@openzeppelin/contracts/token/ERC721/utils/ERC721Holder.sol\":639:792  function onERC721Received(address, address, uint256, bytes memory) public virtual returns (bytes4) {... */\n      swap5\n      swap4\n      pop\n      pop\n      pop\n      pop\n      jump\t// out\n        /* \"NFTMarket.sol\":1969:2807  function purchaseNFT(uint256 listingId) public nonReentrant {... */\n    tag_20:\n        /* \"@openzeppelin/contracts/security/ReentrancyGuard.sol\":2261:2282  _nonReentrantBefore() */\n      tag_44\n        /* \"@openzeppelin/contracts/security/ReentrancyGuard.sol\":2261:2280  _nonReentrantBefore */\n      tag_45\n        /* \"@openzeppelin/contracts/security/ReentrancyGuard.sol\":2261:2282  _nonReentrantBefore() */\n      jump\t// in\n    tag_44:\n        /* \"NFTMarket.sol\":2039:2062  Listing storage listing */\n      0x00\n        /* \"NFTMarket.sol\":2065:2073  listings */\n      0x03\n        /* \"NFTMarket.sol\":2065:2084  listings[listingId] */\n      0x00\n        /* \"NFTMarket.sol\":2074:2083  listingId */\n      dup4\n        /* \"NFTMarket.sol\":2065:2084  listings[listingId] */\n      dup2\n      mstore\n      0x20\n      add\n      swap1\n      dup2\n      mstore\n      0x20\n      add\n      0x00\n      keccak256\n        /* \"NFTMarket.sol\":2039:2084  Listing storage listing = listings[listingId] */\n      swap1\n      pop\n        /* \"NFTMarket.sol\":2102:2109  listing */\n      dup1\n        /* \"NFTMarket.sol\":2102:2118  listing.isActive */\n      0x04\n      add\n      0x00\n      swap1\n      sload\n      swap1\n      0x0100\n      exp\n      swap1\n      div\n      0xff\n      and\n        /* \"NFTMarket.sol\":2094:2141  require(listing.isActive, \"item is not listed\") */\n      tag_47\n      jumpi\n      mload(0x40)\n      0x08c379a000000000000000000000000000000000000000000000000000000000\n      dup2\n      mstore\n      0x04\n      add\n      tag_48\n      swap1\n      tag_49\n      jump\t// in\n    tag_48:\n      mload(0x40)\n      dup1\n      swap2\n      sub\n      swap1\n      revert\n    tag_47:\n        /* \"NFTMarket.sol\":2274:2287  acceptedToken */\n      0x02\n      0x00\n      swap1\n      sload\n      swap1\n      0x0100\n      exp\n      swap1\n      div\n      0xffffffffffffffffffffffffffffffffffffffff\n      and\n        /* \"NFTMarket.sol\":2274:2300  acceptedToken.transferFrom */\n      0xffffffffffffffffffffffffffffffffffffffff\n      and\n      0x23b872dd\n        /* \"NFTMarket.sol\":2318:2328  msg.sender */\n      caller\n        /* \"NFTMarket.sol\":2346:2353  listing */\n      dup4\n        /* \"NFTMarket.sol\":2346:2360  listing.seller */\n      0x00\n      add\n      0x00\n      swap1\n      sload\n      swap1\n      0x0100\n      exp\n      swap1\n      div\n      0xffffffffffffffffffffffffffffffffffffffff\n      and\n        /* \"NFTMarket.sol\":2378:2385  listing */\n      dup5\n        /* \"NFTMarket.sol\":2378:2391  listing.price */\n      0x03\n      add\n      sload\n        /* \"NFTMarket.sol\":2274:2405  acceptedToken.transferFrom(... */\n      mload(0x40)\n      dup5\n      0xffffffff\n      and\n      0xe0\n      shl\n      dup2\n      mstore\n      0x04\n      add\n      tag_50\n      swap4\n      swap3\n      swap2\n      swap1\n      tag_51\n      jump\t// in\n    tag_50:\n      0x20\n      mload(0x40)\n      dup1\n      dup4\n      sub\n      dup2\n      0x00\n      dup8\n      gas\n      call\n      iszero\n      dup1\n      iszero\n      tag_53\n      jumpi\n      returndatasize\n      0x00\n      dup1\n      returndatacopy\n      revert(0x00, returndatasize)\n    tag_53:\n      pop\n      pop\n      pop\n      pop\n      mload(0x40)\n      returndatasize\n      not(0x1f)\n      0x1f\n      dup3\n      add\n      and\n      dup3\n      add\n      dup1\n      0x40\n      mstore\n      pop\n      dup2\n      add\n      swap1\n      tag_54\n      swap2\n      swap1\n      tag_55\n      jump\t// in\n    tag_54:\n        /* \"NFTMarket.sol\":2253:2445  require(... */\n      tag_56\n      jumpi\n      mload(0x40)\n      0x08c379a000000000000000000000000000000000000000000000000000000000\n      dup2\n      mstore\n      0x04\n      add\n      tag_57\n      swap1\n      tag_58\n      jump\t// in\n    tag_57:\n      mload(0x40)\n      dup1\n      swap2\n      sub\n      swap1\n      revert\n    tag_56:\n        /* \"NFTMarket.sol\":2464:2471  listing */\n      dup1\n        /* \"NFTMarket.sol\":2464:2483  listing.nftContract */\n      0x01\n      add\n      0x00\n      swap1\n      sload\n      swap1\n      0x0100\n      exp\n      swap1\n      div\n      0xffffffffffffffffffffffffffffffffffffffff\n      and\n        /* \"NFTMarket.sol\":2456:2501  IERC721(listing.nftContract).safeTransferFrom */\n      0xffffffffffffffffffffffffffffffffffffffff\n      and\n      0x42842e0e\n        /* \"NFTMarket.sol\":2523:2527  this */\n      address\n        /* \"NFTMarket.sol\":2542:2552  msg.sender */\n      caller\n        /* \"NFTMarket.sol\":2566:2573  listing */\n      dup5\n        /* \"NFTMarket.sol\":2566:2581  listing.tokenId */\n      0x02\n      add\n      sload\n        /* \"NFTMarket.sol\":2456:2591  IERC721(listing.nftContract).safeTransferFrom(... */\n      mload(0x40)\n      dup5\n      0xffffffff\n      and\n      0xe0\n      shl\n      dup2\n      mstore\n      0x04\n      add\n      tag_59\n      swap4\n      swap3\n      swap2\n      swap1\n      tag_51\n      jump\t// in\n    tag_59:\n      0x00\n      mload(0x40)\n      dup1\n      dup4\n      sub\n      dup2\n      0x00\n      dup8\n      dup1\n      extcodesize\n      iszero\n      dup1\n      iszero\n      tag_60\n      jumpi\n      0x00\n      dup1\n      revert\n    tag_60:\n      pop\n      gas\n      call\n      iszero\n      dup1\n      iszero\n      tag_62\n      jumpi\n      returndatasize\n      0x00\n      dup1\n      returndatacopy\n      revert(0x00, returndatasize)\n    tag_62:\n      pop\n      pop\n      pop\n      pop\n        /* \"NFTMarket.sol\":2621:2626  false */\n      0x00\n        /* \"NFTMarket.sol\":2602:2609  listing */\n      dup2\n        /* \"NFTMarket.sol\":2602:2618  listing.isActive */\n      0x04\n      add\n      0x00\n        /* \"NFTMarket.sol\":2602:2626  listing.isActive = false */\n      0x0100\n      exp\n      dup2\n      sload\n      dup2\n      0xff\n      mul\n      not\n      and\n      swap1\n      dup4\n      iszero\n      iszero\n      mul\n      or\n      swap1\n      sstore\n      pop\n        /* \"NFTMarket.sol\":2642:2800  NFTPurchased(... */\n      0x5e30839b97c387668ed51dfcb165ba2ba51d4419c8bed70caab08cbb2f330695\n        /* \"NFTMarket.sol\":2668:2678  msg.sender */\n      caller\n        /* \"NFTMarket.sol\":2692:2699  listing */\n      dup3\n        /* \"NFTMarket.sol\":2692:2711  listing.nftContract */\n      0x01\n      add\n      0x00\n      swap1\n      sload\n      swap1\n      0x0100\n      exp\n      swap1\n      div\n      0xffffffffffffffffffffffffffffffffffffffff\n      and\n        /* \"NFTMarket.sol\":2725:2732  listing */\n      dup4\n        /* \"NFTMarket.sol\":2725:2740  listing.tokenId */\n      0x02\n      add\n      sload\n        /* \"NFTMarket.sol\":2754:2761  listing */\n      dup5\n        /* \"NFTMarket.sol\":2754:2767  listing.price */\n      0x03\n      add\n      sload\n        /* \"NFTMarket.sol\":2781:2790  listingId */\n      dup7\n        /* \"NFTMarket.sol\":2642:2800  NFTPurchased(... */\n      mload(0x40)\n      tag_63\n      swap6\n      swap5\n      swap4\n      swap3\n      swap2\n      swap1\n      tag_64\n      jump\t// in\n    tag_63:\n      mload(0x40)\n      dup1\n      swap2\n      sub\n      swap1\n      log1\n        /* \"NFTMarket.sol\":2029:2807  {... */\n      pop\n        /* \"@openzeppelin/contracts/security/ReentrancyGuard.sol\":2303:2323  _nonReentrantAfter() */\n      tag_65\n        /* \"@openzeppelin/contracts/security/ReentrancyGuard.sol\":2303:2321  _nonReentrantAfter */\n      tag_66\n        /* \"@openzeppelin/contracts/security/ReentrancyGuard.sol\":2303:2323  _nonReentrantAfter() */\n      jump\t// in\n    tag_65:\n        /* \"NFTMarket.sol\":1969:2807  function purchaseNFT(uint256 listingId) public nonReentrant {... */\n      pop\n      jump\t// out\n        /* \"NFTMarket.sol\":796:823  IERC20 public acceptedToken */\n    tag_22:\n      0x02\n      0x00\n      swap1\n      sload\n      swap1\n      0x0100\n      exp\n      swap1\n      div\n      0xffffffffffffffffffffffffffffffffffffffff\n      and\n      dup2\n      jump\t// out\n        /* \"NFTMarket.sol\":1336:1963  function listNFT(... */\n    tag_28:\n        /* \"NFTMarket.sol\":1453:1470  uint256 listingId */\n      0x00\n        /* \"NFTMarket.sol\":1473:1500  _listingIdCounter.current() */\n      tag_68\n        /* \"NFTMarket.sol\":1473:1490  _listingIdCounter */\n      0x01\n        /* \"NFTMarket.sol\":1473:1498  _listingIdCounter.current */\n      tag_69\n        /* \"NFTMarket.sol\":1473:1500  _listingIdCounter.current() */\n      jump\t// in\n    tag_68:\n        /* \"NFTMarket.sol\":1453:1500  uint256 listingId = _listingIdCounter.current() */\n      swap1\n      pop\n        /* \"NFTMarket.sol\":1510:1539  _listingIdCounter.increment() */\n      tag_70\n        /* \"NFTMarket.sol\":1510:1527  _listingIdCounter */\n      0x01\n        /* \"NFTMarket.sol\":1510:1537  _listingIdCounter.increment */\n      tag_71\n        /* \"NFTMarket.sol\":1510:1539  _listingIdCounter.increment() */\n      jump\t// in\n    tag_70:\n        /* \"NFTMarket.sol\":1612:1623  nftContract */\n      dup4\n        /* \"NFTMarket.sol\":1604:1637  IERC721(nftContract).transferFrom */\n      0xffffffffffffffffffffffffffffffffffffffff\n      and\n      0x23b872dd\n        /* \"NFTMarket.sol\":1638:1648  msg.sender */\n      caller\n        /* \"NFTMarket.sol\":1658:1662  this */\n      address\n        /* \"NFTMarket.sol\":1665:1672  tokenId */\n      dup7\n        /* \"NFTMarket.sol\":1604:1673  IERC721(nftContract).transferFrom(msg.sender, address(this), tokenId) */\n      mload(0x40)\n      dup5\n      0xffffffff\n      and\n      0xe0\n      shl\n      dup2\n      mstore\n      0x04\n      add\n      tag_72\n      swap4\n      swap3\n      swap2\n      swap1\n      tag_51\n      jump\t// in\n    tag_72:\n      0x00\n      mload(0x40)\n      dup1\n      dup4\n      sub\n      dup2\n      0x00\n      dup8\n      dup1\n      extcodesize\n      iszero\n      dup1\n      iszero\n      tag_73\n      jumpi\n      0x00\n      dup1\n      revert\n    tag_73:\n      pop\n      gas\n      call\n      iszero\n      dup1\n      iszero\n      tag_75\n      jumpi\n      returndatasize\n      0x00\n      dup1\n      returndatacopy\n      revert(0x00, returndatasize)\n    tag_75:\n      pop\n      pop\n      pop\n      pop\n        /* \"NFTMarket.sol\":1706:1879  Listing({... */\n      mload(0x40)\n      dup1\n      0xa0\n      add\n      0x40\n      mstore\n      dup1\n        /* \"NFTMarket.sol\":1736:1746  msg.sender */\n      caller\n        /* \"NFTMarket.sol\":1706:1879  Listing({... */\n      0xffffffffffffffffffffffffffffffffffffffff\n      and\n      dup2\n      mstore\n      0x20\n      add\n        /* \"NFTMarket.sol\":1773:1784  nftContract */\n      dup6\n        /* \"NFTMarket.sol\":1706:1879  Listing({... */\n      0xffffffffffffffffffffffffffffffffffffffff\n      and\n      dup2\n      mstore\n      0x20\n      add\n        /* \"NFTMarket.sol\":1807:1814  tokenId */\n      dup5\n        /* \"NFTMarket.sol\":1706:1879  Listing({... */\n      dup2\n      mstore\n      0x20\n      add\n        /* \"NFTMarket.sol\":1835:1840  price */\n      dup4\n        /* \"NFTMarket.sol\":1706:1879  Listing({... */\n      dup2\n      mstore\n      0x20\n      add\n        /* \"NFTMarket.sol\":1864:1868  true */\n      0x01\n        /* \"NFTMarket.sol\":1706:1879  Listing({... */\n      iszero\n      iszero\n      dup2\n      mstore\n      pop\n        /* \"NFTMarket.sol\":1684:1692  listings */\n      0x03\n        /* \"NFTMarket.sol\":1684:1703  listings[listingId] */\n      0x00\n        /* \"NFTMarket.sol\":1693:1702  listingId */\n      dup4\n        /* \"NFTMarket.sol\":1684:1703  listings[listingId] */\n      dup2\n      mstore\n      0x20\n      add\n      swap1\n      dup2\n      mstore\n      0x20\n      add\n      0x00\n      keccak256\n        /* \"NFTMarket.sol\":1684:1879  listings[listingId] = Listing({... */\n      0x00\n      dup3\n      add\n      mload\n      dup2\n      0x00\n      add\n      exp(0x0100, 0x00)\n      dup2\n      sload\n      dup2\n      0xffffffffffffffffffffffffffffffffffffffff\n      mul\n      not\n      and\n      swap1\n      dup4\n      0xffffffffffffffffffffffffffffffffffffffff\n      and\n      mul\n      or\n      swap1\n      sstore\n      pop\n      0x20\n      dup3\n      add\n      mload\n      dup2\n      0x01\n      add\n      exp(0x0100, 0x00)\n      dup2\n      sload\n      dup2\n      0xffffffffffffffffffffffffffffffffffffffff\n      mul\n      not\n      and\n      swap1\n      dup4\n      0xffffffffffffffffffffffffffffffffffffffff\n      and\n      mul\n      or\n      swap1\n      sstore\n      pop\n      0x40\n      dup3\n      add\n      mload\n      dup2\n      0x02\n      add\n      sstore\n      0x60\n      dup3\n      add\n      mload\n      dup2\n      0x03\n      add\n      sstore\n      0x80\n      dup3\n      add\n      mload\n      dup2\n      0x04\n      add\n      exp(0x0100, 0x00)\n      dup2\n      sload\n      dup2\n      0xff\n      mul\n      not\n      and\n      swap1\n      dup4\n      iszero\n      iszero\n      mul\n      or\n      swap1\n      sstore\n      pop\n      swap1\n      pop\n      pop\n        /* \"NFTMarket.sol\":1895:1956  NFTListed(msg.sender, nftContract, tokenId, price, listingId) */\n      0x68eb44e4f5811045b1dff635024aa6dffafa88a68571f2b6f85cd2adb0799040\n        /* \"NFTMarket.sol\":1905:1915  msg.sender */\n      caller\n        /* \"NFTMarket.sol\":1917:1928  nftContract */\n      dup6\n        /* \"NFTMarket.sol\":1930:1937  tokenId */\n      dup6\n        /* \"NFTMarket.sol\":1939:1944  price */\n      dup6\n        /* \"NFTMarket.sol\":1946:1955  listingId */\n      dup6\n        /* \"NFTMarket.sol\":1895:1956  NFTListed(msg.sender, nftContract, tokenId, price, listingId) */\n      mload(0x40)\n      tag_76\n      swap6\n      swap5\n      swap4\n      swap3\n      swap2\n      swap1\n      tag_64\n      jump\t// in\n    tag_76:\n      mload(0x40)\n      dup1\n      swap2\n      sub\n      swap1\n      log1\n        /* \"NFTMarket.sol\":1443:1963  {... */\n      pop\n        /* \"NFTMarket.sol\":1336:1963  function listNFT(... */\n      pop\n      pop\n      pop\n      jump\t// out\n        /* \"NFTMarket.sol\":829:872  mapping(uint256 => Listing) public listings */\n    tag_31:\n      mstore(0x20, 0x03)\n      dup1\n      0x00\n      mstore\n      keccak256(0x00, 0x40)\n      0x00\n      swap2\n      pop\n      swap1\n      pop\n      dup1\n      0x00\n      add\n      0x00\n      swap1\n      sload\n      swap1\n      0x0100\n      exp\n      swap1\n      div\n      0xffffffffffffffffffffffffffffffffffffffff\n      and\n      swap1\n      dup1\n      0x01\n      add\n      0x00\n      swap1\n      sload\n      swap1\n      0x0100\n      exp\n      swap1\n      div\n      0xffffffffffffffffffffffffffffffffffffffff\n      and\n      swap1\n      dup1\n      0x02\n      add\n      sload\n      swap1\n      dup1\n      0x03\n      add\n      sload\n      swap1\n      dup1\n      0x04\n      add\n      0x00\n      swap1\n      sload\n      swap1\n      0x0100\n      exp\n      swap1\n      div\n      0xff\n      and\n      swap1\n      pop\n      dup6\n      jump\t// out\n        /* \"NFTMarket.sol\":2850:2957  function getListedCount() public view returns (uint256) {... */\n    tag_35:\n        /* \"NFTMarket.sol\":2897:2904  uint256 */\n      0x00\n        /* \"NFTMarket.sol\":2923:2950  _listingIdCounter.current() */\n      tag_78\n        /* \"NFTMarket.sol\":2923:2940  _listingIdCounter */\n      0x01\n        /* \"NFTMarket.sol\":2923:2948  _listingIdCounter.current */\n      tag_69\n        /* \"NFTMarket.sol\":2923:2950  _listingIdCounter.current() */\n      jump\t// in\n    tag_78:\n        /* \"NFTMarket.sol\":2916:2950  return _listingIdCounter.current() */\n      swap1\n      pop\n        /* \"NFTMarket.sol\":2850:2957  function getListedCount() public view returns (uint256) {... */\n      swap1\n      jump\t// out\n        /* \"NFTMarket.sol\":2963:3334  function getListedItem() public view returns (Listing[] memory) {... */\n    tag_39:\n        /* \"NFTMarket.sol\":3009:3025  Listing[] memory */\n      0x60\n        /* \"NFTMarket.sol\":3037:3054  uint256 itemCount */\n      0x00\n        /* \"NFTMarket.sol\":3057:3084  _listingIdCounter.current() */\n      tag_80\n        /* \"NFTMarket.sol\":3057:3074  _listingIdCounter */\n      0x01\n        /* \"NFTMarket.sol\":3057:3082  _listingIdCounter.current */\n      tag_69\n        /* \"NFTMarket.sol\":3057:3084  _listingIdCounter.current() */\n      jump\t// in\n    tag_80:\n        /* \"NFTMarket.sol\":3037:3084  uint256 itemCount = _listingIdCounter.current() */\n      swap1\n      pop\n        /* \"NFTMarket.sol\":3114:3115  0 */\n      0x00\n        /* \"NFTMarket.sol\":3102:3111  itemCount */\n      dup2\n        /* \"NFTMarket.sol\":3102:3115  itemCount > 0 */\n      gt\n        /* \"NFTMarket.sol\":3094:3133  require(itemCount > 0, \"No NFT listed\") */\n      tag_81\n      jumpi\n      mload(0x40)\n      0x08c379a000000000000000000000000000000000000000000000000000000000\n      dup2\n      mstore\n      0x04\n      add\n      tag_82\n      swap1\n      tag_83\n      jump\t// in\n    tag_82:\n      mload(0x40)\n      dup1\n      swap2\n      sub\n      swap1\n      revert\n    tag_81:\n        /* \"NFTMarket.sol\":3144:3171  Listing[] memory newListing */\n      0x00\n        /* \"NFTMarket.sol\":3188:3197  itemCount */\n      dup2\n        /* \"NFTMarket.sol\":3174:3198  new Listing[](itemCount) */\n      0xffffffffffffffff\n      dup2\n      gt\n      iszero\n      tag_84\n      jumpi\n      tag_85\n      tag_86\n      jump\t// in\n    tag_85:\n    tag_84:\n      mload(0x40)\n      swap1\n      dup1\n      dup3\n      mstore\n      dup1\n      0x20\n      mul\n      0x20\n      add\n      dup3\n      add\n      0x40\n      mstore\n      dup1\n      iszero\n      tag_87\n      jumpi\n      dup2\n      0x20\n      add\n    tag_88:\n      tag_89\n      tag_90\n      jump\t// in\n    tag_89:\n      dup2\n      mstore\n      0x20\n      add\n      swap1\n      0x01\n      swap1\n      sub\n      swap1\n      dup2\n      tag_88\n      jumpi\n      swap1\n      pop\n    tag_87:\n      pop\n        /* \"NFTMarket.sol\":3144:3198  Listing[] memory newListing = new Listing[](itemCount) */\n      swap1\n      pop\n        /* \"NFTMarket.sol\":3214:3223  uint256 i */\n      0x00\n        /* \"NFTMarket.sol\":3209:3301  for (uint256 i = 0; i < itemCount; i++) {... */\n    tag_91:\n        /* \"NFTMarket.sol\":3233:3242  itemCount */\n      dup3\n        /* \"NFTMarket.sol\":3229:3230  i */\n      dup2\n        /* \"NFTMarket.sol\":3229:3242  i < itemCount */\n      lt\n        /* \"NFTMarket.sol\":3209:3301  for (uint256 i = 0; i < itemCount; i++) {... */\n      iszero\n      tag_92\n      jumpi\n        /* \"NFTMarket.sol\":3279:3287  listings */\n      0x03\n        /* \"NFTMarket.sol\":3279:3290  listings[i] */\n      0x00\n        /* \"NFTMarket.sol\":3288:3289  i */\n      dup3\n        /* \"NFTMarket.sol\":3279:3290  listings[i] */\n      dup2\n      mstore\n      0x20\n      add\n      swap1\n      dup2\n      mstore\n      0x20\n      add\n      0x00\n      keccak256\n        /* \"NFTMarket.sol\":3263:3290  newListing[i] = listings[i] */\n      mload(0x40)\n      dup1\n      0xa0\n      add\n      0x40\n      mstore\n      swap1\n      dup2\n      0x00\n      dup3\n      add\n      0x00\n      swap1\n      sload\n      swap1\n      0x0100\n      exp\n      swap1\n      div\n      0xffffffffffffffffffffffffffffffffffffffff\n      and\n      0xffffffffffffffffffffffffffffffffffffffff\n      and\n      0xffffffffffffffffffffffffffffffffffffffff\n      and\n      dup2\n      mstore\n      0x20\n      add\n      0x01\n      dup3\n      add\n      0x00\n      swap1\n      sload\n      swap1\n      0x0100\n      exp\n      swap1\n      div\n      0xffffffffffffffffffffffffffffffffffffffff\n      and\n      0xffffffffffffffffffffffffffffffffffffffff\n      and\n      0xffffffffffffffffffffffffffffffffffffffff\n      and\n      dup2\n      mstore\n      0x20\n      add\n      0x02\n      dup3\n      add\n      sload\n      dup2\n      mstore\n      0x20\n      add\n      0x03\n      dup3\n      add\n      sload\n      dup2\n      mstore\n      0x20\n      add\n      0x04\n      dup3\n      add\n      0x00\n      swap1\n      sload\n      swap1\n      0x0100\n      exp\n      swap1\n      div\n      0xff\n      and\n      iszero\n      iszero\n      iszero\n      iszero\n      dup2\n      mstore\n      pop\n      pop\n        /* \"NFTMarket.sol\":3263:3273  newListing */\n      dup3\n        /* \"NFTMarket.sol\":3274:3275  i */\n      dup3\n        /* \"NFTMarket.sol\":3263:3276  newListing[i] */\n      dup2\n      mload\n      dup2\n      lt\n      tag_94\n      jumpi\n      tag_95\n      tag_96\n      jump\t// in\n    tag_95:\n    tag_94:\n      0x20\n      mul\n      0x20\n      add\n      add\n        /* \"NFTMarket.sol\":3263:3290  newListing[i] = listings[i] */\n      dup2\n      swap1\n      mstore\n      pop\n        /* \"NFTMarket.sol\":3244:3247  i++ */\n      dup1\n      dup1\n      0x01\n      add\n      swap2\n      pop\n      pop\n        /* \"NFTMarket.sol\":3209:3301  for (uint256 i = 0; i < itemCount; i++) {... */\n      jump(tag_91)\n    tag_92:\n      pop\n        /* \"NFTMarket.sol\":3317:3327  newListing */\n      dup1\n        /* \"NFTMarket.sol\":3310:3327  return newListing */\n      swap3\n      pop\n      pop\n      pop\n        /* \"NFTMarket.sol\":2963:3334  function getListedItem() public view returns (Listing[] memory) {... */\n      swap1\n      jump\t// out\n        /* \"@openzeppelin/contracts/security/ReentrancyGuard.sol\":2336:2623  function _nonReentrantBefore() private {... */\n    tag_45:\n        /* \"@openzeppelin/contracts/security/ReentrancyGuard.sol\":1759:1760  2 */\n      0x02\n        /* \"@openzeppelin/contracts/security/ReentrancyGuard.sol\":2468:2475  _status */\n      sload(0x00)\n        /* \"@openzeppelin/contracts/security/ReentrancyGuard.sol\":2468:2487  _status != _ENTERED */\n      sub\n        /* \"@openzeppelin/contracts/security/ReentrancyGuard.sol\":2460:2523  require(_status != _ENTERED, \"ReentrancyGuard: reentrant call\") */\n      tag_98\n      jumpi\n      mload(0x40)\n      0x08c379a000000000000000000000000000000000000000000000000000000000\n      dup2\n      mstore\n      0x04\n      add\n      tag_99\n      swap1\n      tag_100\n      jump\t// in\n    tag_99:\n      mload(0x40)\n      dup1\n      swap2\n      sub\n      swap1\n      revert\n    tag_98:\n        /* \"@openzeppelin/contracts/security/ReentrancyGuard.sol\":1759:1760  2 */\n      0x02\n        /* \"@openzeppelin/contracts/security/ReentrancyGuard.sol\":2598:2605  _status */\n      0x00\n        /* \"@openzeppelin/contracts/security/ReentrancyGuard.sol\":2598:2616  _status = _ENTERED */\n      dup2\n      swap1\n      sstore\n      pop\n        /* \"@openzeppelin/contracts/security/ReentrancyGuard.sol\":2336:2623  function _nonReentrantBefore() private {... */\n      jump\t// out\n        /* \"@openzeppelin/contracts/security/ReentrancyGuard.sol\":2629:2838  function _nonReentrantAfter() private {... */\n    tag_66:\n        /* \"@openzeppelin/contracts/security/ReentrancyGuard.sol\":1716:1717  1 */\n      0x01\n        /* \"@openzeppelin/contracts/security/ReentrancyGuard.sol\":2809:2816  _status */\n      0x00\n        /* \"@openzeppelin/contracts/security/ReentrancyGuard.sol\":2809:2831  _status = _NOT_ENTERED */\n      dup2\n      swap1\n      sstore\n      pop\n        /* \"@openzeppelin/contracts/security/ReentrancyGuard.sol\":2629:2838  function _nonReentrantAfter() private {... */\n      jump\t// out\n        /* \"@openzeppelin/contracts/utils/Counters.sol\":827:939  function current(Counter storage counter) internal view returns (uint256) {... */\n    tag_69:\n        /* \"@openzeppelin/contracts/utils/Counters.sol\":892:899  uint256 */\n      0x00\n        /* \"@openzeppelin/contracts/utils/Counters.sol\":918:925  counter */\n      dup2\n        /* \"@openzeppelin/contracts/utils/Counters.sol\":918:932  counter._value */\n      0x00\n      add\n      sload\n        /* \"@openzeppelin/contracts/utils/Counters.sol\":911:932  return counter._value */\n      swap1\n      pop\n        /* \"@openzeppelin/contracts/utils/Counters.sol\":827:939  function current(Counter storage counter) internal view returns (uint256) {... */\n      swap2\n      swap1\n      pop\n      jump\t// out\n        /* \"@openzeppelin/contracts/utils/Counters.sol\":945:1068  function increment(Counter storage counter) internal {... */\n    tag_71:\n        /* \"@openzeppelin/contracts/utils/Counters.sol\":1050:1051  1 */\n      0x01\n        /* \"@openzeppelin/contracts/utils/Counters.sol\":1032:1039  counter */\n      dup2\n        /* \"@openzeppelin/contracts/utils/Counters.sol\":1032:1046  counter._value */\n      0x00\n      add\n      0x00\n        /* \"@openzeppelin/contracts/utils/Counters.sol\":1032:1051  counter._value += 1 */\n      dup3\n      dup3\n      sload\n      add\n      swap3\n      pop\n      pop\n      dup2\n      swap1\n      sstore\n      pop\n        /* \"@openzeppelin/contracts/utils/Counters.sol\":945:1068  function increment(Counter storage counter) internal {... */\n      pop\n      jump\t// out\n    tag_90:\n      mload(0x40)\n      dup1\n      0xa0\n      add\n      0x40\n      mstore\n      dup1\n      and(0xffffffffffffffffffffffffffffffffffffffff, 0x00)\n      dup2\n      mstore\n      0x20\n      add\n      and(0xffffffffffffffffffffffffffffffffffffffff, 0x00)\n      dup2\n      mstore\n      0x20\n      add\n      0x00\n      dup2\n      mstore\n      0x20\n      add\n      0x00\n      dup2\n      mstore\n      0x20\n      add\n      iszero(iszero(0x00))\n      dup2\n      mstore\n      pop\n      swap1\n      jump\t// out\n        /* \"#utility.yul\":7:82   */\n    tag_104:\n        /* \"#utility.yul\":40:46   */\n      0x00\n        /* \"#utility.yul\":73:75   */\n      0x40\n        /* \"#utility.yul\":67:76   */\n      mload\n        /* \"#utility.yul\":57:76   */\n      swap1\n      pop\n        /* \"#utility.yul\":7:82   */\n      swap1\n      jump\t// out\n        /* \"#utility.yul\":88:205   */\n    tag_105:\n        /* \"#utility.yul\":197:198   */\n      0x00\n        /* \"#utility.yul\":194:195   */\n      dup1\n        /* \"#utility.yul\":187:199   */\n      revert\n        /* \"#utility.yul\":211:328   */\n    tag_106:\n        /* \"#utility.yul\":320:321   */\n      0x00\n        /* \"#utility.yul\":317:318   */\n      dup1\n        /* \"#utility.yul\":310:322   */\n      revert\n        /* \"#utility.yul\":334:460   */\n    tag_107:\n        /* \"#utility.yul\":371:378   */\n      0x00\n        /* \"#utility.yul\":411:453   */\n      0xffffffffffffffffffffffffffffffffffffffff\n        /* \"#utility.yul\":404:409   */\n      dup3\n        /* \"#utility.yul\":400:454   */\n      and\n        /* \"#utility.yul\":389:454   */\n      swap1\n      pop\n        /* \"#utility.yul\":334:460   */\n      swap2\n      swap1\n      pop\n      jump\t// out\n        /* \"#utility.yul\":466:562   */\n    tag_108:\n        /* \"#utility.yul\":503:510   */\n      0x00\n        /* \"#utility.yul\":532:556   */\n      tag_161\n        /* \"#utility.yul\":550:555   */\n      dup3\n        /* \"#utility.yul\":532:556   */\n      tag_107\n      jump\t// in\n    tag_161:\n        /* \"#utility.yul\":521:556   */\n      swap1\n      pop\n        /* \"#utility.yul\":466:562   */\n      swap2\n      swap1\n      pop\n      jump\t// out\n        /* \"#utility.yul\":568:690   */\n    tag_109:\n        /* \"#utility.yul\":641:665   */\n      tag_163\n        /* \"#utility.yul\":659:664   */\n      dup2\n        /* \"#utility.yul\":641:665   */\n      tag_108\n      jump\t// in\n    tag_163:\n        /* \"#utility.yul\":634:639   */\n      dup2\n        /* \"#utility.yul\":631:666   */\n      eq\n        /* \"#utility.yul\":621:684   */\n      tag_164\n      jumpi\n        /* \"#utility.yul\":680:681   */\n      0x00\n        /* \"#utility.yul\":677:678   */\n      dup1\n        /* \"#utility.yul\":670:682   */\n      revert\n        /* \"#utility.yul\":621:684   */\n    tag_164:\n        /* \"#utility.yul\":568:690   */\n      pop\n      jump\t// out\n        /* \"#utility.yul\":696:835   */\n    tag_110:\n        /* \"#utility.yul\":742:747   */\n      0x00\n        /* \"#utility.yul\":780:786   */\n      dup2\n        /* \"#utility.yul\":767:787   */\n      calldataload\n        /* \"#utility.yul\":758:787   */\n      swap1\n      pop\n        /* \"#utility.yul\":796:829   */\n      tag_166\n        /* \"#utility.yul\":823:828   */\n      dup2\n        /* \"#utility.yul\":796:829   */\n      tag_109\n      jump\t// in\n    tag_166:\n        /* \"#utility.yul\":696:835   */\n      swap3\n      swap2\n      pop\n      pop\n      jump\t// out\n        /* \"#utility.yul\":841:918   */\n    tag_111:\n        /* \"#utility.yul\":878:885   */\n      0x00\n        /* \"#utility.yul\":907:912   */\n      dup2\n        /* \"#utility.yul\":896:912   */\n      swap1\n      pop\n        /* \"#utility.yul\":841:918   */\n      swap2\n      swap1\n      pop\n      jump\t// out\n        /* \"#utility.yul\":924:1046   */\n    tag_112:\n        /* \"#utility.yul\":997:1021   */\n      tag_169\n        /* \"#utility.yul\":1015:1020   */\n      dup2\n        /* \"#utility.yul\":997:1021   */\n      tag_111\n      jump\t// in\n    tag_169:\n        /* \"#utility.yul\":990:995   */\n      dup2\n        /* \"#utility.yul\":987:1022   */\n      eq\n        /* \"#utility.yul\":977:1040   */\n      tag_170\n      jumpi\n        /* \"#utility.yul\":1036:1037   */\n      0x00\n        /* \"#utility.yul\":1033:1034   */\n      dup1\n        /* \"#utility.yul\":1026:1038   */\n      revert\n        /* \"#utility.yul\":977:1040   */\n    tag_170:\n        /* \"#utility.yul\":924:1046   */\n      pop\n      jump\t// out\n        /* \"#utility.yul\":1052:1191   */\n    tag_113:\n        /* \"#utility.yul\":1098:1103   */\n      0x00\n        /* \"#utility.yul\":1136:1142   */\n      dup2\n        /* \"#utility.yul\":1123:1143   */\n      calldataload\n        /* \"#utility.yul\":1114:1143   */\n      swap1\n      pop\n        /* \"#utility.yul\":1152:1185   */\n      tag_172\n        /* \"#utility.yul\":1179:1184   */\n      dup2\n        /* \"#utility.yul\":1152:1185   */\n      tag_112\n      jump\t// in\n    tag_172:\n        /* \"#utility.yul\":1052:1191   */\n      swap3\n      swap2\n      pop\n      pop\n      jump\t// out\n        /* \"#utility.yul\":1197:1314   */\n    tag_114:\n        /* \"#utility.yul\":1306:1307   */\n      0x00\n        /* \"#utility.yul\":1303:1304   */\n      dup1\n        /* \"#utility.yul\":1296:1308   */\n      revert\n        /* \"#utility.yul\":1320:1437   */\n    tag_115:\n        /* \"#utility.yul\":1429:1430   */\n      0x00\n        /* \"#utility.yul\":1426:1427   */\n      dup1\n        /* \"#utility.yul\":1419:1431   */\n      revert\n        /* \"#utility.yul\":1443:1545   */\n    tag_116:\n        /* \"#utility.yul\":1484:1490   */\n      0x00\n        /* \"#utility.yul\":1535:1537   */\n      0x1f\n        /* \"#utility.yul\":1531:1538   */\n      not\n        /* \"#utility.yul\":1526:1528   */\n      0x1f\n        /* \"#utility.yul\":1519:1524   */\n      dup4\n        /* \"#utility.yul\":1515:1529   */\n      add\n        /* \"#utility.yul\":1511:1539   */\n      and\n        /* \"#utility.yul\":1501:1539   */\n      swap1\n      pop\n        /* \"#utility.yul\":1443:1545   */\n      swap2\n      swap1\n      pop\n      jump\t// out\n        /* \"#utility.yul\":1551:1731   */\n    tag_86:\n        /* \"#utility.yul\":1599:1676   */\n      0x4e487b7100000000000000000000000000000000000000000000000000000000\n        /* \"#utility.yul\":1596:1597   */\n      0x00\n        /* \"#utility.yul\":1589:1677   */\n      mstore\n        /* \"#utility.yul\":1696:1700   */\n      0x41\n        /* \"#utility.yul\":1693:1694   */\n      0x04\n        /* \"#utility.yul\":1686:1701   */\n      mstore\n        /* \"#utility.yul\":1720:1724   */\n      0x24\n        /* \"#utility.yul\":1717:1718   */\n      0x00\n        /* \"#utility.yul\":1710:1725   */\n      revert\n        /* \"#utility.yul\":1737:2018   */\n    tag_117:\n        /* \"#utility.yul\":1820:1847   */\n      tag_178\n        /* \"#utility.yul\":1842:1846   */\n      dup3\n        /* \"#utility.yul\":1820:1847   */\n      tag_116\n      jump\t// in\n    tag_178:\n        /* \"#utility.yul\":1812:1818   */\n      dup2\n        /* \"#utility.yul\":1808:1848   */\n      add\n        /* \"#utility.yul\":1950:1956   */\n      dup2\n        /* \"#utility.yul\":1938:1948   */\n      dup2\n        /* \"#utility.yul\":1935:1957   */\n      lt\n        /* \"#utility.yul\":1914:1932   */\n      0xffffffffffffffff\n        /* \"#utility.yul\":1902:1912   */\n      dup3\n        /* \"#utility.yul\":1899:1933   */\n      gt\n        /* \"#utility.yul\":1896:1958   */\n      or\n        /* \"#utility.yul\":1893:1981   */\n      iszero\n      tag_179\n      jumpi\n        /* \"#utility.yul\":1961:1979   */\n      tag_180\n      tag_86\n      jump\t// in\n    tag_180:\n        /* \"#utility.yul\":1893:1981   */\n    tag_179:\n        /* \"#utility.yul\":2001:2011   */\n      dup1\n        /* \"#utility.yul\":1997:1999   */\n      0x40\n        /* \"#utility.yul\":1990:2012   */\n      mstore\n        /* \"#utility.yul\":1780:2018   */\n      pop\n        /* \"#utility.yul\":1737:2018   */\n      pop\n      pop\n      jump\t// out\n        /* \"#utility.yul\":2024:2153   */\n    tag_118:\n        /* \"#utility.yul\":2058:2064   */\n      0x00\n        /* \"#utility.yul\":2085:2105   */\n      tag_182\n      tag_104\n      jump\t// in\n    tag_182:\n        /* \"#utility.yul\":2075:2105   */\n      swap1\n      pop\n        /* \"#utility.yul\":2114:2147   */\n      tag_183\n        /* \"#utility.yul\":2142:2146   */\n      dup3\n        /* \"#utility.yul\":2134:2140   */\n      dup3\n        /* \"#utility.yul\":2114:2147   */\n      tag_117\n      jump\t// in\n    tag_183:\n        /* \"#utility.yul\":2024:2153   */\n      swap2\n      swap1\n      pop\n      jump\t// out\n        /* \"#utility.yul\":2159:2466   */\n    tag_119:\n        /* \"#utility.yul\":2220:2224   */\n      0x00\n        /* \"#utility.yul\":2310:2328   */\n      0xffffffffffffffff\n        /* \"#utility.yul\":2302:2308   */\n      dup3\n        /* \"#utility.yul\":2299:2329   */\n      gt\n        /* \"#utility.yul\":2296:2352   */\n      iszero\n      tag_185\n      jumpi\n        /* \"#utility.yul\":2332:2350   */\n      tag_186\n      tag_86\n      jump\t// in\n    tag_186:\n        /* \"#utility.yul\":2296:2352   */\n    tag_185:\n        /* \"#utility.yul\":2370:2399   */\n      tag_187\n        /* \"#utility.yul\":2392:2398   */\n      dup3\n        /* \"#utility.yul\":2370:2399   */\n      tag_116\n      jump\t// in\n    tag_187:\n        /* \"#utility.yul\":2362:2399   */\n      swap1\n      pop\n        /* \"#utility.yul\":2454:2458   */\n      0x20\n        /* \"#utility.yul\":2448:2452   */\n      dup2\n        /* \"#utility.yul\":2444:2459   */\n      add\n        /* \"#utility.yul\":2436:2459   */\n      swap1\n      pop\n        /* \"#utility.yul\":2159:2466   */\n      swap2\n      swap1\n      pop\n      jump\t// out\n        /* \"#utility.yul\":2472:2620   */\n    tag_120:\n        /* \"#utility.yul\":2570:2576   */\n      dup3\n        /* \"#utility.yul\":2565:2568   */\n      dup2\n        /* \"#utility.yul\":2560:2563   */\n      dup4\n        /* \"#utility.yul\":2547:2577   */\n      calldatacopy\n        /* \"#utility.yul\":2611:2612   */\n      0x00\n        /* \"#utility.yul\":2602:2608   */\n      dup4\n        /* \"#utility.yul\":2597:2600   */\n      dup4\n        /* \"#utility.yul\":2593:2609   */\n      add\n        /* \"#utility.yul\":2586:2613   */\n      mstore\n        /* \"#utility.yul\":2472:2620   */\n      pop\n      pop\n      pop\n      jump\t// out\n        /* \"#utility.yul\":2626:3049   */\n    tag_121:\n        /* \"#utility.yul\":2703:2708   */\n      0x00\n        /* \"#utility.yul\":2728:2793   */\n      tag_190\n        /* \"#utility.yul\":2744:2792   */\n      tag_191\n        /* \"#utility.yul\":2785:2791   */\n      dup5\n        /* \"#utility.yul\":2744:2792   */\n      tag_119\n      jump\t// in\n    tag_191:\n        /* \"#utility.yul\":2728:2793   */\n      tag_118\n      jump\t// in\n    tag_190:\n        /* \"#utility.yul\":2719:2793   */\n      swap1\n      pop\n        /* \"#utility.yul\":2816:2822   */\n      dup3\n        /* \"#utility.yul\":2809:2814   */\n      dup2\n        /* \"#utility.yul\":2802:2823   */\n      mstore\n        /* \"#utility.yul\":2854:2858   */\n      0x20\n        /* \"#utility.yul\":2847:2852   */\n      dup2\n        /* \"#utility.yul\":2843:2859   */\n      add\n        /* \"#utility.yul\":2892:2895   */\n      dup5\n        /* \"#utility.yul\":2883:2889   */\n      dup5\n        /* \"#utility.yul\":2878:2881   */\n      dup5\n        /* \"#utility.yul\":2874:2890   */\n      add\n        /* \"#utility.yul\":2871:2896   */\n      gt\n        /* \"#utility.yul\":2868:2980   */\n      iszero\n      tag_192\n      jumpi\n        /* \"#utility.yul\":2899:2978   */\n      tag_193\n      tag_115\n      jump\t// in\n    tag_193:\n        /* \"#utility.yul\":2868:2980   */\n    tag_192:\n        /* \"#utility.yul\":2989:3043   */\n      tag_194\n        /* \"#utility.yul\":3036:3042   */\n      dup5\n        /* \"#utility.yul\":3031:3034   */\n      dup3\n        /* \"#utility.yul\":3026:3029   */\n      dup6\n        /* \"#utility.yul\":2989:3043   */\n      tag_120\n      jump\t// in\n    tag_194:\n        /* \"#utility.yul\":2709:3049   */\n      pop\n        /* \"#utility.yul\":2626:3049   */\n      swap4\n      swap3\n      pop\n      pop\n      pop\n      jump\t// out\n        /* \"#utility.yul\":3068:3406   */\n    tag_122:\n        /* \"#utility.yul\":3123:3128   */\n      0x00\n        /* \"#utility.yul\":3172:3175   */\n      dup3\n        /* \"#utility.yul\":3165:3169   */\n      0x1f\n        /* \"#utility.yul\":3157:3163   */\n      dup4\n        /* \"#utility.yul\":3153:3170   */\n      add\n        /* \"#utility.yul\":3149:3176   */\n      slt\n        /* \"#utility.yul\":3139:3261   */\n      tag_196\n      jumpi\n        /* \"#utility.yul\":3180:3259   */\n      tag_197\n      tag_114\n      jump\t// in\n    tag_197:\n        /* \"#utility.yul\":3139:3261   */\n    tag_196:\n        /* \"#utility.yul\":3297:3303   */\n      dup2\n        /* \"#utility.yul\":3284:3304   */\n      calldataload\n        /* \"#utility.yul\":3322:3400   */\n      tag_198\n        /* \"#utility.yul\":3396:3399   */\n      dup5\n        /* \"#utility.yul\":3388:3394   */\n      dup3\n        /* \"#utility.yul\":3381:3385   */\n      0x20\n        /* \"#utility.yul\":3373:3379   */\n      dup7\n        /* \"#utility.yul\":3369:3386   */\n      add\n        /* \"#utility.yul\":3322:3400   */\n      tag_121\n      jump\t// in\n    tag_198:\n        /* \"#utility.yul\":3313:3400   */\n      swap2\n      pop\n        /* \"#utility.yul\":3129:3406   */\n      pop\n        /* \"#utility.yul\":3068:3406   */\n      swap3\n      swap2\n      pop\n      pop\n      jump\t// out\n        /* \"#utility.yul\":3412:4355   */\n    tag_13:\n        /* \"#utility.yul\":3507:3513   */\n      0x00\n        /* \"#utility.yul\":3515:3521   */\n      dup1\n        /* \"#utility.yul\":3523:3529   */\n      0x00\n        /* \"#utility.yul\":3531:3537   */\n      dup1\n        /* \"#utility.yul\":3580:3583   */\n      0x80\n        /* \"#utility.yul\":3568:3577   */\n      dup6\n        /* \"#utility.yul\":3559:3566   */\n      dup8\n        /* \"#utility.yul\":3555:3578   */\n      sub\n        /* \"#utility.yul\":3551:3584   */\n      slt\n        /* \"#utility.yul\":3548:3668   */\n      iszero\n      tag_200\n      jumpi\n        /* \"#utility.yul\":3587:3666   */\n      tag_201\n      tag_105\n      jump\t// in\n    tag_201:\n        /* \"#utility.yul\":3548:3668   */\n    tag_200:\n        /* \"#utility.yul\":3707:3708   */\n      0x00\n        /* \"#utility.yul\":3732:3785   */\n      tag_202\n        /* \"#utility.yul\":3777:3784   */\n      dup8\n        /* \"#utility.yul\":3768:3774   */\n      dup3\n        /* \"#utility.yul\":3757:3766   */\n      dup9\n        /* \"#utility.yul\":3753:3775   */\n      add\n        /* \"#utility.yul\":3732:3785   */\n      tag_110\n      jump\t// in\n    tag_202:\n        /* \"#utility.yul\":3722:3785   */\n      swap5\n      pop\n        /* \"#utility.yul\":3678:3795   */\n      pop\n        /* \"#utility.yul\":3834:3836   */\n      0x20\n        /* \"#utility.yul\":3860:3913   */\n      tag_203\n        /* \"#utility.yul\":3905:3912   */\n      dup8\n        /* \"#utility.yul\":3896:3902   */\n      dup3\n        /* \"#utility.yul\":3885:3894   */\n      dup9\n        /* \"#utility.yul\":3881:3903   */\n      add\n        /* \"#utility.yul\":3860:3913   */\n      tag_110\n      jump\t// in\n    tag_203:\n        /* \"#utility.yul\":3850:3913   */\n      swap4\n      pop\n        /* \"#utility.yul\":3805:3923   */\n      pop\n        /* \"#utility.yul\":3962:3964   */\n      0x40\n        /* \"#utility.yul\":3988:4041   */\n      tag_204\n        /* \"#utility.yul\":4033:4040   */\n      dup8\n        /* \"#utility.yul\":4024:4030   */\n      dup3\n        /* \"#utility.yul\":4013:4022   */\n      dup9\n        /* \"#utility.yul\":4009:4031   */\n      add\n        /* \"#utility.yul\":3988:4041   */\n      tag_113\n      jump\t// in\n    tag_204:\n        /* \"#utility.yul\":3978:4041   */\n      swap3\n      pop\n        /* \"#utility.yul\":3933:4051   */\n      pop\n        /* \"#utility.yul\":4118:4120   */\n      0x60\n        /* \"#utility.yul\":4107:4116   */\n      dup6\n        /* \"#utility.yul\":4103:4121   */\n      add\n        /* \"#utility.yul\":4090:4122   */\n      calldataload\n        /* \"#utility.yul\":4149:4167   */\n      0xffffffffffffffff\n        /* \"#utility.yul\":4141:4147   */\n      dup2\n        /* \"#utility.yul\":4138:4168   */\n      gt\n        /* \"#utility.yul\":4135:4252   */\n      iszero\n      tag_205\n      jumpi\n        /* \"#utility.yul\":4171:4250   */\n      tag_206\n      tag_106\n      jump\t// in\n    tag_206:\n        /* \"#utility.yul\":4135:4252   */\n    tag_205:\n        /* \"#utility.yul\":4276:4338   */\n      tag_207\n        /* \"#utility.yul\":4330:4337   */\n      dup8\n        /* \"#utility.yul\":4321:4327   */\n      dup3\n        /* \"#utility.yul\":4310:4319   */\n      dup9\n        /* \"#utility.yul\":4306:4328   */\n      add\n        /* \"#utility.yul\":4276:4338   */\n      tag_122\n      jump\t// in\n    tag_207:\n        /* \"#utility.yul\":4266:4338   */\n      swap2\n      pop\n        /* \"#utility.yul\":4061:4348   */\n      pop\n        /* \"#utility.yul\":3412:4355   */\n      swap3\n      swap6\n      swap2\n      swap5\n      pop\n      swap3\n      pop\n      jump\t// out\n        /* \"#utility.yul\":4361:4510   */\n    tag_123:\n        /* \"#utility.yul\":4397:4404   */\n      0x00\n        /* \"#utility.yul\":4437:4503   */\n      0xffffffff00000000000000000000000000000000000000000000000000000000\n        /* \"#utility.yul\":4430:4435   */\n      dup3\n        /* \"#utility.yul\":4426:4504   */\n      and\n        /* \"#utility.yul\":4415:4504   */\n      swap1\n      pop\n        /* \"#utility.yul\":4361:4510   */\n      swap2\n      swap1\n      pop\n      jump\t// out\n        /* \"#utility.yul\":4516:4631   */\n    tag_124:\n        /* \"#utility.yul\":4601:4624   */\n      tag_210\n        /* \"#utility.yul\":4618:4623   */\n      dup2\n        /* \"#utility.yul\":4601:4624   */\n      tag_123\n      jump\t// in\n    tag_210:\n        /* \"#utility.yul\":4596:4599   */\n      dup3\n        /* \"#utility.yul\":4589:4625   */\n      mstore\n        /* \"#utility.yul\":4516:4631   */\n      pop\n      pop\n      jump\t// out\n        /* \"#utility.yul\":4637:4855   */\n    tag_16:\n        /* \"#utility.yul\":4728:4732   */\n      0x00\n        /* \"#utility.yul\":4766:4768   */\n      0x20\n        /* \"#utility.yul\":4755:4764   */\n      dup3\n        /* \"#utility.yul\":4751:4769   */\n      add\n        /* \"#utility.yul\":4743:4769   */\n      swap1\n      pop\n        /* \"#utility.yul\":4779:4848   */\n      tag_212\n        /* \"#utility.yul\":4845:4846   */\n      0x00\n        /* \"#utility.yul\":4834:4843   */\n      dup4\n        /* \"#utility.yul\":4830:4847   */\n      add\n        /* \"#utility.yul\":4821:4827   */\n      dup5\n        /* \"#utility.yul\":4779:4848   */\n      tag_124\n      jump\t// in\n    tag_212:\n        /* \"#utility.yul\":4637:4855   */\n      swap3\n      swap2\n      pop\n      pop\n      jump\t// out\n        /* \"#utility.yul\":4861:5190   */\n    tag_19:\n        /* \"#utility.yul\":4920:4926   */\n      0x00\n        /* \"#utility.yul\":4969:4971   */\n      0x20\n        /* \"#utility.yul\":4957:4966   */\n      dup3\n        /* \"#utility.yul\":4948:4955   */\n      dup5\n        /* \"#utility.yul\":4944:4967   */\n      sub\n        /* \"#utility.yul\":4940:4972   */\n      slt\n        /* \"#utility.yul\":4937:5056   */\n      iszero\n      tag_214\n      jumpi\n        /* \"#utility.yul\":4975:5054   */\n      tag_215\n      tag_105\n      jump\t// in\n    tag_215:\n        /* \"#utility.yul\":4937:5056   */\n    tag_214:\n        /* \"#utility.yul\":5095:5096   */\n      0x00\n        /* \"#utility.yul\":5120:5173   */\n      tag_216\n        /* \"#utility.yul\":5165:5172   */\n      dup5\n        /* \"#utility.yul\":5156:5162   */\n      dup3\n        /* \"#utility.yul\":5145:5154   */\n      dup6\n        /* \"#utility.yul\":5141:5163   */\n      add\n        /* \"#utility.yul\":5120:5173   */\n      tag_113\n      jump\t// in\n    tag_216:\n        /* \"#utility.yul\":5110:5173   */\n      swap2\n      pop\n        /* \"#utility.yul\":5066:5183   */\n      pop\n        /* \"#utility.yul\":4861:5190   */\n      swap3\n      swap2\n      pop\n      pop\n      jump\t// out\n        /* \"#utility.yul\":5196:5256   */\n    tag_125:\n        /* \"#utility.yul\":5224:5227   */\n      0x00\n        /* \"#utility.yul\":5245:5250   */\n      dup2\n        /* \"#utility.yul\":5238:5250   */\n      swap1\n      pop\n        /* \"#utility.yul\":5196:5256   */\n      swap2\n      swap1\n      pop\n      jump\t// out\n        /* \"#utility.yul\":5262:5404   */\n    tag_126:\n        /* \"#utility.yul\":5312:5321   */\n      0x00\n        /* \"#utility.yul\":5345:5398   */\n      tag_219\n        /* \"#utility.yul\":5363:5397   */\n      tag_220\n        /* \"#utility.yul\":5372:5396   */\n      tag_221\n        /* \"#utility.yul\":5390:5395   */\n      dup5\n        /* \"#utility.yul\":5372:5396   */\n      tag_107\n      jump\t// in\n    tag_221:\n        /* \"#utility.yul\":5363:5397   */\n      tag_125\n      jump\t// in\n    tag_220:\n        /* \"#utility.yul\":5345:5398   */\n      tag_107\n      jump\t// in\n    tag_219:\n        /* \"#utility.yul\":5332:5398   */\n      swap1\n      pop\n        /* \"#utility.yul\":5262:5404   */\n      swap2\n      swap1\n      pop\n      jump\t// out\n        /* \"#utility.yul\":5410:5536   */\n    tag_127:\n        /* \"#utility.yul\":5460:5469   */\n      0x00\n        /* \"#utility.yul\":5493:5530   */\n      tag_223\n        /* \"#utility.yul\":5524:5529   */\n      dup3\n        /* \"#utility.yul\":5493:5530   */\n      tag_126\n      jump\t// in\n    tag_223:\n        /* \"#utility.yul\":5480:5530   */\n      swap1\n      pop\n        /* \"#utility.yul\":5410:5536   */\n      swap2\n      swap1\n      pop\n      jump\t// out\n        /* \"#utility.yul\":5542:5682   */\n    tag_128:\n        /* \"#utility.yul\":5606:5615   */\n      0x00\n        /* \"#utility.yul\":5639:5676   */\n      tag_225\n        /* \"#utility.yul\":5670:5675   */\n      dup3\n        /* \"#utility.yul\":5639:5676   */\n      tag_127\n      jump\t// in\n    tag_225:\n        /* \"#utility.yul\":5626:5676   */\n      swap1\n      pop\n        /* \"#utility.yul\":5542:5682   */\n      swap2\n      swap1\n      pop\n      jump\t// out\n        /* \"#utility.yul\":5688:5847   */\n    tag_129:\n        /* \"#utility.yul\":5789:5840   */\n      tag_227\n        /* \"#utility.yul\":5834:5839   */\n      dup2\n        /* \"#utility.yul\":5789:5840   */\n      tag_128\n      jump\t// in\n    tag_227:\n        /* \"#utility.yul\":5784:5787   */\n      dup3\n        /* \"#utility.yul\":5777:5841   */\n      mstore\n        /* \"#utility.yul\":5688:5847   */\n      pop\n      pop\n      jump\t// out\n        /* \"#utility.yul\":5853:6103   */\n    tag_24:\n        /* \"#utility.yul\":5960:5964   */\n      0x00\n        /* \"#utility.yul\":5998:6000   */\n      0x20\n        /* \"#utility.yul\":5987:5996   */\n      dup3\n        /* \"#utility.yul\":5983:6001   */\n      add\n        /* \"#utility.yul\":5975:6001   */\n      swap1\n      pop\n        /* \"#utility.yul\":6011:6096   */\n      tag_229\n        /* \"#utility.yul\":6093:6094   */\n      0x00\n        /* \"#utility.yul\":6082:6091   */\n      dup4\n        /* \"#utility.yul\":6078:6095   */\n      add\n        /* \"#utility.yul\":6069:6075   */\n      dup5\n        /* \"#utility.yul\":6011:6096   */\n      tag_129\n      jump\t// in\n    tag_229:\n        /* \"#utility.yul\":5853:6103   */\n      swap3\n      swap2\n      pop\n      pop\n      jump\t// out\n        /* \"#utility.yul\":6109:6728   */\n    tag_27:\n        /* \"#utility.yul\":6186:6192   */\n      0x00\n        /* \"#utility.yul\":6194:6200   */\n      dup1\n        /* \"#utility.yul\":6202:6208   */\n      0x00\n        /* \"#utility.yul\":6251:6253   */\n      0x60\n        /* \"#utility.yul\":6239:6248   */\n      dup5\n        /* \"#utility.yul\":6230:6237   */\n      dup7\n        /* \"#utility.yul\":6226:6249   */\n      sub\n        /* \"#utility.yul\":6222:6254   */\n      slt\n        /* \"#utility.yul\":6219:6338   */\n      iszero\n      tag_231\n      jumpi\n        /* \"#utility.yul\":6257:6336   */\n      tag_232\n      tag_105\n      jump\t// in\n    tag_232:\n        /* \"#utility.yul\":6219:6338   */\n    tag_231:\n        /* \"#utility.yul\":6377:6378   */\n      0x00\n        /* \"#utility.yul\":6402:6455   */\n      tag_233\n        /* \"#utility.yul\":6447:6454   */\n      dup7\n        /* \"#utility.yul\":6438:6444   */\n      dup3\n        /* \"#utility.yul\":6427:6436   */\n      dup8\n        /* \"#utility.yul\":6423:6445   */\n      add\n        /* \"#utility.yul\":6402:6455   */\n      tag_110\n      jump\t// in\n    tag_233:\n        /* \"#utility.yul\":6392:6455   */\n      swap4\n      pop\n        /* \"#utility.yul\":6348:6465   */\n      pop\n        /* \"#utility.yul\":6504:6506   */\n      0x20\n        /* \"#utility.yul\":6530:6583   */\n      tag_234\n        /* \"#utility.yul\":6575:6582   */\n      dup7\n        /* \"#utility.yul\":6566:6572   */\n      dup3\n        /* \"#utility.yul\":6555:6564   */\n      dup8\n        /* \"#utility.yul\":6551:6573   */\n      add\n        /* \"#utility.yul\":6530:6583   */\n      tag_113\n      jump\t// in\n    tag_234:\n        /* \"#utility.yul\":6520:6583   */\n      swap3\n      pop\n        /* \"#utility.yul\":6475:6593   */\n      pop\n        /* \"#utility.yul\":6632:6634   */\n      0x40\n        /* \"#utility.yul\":6658:6711   */\n      tag_235\n        /* \"#utility.yul\":6703:6710   */\n      dup7\n        /* \"#utility.yul\":6694:6700   */\n      dup3\n        /* \"#utility.yul\":6683:6692   */\n      dup8\n        /* \"#utility.yul\":6679:6701   */\n      add\n        /* \"#utility.yul\":6658:6711   */\n      tag_113\n      jump\t// in\n    tag_235:\n        /* \"#utility.yul\":6648:6711   */\n      swap2\n      pop\n        /* \"#utility.yul\":6603:6721   */\n      pop\n        /* \"#utility.yul\":6109:6728   */\n      swap3\n      pop\n      swap3\n      pop\n      swap3\n      jump\t// out\n        /* \"#utility.yul\":6734:6852   */\n    tag_130:\n        /* \"#utility.yul\":6821:6845   */\n      tag_237\n        /* \"#utility.yul\":6839:6844   */\n      dup2\n        /* \"#utility.yul\":6821:6845   */\n      tag_108\n      jump\t// in\n    tag_237:\n        /* \"#utility.yul\":6816:6819   */\n      dup3\n        /* \"#utility.yul\":6809:6846   */\n      mstore\n        /* \"#utility.yul\":6734:6852   */\n      pop\n      pop\n      jump\t// out\n        /* \"#utility.yul\":6858:6976   */\n    tag_131:\n        /* \"#utility.yul\":6945:6969   */\n      tag_239\n        /* \"#utility.yul\":6963:6968   */\n      dup2\n        /* \"#utility.yul\":6945:6969   */\n      tag_111\n      jump\t// in\n    tag_239:\n        /* \"#utility.yul\":6940:6943   */\n      dup3\n        /* \"#utility.yul\":6933:6970   */\n      mstore\n        /* \"#utility.yul\":6858:6976   */\n      pop\n      pop\n      jump\t// out\n        /* \"#utility.yul\":6982:7072   */\n    tag_132:\n        /* \"#utility.yul\":7016:7023   */\n      0x00\n        /* \"#utility.yul\":7059:7064   */\n      dup2\n        /* \"#utility.yul\":7052:7065   */\n      iszero\n        /* \"#utility.yul\":7045:7066   */\n      iszero\n        /* \"#utility.yul\":7034:7066   */\n      swap1\n      pop\n        /* \"#utility.yul\":6982:7072   */\n      swap2\n      swap1\n      pop\n      jump\t// out\n        /* \"#utility.yul\":7078:7187   */\n    tag_133:\n        /* \"#utility.yul\":7159:7180   */\n      tag_242\n        /* \"#utility.yul\":7174:7179   */\n      dup2\n        /* \"#utility.yul\":7159:7180   */\n      tag_132\n      jump\t// in\n    tag_242:\n        /* \"#utility.yul\":7154:7157   */\n      dup3\n        /* \"#utility.yul\":7147:7181   */\n      mstore\n        /* \"#utility.yul\":7078:7187   */\n      pop\n      pop\n      jump\t// out\n        /* \"#utility.yul\":7193:7845   */\n    tag_33:\n        /* \"#utility.yul\":7392:7396   */\n      0x00\n        /* \"#utility.yul\":7430:7433   */\n      0xa0\n        /* \"#utility.yul\":7419:7428   */\n      dup3\n        /* \"#utility.yul\":7415:7434   */\n      add\n        /* \"#utility.yul\":7407:7434   */\n      swap1\n      pop\n        /* \"#utility.yul\":7444:7515   */\n      tag_244\n        /* \"#utility.yul\":7512:7513   */\n      0x00\n        /* \"#utility.yul\":7501:7510   */\n      dup4\n        /* \"#utility.yul\":7497:7514   */\n      add\n        /* \"#utility.yul\":7488:7494   */\n      dup9\n        /* \"#utility.yul\":7444:7515   */\n      tag_130\n      jump\t// in\n    tag_244:\n        /* \"#utility.yul\":7525:7597   */\n      tag_245\n        /* \"#utility.yul\":7593:7595   */\n      0x20\n        /* \"#utility.yul\":7582:7591   */\n      dup4\n        /* \"#utility.yul\":7578:7596   */\n      add\n        /* \"#utility.yul\":7569:7575   */\n      dup8\n        /* \"#utility.yul\":7525:7597   */\n      tag_130\n      jump\t// in\n    tag_245:\n        /* \"#utility.yul\":7607:7679   */\n      tag_246\n        /* \"#utility.yul\":7675:7677   */\n      0x40\n        /* \"#utility.yul\":7664:7673   */\n      dup4\n        /* \"#utility.yul\":7660:7678   */\n      add\n        /* \"#utility.yul\":7651:7657   */\n      dup7\n        /* \"#utility.yul\":7607:7679   */\n      tag_131\n      jump\t// in\n    tag_246:\n        /* \"#utility.yul\":7689:7761   */\n      tag_247\n        /* \"#utility.yul\":7757:7759   */\n      0x60\n        /* \"#utility.yul\":7746:7755   */\n      dup4\n        /* \"#utility.yul\":7742:7760   */\n      add\n        /* \"#utility.yul\":7733:7739   */\n      dup6\n        /* \"#utility.yul\":7689:7761   */\n      tag_131\n      jump\t// in\n    tag_247:\n        /* \"#utility.yul\":7771:7838   */\n      tag_248\n        /* \"#utility.yul\":7833:7836   */\n      0x80\n        /* \"#utility.yul\":7822:7831   */\n      dup4\n        /* \"#utility.yul\":7818:7837   */\n      add\n        /* \"#utility.yul\":7809:7815   */\n      dup5\n        /* \"#utility.yul\":7771:7838   */\n      tag_133\n      jump\t// in\n    tag_248:\n        /* \"#utility.yul\":7193:7845   */\n      swap7\n      swap6\n      pop\n      pop\n      pop\n      pop\n      pop\n      pop\n      jump\t// out\n        /* \"#utility.yul\":7851:8073   */\n    tag_37:\n        /* \"#utility.yul\":7944:7948   */\n      0x00\n        /* \"#utility.yul\":7982:7984   */\n      0x20\n        /* \"#utility.yul\":7971:7980   */\n      dup3\n        /* \"#utility.yul\":7967:7985   */\n      add\n        /* \"#utility.yul\":7959:7985   */\n      swap1\n      pop\n        /* \"#utility.yul\":7995:8066   */\n      tag_250\n        /* \"#utility.yul\":8063:8064   */\n      0x00\n        /* \"#utility.yul\":8052:8061   */\n      dup4\n        /* \"#utility.yul\":8048:8065   */\n      add\n        /* \"#utility.yul\":8039:8045   */\n      dup5\n        /* \"#utility.yul\":7995:8066   */\n      tag_131\n      jump\t// in\n    tag_250:\n        /* \"#utility.yul\":7851:8073   */\n      swap3\n      swap2\n      pop\n      pop\n      jump\t// out\n        /* \"#utility.yul\":8079:8217   */\n    tag_134:\n        /* \"#utility.yul\":8170:8176   */\n      0x00\n        /* \"#utility.yul\":8204:8209   */\n      dup2\n        /* \"#utility.yul\":8198:8210   */\n      mload\n        /* \"#utility.yul\":8188:8210   */\n      swap1\n      pop\n        /* \"#utility.yul\":8079:8217   */\n      swap2\n      swap1\n      pop\n      jump\t// out\n        /* \"#utility.yul\":8223:8431   */\n    tag_135:\n        /* \"#utility.yul\":8346:8357   */\n      0x00\n        /* \"#utility.yul\":8380:8386   */\n      dup3\n        /* \"#utility.yul\":8375:8378   */\n      dup3\n        /* \"#utility.yul\":8368:8387   */\n      mstore\n        /* \"#utility.yul\":8420:8424   */\n      0x20\n        /* \"#utility.yul\":8415:8418   */\n      dup3\n        /* \"#utility.yul\":8411:8425   */\n      add\n        /* \"#utility.yul\":8396:8425   */\n      swap1\n      pop\n        /* \"#utility.yul\":8223:8431   */\n      swap3\n      swap2\n      pop\n      pop\n      jump\t// out\n        /* \"#utility.yul\":8437:8593   */\n    tag_136:\n        /* \"#utility.yul\":8528:8532   */\n      0x00\n        /* \"#utility.yul\":8551:8554   */\n      dup2\n        /* \"#utility.yul\":8543:8554   */\n      swap1\n      pop\n        /* \"#utility.yul\":8581:8585   */\n      0x20\n        /* \"#utility.yul\":8576:8579   */\n      dup3\n        /* \"#utility.yul\":8572:8586   */\n      add\n        /* \"#utility.yul\":8564:8586   */\n      swap1\n      pop\n        /* \"#utility.yul\":8437:8593   */\n      swap2\n      swap1\n      pop\n      jump\t// out\n        /* \"#utility.yul\":8599:8707   */\n    tag_137:\n        /* \"#utility.yul\":8676:8700   */\n      tag_255\n        /* \"#utility.yul\":8694:8699   */\n      dup2\n        /* \"#utility.yul\":8676:8700   */\n      tag_108\n      jump\t// in\n    tag_255:\n        /* \"#utility.yul\":8671:8674   */\n      dup3\n        /* \"#utility.yul\":8664:8701   */\n      mstore\n        /* \"#utility.yul\":8599:8707   */\n      pop\n      pop\n      jump\t// out\n        /* \"#utility.yul\":8713:8821   */\n    tag_138:\n        /* \"#utility.yul\":8790:8814   */\n      tag_257\n        /* \"#utility.yul\":8808:8813   */\n      dup2\n        /* \"#utility.yul\":8790:8814   */\n      tag_111\n      jump\t// in\n    tag_257:\n        /* \"#utility.yul\":8785:8788   */\n      dup3\n        /* \"#utility.yul\":8778:8815   */\n      mstore\n        /* \"#utility.yul\":8713:8821   */\n      pop\n      pop\n      jump\t// out\n        /* \"#utility.yul\":8827:8926   */\n    tag_139:\n        /* \"#utility.yul\":8898:8919   */\n      tag_259\n        /* \"#utility.yul\":8913:8918   */\n      dup2\n        /* \"#utility.yul\":8898:8919   */\n      tag_132\n      jump\t// in\n    tag_259:\n        /* \"#utility.yul\":8893:8896   */\n      dup3\n        /* \"#utility.yul\":8886:8920   */\n      mstore\n        /* \"#utility.yul\":8827:8926   */\n      pop\n      pop\n      jump\t// out\n        /* \"#utility.yul\":8992:10020   */\n    tag_140:\n        /* \"#utility.yul\":9127:9131   */\n      0xa0\n        /* \"#utility.yul\":9122:9125   */\n      dup3\n        /* \"#utility.yul\":9118:9132   */\n      add\n        /* \"#utility.yul\":9216:9220   */\n      0x00\n        /* \"#utility.yul\":9209:9214   */\n      dup3\n        /* \"#utility.yul\":9205:9221   */\n      add\n        /* \"#utility.yul\":9199:9222   */\n      mload\n        /* \"#utility.yul\":9235:9298   */\n      tag_261\n        /* \"#utility.yul\":9292:9296   */\n      0x00\n        /* \"#utility.yul\":9287:9290   */\n      dup6\n        /* \"#utility.yul\":9283:9297   */\n      add\n        /* \"#utility.yul\":9269:9281   */\n      dup3\n        /* \"#utility.yul\":9235:9298   */\n      tag_137\n      jump\t// in\n    tag_261:\n        /* \"#utility.yul\":9142:9308   */\n      pop\n        /* \"#utility.yul\":9397:9401   */\n      0x20\n        /* \"#utility.yul\":9390:9395   */\n      dup3\n        /* \"#utility.yul\":9386:9402   */\n      add\n        /* \"#utility.yul\":9380:9403   */\n      mload\n        /* \"#utility.yul\":9416:9479   */\n      tag_262\n        /* \"#utility.yul\":9473:9477   */\n      0x20\n        /* \"#utility.yul\":9468:9471   */\n      dup6\n        /* \"#utility.yul\":9464:9478   */\n      add\n        /* \"#utility.yul\":9450:9462   */\n      dup3\n        /* \"#utility.yul\":9416:9479   */\n      tag_137\n      jump\t// in\n    tag_262:\n        /* \"#utility.yul\":9318:9489   */\n      pop\n        /* \"#utility.yul\":9574:9578   */\n      0x40\n        /* \"#utility.yul\":9567:9572   */\n      dup3\n        /* \"#utility.yul\":9563:9579   */\n      add\n        /* \"#utility.yul\":9557:9580   */\n      mload\n        /* \"#utility.yul\":9593:9656   */\n      tag_263\n        /* \"#utility.yul\":9650:9654   */\n      0x40\n        /* \"#utility.yul\":9645:9648   */\n      dup6\n        /* \"#utility.yul\":9641:9655   */\n      add\n        /* \"#utility.yul\":9627:9639   */\n      dup3\n        /* \"#utility.yul\":9593:9656   */\n      tag_138\n      jump\t// in\n    tag_263:\n        /* \"#utility.yul\":9499:9666   */\n      pop\n        /* \"#utility.yul\":9749:9753   */\n      0x60\n        /* \"#utility.yul\":9742:9747   */\n      dup3\n        /* \"#utility.yul\":9738:9754   */\n      add\n        /* \"#utility.yul\":9732:9755   */\n      mload\n        /* \"#utility.yul\":9768:9831   */\n      tag_264\n        /* \"#utility.yul\":9825:9829   */\n      0x60\n        /* \"#utility.yul\":9820:9823   */\n      dup6\n        /* \"#utility.yul\":9816:9830   */\n      add\n        /* \"#utility.yul\":9802:9814   */\n      dup3\n        /* \"#utility.yul\":9768:9831   */\n      tag_138\n      jump\t// in\n    tag_264:\n        /* \"#utility.yul\":9676:9841   */\n      pop\n        /* \"#utility.yul\":9927:9931   */\n      0x80\n        /* \"#utility.yul\":9920:9925   */\n      dup3\n        /* \"#utility.yul\":9916:9932   */\n      add\n        /* \"#utility.yul\":9910:9933   */\n      mload\n        /* \"#utility.yul\":9946:10003   */\n      tag_265\n        /* \"#utility.yul\":9997:10001   */\n      0x80\n        /* \"#utility.yul\":9992:9995   */\n      dup6\n        /* \"#utility.yul\":9988:10002   */\n      add\n        /* \"#utility.yul\":9974:9986   */\n      dup3\n        /* \"#utility.yul\":9946:10003   */\n      tag_139\n      jump\t// in\n    tag_265:\n        /* \"#utility.yul\":9851:10013   */\n      pop\n        /* \"#utility.yul\":9096:10020   */\n      pop\n        /* \"#utility.yul\":8992:10020   */\n      pop\n      pop\n      jump\t// out\n        /* \"#utility.yul\":10026:10301   */\n    tag_141:\n        /* \"#utility.yul\":10143:10153   */\n      0x00\n        /* \"#utility.yul\":10164:10258   */\n      tag_267\n        /* \"#utility.yul\":10254:10257   */\n      dup4\n        /* \"#utility.yul\":10246:10252   */\n      dup4\n        /* \"#utility.yul\":10164:10258   */\n      tag_140\n      jump\t// in\n    tag_267:\n        /* \"#utility.yul\":10290:10294   */\n      0xa0\n        /* \"#utility.yul\":10285:10288   */\n      dup4\n        /* \"#utility.yul\":10281:10295   */\n      add\n        /* \"#utility.yul\":10267:10295   */\n      swap1\n      pop\n        /* \"#utility.yul\":10026:10301   */\n      swap3\n      swap2\n      pop\n      pop\n      jump\t// out\n        /* \"#utility.yul\":10307:10444   */\n    tag_142:\n        /* \"#utility.yul\":10401:10405   */\n      0x00\n        /* \"#utility.yul\":10433:10437   */\n      0x20\n        /* \"#utility.yul\":10428:10431   */\n      dup3\n        /* \"#utility.yul\":10424:10438   */\n      add\n        /* \"#utility.yul\":10416:10438   */\n      swap1\n      pop\n        /* \"#utility.yul\":10307:10444   */\n      swap2\n      swap1\n      pop\n      jump\t// out\n        /* \"#utility.yul\":10514:11438   */\n    tag_143:\n        /* \"#utility.yul\":10681:10684   */\n      0x00\n        /* \"#utility.yul\":10710:10788   */\n      tag_270\n        /* \"#utility.yul\":10782:10787   */\n      dup3\n        /* \"#utility.yul\":10710:10788   */\n      tag_134\n      jump\t// in\n    tag_270:\n        /* \"#utility.yul\":10804:10914   */\n      tag_271\n        /* \"#utility.yul\":10907:10913   */\n      dup2\n        /* \"#utility.yul\":10902:10905   */\n      dup6\n        /* \"#utility.yul\":10804:10914   */\n      tag_135\n      jump\t// in\n    tag_271:\n        /* \"#utility.yul\":10797:10914   */\n      swap4\n      pop\n        /* \"#utility.yul\":10938:11018   */\n      tag_272\n        /* \"#utility.yul\":11012:11017   */\n      dup4\n        /* \"#utility.yul\":10938:11018   */\n      tag_136\n      jump\t// in\n    tag_272:\n        /* \"#utility.yul\":11041:11048   */\n      dup1\n        /* \"#utility.yul\":11072:11073   */\n      0x00\n        /* \"#utility.yul\":11057:11413   */\n    tag_273:\n        /* \"#utility.yul\":11082:11088   */\n      dup4\n        /* \"#utility.yul\":11079:11080   */\n      dup2\n        /* \"#utility.yul\":11076:11089   */\n      lt\n        /* \"#utility.yul\":11057:11413   */\n      iszero\n      tag_275\n      jumpi\n        /* \"#utility.yul\":11158:11164   */\n      dup2\n        /* \"#utility.yul\":11152:11165   */\n      mload\n        /* \"#utility.yul\":11185:11296   */\n      tag_276\n        /* \"#utility.yul\":11292:11295   */\n      dup9\n        /* \"#utility.yul\":11277:11290   */\n      dup3\n        /* \"#utility.yul\":11185:11296   */\n      tag_141\n      jump\t// in\n    tag_276:\n        /* \"#utility.yul\":11178:11296   */\n      swap8\n      pop\n        /* \"#utility.yul\":11319:11403   */\n      tag_277\n        /* \"#utility.yul\":11396:11402   */\n      dup4\n        /* \"#utility.yul\":11319:11403   */\n      tag_142\n      jump\t// in\n    tag_277:\n        /* \"#utility.yul\":11309:11403   */\n      swap3\n      pop\n        /* \"#utility.yul\":11117:11413   */\n      pop\n        /* \"#utility.yul\":11104:11105   */\n      0x01\n        /* \"#utility.yul\":11101:11102   */\n      dup2\n        /* \"#utility.yul\":11097:11106   */\n      add\n        /* \"#utility.yul\":11092:11106   */\n      swap1\n      pop\n        /* \"#utility.yul\":11057:11413   */\n      jump(tag_273)\n    tag_275:\n        /* \"#utility.yul\":11061:11075   */\n      pop\n        /* \"#utility.yul\":11429:11432   */\n      dup6\n        /* \"#utility.yul\":11422:11432   */\n      swap4\n      pop\n        /* \"#utility.yul\":10686:11438   */\n      pop\n      pop\n      pop\n        /* \"#utility.yul\":10514:11438   */\n      swap3\n      swap2\n      pop\n      pop\n      jump\t// out\n        /* \"#utility.yul\":11444:11913   */\n    tag_41:\n        /* \"#utility.yul\":11635:11639   */\n      0x00\n        /* \"#utility.yul\":11673:11675   */\n      0x20\n        /* \"#utility.yul\":11662:11671   */\n      dup3\n        /* \"#utility.yul\":11658:11676   */\n      add\n        /* \"#utility.yul\":11650:11676   */\n      swap1\n      pop\n        /* \"#utility.yul\":11722:11731   */\n      dup2\n        /* \"#utility.yul\":11716:11720   */\n      dup2\n        /* \"#utility.yul\":11712:11732   */\n      sub\n        /* \"#utility.yul\":11708:11709   */\n      0x00\n        /* \"#utility.yul\":11697:11706   */\n      dup4\n        /* \"#utility.yul\":11693:11710   */\n      add\n        /* \"#utility.yul\":11686:11733   */\n      mstore\n        /* \"#utility.yul\":11750:11906   */\n      tag_279\n        /* \"#utility.yul\":11901:11905   */\n      dup2\n        /* \"#utility.yul\":11892:11898   */\n      dup5\n        /* \"#utility.yul\":11750:11906   */\n      tag_143\n      jump\t// in\n    tag_279:\n        /* \"#utility.yul\":11742:11906   */\n      swap1\n      pop\n        /* \"#utility.yul\":11444:11913   */\n      swap3\n      swap2\n      pop\n      pop\n      jump\t// out\n        /* \"#utility.yul\":11919:12088   */\n    tag_144:\n        /* \"#utility.yul\":12003:12014   */\n      0x00\n        /* \"#utility.yul\":12037:12043   */\n      dup3\n        /* \"#utility.yul\":12032:12035   */\n      dup3\n        /* \"#utility.yul\":12025:12044   */\n      mstore\n        /* \"#utility.yul\":12077:12081   */\n      0x20\n        /* \"#utility.yul\":12072:12075   */\n      dup3\n        /* \"#utility.yul\":12068:12082   */\n      add\n        /* \"#utility.yul\":12053:12082   */\n      swap1\n      pop\n        /* \"#utility.yul\":11919:12088   */\n      swap3\n      swap2\n      pop\n      pop\n      jump\t// out\n        /* \"#utility.yul\":12094:12262   */\n    tag_145:\n        /* \"#utility.yul\":12234:12254   */\n      0x6974656d206973206e6f74206c69737465640000000000000000000000000000\n        /* \"#utility.yul\":12230:12231   */\n      0x00\n        /* \"#utility.yul\":12222:12228   */\n      dup3\n        /* \"#utility.yul\":12218:12232   */\n      add\n        /* \"#utility.yul\":12211:12255   */\n      mstore\n        /* \"#utility.yul\":12094:12262   */\n      pop\n      jump\t// out\n        /* \"#utility.yul\":12268:12634   */\n    tag_146:\n        /* \"#utility.yul\":12410:12413   */\n      0x00\n        /* \"#utility.yul\":12431:12498   */\n      tag_283\n        /* \"#utility.yul\":12495:12497   */\n      0x12\n        /* \"#utility.yul\":12490:12493   */\n      dup4\n        /* \"#utility.yul\":12431:12498   */\n      tag_144\n      jump\t// in\n    tag_283:\n        /* \"#utility.yul\":12424:12498   */\n      swap2\n      pop\n        /* \"#utility.yul\":12507:12600   */\n      tag_284\n        /* \"#utility.yul\":12596:12599   */\n      dup3\n        /* \"#utility.yul\":12507:12600   */\n      tag_145\n      jump\t// in\n    tag_284:\n        /* \"#utility.yul\":12625:12627   */\n      0x20\n        /* \"#utility.yul\":12620:12623   */\n      dup3\n        /* \"#utility.yul\":12616:12628   */\n      add\n        /* \"#utility.yul\":12609:12628   */\n      swap1\n      pop\n        /* \"#utility.yul\":12268:12634   */\n      swap2\n      swap1\n      pop\n      jump\t// out\n        /* \"#utility.yul\":12640:13059   */\n    tag_49:\n        /* \"#utility.yul\":12806:12810   */\n      0x00\n        /* \"#utility.yul\":12844:12846   */\n      0x20\n        /* \"#utility.yul\":12833:12842   */\n      dup3\n        /* \"#utility.yul\":12829:12847   */\n      add\n        /* \"#utility.yul\":12821:12847   */\n      swap1\n      pop\n        /* \"#utility.yul\":12893:12902   */\n      dup2\n        /* \"#utility.yul\":12887:12891   */\n      dup2\n        /* \"#utility.yul\":12883:12903   */\n      sub\n        /* \"#utility.yul\":12879:12880   */\n      0x00\n        /* \"#utility.yul\":12868:12877   */\n      dup4\n        /* \"#utility.yul\":12864:12881   */\n      add\n        /* \"#utility.yul\":12857:12904   */\n      mstore\n        /* \"#utility.yul\":12921:13052   */\n      tag_286\n        /* \"#utility.yul\":13047:13051   */\n      dup2\n        /* \"#utility.yul\":12921:13052   */\n      tag_146\n      jump\t// in\n    tag_286:\n        /* \"#utility.yul\":12913:13052   */\n      swap1\n      pop\n        /* \"#utility.yul\":12640:13059   */\n      swap2\n      swap1\n      pop\n      jump\t// out\n        /* \"#utility.yul\":13065:13507   */\n    tag_51:\n        /* \"#utility.yul\":13214:13218   */\n      0x00\n        /* \"#utility.yul\":13252:13254   */\n      0x60\n        /* \"#utility.yul\":13241:13250   */\n      dup3\n        /* \"#utility.yul\":13237:13255   */\n      add\n        /* \"#utility.yul\":13229:13255   */\n      swap1\n      pop\n        /* \"#utility.yul\":13265:13336   */\n      tag_288\n        /* \"#utility.yul\":13333:13334   */\n      0x00\n        /* \"#utility.yul\":13322:13331   */\n      dup4\n        /* \"#utility.yul\":13318:13335   */\n      add\n        /* \"#utility.yul\":13309:13315   */\n      dup7\n        /* \"#utility.yul\":13265:13336   */\n      tag_130\n      jump\t// in\n    tag_288:\n        /* \"#utility.yul\":13346:13418   */\n      tag_289\n        /* \"#utility.yul\":13414:13416   */\n      0x20\n        /* \"#utility.yul\":13403:13412   */\n      dup4\n        /* \"#utility.yul\":13399:13417   */\n      add\n        /* \"#utility.yul\":13390:13396   */\n      dup6\n        /* \"#utility.yul\":13346:13418   */\n      tag_130\n      jump\t// in\n    tag_289:\n        /* \"#utility.yul\":13428:13500   */\n      tag_290\n        /* \"#utility.yul\":13496:13498   */\n      0x40\n        /* \"#utility.yul\":13485:13494   */\n      dup4\n        /* \"#utility.yul\":13481:13499   */\n      add\n        /* \"#utility.yul\":13472:13478   */\n      dup5\n        /* \"#utility.yul\":13428:13500   */\n      tag_131\n      jump\t// in\n    tag_290:\n        /* \"#utility.yul\":13065:13507   */\n      swap5\n      swap4\n      pop\n      pop\n      pop\n      pop\n      jump\t// out\n        /* \"#utility.yul\":13513:13629   */\n    tag_147:\n        /* \"#utility.yul\":13583:13604   */\n      tag_292\n        /* \"#utility.yul\":13598:13603   */\n      dup2\n        /* \"#utility.yul\":13583:13604   */\n      tag_132\n      jump\t// in\n    tag_292:\n        /* \"#utility.yul\":13576:13581   */\n      dup2\n        /* \"#utility.yul\":13573:13605   */\n      eq\n        /* \"#utility.yul\":13563:13623   */\n      tag_293\n      jumpi\n        /* \"#utility.yul\":13619:13620   */\n      0x00\n        /* \"#utility.yul\":13616:13617   */\n      dup1\n        /* \"#utility.yul\":13609:13621   */\n      revert\n        /* \"#utility.yul\":13563:13623   */\n    tag_293:\n        /* \"#utility.yul\":13513:13629   */\n      pop\n      jump\t// out\n        /* \"#utility.yul\":13635:13772   */\n    tag_148:\n        /* \"#utility.yul\":13689:13694   */\n      0x00\n        /* \"#utility.yul\":13720:13726   */\n      dup2\n        /* \"#utility.yul\":13714:13727   */\n      mload\n        /* \"#utility.yul\":13705:13727   */\n      swap1\n      pop\n        /* \"#utility.yul\":13736:13766   */\n      tag_295\n        /* \"#utility.yul\":13760:13765   */\n      dup2\n        /* \"#utility.yul\":13736:13766   */\n      tag_147\n      jump\t// in\n    tag_295:\n        /* \"#utility.yul\":13635:13772   */\n      swap3\n      swap2\n      pop\n      pop\n      jump\t// out\n        /* \"#utility.yul\":13778:14123   */\n    tag_55:\n        /* \"#utility.yul\":13845:13851   */\n      0x00\n        /* \"#utility.yul\":13894:13896   */\n      0x20\n        /* \"#utility.yul\":13882:13891   */\n      dup3\n        /* \"#utility.yul\":13873:13880   */\n      dup5\n        /* \"#utility.yul\":13869:13892   */\n      sub\n        /* \"#utility.yul\":13865:13897   */\n      slt\n        /* \"#utility.yul\":13862:13981   */\n      iszero\n      tag_297\n      jumpi\n        /* \"#utility.yul\":13900:13979   */\n      tag_298\n      tag_105\n      jump\t// in\n    tag_298:\n        /* \"#utility.yul\":13862:13981   */\n    tag_297:\n        /* \"#utility.yul\":14020:14021   */\n      0x00\n        /* \"#utility.yul\":14045:14106   */\n      tag_299\n        /* \"#utility.yul\":14098:14105   */\n      dup5\n        /* \"#utility.yul\":14089:14095   */\n      dup3\n        /* \"#utility.yul\":14078:14087   */\n      dup6\n        /* \"#utility.yul\":14074:14096   */\n      add\n        /* \"#utility.yul\":14045:14106   */\n      tag_148\n      jump\t// in\n    tag_299:\n        /* \"#utility.yul\":14035:14106   */\n      swap2\n      pop\n        /* \"#utility.yul\":13991:14116   */\n      pop\n        /* \"#utility.yul\":13778:14123   */\n      swap3\n      swap2\n      pop\n      pop\n      jump\t// out\n        /* \"#utility.yul\":14129:14293   */\n    tag_149:\n        /* \"#utility.yul\":14269:14285   */\n      0x5061796d656e74206661696c6564000000000000000000000000000000000000\n        /* \"#utility.yul\":14265:14266   */\n      0x00\n        /* \"#utility.yul\":14257:14263   */\n      dup3\n        /* \"#utility.yul\":14253:14267   */\n      add\n        /* \"#utility.yul\":14246:14286   */\n      mstore\n        /* \"#utility.yul\":14129:14293   */\n      pop\n      jump\t// out\n        /* \"#utility.yul\":14299:14665   */\n    tag_150:\n        /* \"#utility.yul\":14441:14444   */\n      0x00\n        /* \"#utility.yul\":14462:14529   */\n      tag_302\n        /* \"#utility.yul\":14526:14528   */\n      0x0e\n        /* \"#utility.yul\":14521:14524   */\n      dup4\n        /* \"#utility.yul\":14462:14529   */\n      tag_144\n      jump\t// in\n    tag_302:\n        /* \"#utility.yul\":14455:14529   */\n      swap2\n      pop\n        /* \"#utility.yul\":14538:14631   */\n      tag_303\n        /* \"#utility.yul\":14627:14630   */\n      dup3\n        /* \"#utility.yul\":14538:14631   */\n      tag_149\n      jump\t// in\n    tag_303:\n        /* \"#utility.yul\":14656:14658   */\n      0x20\n        /* \"#utility.yul\":14651:14654   */\n      dup3\n        /* \"#utility.yul\":14647:14659   */\n      add\n        /* \"#utility.yul\":14640:14659   */\n      swap1\n      pop\n        /* \"#utility.yul\":14299:14665   */\n      swap2\n      swap1\n      pop\n      jump\t// out\n        /* \"#utility.yul\":14671:15090   */\n    tag_58:\n        /* \"#utility.yul\":14837:14841   */\n      0x00\n        /* \"#utility.yul\":14875:14877   */\n      0x20\n        /* \"#utility.yul\":14864:14873   */\n      dup3\n        /* \"#utility.yul\":14860:14878   */\n      add\n        /* \"#utility.yul\":14852:14878   */\n      swap1\n      pop\n        /* \"#utility.yul\":14924:14933   */\n      dup2\n        /* \"#utility.yul\":14918:14922   */\n      dup2\n        /* \"#utility.yul\":14914:14934   */\n      sub\n        /* \"#utility.yul\":14910:14911   */\n      0x00\n        /* \"#utility.yul\":14899:14908   */\n      dup4\n        /* \"#utility.yul\":14895:14912   */\n      add\n        /* \"#utility.yul\":14888:14935   */\n      mstore\n        /* \"#utility.yul\":14952:15083   */\n      tag_305\n        /* \"#utility.yul\":15078:15082   */\n      dup2\n        /* \"#utility.yul\":14952:15083   */\n      tag_150\n      jump\t// in\n    tag_305:\n        /* \"#utility.yul\":14944:15083   */\n      swap1\n      pop\n        /* \"#utility.yul\":14671:15090   */\n      swap2\n      swap1\n      pop\n      jump\t// out\n        /* \"#utility.yul\":15096:15760   */\n    tag_64:\n        /* \"#utility.yul\":15301:15305   */\n      0x00\n        /* \"#utility.yul\":15339:15342   */\n      0xa0\n        /* \"#utility.yul\":15328:15337   */\n      dup3\n        /* \"#utility.yul\":15324:15343   */\n      add\n        /* \"#utility.yul\":15316:15343   */\n      swap1\n      pop\n        /* \"#utility.yul\":15353:15424   */\n      tag_307\n        /* \"#utility.yul\":15421:15422   */\n      0x00\n        /* \"#utility.yul\":15410:15419   */\n      dup4\n        /* \"#utility.yul\":15406:15423   */\n      add\n        /* \"#utility.yul\":15397:15403   */\n      dup9\n        /* \"#utility.yul\":15353:15424   */\n      tag_130\n      jump\t// in\n    tag_307:\n        /* \"#utility.yul\":15434:15506   */\n      tag_308\n        /* \"#utility.yul\":15502:15504   */\n      0x20\n        /* \"#utility.yul\":15491:15500   */\n      dup4\n        /* \"#utility.yul\":15487:15505   */\n      add\n        /* \"#utility.yul\":15478:15484   */\n      dup8\n        /* \"#utility.yul\":15434:15506   */\n      tag_130\n      jump\t// in\n    tag_308:\n        /* \"#utility.yul\":15516:15588   */\n      tag_309\n        /* \"#utility.yul\":15584:15586   */\n      0x40\n        /* \"#utility.yul\":15573:15582   */\n      dup4\n        /* \"#utility.yul\":15569:15587   */\n      add\n        /* \"#utility.yul\":15560:15566   */\n      dup7\n        /* \"#utility.yul\":15516:15588   */\n      tag_131\n      jump\t// in\n    tag_309:\n        /* \"#utility.yul\":15598:15670   */\n      tag_310\n        /* \"#utility.yul\":15666:15668   */\n      0x60\n        /* \"#utility.yul\":15655:15664   */\n      dup4\n        /* \"#utility.yul\":15651:15669   */\n      add\n        /* \"#utility.yul\":15642:15648   */\n      dup6\n        /* \"#utility.yul\":15598:15670   */\n      tag_131\n      jump\t// in\n    tag_310:\n        /* \"#utility.yul\":15680:15753   */\n      tag_311\n        /* \"#utility.yul\":15748:15751   */\n      0x80\n        /* \"#utility.yul\":15737:15746   */\n      dup4\n        /* \"#utility.yul\":15733:15752   */\n      add\n        /* \"#utility.yul\":15724:15730   */\n      dup5\n        /* \"#utility.yul\":15680:15753   */\n      tag_131\n      jump\t// in\n    tag_311:\n        /* \"#utility.yul\":15096:15760   */\n      swap7\n      swap6\n      pop\n      pop\n      pop\n      pop\n      pop\n      pop\n      jump\t// out\n        /* \"#utility.yul\":15766:15929   */\n    tag_151:\n        /* \"#utility.yul\":15906:15921   */\n      0x4e6f204e4654206c697374656400000000000000000000000000000000000000\n        /* \"#utility.yul\":15902:15903   */\n      0x00\n        /* \"#utility.yul\":15894:15900   */\n      dup3\n        /* \"#utility.yul\":15890:15904   */\n      add\n        /* \"#utility.yul\":15883:15922   */\n      mstore\n        /* \"#utility.yul\":15766:15929   */\n      pop\n      jump\t// out\n        /* \"#utility.yul\":15935:16301   */\n    tag_152:\n        /* \"#utility.yul\":16077:16080   */\n      0x00\n        /* \"#utility.yul\":16098:16165   */\n      tag_314\n        /* \"#utility.yul\":16162:16164   */\n      0x0d\n        /* \"#utility.yul\":16157:16160   */\n      dup4\n        /* \"#utility.yul\":16098:16165   */\n      tag_144\n      jump\t// in\n    tag_314:\n        /* \"#utility.yul\":16091:16165   */\n      swap2\n      pop\n        /* \"#utility.yul\":16174:16267   */\n      tag_315\n        /* \"#utility.yul\":16263:16266   */\n      dup3\n        /* \"#utility.yul\":16174:16267   */\n      tag_151\n      jump\t// in\n    tag_315:\n        /* \"#utility.yul\":16292:16294   */\n      0x20\n        /* \"#utility.yul\":16287:16290   */\n      dup3\n        /* \"#utility.yul\":16283:16295   */\n      add\n        /* \"#utility.yul\":16276:16295   */\n      swap1\n      pop\n        /* \"#utility.yul\":15935:16301   */\n      swap2\n      swap1\n      pop\n      jump\t// out\n        /* \"#utility.yul\":16307:16726   */\n    tag_83:\n        /* \"#utility.yul\":16473:16477   */\n      0x00\n        /* \"#utility.yul\":16511:16513   */\n      0x20\n        /* \"#utility.yul\":16500:16509   */\n      dup3\n        /* \"#utility.yul\":16496:16514   */\n      add\n        /* \"#utility.yul\":16488:16514   */\n      swap1\n      pop\n        /* \"#utility.yul\":16560:16569   */\n      dup2\n        /* \"#utility.yul\":16554:16558   */\n      dup2\n        /* \"#utility.yul\":16550:16570   */\n      sub\n        /* \"#utility.yul\":16546:16547   */\n      0x00\n        /* \"#utility.yul\":16535:16544   */\n      dup4\n        /* \"#utility.yul\":16531:16548   */\n      add\n        /* \"#utility.yul\":16524:16571   */\n      mstore\n        /* \"#utility.yul\":16588:16719   */\n      tag_317\n        /* \"#utility.yul\":16714:16718   */\n      dup2\n        /* \"#utility.yul\":16588:16719   */\n      tag_152\n      jump\t// in\n    tag_317:\n        /* \"#utility.yul\":16580:16719   */\n      swap1\n      pop\n        /* \"#utility.yul\":16307:16726   */\n      swap2\n      swap1\n      pop\n      jump\t// out\n        /* \"#utility.yul\":16732:16912   */\n    tag_96:\n        /* \"#utility.yul\":16780:16857   */\n      0x4e487b7100000000000000000000000000000000000000000000000000000000\n        /* \"#utility.yul\":16777:16778   */\n      0x00\n        /* \"#utility.yul\":16770:16858   */\n      mstore\n        /* \"#utility.yul\":16877:16881   */\n      0x32\n        /* \"#utility.yul\":16874:16875   */\n      0x04\n        /* \"#utility.yul\":16867:16882   */\n      mstore\n        /* \"#utility.yul\":16901:16905   */\n      0x24\n        /* \"#utility.yul\":16898:16899   */\n      0x00\n        /* \"#utility.yul\":16891:16906   */\n      revert\n        /* \"#utility.yul\":16918:17099   */\n    tag_153:\n        /* \"#utility.yul\":17058:17091   */\n      0x5265656e7472616e637947756172643a207265656e7472616e742063616c6c00\n        /* \"#utility.yul\":17054:17055   */\n      0x00\n        /* \"#utility.yul\":17046:17052   */\n      dup3\n        /* \"#utility.yul\":17042:17056   */\n      add\n        /* \"#utility.yul\":17035:17092   */\n      mstore\n        /* \"#utility.yul\":16918:17099   */\n      pop\n      jump\t// out\n        /* \"#utility.yul\":17105:17471   */\n    tag_154:\n        /* \"#utility.yul\":17247:17250   */\n      0x00\n        /* \"#utility.yul\":17268:17335   */\n      tag_321\n        /* \"#utility.yul\":17332:17334   */\n      0x1f\n        /* \"#utility.yul\":17327:17330   */\n      dup4\n        /* \"#utility.yul\":17268:17335   */\n      tag_144\n      jump\t// in\n    tag_321:\n        /* \"#utility.yul\":17261:17335   */\n      swap2\n      pop\n        /* \"#utility.yul\":17344:17437   */\n      tag_322\n        /* \"#utility.yul\":17433:17436   */\n      dup3\n        /* \"#utility.yul\":17344:17437   */\n      tag_153\n      jump\t// in\n    tag_322:\n        /* \"#utility.yul\":17462:17464   */\n      0x20\n        /* \"#utility.yul\":17457:17460   */\n      dup3\n        /* \"#utility.yul\":17453:17465   */\n      add\n        /* \"#utility.yul\":17446:17465   */\n      swap1\n      pop\n        /* \"#utility.yul\":17105:17471   */\n      swap2\n      swap1\n      pop\n      jump\t// out\n        /* \"#utility.yul\":17477:17896   */\n    tag_100:\n        /* \"#utility.yul\":17643:17647   */\n      0x00\n        /* \"#utility.yul\":17681:17683   */\n      0x20\n        /* \"#utility.yul\":17670:17679   */\n      dup3\n        /* \"#utility.yul\":17666:17684   */\n      add\n        /* \"#utility.yul\":17658:17684   */\n      swap1\n      pop\n        /* \"#utility.yul\":17730:17739   */\n      dup2\n        /* \"#utility.yul\":17724:17728   */\n      dup2\n        /* \"#utility.yul\":17720:17740   */\n      sub\n        /* \"#utility.yul\":17716:17717   */\n      0x00\n        /* \"#utility.yul\":17705:17714   */\n      dup4\n        /* \"#utility.yul\":17701:17718   */\n      add\n        /* \"#utility.yul\":17694:17741   */\n      mstore\n        /* \"#utility.yul\":17758:17889   */\n      tag_324\n        /* \"#utility.yul\":17884:17888   */\n      dup2\n        /* \"#utility.yul\":17758:17889   */\n      tag_154\n      jump\t// in\n    tag_324:\n        /* \"#utility.yul\":17750:17889   */\n      swap1\n      pop\n        /* \"#utility.yul\":17477:17896   */\n      swap2\n      swap1\n      pop\n      jump\t// out\n\n    auxdata: 0xa26469706673582212209eaf1e0a2d729bf79f643c1a09b7147f530cba1837176b4cb49f7df05becb42564736f6c634300081a0033\n}\n",
				"bytecode": {
					"linkReferences": {},
					"object": "608060405234801561000f575f80fd5b506040516112f93803806112f9833981810160405281019061003191906100dc565b60015f819055508060025f6101000a81548173ffffffffffffffffffffffffffffffffffffffff021916908373ffffffffffffffffffffffffffffffffffffffff16021790555050610107565b5f80fd5b5f73ffffffffffffffffffffffffffffffffffffffff82169050919050565b5f6100ab82610082565b9050919050565b6100bb816100a1565b81146100c5575f80fd5b50565b5f815190506100d6816100b2565b92915050565b5f602082840312156100f1576100f061007e565b5b5f6100fe848285016100c8565b91505092915050565b6111e5806101145f395ff3fe608060405234801561000f575f80fd5b506004361061007b575f3560e01c8063ad05f1b411610059578063ad05f1b4146100e9578063de74e57b14610105578063efbbab6814610139578063f337b21a146101575761007b565b8063150b7a021461007f578063150bde03146100af578063451c3d80146100cb575b5f80fd5b61009960048036038101906100949190610b38565b610175565b6040516100a69190610bf2565b60405180910390f35b6100c960048036038101906100c49190610c0b565b610188565b005b6100d3610419565b6040516100e09190610c91565b60405180910390f35b61010360048036038101906100fe9190610caa565b61043e565b005b61011f600480360381019061011a9190610c0b565b61062b565b604051610130959493929190610d32565b60405180910390f35b6101416106a7565b60405161014e9190610d83565b60405180910390f35b61015f6106b7565b60405161016c9190610ed7565b60405180910390f35b5f63150b7a0260e01b9050949350505050565b610190610890565b5f60035f8381526020019081526020015f209050806004015f9054906101000a900460ff166101f4576040517f08c379a00000000000000000000000000000000000000000000000000000000081526004016101eb90610f51565b60405180910390fd5b60025f9054906101000a900473ffffffffffffffffffffffffffffffffffffffff1673ffffffffffffffffffffffffffffffffffffffff166323b872dd33835f015f9054906101000a900473ffffffffffffffffffffffffffffffffffffffff1684600301546040518463ffffffff1660e01b815260040161027893929190610f6f565b6020604051808303815f875af1158015610294573d5f803e3d5ffd5b505050506040513d601f19601f820116820180604052508101906102b89190610fce565b6102f7576040517f08c379a00000000000000000000000000000000000000000000000000000000081526004016102ee90611043565b60405180910390fd5b806001015f9054906101000a900473ffffffffffffffffffffffffffffffffffffffff1673ffffffffffffffffffffffffffffffffffffffff166342842e0e303384600201546040518463ffffffff1660e01b815260040161035b93929190610f6f565b5f604051808303815f87803b158015610372575f80fd5b505af1158015610384573d5f803e3d5ffd5b505050505f816004015f6101000a81548160ff0219169083151502179055507f5e30839b97c387668ed51dfcb165ba2ba51d4419c8bed70caab08cbb2f33069533826001015f9054906101000a900473ffffffffffffffffffffffffffffffffffffffff168360020154846003015486604051610405959493929190611061565b60405180910390a1506104166108dd565b50565b60025f9054906101000a900473ffffffffffffffffffffffffffffffffffffffff1681565b5f61044960016108e6565b905061045560016108f2565b8373ffffffffffffffffffffffffffffffffffffffff166323b872dd3330866040518463ffffffff1660e01b815260040161049293929190610f6f565b5f604051808303815f87803b1580156104a9575f80fd5b505af11580156104bb573d5f803e3d5ffd5b505050506040518060a001604052803373ffffffffffffffffffffffffffffffffffffffff1681526020018573ffffffffffffffffffffffffffffffffffffffff1681526020018481526020018381526020016001151581525060035f8381526020019081526020015f205f820151815f015f6101000a81548173ffffffffffffffffffffffffffffffffffffffff021916908373ffffffffffffffffffffffffffffffffffffffff1602179055506020820151816001015f6101000a81548173ffffffffffffffffffffffffffffffffffffffff021916908373ffffffffffffffffffffffffffffffffffffffff16021790555060408201518160020155606082015181600301556080820151816004015f6101000a81548160ff0219169083151502179055509050507f68eb44e4f5811045b1dff635024aa6dffafa88a68571f2b6f85cd2adb0799040338585858560405161061d959493929190611061565b60405180910390a150505050565b6003602052805f5260405f205f91509050805f015f9054906101000a900473ffffffffffffffffffffffffffffffffffffffff1690806001015f9054906101000a900473ffffffffffffffffffffffffffffffffffffffff1690806002015490806003015490806004015f9054906101000a900460ff16905085565b5f6106b260016108e6565b905090565b60605f6106c460016108e6565b90505f8111610708576040517f08c379a00000000000000000000000000000000000000000000000000000000081526004016106ff906110fc565b60405180910390fd5b5f8167ffffffffffffffff81111561072357610722610a14565b5b60405190808252806020026020018201604052801561075c57816020015b610749610906565b8152602001906001900390816107415790505b5090505f5b828110156108875760035f8281526020019081526020015f206040518060a00160405290815f82015f9054906101000a900473ffffffffffffffffffffffffffffffffffffffff1673ffffffffffffffffffffffffffffffffffffffff1673ffffffffffffffffffffffffffffffffffffffff168152602001600182015f9054906101000a900473ffffffffffffffffffffffffffffffffffffffff1673ffffffffffffffffffffffffffffffffffffffff1673ffffffffffffffffffffffffffffffffffffffff1681526020016002820154815260200160038201548152602001600482015f9054906101000a900460ff16151515158152505082828151811061086f5761086e61111a565b5b60200260200101819052508080600101915050610761565b50809250505090565b60025f54036108d4576040517f08c379a00000000000000000000000000000000000000000000000000000000081526004016108cb90611191565b60405180910390fd5b60025f81905550565b60015f81905550565b5f815f01549050919050565b6001815f015f828254019250508190555050565b6040518060a001604052805f73ffffffffffffffffffffffffffffffffffffffff1681526020015f73ffffffffffffffffffffffffffffffffffffffff1681526020015f81526020015f81526020015f151581525090565b5f604051905090565b5f80fd5b5f80fd5b5f73ffffffffffffffffffffffffffffffffffffffff82169050919050565b5f6109988261096f565b9050919050565b6109a88161098e565b81146109b2575f80fd5b50565b5f813590506109c38161099f565b92915050565b5f819050919050565b6109db816109c9565b81146109e5575f80fd5b50565b5f813590506109f6816109d2565b92915050565b5f80fd5b5f80fd5b5f601f19601f8301169050919050565b7f4e487b71000000000000000000000000000000000000000000000000000000005f52604160045260245ffd5b610a4a82610a04565b810181811067ffffffffffffffff82111715610a6957610a68610a14565b5b80604052505050565b5f610a7b61095e565b9050610a878282610a41565b919050565b5f67ffffffffffffffff821115610aa657610aa5610a14565b5b610aaf82610a04565b9050602081019050919050565b828183375f83830152505050565b5f610adc610ad784610a8c565b610a72565b905082815260208101848484011115610af857610af7610a00565b5b610b03848285610abc565b509392505050565b5f82601f830112610b1f57610b1e6109fc565b5b8135610b2f848260208601610aca565b91505092915050565b5f805f8060808587031215610b5057610b4f610967565b5b5f610b5d878288016109b5565b9450506020610b6e878288016109b5565b9350506040610b7f878288016109e8565b925050606085013567ffffffffffffffff811115610ba057610b9f61096b565b5b610bac87828801610b0b565b91505092959194509250565b5f7fffffffff0000000000000000000000000000000000000000000000000000000082169050919050565b610bec81610bb8565b82525050565b5f602082019050610c055f830184610be3565b92915050565b5f60208284031215610c2057610c1f610967565b5b5f610c2d848285016109e8565b91505092915050565b5f819050919050565b5f610c59610c54610c4f8461096f565b610c36565b61096f565b9050919050565b5f610c6a82610c3f565b9050919050565b5f610c7b82610c60565b9050919050565b610c8b81610c71565b82525050565b5f602082019050610ca45f830184610c82565b92915050565b5f805f60608486031215610cc157610cc0610967565b5b5f610cce868287016109b5565b9350506020610cdf868287016109e8565b9250506040610cf0868287016109e8565b9150509250925092565b610d038161098e565b82525050565b610d12816109c9565b82525050565b5f8115159050919050565b610d2c81610d18565b82525050565b5f60a082019050610d455f830188610cfa565b610d526020830187610cfa565b610d5f6040830186610d09565b610d6c6060830185610d09565b610d796080830184610d23565b9695505050505050565b5f602082019050610d965f830184610d09565b92915050565b5f81519050919050565b5f82825260208201905092915050565b5f819050602082019050919050565b610dce8161098e565b82525050565b610ddd816109c9565b82525050565b610dec81610d18565b82525050565b60a082015f820151610e065f850182610dc5565b506020820151610e196020850182610dc5565b506040820151610e2c6040850182610dd4565b506060820151610e3f6060850182610dd4565b506080820151610e526080850182610de3565b50505050565b5f610e638383610df2565b60a08301905092915050565b5f602082019050919050565b5f610e8582610d9c565b610e8f8185610da6565b9350610e9a83610db6565b805f5b83811015610eca578151610eb18882610e58565b9750610ebc83610e6f565b925050600181019050610e9d565b5085935050505092915050565b5f6020820190508181035f830152610eef8184610e7b565b905092915050565b5f82825260208201905092915050565b7f6974656d206973206e6f74206c697374656400000000000000000000000000005f82015250565b5f610f3b601283610ef7565b9150610f4682610f07565b602082019050919050565b5f6020820190508181035f830152610f6881610f2f565b9050919050565b5f606082019050610f825f830186610cfa565b610f8f6020830185610cfa565b610f9c6040830184610d09565b949350505050565b610fad81610d18565b8114610fb7575f80fd5b50565b5f81519050610fc881610fa4565b92915050565b5f60208284031215610fe357610fe2610967565b5b5f610ff084828501610fba565b91505092915050565b7f5061796d656e74206661696c65640000000000000000000000000000000000005f82015250565b5f61102d600e83610ef7565b915061103882610ff9565b602082019050919050565b5f6020820190508181035f83015261105a81611021565b9050919050565b5f60a0820190506110745f830188610cfa565b6110816020830187610cfa565b61108e6040830186610d09565b61109b6060830185610d09565b6110a86080830184610d09565b9695505050505050565b7f4e6f204e4654206c6973746564000000000000000000000000000000000000005f82015250565b5f6110e6600d83610ef7565b91506110f1826110b2565b602082019050919050565b5f6020820190508181035f830152611113816110da565b9050919050565b7f4e487b71000000000000000000000000000000000000000000000000000000005f52603260045260245ffd5b7f5265656e7472616e637947756172643a207265656e7472616e742063616c6c005f82015250565b5f61117b601f83610ef7565b915061118682611147565b602082019050919050565b5f6020820190508181035f8301526111a88161116f565b905091905056fea26469706673582212209eaf1e0a2d729bf79f643c1a09b7147f530cba1837176b4cb49f7df05becb42564736f6c634300081a0033",
					"opcodes": "PUSH1 0x80 PUSH1 0x40 MSTORE CALLVALUE DUP1 ISZERO PUSH2 0xF JUMPI PUSH0 DUP1 REVERT JUMPDEST POP PUSH1 0x40 MLOAD PUSH2 0x12F9 CODESIZE SUB DUP1 PUSH2 0x12F9 DUP4 CODECOPY DUP2 DUP2 ADD PUSH1 0x40 MSTORE DUP2 ADD SWAP1 PUSH2 0x31 SWAP2 SWAP1 PUSH2 0xDC JUMP JUMPDEST PUSH1 0x1 PUSH0 DUP2 SWAP1 SSTORE POP DUP1 PUSH1 0x2 PUSH0 PUSH2 0x100 EXP DUP2 SLOAD DUP2 PUSH20 0xFFFFFFFFFFFFFFFFFFFFFFFFFFFFFFFFFFFFFFFF MUL NOT AND SWAP1 DUP4 PUSH20 0xFFFFFFFFFFFFFFFFFFFFFFFFFFFFFFFFFFFFFFFF AND MUL OR SWAP1 SSTORE POP POP PUSH2 0x107 JUMP JUMPDEST PUSH0 DUP1 REVERT JUMPDEST PUSH0 PUSH20 0xFFFFFFFFFFFFFFFFFFFFFFFFFFFFFFFFFFFFFFFF DUP3 AND SWAP1 POP SWAP2 SWAP1 POP JUMP JUMPDEST PUSH0 PUSH2 0xAB DUP3 PUSH2 0x82 JUMP JUMPDEST SWAP1 POP SWAP2 SWAP1 POP JUMP JUMPDEST PUSH2 0xBB DUP2 PUSH2 0xA1 JUMP JUMPDEST DUP2 EQ PUSH2 0xC5 JUMPI PUSH0 DUP1 REVERT JUMPDEST POP JUMP JUMPDEST PUSH0 DUP2 MLOAD SWAP1 POP PUSH2 0xD6 DUP2 PUSH2 0xB2 JUMP JUMPDEST SWAP3 SWAP2 POP POP JUMP JUMPDEST PUSH0 PUSH1 0x20 DUP3 DUP5 SUB SLT ISZERO PUSH2 0xF1 JUMPI PUSH2 0xF0 PUSH2 0x7E JUMP JUMPDEST JUMPDEST PUSH0 PUSH2 0xFE DUP5 DUP3 DUP6 ADD PUSH2 0xC8 JUMP JUMPDEST SWAP2 POP POP SWAP3 SWAP2 POP POP JUMP JUMPDEST PUSH2 0x11E5 DUP1 PUSH2 0x114 PUSH0 CODECOPY PUSH0 RETURN INVALID PUSH1 0x80 PUSH1 0x40 MSTORE CALLVALUE DUP1 ISZERO PUSH2 0xF JUMPI PUSH0 DUP1 REVERT JUMPDEST POP PUSH1 0x4 CALLDATASIZE LT PUSH2 0x7B JUMPI PUSH0 CALLDATALOAD PUSH1 0xE0 SHR DUP1 PUSH4 0xAD05F1B4 GT PUSH2 0x59 JUMPI DUP1 PUSH4 0xAD05F1B4 EQ PUSH2 0xE9 JUMPI DUP1 PUSH4 0xDE74E57B EQ PUSH2 0x105 JUMPI DUP1 PUSH4 0xEFBBAB68 EQ PUSH2 0x139 JUMPI DUP1 PUSH4 0xF337B21A EQ PUSH2 0x157 JUMPI PUSH2 0x7B JUMP JUMPDEST DUP1 PUSH4 0x150B7A02 EQ PUSH2 0x7F JUMPI DUP1 PUSH4 0x150BDE03 EQ PUSH2 0xAF JUMPI DUP1 PUSH4 0x451C3D80 EQ PUSH2 0xCB JUMPI JUMPDEST PUSH0 DUP1 REVERT JUMPDEST PUSH2 0x99 PUSH1 0x4 DUP1 CALLDATASIZE SUB DUP2 ADD SWAP1 PUSH2 0x94 SWAP2 SWAP1 PUSH2 0xB38 JUMP JUMPDEST PUSH2 0x175 JUMP JUMPDEST PUSH1 0x40 MLOAD PUSH2 0xA6 SWAP2 SWAP1 PUSH2 0xBF2 JUMP JUMPDEST PUSH1 0x40 MLOAD DUP1 SWAP2 SUB SWAP1 RETURN JUMPDEST PUSH2 0xC9 PUSH1 0x4 DUP1 CALLDATASIZE SUB DUP2 ADD SWAP1 PUSH2 0xC4 SWAP2 SWAP1 PUSH2 0xC0B JUMP JUMPDEST PUSH2 0x188 JUMP JUMPDEST STOP JUMPDEST PUSH2 0xD3 PUSH2 0x419 JUMP JUMPDEST PUSH1 0x40 MLOAD PUSH2 0xE0 SWAP2 SWAP1 PUSH2 0xC91 JUMP JUMPDEST PUSH1 0x40 MLOAD DUP1 SWAP2 SUB SWAP1 RETURN JUMPDEST PUSH2 0x103 PUSH1 0x4 DUP1 CALLDATASIZE SUB DUP2 ADD SWAP1 PUSH2 0xFE SWAP2 SWAP1 PUSH2 0xCAA JUMP JUMPDEST PUSH2 0x43E JUMP JUMPDEST STOP JUMPDEST PUSH2 0x11F PUSH1 0x4 DUP1 CALLDATASIZE SUB DUP2 ADD SWAP1 PUSH2 0x11A SWAP2 SWAP1 PUSH2 0xC0B JUMP JUMPDEST PUSH2 0x62B JUMP JUMPDEST PUSH1 0x40 MLOAD PUSH2 0x130 SWAP6 SWAP5 SWAP4 SWAP3 SWAP2 SWAP1 PUSH2 0xD32 JUMP JUMPDEST PUSH1 0x40 MLOAD DUP1 SWAP2 SUB SWAP1 RETURN JUMPDEST PUSH2 0x141 PUSH2 0x6A7 JUMP JUMPDEST PUSH1 0x40 MLOAD PUSH2 0x14E SWAP2 SWAP1 PUSH2 0xD83 JUMP JUMPDEST PUSH1 0x40 MLOAD DUP1 SWAP2 SUB SWAP1 RETURN JUMPDEST PUSH2 0x15F PUSH2 0x6B7 JUMP JUMPDEST PUSH1 0x40 MLOAD PUSH2 0x16C SWAP2 SWAP1 PUSH2 0xED7 JUMP JUMPDEST PUSH1 0x40 MLOAD DUP1 SWAP2 SUB SWAP1 RETURN JUMPDEST PUSH0 PUSH4 0x150B7A02 PUSH1 0xE0 SHL SWAP1 POP SWAP5 SWAP4 POP POP POP POP JUMP JUMPDEST PUSH2 0x190 PUSH2 0x890 JUMP JUMPDEST PUSH0 PUSH1 0x3 PUSH0 DUP4 DUP2 MSTORE PUSH1 0x20 ADD SWAP1 DUP2 MSTORE PUSH1 0x20 ADD PUSH0 KECCAK256 SWAP1 POP DUP1 PUSH1 0x4 ADD PUSH0 SWAP1 SLOAD SWAP1 PUSH2 0x100 EXP SWAP1 DIV PUSH1 0xFF AND PUSH2 0x1F4 JUMPI PUSH1 0x40 MLOAD PUSH32 0x8C379A000000000000000000000000000000000000000000000000000000000 DUP2 MSTORE PUSH1 0x4 ADD PUSH2 0x1EB SWAP1 PUSH2 0xF51 JUMP JUMPDEST PUSH1 0x40 MLOAD DUP1 SWAP2 SUB SWAP1 REVERT JUMPDEST PUSH1 0x2 PUSH0 SWAP1 SLOAD SWAP1 PUSH2 0x100 EXP SWAP1 DIV PUSH20 0xFFFFFFFFFFFFFFFFFFFFFFFFFFFFFFFFFFFFFFFF AND PUSH20 0xFFFFFFFFFFFFFFFFFFFFFFFFFFFFFFFFFFFFFFFF AND PUSH4 0x23B872DD CALLER DUP4 PUSH0 ADD PUSH0 SWAP1 SLOAD SWAP1 PUSH2 0x100 EXP SWAP1 DIV PUSH20 0xFFFFFFFFFFFFFFFFFFFFFFFFFFFFFFFFFFFFFFFF AND DUP5 PUSH1 0x3 ADD SLOAD PUSH1 0x40 MLOAD DUP5 PUSH4 0xFFFFFFFF AND PUSH1 0xE0 SHL DUP2 MSTORE PUSH1 0x4 ADD PUSH2 0x278 SWAP4 SWAP3 SWAP2 SWAP1 PUSH2 0xF6F JUMP JUMPDEST PUSH1 0x20 PUSH1 0x40 MLOAD DUP1 DUP4 SUB DUP2 PUSH0 DUP8 GAS CALL ISZERO DUP1 ISZERO PUSH2 0x294 JUMPI RETURNDATASIZE PUSH0 DUP1 RETURNDATACOPY RETURNDATASIZE PUSH0 REVERT JUMPDEST POP POP POP POP PUSH1 0x40 MLOAD RETURNDATASIZE PUSH1 0x1F NOT PUSH1 0x1F DUP3 ADD AND DUP3 ADD DUP1 PUSH1 0x40 MSTORE POP DUP2 ADD SWAP1 PUSH2 0x2B8 SWAP2 SWAP1 PUSH2 0xFCE JUMP JUMPDEST PUSH2 0x2F7 JUMPI PUSH1 0x40 MLOAD PUSH32 0x8C379A000000000000000000000000000000000000000000000000000000000 DUP2 MSTORE PUSH1 0x4 ADD PUSH2 0x2EE SWAP1 PUSH2 0x1043 JUMP JUMPDEST PUSH1 0x40 MLOAD DUP1 SWAP2 SUB SWAP1 REVERT JUMPDEST DUP1 PUSH1 0x1 ADD PUSH0 SWAP1 SLOAD SWAP1 PUSH2 0x100 EXP SWAP1 DIV PUSH20 0xFFFFFFFFFFFFFFFFFFFFFFFFFFFFFFFFFFFFFFFF AND PUSH20 0xFFFFFFFFFFFFFFFFFFFFFFFFFFFFFFFFFFFFFFFF AND PUSH4 0x42842E0E ADDRESS CALLER DUP5 PUSH1 0x2 ADD SLOAD PUSH1 0x40 MLOAD DUP5 PUSH4 0xFFFFFFFF AND PUSH1 0xE0 SHL DUP2 MSTORE PUSH1 0x4 ADD PUSH2 0x35B SWAP4 SWAP3 SWAP2 SWAP1 PUSH2 0xF6F JUMP JUMPDEST PUSH0 PUSH1 0x40 MLOAD DUP1 DUP4 SUB DUP2 PUSH0 DUP8 DUP1 EXTCODESIZE ISZERO DUP1 ISZERO PUSH2 0x372 JUMPI PUSH0 DUP1 REVERT JUMPDEST POP GAS CALL ISZERO DUP1 ISZERO PUSH2 0x384 JUMPI RETURNDATASIZE PUSH0 DUP1 RETURNDATACOPY RETURNDATASIZE PUSH0 REVERT JUMPDEST POP POP POP POP PUSH0 DUP2 PUSH1 0x4 ADD PUSH0 PUSH2 0x100 EXP DUP2 SLOAD DUP2 PUSH1 0xFF MUL NOT AND SWAP1 DUP4 ISZERO ISZERO MUL OR SWAP1 SSTORE POP PUSH32 0x5E30839B97C387668ED51DFCB165BA2BA51D4419C8BED70CAAB08CBB2F330695 CALLER DUP3 PUSH1 0x1 ADD PUSH0 SWAP1 SLOAD SWAP1 PUSH2 0x100 EXP SWAP1 DIV PUSH20 0xFFFFFFFFFFFFFFFFFFFFFFFFFFFFFFFFFFFFFFFF AND DUP4 PUSH1 0x2 ADD SLOAD DUP5 PUSH1 0x3 ADD SLOAD DUP7 PUSH1 0x40 MLOAD PUSH2 0x405 SWAP6 SWAP5 SWAP4 SWAP3 SWAP2 SWAP1 PUSH2 0x1061 JUMP JUMPDEST PUSH1 0x40 MLOAD DUP1 SWAP2 SUB SWAP1 LOG1 POP PUSH2 0x416 PUSH2 0x8DD JUMP JUMPDEST POP JUMP JUMPDEST PUSH1 0x2 PUSH0 SWAP1 SLOAD SWAP1 PUSH2 0x100 EXP SWAP1 DIV PUSH20 0xFFFFFFFFFFFFFFFFFFFFFFFFFFFFFFFFFFFFFFFF AND DUP2 JUMP JUMPDEST PUSH0 PUSH2 0x449 PUSH1 0x1 PUSH2 0x8E6 JUMP JUMPDEST SWAP1 POP PUSH2 0x455 PUSH1 0x1 PUSH2 0x8F2 JUMP JUMPDEST DUP4 PUSH20 0xFFFFFFFFFFFFFFFFFFFFFFFFFFFFFFFFFFFFFFFF AND PUSH4 0x23B872DD CALLER ADDRESS DUP7 PUSH1 0x40 MLOAD DUP5 PUSH4 0xFFFFFFFF AND PUSH1 0xE0 SHL DUP2 MSTORE PUSH1 0x4 ADD PUSH2 0x492 SWAP4 SWAP3 SWAP2 SWAP1 PUSH2 0xF6F JUMP JUMPDEST PUSH0 PUSH1 0x40 MLOAD DUP1 DUP4 SUB DUP2 PUSH0 DUP8 DUP1 EXTCODESIZE ISZERO DUP1 ISZERO PUSH2 0x4A9 JUMPI PUSH0 DUP1 REVERT JUMPDEST POP GAS CALL ISZERO DUP1 ISZERO PUSH2 0x4BB JUMPI RETURNDATASIZE PUSH0 DUP1 RETURNDATACOPY RETURNDATASIZE PUSH0 REVERT JUMPDEST POP POP POP POP PUSH1 0x40 MLOAD DUP1 PUSH1 0xA0 ADD PUSH1 0x40 MSTORE DUP1 CALLER PUSH20 0xFFFFFFFFFFFFFFFFFFFFFFFFFFFFFFFFFFFFFFFF AND DUP2 MSTORE PUSH1 0x20 ADD DUP6 PUSH20 0xFFFFFFFFFFFFFFFFFFFFFFFFFFFFFFFFFFFFFFFF AND DUP2 MSTORE PUSH1 0x20 ADD DUP5 DUP2 MSTORE PUSH1 0x20 ADD DUP4 DUP2 MSTORE PUSH1 0x20 ADD PUSH1 0x1 ISZERO ISZERO DUP2 MSTORE POP PUSH1 0x3 PUSH0 DUP4 DUP2 MSTORE PUSH1 0x20 ADD SWAP1 DUP2 MSTORE PUSH1 0x20 ADD PUSH0 KECCAK256 PUSH0 DUP3 ADD MLOAD DUP2 PUSH0 ADD PUSH0 PUSH2 0x100 EXP DUP2 SLOAD DUP2 PUSH20 0xFFFFFFFFFFFFFFFFFFFFFFFFFFFFFFFFFFFFFFFF MUL NOT AND SWAP1 DUP4 PUSH20 0xFFFFFFFFFFFFFFFFFFFFFFFFFFFFFFFFFFFFFFFF AND MUL OR SWAP1 SSTORE POP PUSH1 0x20 DUP3 ADD MLOAD DUP2 PUSH1 0x1 ADD PUSH0 PUSH2 0x100 EXP DUP2 SLOAD DUP2 PUSH20 0xFFFFFFFFFFFFFFFFFFFFFFFFFFFFFFFFFFFFFFFF MUL NOT AND SWAP1 DUP4 PUSH20 0xFFFFFFFFFFFFFFFFFFFFFFFFFFFFFFFFFFFFFFFF AND MUL OR SWAP1 SSTORE POP PUSH1 0x40 DUP3 ADD MLOAD DUP2 PUSH1 0x2 ADD SSTORE PUSH1 0x60 DUP3 ADD MLOAD DUP2 PUSH1 0x3 ADD SSTORE PUSH1 0x80 DUP3 ADD MLOAD DUP2 PUSH1 0x4 ADD PUSH0 PUSH2 0x100 EXP DUP2 SLOAD DUP2 PUSH1 0xFF MUL NOT AND SWAP1 DUP4 ISZERO ISZERO MUL OR SWAP1 SSTORE POP SWAP1 POP POP PUSH32 0x68EB44E4F5811045B1DFF635024AA6DFFAFA88A68571F2B6F85CD2ADB0799040 CALLER DUP6 DUP6 DUP6 DUP6 PUSH1 0x40 MLOAD PUSH2 0x61D SWAP6 SWAP5 SWAP4 SWAP3 SWAP2 SWAP1 PUSH2 0x1061 JUMP JUMPDEST PUSH1 0x40 MLOAD DUP1 SWAP2 SUB SWAP1 LOG1 POP POP POP POP JUMP JUMPDEST PUSH1 0x3 PUSH1 0x20 MSTORE DUP1 PUSH0 MSTORE PUSH1 0x40 PUSH0 KECCAK256 PUSH0 SWAP2 POP SWAP1 POP DUP1 PUSH0 ADD PUSH0 SWAP1 SLOAD SWAP1 PUSH2 0x100 EXP SWAP1 DIV PUSH20 0xFFFFFFFFFFFFFFFFFFFFFFFFFFFFFFFFFFFFFFFF AND SWAP1 DUP1 PUSH1 0x1 ADD PUSH0 SWAP1 SLOAD SWAP1 PUSH2 0x100 EXP SWAP1 DIV PUSH20 0xFFFFFFFFFFFFFFFFFFFFFFFFFFFFFFFFFFFFFFFF AND SWAP1 DUP1 PUSH1 0x2 ADD SLOAD SWAP1 DUP1 PUSH1 0x3 ADD SLOAD SWAP1 DUP1 PUSH1 0x4 ADD PUSH0 SWAP1 SLOAD SWAP1 PUSH2 0x100 EXP SWAP1 DIV PUSH1 0xFF AND SWAP1 POP DUP6 JUMP JUMPDEST PUSH0 PUSH2 0x6B2 PUSH1 0x1 PUSH2 0x8E6 JUMP JUMPDEST SWAP1 POP SWAP1 JUMP JUMPDEST PUSH1 0x60 PUSH0 PUSH2 0x6C4 PUSH1 0x1 PUSH2 0x8E6 JUMP JUMPDEST SWAP1 POP PUSH0 DUP2 GT PUSH2 0x708 JUMPI PUSH1 0x40 MLOAD PUSH32 0x8C379A000000000000000000000000000000000000000000000000000000000 DUP2 MSTORE PUSH1 0x4 ADD PUSH2 0x6FF SWAP1 PUSH2 0x10FC JUMP JUMPDEST PUSH1 0x40 MLOAD DUP1 SWAP2 SUB SWAP1 REVERT JUMPDEST PUSH0 DUP2 PUSH8 0xFFFFFFFFFFFFFFFF DUP2 GT ISZERO PUSH2 0x723 JUMPI PUSH2 0x722 PUSH2 0xA14 JUMP JUMPDEST JUMPDEST PUSH1 0x40 MLOAD SWAP1 DUP1 DUP3 MSTORE DUP1 PUSH1 0x20 MUL PUSH1 0x20 ADD DUP3 ADD PUSH1 0x40 MSTORE DUP1 ISZERO PUSH2 0x75C JUMPI DUP2 PUSH1 0x20 ADD JUMPDEST PUSH2 0x749 PUSH2 0x906 JUMP JUMPDEST DUP2 MSTORE PUSH1 0x20 ADD SWAP1 PUSH1 0x1 SWAP1 SUB SWAP1 DUP2 PUSH2 0x741 JUMPI SWAP1 POP JUMPDEST POP SWAP1 POP PUSH0 JUMPDEST DUP3 DUP2 LT ISZERO PUSH2 0x887 JUMPI PUSH1 0x3 PUSH0 DUP3 DUP2 MSTORE PUSH1 0x20 ADD SWAP1 DUP2 MSTORE PUSH1 0x20 ADD PUSH0 KECCAK256 PUSH1 0x40 MLOAD DUP1 PUSH1 0xA0 ADD PUSH1 0x40 MSTORE SWAP1 DUP2 PUSH0 DUP3 ADD PUSH0 SWAP1 SLOAD SWAP1 PUSH2 0x100 EXP SWAP1 DIV PUSH20 0xFFFFFFFFFFFFFFFFFFFFFFFFFFFFFFFFFFFFFFFF AND PUSH20 0xFFFFFFFFFFFFFFFFFFFFFFFFFFFFFFFFFFFFFFFF AND PUSH20 0xFFFFFFFFFFFFFFFFFFFFFFFFFFFFFFFFFFFFFFFF AND DUP2 MSTORE PUSH1 0x20 ADD PUSH1 0x1 DUP3 ADD PUSH0 SWAP1 SLOAD SWAP1 PUSH2 0x100 EXP SWAP1 DIV PUSH20 0xFFFFFFFFFFFFFFFFFFFFFFFFFFFFFFFFFFFFFFFF AND PUSH20 0xFFFFFFFFFFFFFFFFFFFFFFFFFFFFFFFFFFFFFFFF AND PUSH20 0xFFFFFFFFFFFFFFFFFFFFFFFFFFFFFFFFFFFFFFFF AND DUP2 MSTORE PUSH1 0x20 ADD PUSH1 0x2 DUP3 ADD SLOAD DUP2 MSTORE PUSH1 0x20 ADD PUSH1 0x3 DUP3 ADD SLOAD DUP2 MSTORE PUSH1 0x20 ADD PUSH1 0x4 DUP3 ADD PUSH0 SWAP1 SLOAD SWAP1 PUSH2 0x100 EXP SWAP1 DIV PUSH1 0xFF AND ISZERO ISZERO ISZERO ISZERO DUP2 MSTORE POP POP DUP3 DUP3 DUP2 MLOAD DUP2 LT PUSH2 0x86F JUMPI PUSH2 0x86E PUSH2 0x111A JUMP JUMPDEST JUMPDEST PUSH1 0x20 MUL PUSH1 0x20 ADD ADD DUP2 SWAP1 MSTORE POP DUP1 DUP1 PUSH1 0x1 ADD SWAP2 POP POP PUSH2 0x761 JUMP JUMPDEST POP DUP1 SWAP3 POP POP POP SWAP1 JUMP JUMPDEST PUSH1 0x2 PUSH0 SLOAD SUB PUSH2 0x8D4 JUMPI PUSH1 0x40 MLOAD PUSH32 0x8C379A000000000000000000000000000000000000000000000000000000000 DUP2 MSTORE PUSH1 0x4 ADD PUSH2 0x8CB SWAP1 PUSH2 0x1191 JUMP JUMPDEST PUSH1 0x40 MLOAD DUP1 SWAP2 SUB SWAP1 REVERT JUMPDEST PUSH1 0x2 PUSH0 DUP2 SWAP1 SSTORE POP JUMP JUMPDEST PUSH1 0x1 PUSH0 DUP2 SWAP1 SSTORE POP JUMP JUMPDEST PUSH0 DUP2 PUSH0 ADD SLOAD SWAP1 POP SWAP2 SWAP1 POP JUMP JUMPDEST PUSH1 0x1 DUP2 PUSH0 ADD PUSH0 DUP3 DUP3 SLOAD ADD SWAP3 POP POP DUP2 SWAP1 SSTORE POP POP JUMP JUMPDEST PUSH1 0x40 MLOAD DUP1 PUSH1 0xA0 ADD PUSH1 0x40 MSTORE DUP1 PUSH0 PUSH20 0xFFFFFFFFFFFFFFFFFFFFFFFFFFFFFFFFFFFFFFFF AND DUP2 MSTORE PUSH1 0x20 ADD PUSH0 PUSH20 0xFFFFFFFFFFFFFFFFFFFFFFFFFFFFFFFFFFFFFFFF AND DUP2 MSTORE PUSH1 0x20 ADD PUSH0 DUP2 MSTORE PUSH1 0x20 ADD PUSH0 DUP2 MSTORE PUSH1 0x20 ADD PUSH0 ISZERO ISZERO DUP2 MSTORE POP SWAP1 JUMP JUMPDEST PUSH0 PUSH1 0x40 MLOAD SWAP1 POP SWAP1 JUMP JUMPDEST PUSH0 DUP1 REVERT JUMPDEST PUSH0 DUP1 REVERT JUMPDEST PUSH0 PUSH20 0xFFFFFFFFFFFFFFFFFFFFFFFFFFFFFFFFFFFFFFFF DUP3 AND SWAP1 POP SWAP2 SWAP1 POP JUMP JUMPDEST PUSH0 PUSH2 0x998 DUP3 PUSH2 0x96F JUMP JUMPDEST SWAP1 POP SWAP2 SWAP1 POP JUMP JUMPDEST PUSH2 0x9A8 DUP2 PUSH2 0x98E JUMP JUMPDEST DUP2 EQ PUSH2 0x9B2 JUMPI PUSH0 DUP1 REVERT JUMPDEST POP JUMP JUMPDEST PUSH0 DUP2 CALLDATALOAD SWAP1 POP PUSH2 0x9C3 DUP2 PUSH2 0x99F JUMP JUMPDEST SWAP3 SWAP2 POP POP JUMP JUMPDEST PUSH0 DUP2 SWAP1 POP SWAP2 SWAP1 POP JUMP JUMPDEST PUSH2 0x9DB DUP2 PUSH2 0x9C9 JUMP JUMPDEST DUP2 EQ PUSH2 0x9E5 JUMPI PUSH0 DUP1 REVERT JUMPDEST POP JUMP JUMPDEST PUSH0 DUP2 CALLDATALOAD SWAP1 POP PUSH2 0x9F6 DUP2 PUSH2 0x9D2 JUMP JUMPDEST SWAP3 SWAP2 POP POP JUMP JUMPDEST PUSH0 DUP1 REVERT JUMPDEST PUSH0 DUP1 REVERT JUMPDEST PUSH0 PUSH1 0x1F NOT PUSH1 0x1F DUP4 ADD AND SWAP1 POP SWAP2 SWAP1 POP JUMP JUMPDEST PUSH32 0x4E487B7100000000000000000000000000000000000000000000000000000000 PUSH0 MSTORE PUSH1 0x41 PUSH1 0x4 MSTORE PUSH1 0x24 PUSH0 REVERT JUMPDEST PUSH2 0xA4A DUP3 PUSH2 0xA04 JUMP JUMPDEST DUP2 ADD DUP2 DUP2 LT PUSH8 0xFFFFFFFFFFFFFFFF DUP3 GT OR ISZERO PUSH2 0xA69 JUMPI PUSH2 0xA68 PUSH2 0xA14 JUMP JUMPDEST JUMPDEST DUP1 PUSH1 0x40 MSTORE POP POP POP JUMP JUMPDEST PUSH0 PUSH2 0xA7B PUSH2 0x95E JUMP JUMPDEST SWAP1 POP PUSH2 0xA87 DUP3 DUP3 PUSH2 0xA41 JUMP JUMPDEST SWAP2 SWAP1 POP JUMP JUMPDEST PUSH0 PUSH8 0xFFFFFFFFFFFFFFFF DUP3 GT ISZERO PUSH2 0xAA6 JUMPI PUSH2 0xAA5 PUSH2 0xA14 JUMP JUMPDEST JUMPDEST PUSH2 0xAAF DUP3 PUSH2 0xA04 JUMP JUMPDEST SWAP1 POP PUSH1 0x20 DUP2 ADD SWAP1 POP SWAP2 SWAP1 POP JUMP JUMPDEST DUP3 DUP2 DUP4 CALLDATACOPY PUSH0 DUP4 DUP4 ADD MSTORE POP POP POP JUMP JUMPDEST PUSH0 PUSH2 0xADC PUSH2 0xAD7 DUP5 PUSH2 0xA8C JUMP JUMPDEST PUSH2 0xA72 JUMP JUMPDEST SWAP1 POP DUP3 DUP2 MSTORE PUSH1 0x20 DUP2 ADD DUP5 DUP5 DUP5 ADD GT ISZERO PUSH2 0xAF8 JUMPI PUSH2 0xAF7 PUSH2 0xA00 JUMP JUMPDEST JUMPDEST PUSH2 0xB03 DUP5 DUP3 DUP6 PUSH2 0xABC JUMP JUMPDEST POP SWAP4 SWAP3 POP POP POP JUMP JUMPDEST PUSH0 DUP3 PUSH1 0x1F DUP4 ADD SLT PUSH2 0xB1F JUMPI PUSH2 0xB1E PUSH2 0x9FC JUMP JUMPDEST JUMPDEST DUP2 CALLDATALOAD PUSH2 0xB2F DUP5 DUP3 PUSH1 0x20 DUP7 ADD PUSH2 0xACA JUMP JUMPDEST SWAP2 POP POP SWAP3 SWAP2 POP POP JUMP JUMPDEST PUSH0 DUP1 PUSH0 DUP1 PUSH1 0x80 DUP6 DUP8 SUB SLT ISZERO PUSH2 0xB50 JUMPI PUSH2 0xB4F PUSH2 0x967 JUMP JUMPDEST JUMPDEST PUSH0 PUSH2 0xB5D DUP8 DUP3 DUP9 ADD PUSH2 0x9B5 JUMP JUMPDEST SWAP5 POP POP PUSH1 0x20 PUSH2 0xB6E DUP8 DUP3 DUP9 ADD PUSH2 0x9B5 JUMP JUMPDEST SWAP4 POP POP PUSH1 0x40 PUSH2 0xB7F DUP8 DUP3 DUP9 ADD PUSH2 0x9E8 JUMP JUMPDEST SWAP3 POP POP PUSH1 0x60 DUP6 ADD CALLDATALOAD PUSH8 0xFFFFFFFFFFFFFFFF DUP2 GT ISZERO PUSH2 0xBA0 JUMPI PUSH2 0xB9F PUSH2 0x96B JUMP JUMPDEST JUMPDEST PUSH2 0xBAC DUP8 DUP3 DUP9 ADD PUSH2 0xB0B JUMP JUMPDEST SWAP2 POP POP SWAP3 SWAP6 SWAP2 SWAP5 POP SWAP3 POP JUMP JUMPDEST PUSH0 PUSH32 0xFFFFFFFF00000000000000000000000000000000000000000000000000000000 DUP3 AND SWAP1 POP SWAP2 SWAP1 POP JUMP JUMPDEST PUSH2 0xBEC DUP2 PUSH2 0xBB8 JUMP JUMPDEST DUP3 MSTORE POP POP JUMP JUMPDEST PUSH0 PUSH1 0x20 DUP3 ADD SWAP1 POP PUSH2 0xC05 PUSH0 DUP4 ADD DUP5 PUSH2 0xBE3 JUMP JUMPDEST SWAP3 SWAP2 POP POP JUMP JUMPDEST PUSH0 PUSH1 0x20 DUP3 DUP5 SUB SLT ISZERO PUSH2 0xC20 JUMPI PUSH2 0xC1F PUSH2 0x967 JUMP JUMPDEST JUMPDEST PUSH0 PUSH2 0xC2D DUP5 DUP3 DUP6 ADD PUSH2 0x9E8 JUMP JUMPDEST SWAP2 POP POP SWAP3 SWAP2 POP POP JUMP JUMPDEST PUSH0 DUP2 SWAP1 POP SWAP2 SWAP1 POP JUMP JUMPDEST PUSH0 PUSH2 0xC59 PUSH2 0xC54 PUSH2 0xC4F DUP5 PUSH2 0x96F JUMP JUMPDEST PUSH2 0xC36 JUMP JUMPDEST PUSH2 0x96F JUMP JUMPDEST SWAP1 POP SWAP2 SWAP1 POP JUMP JUMPDEST PUSH0 PUSH2 0xC6A DUP3 PUSH2 0xC3F JUMP JUMPDEST SWAP1 POP SWAP2 SWAP1 POP JUMP JUMPDEST PUSH0 PUSH2 0xC7B DUP3 PUSH2 0xC60 JUMP JUMPDEST SWAP1 POP SWAP2 SWAP1 POP JUMP JUMPDEST PUSH2 0xC8B DUP2 PUSH2 0xC71 JUMP JUMPDEST DUP3 MSTORE POP POP JUMP JUMPDEST PUSH0 PUSH1 0x20 DUP3 ADD SWAP1 POP PUSH2 0xCA4 PUSH0 DUP4 ADD DUP5 PUSH2 0xC82 JUMP JUMPDEST SWAP3 SWAP2 POP POP JUMP JUMPDEST PUSH0 DUP1 PUSH0 PUSH1 0x60 DUP5 DUP7 SUB SLT ISZERO PUSH2 0xCC1 JUMPI PUSH2 0xCC0 PUSH2 0x967 JUMP JUMPDEST JUMPDEST PUSH0 PUSH2 0xCCE DUP7 DUP3 DUP8 ADD PUSH2 0x9B5 JUMP JUMPDEST SWAP4 POP POP PUSH1 0x20 PUSH2 0xCDF DUP7 DUP3 DUP8 ADD PUSH2 0x9E8 JUMP JUMPDEST SWAP3 POP POP PUSH1 0x40 PUSH2 0xCF0 DUP7 DUP3 DUP8 ADD PUSH2 0x9E8 JUMP JUMPDEST SWAP2 POP POP SWAP3 POP SWAP3 POP SWAP3 JUMP JUMPDEST PUSH2 0xD03 DUP2 PUSH2 0x98E JUMP JUMPDEST DUP3 MSTORE POP POP JUMP JUMPDEST PUSH2 0xD12 DUP2 PUSH2 0x9C9 JUMP JUMPDEST DUP3 MSTORE POP POP JUMP JUMPDEST PUSH0 DUP2 ISZERO ISZERO SWAP1 POP SWAP2 SWAP1 POP JUMP JUMPDEST PUSH2 0xD2C DUP2 PUSH2 0xD18 JUMP JUMPDEST DUP3 MSTORE POP POP JUMP JUMPDEST PUSH0 PUSH1 0xA0 DUP3 ADD SWAP1 POP PUSH2 0xD45 PUSH0 DUP4 ADD DUP9 PUSH2 0xCFA JUMP JUMPDEST PUSH2 0xD52 PUSH1 0x20 DUP4 ADD DUP8 PUSH2 0xCFA JUMP JUMPDEST PUSH2 0xD5F PUSH1 0x40 DUP4 ADD DUP7 PUSH2 0xD09 JUMP JUMPDEST PUSH2 0xD6C PUSH1 0x60 DUP4 ADD DUP6 PUSH2 0xD09 JUMP JUMPDEST PUSH2 0xD79 PUSH1 0x80 DUP4 ADD DUP5 PUSH2 0xD23 JUMP JUMPDEST SWAP7 SWAP6 POP POP POP POP POP POP JUMP JUMPDEST PUSH0 PUSH1 0x20 DUP3 ADD SWAP1 POP PUSH2 0xD96 PUSH0 DUP4 ADD DUP5 PUSH2 0xD09 JUMP JUMPDEST SWAP3 SWAP2 POP POP JUMP JUMPDEST PUSH0 DUP2 MLOAD SWAP1 POP SWAP2 SWAP1 POP JUMP JUMPDEST PUSH0 DUP3 DUP3 MSTORE PUSH1 0x20 DUP3 ADD SWAP1 POP SWAP3 SWAP2 POP POP JUMP JUMPDEST PUSH0 DUP2 SWAP1 POP PUSH1 0x20 DUP3 ADD SWAP1 POP SWAP2 SWAP1 POP JUMP JUMPDEST PUSH2 0xDCE DUP2 PUSH2 0x98E JUMP JUMPDEST DUP3 MSTORE POP POP JUMP JUMPDEST PUSH2 0xDDD DUP2 PUSH2 0x9C9 JUMP JUMPDEST DUP3 MSTORE POP POP JUMP JUMPDEST PUSH2 0xDEC DUP2 PUSH2 0xD18 JUMP JUMPDEST DUP3 MSTORE POP POP JUMP JUMPDEST PUSH1 0xA0 DUP3 ADD PUSH0 DUP3 ADD MLOAD PUSH2 0xE06 PUSH0 DUP6 ADD DUP3 PUSH2 0xDC5 JUMP JUMPDEST POP PUSH1 0x20 DUP3 ADD MLOAD PUSH2 0xE19 PUSH1 0x20 DUP6 ADD DUP3 PUSH2 0xDC5 JUMP JUMPDEST POP PUSH1 0x40 DUP3 ADD MLOAD PUSH2 0xE2C PUSH1 0x40 DUP6 ADD DUP3 PUSH2 0xDD4 JUMP JUMPDEST POP PUSH1 0x60 DUP3 ADD MLOAD PUSH2 0xE3F PUSH1 0x60 DUP6 ADD DUP3 PUSH2 0xDD4 JUMP JUMPDEST POP PUSH1 0x80 DUP3 ADD MLOAD PUSH2 0xE52 PUSH1 0x80 DUP6 ADD DUP3 PUSH2 0xDE3 JUMP JUMPDEST POP POP POP POP JUMP JUMPDEST PUSH0 PUSH2 0xE63 DUP4 DUP4 PUSH2 0xDF2 JUMP JUMPDEST PUSH1 0xA0 DUP4 ADD SWAP1 POP SWAP3 SWAP2 POP POP JUMP JUMPDEST PUSH0 PUSH1 0x20 DUP3 ADD SWAP1 POP SWAP2 SWAP1 POP JUMP JUMPDEST PUSH0 PUSH2 0xE85 DUP3 PUSH2 0xD9C JUMP JUMPDEST PUSH2 0xE8F DUP2 DUP6 PUSH2 0xDA6 JUMP JUMPDEST SWAP4 POP PUSH2 0xE9A DUP4 PUSH2 0xDB6 JUMP JUMPDEST DUP1 PUSH0 JUMPDEST DUP4 DUP2 LT ISZERO PUSH2 0xECA JUMPI DUP2 MLOAD PUSH2 0xEB1 DUP9 DUP3 PUSH2 0xE58 JUMP JUMPDEST SWAP8 POP PUSH2 0xEBC DUP4 PUSH2 0xE6F JUMP JUMPDEST SWAP3 POP POP PUSH1 0x1 DUP2 ADD SWAP1 POP PUSH2 0xE9D JUMP JUMPDEST POP DUP6 SWAP4 POP POP POP POP SWAP3 SWAP2 POP POP JUMP JUMPDEST PUSH0 PUSH1 0x20 DUP3 ADD SWAP1 POP DUP2 DUP2 SUB PUSH0 DUP4 ADD MSTORE PUSH2 0xEEF DUP2 DUP5 PUSH2 0xE7B JUMP JUMPDEST SWAP1 POP SWAP3 SWAP2 POP POP JUMP JUMPDEST PUSH0 DUP3 DUP3 MSTORE PUSH1 0x20 DUP3 ADD SWAP1 POP SWAP3 SWAP2 POP POP JUMP JUMPDEST PUSH32 0x6974656D206973206E6F74206C69737465640000000000000000000000000000 PUSH0 DUP3 ADD MSTORE POP JUMP JUMPDEST PUSH0 PUSH2 0xF3B PUSH1 0x12 DUP4 PUSH2 0xEF7 JUMP JUMPDEST SWAP2 POP PUSH2 0xF46 DUP3 PUSH2 0xF07 JUMP JUMPDEST PUSH1 0x20 DUP3 ADD SWAP1 POP SWAP2 SWAP1 POP JUMP JUMPDEST PUSH0 PUSH1 0x20 DUP3 ADD SWAP1 POP DUP2 DUP2 SUB PUSH0 DUP4 ADD MSTORE PUSH2 0xF68 DUP2 PUSH2 0xF2F JUMP JUMPDEST SWAP1 POP SWAP2 SWAP1 POP JUMP JUMPDEST PUSH0 PUSH1 0x60 DUP3 ADD SWAP1 POP PUSH2 0xF82 PUSH0 DUP4 ADD DUP7 PUSH2 0xCFA JUMP JUMPDEST PUSH2 0xF8F PUSH1 0x20 DUP4 ADD DUP6 PUSH2 0xCFA JUMP JUMPDEST PUSH2 0xF9C PUSH1 0x40 DUP4 ADD DUP5 PUSH2 0xD09 JUMP JUMPDEST SWAP5 SWAP4 POP POP POP POP JUMP JUMPDEST PUSH2 0xFAD DUP2 PUSH2 0xD18 JUMP JUMPDEST DUP2 EQ PUSH2 0xFB7 JUMPI PUSH0 DUP1 REVERT JUMPDEST POP JUMP JUMPDEST PUSH0 DUP2 MLOAD SWAP1 POP PUSH2 0xFC8 DUP2 PUSH2 0xFA4 JUMP JUMPDEST SWAP3 SWAP2 POP POP JUMP JUMPDEST PUSH0 PUSH1 0x20 DUP3 DUP5 SUB SLT ISZERO PUSH2 0xFE3 JUMPI PUSH2 0xFE2 PUSH2 0x967 JUMP JUMPDEST JUMPDEST PUSH0 PUSH2 0xFF0 DUP5 DUP3 DUP6 ADD PUSH2 0xFBA JUMP JUMPDEST SWAP2 POP POP SWAP3 SWAP2 POP POP JUMP JUMPDEST PUSH32 0x5061796D656E74206661696C6564000000000000000000000000000000000000 PUSH0 DUP3 ADD MSTORE POP JUMP JUMPDEST PUSH0 PUSH2 0x102D PUSH1 0xE DUP4 PUSH2 0xEF7 JUMP JUMPDEST SWAP2 POP PUSH2 0x1038 DUP3 PUSH2 0xFF9 JUMP JUMPDEST PUSH1 0x20 DUP3 ADD SWAP1 POP SWAP2 SWAP1 POP JUMP JUMPDEST PUSH0 PUSH1 0x20 DUP3 ADD SWAP1 POP DUP2 DUP2 SUB PUSH0 DUP4 ADD MSTORE PUSH2 0x105A DUP2 PUSH2 0x1021 JUMP JUMPDEST SWAP1 POP SWAP2 SWAP1 POP JUMP JUMPDEST PUSH0 PUSH1 0xA0 DUP3 ADD SWAP1 POP PUSH2 0x1074 PUSH0 DUP4 ADD DUP9 PUSH2 0xCFA JUMP JUMPDEST PUSH2 0x1081 PUSH1 0x20 DUP4 ADD DUP8 PUSH2 0xCFA JUMP JUMPDEST PUSH2 0x108E PUSH1 0x40 DUP4 ADD DUP7 PUSH2 0xD09 JUMP JUMPDEST PUSH2 0x109B PUSH1 0x60 DUP4 ADD DUP6 PUSH2 0xD09 JUMP JUMPDEST PUSH2 0x10A8 PUSH1 0x80 DUP4 ADD DUP5 PUSH2 0xD09 JUMP JUMPDEST SWAP7 SWAP6 POP POP POP POP POP POP JUMP JUMPDEST PUSH32 0x4E6F204E4654206C697374656400000000000000000000000000000000000000 PUSH0 DUP3 ADD MSTORE POP JUMP JUMPDEST PUSH0 PUSH2 0x10E6 PUSH1 0xD DUP4 PUSH2 0xEF7 JUMP JUMPDEST SWAP2 POP PUSH2 0x10F1 DUP3 PUSH2 0x10B2 JUMP JUMPDEST PUSH1 0x20 DUP3 ADD SWAP1 POP SWAP2 SWAP1 POP JUMP JUMPDEST PUSH0 PUSH1 0x20 DUP3 ADD SWAP1 POP DUP2 DUP2 SUB PUSH0 DUP4 ADD MSTORE PUSH2 0x1113 DUP2 PUSH2 0x10DA JUMP JUMPDEST SWAP1 POP SWAP2 SWAP1 POP JUMP JUMPDEST PUSH32 0x4E487B7100000000000000000000000000000000000000000000000000000000 PUSH0 MSTORE PUSH1 0x32 PUSH1 0x4 MSTORE PUSH1 0x24 PUSH0 REVERT JUMPDEST PUSH32 0x5265656E7472616E637947756172643A207265656E7472616E742063616C6C00 PUSH0 DUP3 ADD MSTORE POP JUMP JUMPDEST PUSH0 PUSH2 0x117B PUSH1 0x1F DUP4 PUSH2 0xEF7 JUMP JUMPDEST SWAP2 POP PUSH2 0x1186 DUP3 PUSH2 0x1147 JUMP JUMPDEST PUSH1 0x20 DUP3 ADD SWAP1 POP SWAP2 SWAP1 POP JUMP JUMPDEST PUSH0 PUSH1 0x20 DUP3 ADD SWAP1 POP DUP2 DUP2 SUB PUSH0 DUP4 ADD MSTORE PUSH2 0x11A8 DUP2 PUSH2 0x116F JUMP JUMPDEST SWAP1 POP SWAP2 SWAP1 POP JUMP INVALID LOG2 PUSH5 0x6970667358 0x22 SLT KECCAK256 SWAP15 0xAF 0x1E EXP 0x2D PUSH19 0x9BF79F643C1A09B7147F530CBA1837176B4CB4 SWAP16 PUSH30 0xF05BECB42564736F6C634300081A00330000000000000000000000000000 "
				},
				"gasEstimates": {
					"creation": {
						"codeDepositCost": "916200",
						"executionCost": "infinite",
						"totalCost": "infinite"
					},
					"external": {
						"acceptedToken()": "infinite",
						"getListedCount()": "2523",
						"getListedItem()": "infinite",
						"listNFT(address,uint256,uint256)": "infinite",
						"listings(uint256)": "infinite",
						"onERC721Received(address,address,uint256,bytes)": "infinite",
						"purchaseNFT(uint256)": "infinite"
					}
				},
				"methodIdentifiers": {
					"acceptedToken()": "451c3d80",
					"getListedCount()": "efbbab68",
					"getListedItem()": "f337b21a",
					"listNFT(address,uint256,uint256)": "ad05f1b4",
					"listings(uint256)": "de74e57b",
					"onERC721Received(address,address,uint256,bytes)": "150b7a02",
					"purchaseNFT(uint256)": "150bde03"
				}
			},
			"storageLayout": {
				"storage": [
					{
						"astId": 10,
						"contract": "NFTMarket.sol:NFTMarket",
						"label": "_status",
						"offset": 0,
						"slot": "0",
						"type": "t_uint256"
					},
					{
						"astId": 413,
						"contract": "NFTMarket.sol:NFTMarket",
						"label": "_listingIdCounter",
						"offset": 0,
						"slot": "1",
						"type": "t_struct(Counter)310_storage"
					},
					{
						"astId": 427,
						"contract": "NFTMarket.sol:NFTMarket",
						"label": "acceptedToken",
						"offset": 0,
						"slot": "2",
						"type": "t_contract(IERC20)142"
					},
					{
						"astId": 432,
						"contract": "NFTMarket.sol:NFTMarket",
						"label": "listings",
						"offset": 0,
						"slot": "3",
						"type": "t_mapping(t_uint256,t_struct(Listing)424_storage)"
					}
				],
				"types": {
					"t_address": {
						"encoding": "inplace",
						"label": "address",
						"numberOfBytes": "20"
					},
					"t_bool": {
						"encoding": "inplace",
						"label": "bool",
						"numberOfBytes": "1"
					},
					"t_contract(IERC20)142": {
						"encoding": "inplace",
						"label": "contract IERC20",
						"numberOfBytes": "20"
					},
					"t_mapping(t_uint256,t_struct(Listing)424_storage)": {
						"encoding": "mapping",
						"key": "t_uint256",
						"label": "mapping(uint256 => struct NFTMarket.Listing)",
						"numberOfBytes": "32",
						"value": "t_struct(Listing)424_storage"
					},
					"t_struct(Counter)310_storage": {
						"encoding": "inplace",
						"label": "struct Counters.Counter",
						"members": [
							{
								"astId": 309,
								"contract": "NFTMarket.sol:NFTMarket",
								"label": "_value",
								"offset": 0,
								"slot": "0",
								"type": "t_uint256"
							}
						],
						"numberOfBytes": "32"
					},
					"t_struct(Listing)424_storage": {
						"encoding": "inplace",
						"label": "struct NFTMarket.Listing",
						"members": [
							{
								"astId": 415,
								"contract": "NFTMarket.sol:NFTMarket",
								"label": "seller",
								"offset": 0,
								"slot": "0",
								"type": "t_address"
							},
							{
								"astId": 417,
								"contract": "NFTMarket.sol:NFTMarket",
								"label": "nftContract",
								"offset": 0,
								"slot": "1",
								"type": "t_address"
							},
							{
								"astId": 419,
								"contract": "NFTMarket.sol:NFTMarket",
								"label": "tokenId",
								"offset": 0,
								"slot": "2",
								"type": "t_uint256"
							},
							{
								"astId": 421,
								"contract": "NFTMarket.sol:NFTMarket",
								"label": "price",
								"offset": 0,
								"slot": "3",
								"type": "t_uint256"
							},
							{
								"astId": 423,
								"contract": "NFTMarket.sol:NFTMarket",
								"label": "isActive",
								"offset": 0,
								"slot": "4",
								"type": "t_bool"
							}
						],
						"numberOfBytes": "160"
					},
					"t_uint256": {
						"encoding": "inplace",
						"label": "uint256",
						"numberOfBytes": "32"
					}
				}
			},
			"userdoc": {
				"kind": "user",
				"methods": {},
				"version": 1
			}
		}
	}
}